:100000000C948A0B0C94B50B0C94B50B0C94B50B9B
:100010000C94B50B0C94B50B0C94B50B0C94B50B60
:100020000C94B50B0C94B50B0C9408900C94D48DD7
:100030000C94B50B0C94B50B0C94B50B0C94B50B40
:100040000C94B50B0C9453730C94B50B0C94B50B2A
:100050000C94B50B0C94B50B0C94707C0C94978C91
:100060000C94B50B0C94B50B0C94B50B0C94B50B10
:100070000C94B50B0C94B50B0C94B50B0C94B50B00
:100080000C94B50B0C94B50B0C94B50B0C94B50BF0
:100090000C94C3880C94B50B084AD73B3BCE016E39
:1000A00084BCBFFDC12F3D6C74319ABD56833DDACF
:1000B0003D00C77F11BED9E4BB4C3E916BAAAABEDE
:1000C000000000803F05A84CCDB2D44EB93836A907
:1000D000020C50B9918688083CA6AAAA2ABE000044
:1000E00000803F4D383420582059205A2045006563
:1000F00063686F3A0043616E6E6F7420656E74655D
:1001000072207375626469723A20004D3234004D7A
:100110003233202573006175746F25692E670045A1
:1001200072726F723A006572726F722077726974C0
:10013000696E6720746F2066696C65004E6F74206D
:100140005344207072696E74696E67002F005344C7
:10015000207072696E74696E672062797465200020
:100160002E0044656C6574696F6E206661696C650C
:10017000642C2046696C653A200046696C652064F1
:10018000656C657465643A002E006F70656E20665C
:1001900061696C65642C2046696C653A2000577271
:1001A0006974696E6720746F2066696C653A200017
:1001B0002E006F70656E206661696C65642C204648
:1001C000696C653A20002E006F70656E206661696B
:1001D0006C65642C2046696C653A200046696C6544
:1001E0002073656C6563746564002053697A653AB1
:1001F000200046696C65206F70656E65643A20006A
:100200002E006F70656E206661696C65642C2046F7
:10021000696C653A20004E6F7720667265736820BE
:1002200066696C653A20004E6F7720646F696E676F
:100230002066696C653A20002220706F73002220CE
:10024000706172656E743A2200535542524F555494
:10025000494E452043414C4C207461726765743AA5
:100260002200747279696E6720746F2063616C6C10
:10027000207375622D67636F64652066696C6573B2
:10028000207769746820746F6F206D616E79206CBF
:100290006576656C732E204D4158206C6576656CD3
:1002A0002069733A0053442063617264206F6B00CD
:1002B0006F70656E526F6F74206661696C65640063
:1002C000766F6C756D652E696E6974206661696CF8
:1002D000656400534420696E6974206661696C002E
:1002E0006563686F3A0048617264636F6465642097
:1002F00044656661756C742053657474696E6773C8
:10030000204C6F616465640053746F726564207380
:10031000657474696E677320726574726965766559
:100320006400205A0020590020204D3231312058DD
:10033000004D617820706F736974696F6E20286D4D
:100340006D293A00205A0020590020204D323130CA
:100350002058004D696E20706F736974696F6E204C
:10036000286D6D293A002044002049002020204DAE
:100370003330312050005049442073657474696EE5
:1003800067733A00205A0020590020204D32303641
:10039000205800486F6D65206F666673657420286D
:1003A0006D6D293A00204500205A00205800204257
:1003B0000020540020204D32303520530041647617
:1003C000616E636564207661726961626C65733A1F
:1003D00020533D4D696E20666565647261746520C9
:1003E000286D6D2F73292C20543D4D696E20747239
:1003F0006176656C20666565647261746520286D40
:100400006D2F73292C20423D6D696E696D756D20CD
:100410007365676D656E742074696D6520286D73F2
:10042000292C20583D6D6178696D756D20585920D3
:100430006A65726B20286D6D2F73292C20205A3D20
:100440006D6178696D756D205A206A65726B202820
:100450006D6D2F73292C2020453D6D6178696D7578
:100460006D2045206A65726B20286D6D2F73290001
:1004700020540020204D3230342053004163636506
:100480006C65726174696F6E3A20533D6163636598
:100490006C65726174696F6E2C20543D7265747264
:1004A00061637420616363656C65726174696F6E0A
:1004B00000204500205A0020590020204D323031C4
:1004C0002058004D6178696D756D20416363656CDE
:1004D00065726174696F6E20286D6D2F7332293AD1
:1004E00000204500205A0020590020204D32303392
:1004F0002058004D6178696D756D20666565647280
:100500006174657320286D6D2F73293A00204500B2
:10051000205A0020590020204D39322058005374B1
:100520006570732070657220756E69743A0053654A
:100530007474696E67732053746F726564006563C9
:10054000686F3A004572726F723A005072696E7449
:1005500065722073746F70706564206475652074B3
:100560006F206572726F72732E20466978207468EE
:1005700065206572726F7220616E642075736520EC
:100580004D39393920746F20726573746172742E1D
:10059000202854656D706572617475726520697389
:1005A0002072657365742E20536574206974206110
:1005B000667465722072657374617274696E6729FE
:1005C000005072696E7465722068616C7465642E87
:1005D000206B696C6C28292063616C6C6564210058
:1005E0006F6B00526573656E643A20002200556E91
:1005F0006B6E6F776E20636F6D6D616E643A202253
:1006000000655F6D61783A2000655F6D696E3A2024
:10061000007A5F6D61783A2000795F6D61783A20E9
:1006200000785F6D696E3A20005A3A00593A00200E
:10063000436F756E7420583A2000453A005A3A00CC
:10064000593A00583A002053455249414C5F4E55A3
:100650004D4245523A200020455854525544455287
:100660005F434F554E543A2000204D414348494E78
:10067000455F545950453A20002050524F544F4343
:100680004F4C5F56455253494F4E3A200020464941
:10069000524D574152455F55524C3A2000464952FF
:1006A0004D574152455F4E414D453A204D61726C68
:1006B000696E2056310020423A0020453A00543AF3
:1006C0000020573A0020453A00543A002042403A70
:1006D0000020403A00202F003A00205400202F0034
:1006E00020423A00202F006F6B20543A00256920E9
:1006F0006D696E2C2025692073656300456E64204A
:1007000066696C65206C69737400426567696E2068
:1007100066696C65206C69737400FF01010000A0BC
:10072000400000A0400000803F256920686F75727E
:1007300073202569206D696E7574657300446F6E52
:1007400065207072696E74696E672066696C6500F9
:100750005072696E7465722073746F707065642076
:1007600064756520746F206572726F72732E2046F7
:10077000697820746865206572726F7220616E649A
:1007800020757365204D39393920746F2072657377
:10079000746172742E202854656D70657261747571
:1007A00072652069732072657365742E20536574B9
:1007B0002069742061667465722072657374617259
:1007C00074696E6729006F6B004E6F204C696E650F
:1007D000204E756D62657220776974682063686564
:1007E000636B73756D2C204C617374204C696E655E
:1007F0003A20004E6F20436865636B73756D2077F8
:10080000697468206C696E65206E756D6265722C06
:10081000204C617374204C696E653A2000636865F2
:10082000636B73756D206D69736D617463682C20E3
:100830004C617374204C696E653A20004C696E659A
:10084000204E756D626572206973206E6F74204C46
:10085000617374204C696E65204E756D6265722BF4
:10086000312C204C617374204C696E653A20004D28
:1008700031313000446F6E6520736176696E672098
:1008800066696C652E006F6B004D32390020205078
:100890006C616E6E657242756666657242797465EA
:1008A000733A20002046726565204D656D6F727940
:1008B0003A20004D61792033302032303136004308
:1008C0006F6D70696C65643A20005072696E747265
:1008D000626F7400207C20417574686F723A20004A
:1008E0004D617920333020323031362031343A3185
:1008F000373A343200204C6173742055706461744F
:1009000065643A2000312E302E30004D61726C69E2
:100910006E200020536F6674776172652052657394
:10092000657400205761746368646F672052657353
:100930006574002042726F776E206F757420526567
:10094000736574002045787465726E616C20526521
:1009500073657400506F77657255700073746172BF
:1009600074002200656E717565696E672022002231
:1009700000656E717565696E672022007C3C3E5E85
:100980002B3D3F2F5B5D3B2C2A225C0045313A20FA
:100990000045303A20005A3A2000593A2000583A8F
:1009A00020004D53312C4D53322050696E730A0094
:1009B0006563686F3A0028002920453A002800291D
:1009C000205A3A0028002920593A00280020583A95
:1009D00000537465707065722063757272656E7411
:1009E0002076616C756573205B2528726177295DBF
:1009F0003A0024F404D9201BC40C5C0E9804C409EA
:100A00005F0265077101F405F900FB04B3004804B7
:100A10008700C10369005803550003034500BE0267
:100A20003A008402310053022A0029022500040200
:100A30002000E4011C00C8011900AF011700980153
:100A400014008401130071011000610110005101B4
:100A50000E0043010D0036010B002B010B0020019D
:100A60000B00150109000C01090003010800FB003F
:100A70000800F3000800EB000700E4000600DE00B9
:100A80000600D8000600D2000600CC000500C70012
:100A90000500C2000500BD000400B9000400B50057
:100AA0000400B1000400AD000400A9000400A5008A
:100AB0000300A20003009F0004009B0003009800B5
:100AC00003009500020093000300900003008D00D6
:100AD00002008B00030088000200860002008400F0
:100AE0000300810002007F0002007D0002007B0005
:100AF0000200790002007700010076000200740015
:100B0000020072000100710002006F0002006D001F
:100B100001006C0002006A00010069000200670029
:100B2000010066000100650001006400020062002F
:100B3000010061000100600001005F0002005D0033
:100B400001005C0001005B0001005A000100590037
:100B50000100580001005700010056000100550037
:100B60000100540001005300000053000100520036
:100B7000010051000100500001004F0001004E0033
:100B800000004E0001004D0001004C0001004B0030
:100B900000004B0001004A0001004900010048002C
:100BA0000000480001004700010046000000460028
:100BB0000100450000004500010044000100430021
:100BC000000043000100420000004200010041001B
:100BD000000041000100400001003F0000003F0014
:100BE00001003E0000003E0001003D0000003D000D
:100BF00001003C0000003C0000003C0001003B0004
:100C000000003B0001003A0000003A0001003900FA
:100C100000003900010038000000380000003800F2
:100C200001003700000037000100360000003600E8
:100C300000003600010035000000350000003500DE
:100C400001003400000034000000340001003300D3
:100C500000003300000033000100320000003200C9
:100C600000003200010031000000310000003100BE
:100C700001003000000030000000300001002F00B3
:100C800000002F0000002F0000002F0001002E00A8
:100C900000002E0000002E0001002D0000002D009D
:100CA00000002D0000002D0001002C0000002C0091
:100CB00000002C0000002C0001002B0000002B0085
:100CC00000002B0000002B0001002A0000002A0079
:100CD00000002A0000002A0001002900000029006D
:100CE0000000290000002900000029000100280060
:100CF0000000280000002800000028000000280054
:100D00000100270000002700000027000000270046
:100D10000000270001002600000026000000260039
:100D2000000026000000260001002500000025002C
:100D3000000025000000250000002500000025001F
:100D40000100240000002400000024000000240012
:100D50000000240001002300000023000000230005
:100D600000002300000023000000230000002300F7
:100D700001002200000022000000220000002200EA
:100D800000002200000022000100210000002100DC
:100D900000002100000021000000210000002100CF
:100DA00000002100010020000000200000002000C1
:100DB00000002000000020000000200000002000B3
:100DC0000000200001001F0000001F0000001F00A5
:100DD00000001F0000001F0000001F0000001F0097
:100DE00001001E0000001E0000001E0000001E008A
:100DF000000024F4D43050C38E20C2A24017828B4E
:100E00007011127A910D816CD90AA861E108C75856
:100E10006607615143061E4B5D05C145A7041A4193
:100E20001104093D9803713931034036DB02653303
:100E30009102D4305402802E1D02632CEE01752ADB
:100E4000C501B028A001102781018F2564012B2442
:100E50004B01E0223401AC211F018D200D01801FC8
:100E6000FC00841EED00971DDF00B81CD200E61BBD
:100E7000C600201BBC00641AB200B219A8000A19EF
:100E8000A0006A189900D117910040178B00B51681
:100E9000840031167E00B31579003A157300C7142B
:100EA0006F0058146A00EE13660088136300251360
:100EB0005E00C7125B006C12570015125400C1117E
:100EC000510070114F0021114B00D61049008D10B8
:100ED00047004610440002104200C00F4000800F3F
:100EE0003E00420F3C00060F3B00CB0E3800930E35
:100EF00037005C0E3500270E3400F30D3200C10DB3
:100F00003100900D3000600D2E00320D2D00050DCA
:100F10002C00D90C2B00AE0C2900850C29005C0C90
:100F20002700350C27000E0C2600E80B2400C40B0C
:100F30002400A00B23007D0B23005A0B2100390B4A
:100F40002100180B2000F80A1F00D90A1E00BB0A56
:100F50001E009D0A1D00800A1D00630A1C00470A2E
:100F60001B002C0A1B00110A1A00F7091A00DD09E0
:100F70001900C4091900AB091900920917007B096F
:100F80001800630917004C091600360916002009DD
:100F900016000A091500F5081500E0081400CC0831
:100FA0001400B8081400A4081400900813007D0869
:100FB00012006B081300580812004608120034088B
:100FC0001100230811001208110001081100F00798
:100FD0001000E0071000D0071000C0071000B00795
:100FE0000F00A107100091070E0083070F00740780
:100FF0000F0065070E0057070E0049070E003B075C
:101000000D002E070E0020070D0013070D00060728
:101010000D00F9060C00ED060D00E0060C00D406EC
:101020000C00C8060C00BC060C00B0060C00A406A0
:101030000B0099060C008D060B0082060B0077064C
:101040000B006C060B0061060A0057060B004C06ED
:101050000A0042060A0038060A002E060A00240684
:101060000A001A060A001006090007060A00FD0514
:101070000900F4050900EB050900E2050900D9059E
:101080000900D0050900C7050900BE050900B5051E
:101090000800AD050800A50509009C050800940599
:1010A00008008C050800840508007C05080074050C
:1010B00008006C050700650508005D05070056057A
:1010C00008004E05070047050700400508003805E1
:1010D0000700310507002A050700230507001C0546
:1010E0000600160507000F050700080506000205A3
:1010F0000700FB040600F5040700EE040600E80400
:101100000600E2040700DB040600D5040600CF0455
:101110000600C9040600C3040600BD040600B704A7
:101120000600B1040500AC040600A6040600A004F5
:1011300005009B04060095040500900406008A043F
:10114000050085040500800406007A040500750486
:101150000500700405006B040500660405006104C9
:1011600005005C04050057040500520405004D0409
:10117000050048040500430405003E0404003A0449
:10118000050035040500300404002C040500270484
:101190000400230405001E0404001A0404001604BD
:1011A0000500110404000D040400090405000404F2
:1011B000040000040400FC030400F8030400F4032A
:1011C0000400F0030400EC030400E8030400E4035B
:1011D0000400E0030400DC030400D8030400D4038B
:1011E0000400D0030400CC030400C8030300C503BB
:1011F000030020453A00205A3A0020593A0020586E
:101200003A00656E6473746F7073206869743A2075
:10121000004572726F723A0054656D706572617448
:101220007572652068656174656420626564207309
:1012300077697463686564206F66662E204D415837
:1012400054454D502074726967676572656420214A
:1012500021003A204578747275646572207377694D
:101260007463686564206F66662E204D494E544550
:101270004D50207472696767657265642021003A79
:101280002045787472756465722073776974636839
:101290006564206F66662E204D415854454D5020A0
:1012A000747269676765726564202100202D20498A
:1012B0006E76616C696420657874727564657220FD
:1012C0006E756D6265722021001000AD0330016AF9
:1012D0000150022B0170030A019004F500B005E5EE
:1012E00000D006D800F007CE001009C500300ABEB5
:1012F00000500BB700700CB100900DAB00B00EA603
:1013000000D00FA200F0109D00101299003013952C
:10131000005014920070158E0090168B00B0178745
:1013200000D0188400F0198100101B7E00301C7B57
:1013300000501D7900701E7600901F7300B0207061
:1013400000D0216E00F0226B001024690030256669
:1013500000502663007027610090285E00B0295C71
:1013600000D02A5900F02B5600102D5400302E5179
:1013700000502F4E0070304B0090314800B0324585
:1013800000D0334200F0343E0010363B0030373797
:10139000005038330070392E00903A2900B03B23BA
:1013A00000D03C1B00F03D1100103F0100F03F0059
:1013B00000504944204175746F74756E65206669EC
:1013C0006E697368656421205075742074686520A7
:1013D0004B702C204B6920616E64204B6420636F3E
:1013E0006E7374616E747320696E746F20436F6ED8
:1013F00066696775726174696F6E2E680050494442
:10140000204175746F74756E65206661696C6564E2
:10141000212074696D656F75740020403A006F6B10
:1014200020543A006F6B20423A00504944204175E5
:10143000746F74756E65206661696C6564212054F3
:10144000656D706572617475726520746F6F206868
:1014500069676800204B643A2000204B693A2000FD
:10146000204B703A200020436C617369632050491F
:101470004420002054753A2000204B753A2000206B
:101480006D61783A2000206D696E3A200020643A40
:10149000200020626961733A200070012C019001E4
:1014A0002701B0012201C0011D01F0011801100245
:1014B000130130020E016002090190020401C00212
:1014C000FF000003FA004003F5008003F000D003A2
:1014D000EB002004E6007004E100E004DC004005BD
:1014E000D700C005D2004006CD00D006C800800756
:1014F000C3003008BE00F008B900C009B400B00A4B
:10150000AF00B00BAA00D00CA500000EA000500F39
:101510009B00C01096005012910000148C00C01562
:101520008700B0178200B0197D00D01B7800001E24
:10153000730040206E0090226900F0246400402770
:101540005F0090295A00E02B5500102E50002030EB
:101550004B0010324600E033410090353C0010371C
:10156000370070383200A0392D00B03A2800A03B77
:101570002300603C1E00103D1900903D1400103EF9
:101580000F00703E0A00C03E0500003F0000012928
:101590000229042908291029202940298029012C01
:1015A000022C012602260426082610262026402684
:1015B0008026402C802C012302230423082310239F
:1015C0002023402380230120022004200820102013
:1015D000202040208020102C202C012F022F042FAF
:1015E000082F102F202F402F802F7EFE7EFD7EFBA8
:1015F0007EF77EEF7EDF7EBF7E7F000100002E162D
:10160000120002000040164300030000831604018C
:10161000030904871614020309049D16180303091D
:1016200004B716160001C10201803601813612018D
:10163000000202000020742940060001010203019B
:1016400009024300020100C0320904000001020245
:1016500001000524001001052401000104240206F4
:101660000524060001070582030800400904010063
:10167000020A00000007050302400000070584027B
:101680004000000403090414035000720069006E56
:10169000007400720062006F0074000000180350B4
:1016A00000720069006E007400720062006F0074C6
:1016B00000200058000000160331003200330034CF
:1016C000003500360037003800390030000000498E
:1016D0004E46494E4954594E414ECDCCCC3D0AD789
:1016E000233C17B7D13877CC2B329595E6241FB120
:1016F0004F0A000020410000C84200401C4620BCA8
:10170000BE4CCA1B0E5AAEC59D74A0277871418786
:10171000C993992711241FBECFEFD0E2DEBFCDBF02
:1017200013E0A0E0B1E0EEE5F3E301E00BBF02C09F
:1017300007900D92AA36B107D9F71BBE11E1AAE6B0
:10174000B3E001C01D92AB31B107E1F717E1C2E18F
:10175000D7E104C02297FE010E945499CA30D107F4
:10176000C9F70E9487900C94A2990C940000A0E005
:10177000B0E0EDEBFBE00C947199EC015B016115BD
:10178000710519F0FB0191838083F9908F2D90E012
:101790000E945899892BC9F7FDE2FF1621F4F990B0
:1017A000EE24E39405C02BE2F21609F4F990EE243E
:1017B0008E0101501040C8016FEC76E143E050E02B
:1017C0000E944D0E892B01F58E010E5F1F4FC8013F
:1017D00062ED76E145E050E00E944D0E892B19F450
:1017E0008E01095F1F4FA114B10419F0F501118397
:1017F0000083E0FC04C070E090E080E814C070E07A
:1018000090E080E86FEF08C1C80167ED76E143E042
:1018100050E00E944D0E892B69F4A114B10429F403
:1018200070E090E080EC6FE7F7C02296F501D1837D
:10183000C083F6CF8824992440E050E060E070E057
:10184000EF2DE053EA30A0F5F2E0EF2A8E2D90E084
:101850009C0128703070E2FE06C0232B79F50894B5
:10186000811C911C2BC0232B19F00894810891082E
:10187000DB01CA0112E0880F991FAA1FBB1F1A952E
:10188000D1F7480F591F6A1F7B1F440F551F661F52
:10189000771F4E0F511D611D711D483929E95207EF
:1018A00029E9620729E1720748F084E0E82A06C0C6
:1018B000EE3F31F4E3FC39C098E0E92AF990C0CF5B
:1018C000E53311F0E53189F529912D3219F4E0E184
:1018D000EE2A05C02B3219F081E090E003C0299177
:1018E00082E090E0E22FE053EA3018F0C81BD90BF9
:1018F0001CC020E030E0FCE020383F075CF4C90168
:10190000880F991F880F991F280F391F220F331F27
:101910002E0F311DE991E053EA3068F3E4FE03C075
:10192000309521953F4F820E931ECE2CDD24E1FE93
:1019300007C0A114B10421F02197F501D183C08320
:10194000CB01BA010E94BD957B018C01F3E0CF224F
:10195000DD2423E0C216D10421F417FB109517F9FA
:10196000109557016801C801B70120E030E040E060
:1019700050E00E941D95882309F44AC097FE0DC0CF
:101980002EEEE22E26E1F22E90948194910893940B
:10199000C0E2D0E000E010E012C096E0E92E97E14E
:1019A000F92EF6CFF7012591359145915491C60155
:1019B000B5010E94FD975B016C018C1A9D0A8C1683
:1019C0009D0684F7D595C7950F5F1F4F063011050B
:1019D00029F08CEF9FEFE80EF91EF1CFC501D6017B
:1019E0007C018D018C2D880F8D2D881F8F3F51F02C
:1019F000C601B50120E030E040E050E00E941D95B6
:101A0000882331F482E290E090931A1180931911A7
:101A10007E2D9F2D802F612F272F392F482F562F56
:101A2000B901CA01CDB7DEB7ECE00C948D992F92C5
:101A30003F925F926F927F928F929F92AF92BF92EE
:101A4000CF92DF92EF92FF920F931F93CF93DF938A
:101A50008C011B01EA016115710519F0FB019183ED
:101A60008083209749F0CE010297839728F020E0E9
:101A700030E040E050E0F6C0F801A1908F018A2DDF
:101A800090E00E945899892BB9F7FDE2AF1631F426
:101A9000F801A1908F015524539407C0FBE2AF16C3
:101AA00019F4F801A1908F015524209719F0C03145
:101AB000D105C1F4F0E3AF1679F4F80180818837DD
:101AC00011F0883549F4F801A1800E5F1F4FF2E054
:101AD0005F2AC0E1D0E006C0209721F480E3A81679
:101AE000E9F427C0C830D10531F1C930D10524F45B
:101AF000C230D10531F50CC0CA30D10589F0C031F2
:101B0000D105F9F4C12CD12CE12CB8E0FB2E28C072
:101B1000C12CD12CE12CA0E4FA2E22C0CAE0D0E0E6
:101B2000FCECCF2EFCECDF2EFCECEF2EFCE0FF2ECD
:101B300017C0C8E0D0E0C12CD12CE12CE0E1FE2E92
:101B40000FC09E01442737FD4095542F60E070E0A0
:101B500080E090E80E941599C901DA016C017D01CD
:101B600020E030E040E050E060E03E01882477FC77
:101B70008094982C70EDB72EBA0CE9E0EB1570F458
:101B80008A2D81548A3118F499ECB92E06C08A2D19
:101B900081568A3150F589EAB82EBA0C8B2D90E027
:101BA0008C179D0714F56F3FE1F0C216D306E406CB
:101BB000F506B0F0CA01B901A40193010E94CF98C3
:101BC0009B01AC012B0D311D411D511D2130F0E059
:101BD0003F07F0E04F07F0E85F0710F461E001C055
:101BE0006FEFF801A1908F01C5CF2114310481F06E
:101BF000662331F001501040F1011183008308C0C9
:101C000051FE1AC002501040F1011183008314C02C
:101C100067FF12C050FC05C02FEF3FEF4FEF5FE7AB
:101C200004C020E030E040E050E882E290E0909391
:101C30001A118093191116C050FE08C05095409596
:101C4000309521953F4F4F4F5F4F0CC057FF0AC053
:101C500082E290E090931A11809319112FEF3FEFD9
:101C60004FEF5FE7B901CA01DF91CF911F910F914B
:101C7000FF90EF90DF90CF90BF90AF909F908F90AC
:101C80007F906F905F903F902F900895FB01DC0153
:101C900005900D920020E1F70895FB01DC01415011
:101CA000504088F08D9181341CF08B350CF4805EAF
:101CB000659161341CF06B350CF4605E861B61111C
:101CC00071F3990B0895881BFCCFFB0155915523A7
:101CD000A9F0BF01DC014D9145174111E1F759F41D
:101CE000CD010590002049F04D9140154111C9F3F7
:101CF000FB014111EFCF81E090E001970895FB01D6
:101D0000DC0104C08D910190801921F441505040B4
:101D1000C8F7881B990B0895FB01DC0102C00190F4
:101D20000D9241505040D8F70895FB01DC010D9011
:101D30000020E9F7119701900D920020E1F7089536
:101D4000FC018191861721F08823D9F799270895FE
:101D50003197CF010895FB01DC0101900D92002025
:101D6000E1F70895FB01DC014150504030F08D91C6
:101D70000190801919F40020B9F7881B990B089578
:101D8000FB01DC014150504048F001900D920020D1
:101D9000C9F701C01D9241505040E0F70895AEE0F0
:101DA000B0E0E5EDFEE00C9479990D891E898EE096
:101DB0008C831A8309838FEF9FE79E838D839E0117
:101DC000275E3F4FCE0101966F89788DA9010E9451
:101DD000F30E2F813885020F131FF80110822E9603
:101DE000E4E00C949599ABE0B0E0E9EFFEE00C94F0
:101DF0006B993C012B015A01FC01178216828381E9
:101E000081FD03C06FEF7FEFC6C19AE0892E1E01EE
:101E10000894211C311CF3012381F20123FD8591DB
:101E200023FF81912F01882309F4B2C1853239F44F
:101E300023FD859123FF81912F01853229F490E0C4
:101E4000B3010E94E610E7CF982FFF24EE249924D7
:101E5000FFE1FF15D0F09B3269F09C3228F49032FC
:101E600059F0933291F40EC09D3249F0903369F4E9
:101E700041E024C052E0F52A84E0F82A28C098E026
:101E8000F92A25C0E0E1FE2A22C0F7FC29C0892FEB
:101E900080538A3070F4F6FE05C0989C902C112473
:101EA000980E15C0E89CE02C1124E80EF0E2FF2A01
:101EB0000EC09E3229F4F6FC6BC140E4F42A07C040
:101EC0009C3619F450E8F52A02C0983649F4F2011C
:101ED00023FD959123FF91912F01992309F0B8CF0C
:101EE000892F8554833018F08052833038F444E0D1
:101EF00050E0A40EB51E5FE359830FC0933631F056
:101F0000933779F0933509F056C020C0F5018081F0
:101F1000898342E050E0A40EB51E610101E010E0AB
:101F200012C0F501C080D180F6FC03C06FEF7FEFD7
:101F300002C0692D70E042E050E0A40EB51EC6015B
:101F40000E94DB108C015FE7F52214C0F501C08010
:101F5000D180F6FC03C06FEF7FEF02C0692D70E007
:101F600042E050E0A40EB51EC6010E94D0108C01C4
:101F700050E8F52AF3FE07C01AC080E290E0B301F2
:101F80000E94E610EA948E2D90E008171907A8F336
:101F90000EC0F601F7FC8591F7FE81916F0190E08C
:101FA000B3010E94E610E110EA94015010400115BF
:101FB000110579F7EAC0943611F0993669F5F7FE04
:101FC00008C0F501208131814281538184E090E095
:101FD0000AC0F501808191819C01442737FD40951D
:101FE000542F82E090E0A80EB91E9FE6F92257FF19
:101FF00009C050954095309521953F4F4F4F5F4F09
:10200000E0E8FE2ACA01B901A1012AE030E00E94FD
:102010001211D82ED21840C0953729F41F2D1F7EDB
:102020002AE030E01DC01F2D197F9F3661F09037E8
:1020300020F4983509F0ACC00FC0903739F09837CC
:1020400009F0A6C004C028E030E00AC0106114FD09
:10205000146020E130E004C014FD166020E132E09D
:1020600017FF08C0F501608171818281938144E08E
:1020700050E008C0F50180819181BC0180E090E0D2
:1020800042E050E0A40EB51EA1010E941211D82E0C
:10209000D2188FE7F82EF122F6FE0BC05EEFF52284
:1020A000D91438F4F4FE07C0F2FC05C08FEEF82214
:1020B00002C01D2D01C0192DF4FE0DC0FE01ED0D55
:1020C000F11D8081803319F499EEF92208C01F5F59
:1020D000F2FE05C003C08F2D867809F01F5F0F2D1B
:1020E000F3FC14C0F0FE0FC01E1510F09D2C0BC0A9
:1020F0009D2C9E0C911A1E2D06C080E290E0B3012B
:102100000E94E6101F5F1E15C0F304C01E1510F4D8
:10211000E11A01C0EE2404FF0FC080E390E0B30198
:102120000E94E61002FF1DC001FD03C088E790E099
:102130000EC088E590E00BC0802F867891F001FFFB
:1021400002C08BE201C080E2F7FC8DE290E0B301B7
:102150000E94E61006C080E390E0B3010E94E61002
:102160009A94D914C0F3DA94F101ED0DF11D808138
:1021700090E0B3010E94E610DD20A9F706C080E2DE
:1021800090E0B3010E94E610EA94EE20C1F743CE3E
:10219000F30166817781CB012B96E2E10C9487995C
:1021A000FC010590615070400110D8F78095909522
:1021B0008E0F9F1F0895FC01615070400190011027
:1021C000D8F7809590958E0F9F1F08950F931F93BA
:1021D000CF93DF938C01EB018B8181FF1BC082FFCA
:1021E0000DC02E813F818C819D812817390764F4B1
:1021F000E881F9810193F983E88306C0E885F985D0
:10220000802F0995892B31F48E819F8101969F83C0
:102210008E8302C00FEF1FEFC801DF91CF911F9196
:102220000F910895FA01AA27283051F1203181F148
:10223000E8946F936E7F6E5F7F4F8F4F9F4FAF4FCE
:10224000B1E03ED0B4E03CD0670F781F891F9A1FE1
:10225000A11D680F791F8A1F911DA11D6A0F711D95
:10226000811D911DA11D20D009F468943F912AE0A1
:10227000269F11243019305D3193DEF6CF01089589
:10228000462F4770405D4193B3E00FD0C9F7F6CFBA
:10229000462F4F70405D4A3318F0495D31FD405282
:1022A000419302D0A9F7EACFB4E0A6959795879518
:1022B00077956795BA95C9F70097610571050895F7
:1022C0009B01AC010A2E06945795479537952795A3
:1022D000BA95C9F7620F731F841F951FA01D08953B
:1022E000DF93CF930F92CDB7DEB7FC016983A08156
:1022F000B18112962D913C911397BE016F5F7F4F74
:1023000041E050E0F90109950F90CF91DF910895D8
:10231000FC01128213820895FC018381882311F04D
:1023200081E082830895FC018281811112820895E7
:10233000FC018AE393E0918380838681882321F0E6
:10234000CF0103960E94A4630895CF93DF93DB012E
:102350000D900020E9F71197A61BB70BEC01E8815F
:10236000F9810280F381E02DAD010995DF91CF91D4
:102370000895EF92FF920F931F938C01E1ECEE2EE4
:10238000E1E0FE2EE80EF91EC7010E945463C7016A
:102390000E94A463F801108211821F910F91FF9097
:1023A000EF900895CF92DF92EF92FF920F931F93D9
:1023B000CF93DF937C016B01DB010D900020E9F7E7
:1023C0008D0101501040061B170BE1ECF1E0EE0E01
:1023D000FF1ED7011C92EFE3FEEFEE0EFF1ECB01B6
:1023E0006EE470E00E94A00EEC01009731F4F80159
:1023F0003197EC0DFD1D86010EC060E270E00E9479
:10240000A00E8C010F5F1F4FCE016AE270E00E94A8
:10241000A00EFC0131978DE081838AE082831382D4
:10242000C70182549E4FB8010E94B46B81EC91E0C9
:10243000E80EF91ED7018C91882309F1EFE1F1E054
:102440006491EF0107C08FE091E10E947011219625
:10245000FE0164916623B9F7E6E2F1E06491EF01D1
:1024600007C08FE091E10E9470112196FE016491F6
:102470006623B9F78FE091E16AE00E947011DF9165
:10248000CF911F910F91FF90EF90DF90CF90089523
:10249000EF92FF920F93CF93DF937C01FC01838136
:1024A000882309F43FC0EEE4F1E06491EF0107C036
:1024B0008FE091E10E9470112196FE0164916623E4
:1024C000B9F786E792E0E80EF91EF70140815181E5
:1024D000628173818AE89DEFE80EF91E8FE091E139
:1024E0002AE000E00E94D490ECE4F1E06491EF0176
:1024F00007C08FE091E10E9470112196FE01649166
:102500006623B9F78EE692E0E80EF91EF7014081E6
:102510005181628173818FE091E12AE000E00E94A5
:10252000D4900EC0ECE3F1E06491EF0107C08FE0BE
:1025300091E10E9470112196FE0164916623B9F722
:102540008FE091E16AE00E947011DF91CF910F91CD
:10255000FF90EF9008952F923F924F925F926F926B
:102560007F928F929F92AF92BF92CF92DF92EF9223
:10257000FF920F931F93DF93CF93CDB7DEB7AB9747
:102580000FB6F894DEBF0FBECDBF5C014B01FC015E
:102590008381882309F41AC1C5018F539E4F0E947D
:1025A000A463F5011282198A1C8A188A8AE393E0CF
:1025B0009F878E87ADE4CA2ED12CCA0CDB1C2FE27C
:1025C00030E0A20EB31EF601B182A08221ED3FEFF2
:1025D000A20EB31EF40180818F3209F081C0C401C4
:1025E0006FE270E00E94A00E7C010894E11CF11CD7
:1025F0003E010894611C711C2601F1E12F2E312C43
:102600002C0E3D1E68C0C7016FE270E00E94A00E54
:102610006C01009709F472C0E816F90608F06EC064
:102620008C010E191F09C301B701A8010E94C00E39
:10263000060D171DF80110828FE091E1B3010E9491
:10264000A5118FE091E16AE00E947011F2016081B2
:1026500071816115710519F460E070E002C06D5F71
:102660007F4FC101A30121E00E94B26A882341F596
:10267000EAE8F1E064917F0109C08FE091E10E94F6
:1026800070110894E11CF11CF70164916623A9F70D
:102690008FE091E1BE016F5F7F4F0E94A511E8E8D6
:1026A000F1E064917F0109C08FE091E10E94701117
:1026B0000894E11CF11CF70164916623A9F77DC021
:1026C0002EE030E02C0F3D1FF20131832083760194
:1026D0000894E11CF11CE114F10409F094CF0BC043
:1026E0008FE490E0A80EB91EF601B182A08221EB22
:1026F0003FEFA20EB31ED82C092D02C0DE2C0F2DE9
:102700008DE490E0A80EB91EF5018081918123EB44
:102710003FEFA20EB31E009719F480E090E001C0D5
:1027200003966D2D702F0E94846B882301F1EAE7D8
:10273000F1E064917F0109C08FE091E10E94701186
:102740000894E11CF11CF70164916623A9F78FE05E
:1027500091E16D2D702F0E94A51126E732E0A20EA7
:10276000B31EF50110821182128213822BC0E2E6A1
:10277000F1E064917F0109C08FE091E10E94701146
:102780000894E11CF11CF70164916623A9F78FE01E
:1027900091E16D2D702F0E94A511E0E6F1E06491AA
:1027A0007F0109C08FE091E10E9470110894E11C43
:1027B000F11CF70164916623A9F78FE091E16AE0CB
:1027C0000E947011CE010E960E949811AB960FB622
:1027D000F894DEBF0FBECDBFCF91DF911F910F9157
:1027E000FF90EF90DF90CF90BF90AF909F908F9031
:1027F0007F906F905F904F903F902F900895BF9281
:10280000CF92DF92EF92FF920F931F93CF93DF93BC
:102810008C01EB018FE28993EE24E394FF2489E994
:10282000C82E81E0D82EC00ED11EBEE1BB2E14C032
:10283000FB9CC001112480599F4F800F911FBE0146
:102840000E94B66302C02196E3948881882319F020
:102850008CE88E15C0F7F3942F2D30E0F6018081BF
:1028600091812817390720F3E7FC07C0C8018F536F
:102870009E4FBE010E94B66301C01882DF91CF91C6
:102880001F910F91FF90EF90DF90CF90BF90089530
:102890002F923F924F925F926F927F928F929F9270
:1028A000AF92BF92CF92DF92EF92FF920F931F935E
:1028B000DF93CF93CDB7DEB7AC970FB6F894DEBFFA
:1028C0000FBECDBF5C014B014CA7DC0113968C9170
:1028D000882309F4FEC2E4ECF1E0AE0EBF1ED50180
:1028E0008C91ECE3FEEFAE0EBF1E882309F404C109
:1028F000222309F0D1C02CED31E0A20EB31ED50188
:102900008C91E4E2FEEFAE0EBF1E882381F1EFE171
:10291000F1E064917F0109C08FE091E10E947011A4
:102920000894E11CF11CF70164916623A9F7E2E623
:10293000F2E064917F0109C08FE091E10E94701183
:102940000894E11CF11CF70164916623A9F78FE05C
:1029500091E141E050E060E070E00E9461918FE021
:1029600091E16AE00E9470110E940B28B2C2EFEE62
:10297000F0E064917F0109C08FE091E10E94701145
:102980000894E11CF11CF70164916623A9F7E9E4BE
:10299000F2E064917F0109C08FE091E10E94701123
:1029A0000894E11CF11CF70164916623A9F78FE0FC
:1029B00091E1B4010E94A511EEE3F2E064917F0180
:1029C00009C08FE091E10E9470110894E11CF11C94
:1029D000F70164916623A9F7850104521E4FD801BF
:1029E0006C915DE8F52E6F9DB00111246F517E4F03
:1029F0006A0D7B1DC5010E94FF13F80160816F9D68
:102A0000B00111246F517E4F6A0D7B1D8FE091E163
:102A10000E94A511E8E3F2E064917F0109C08FE014
:102A200091E10E9470110894E11CF11CF70164917E
:102A30006623A9F746E7E42E42E0F42EEA0CFB1CDD
:102A4000D7014D915D916D917C918FE091E12AE0EC
:102A500000E00E94D4908FE091E16AE00E94701142
:102A6000A50144525E4FFA012081E22FF0E0EE0F03
:102A7000FF1FEE0FFF1FEA0DFB1DE352FE4FD701B4
:102A8000CD90DD90ED90FC90C082D182E282F38205
:102A90002F5FFA0120832AC0EFEEF0E064917F01FE
:102AA00009C08FE091E10E9470110894E11CF11CB3
:102AB000F70164916623A9F7E7E2F2E064917F01F0
:102AC00009C08FE091E10E9470110894E11CF11C93
:102AD000F70164916623A9F78FE091E1B4010E94A8
:102AE000A5118FE091E16AE00E947011C5018F533A
:102AF0009E4F0E94A46334C02CED31E0A20EB31EA1
:102B0000D5011C92E4E2FEEFAE0EBF1EEFEEF0E048
:102B100064917F0109C08FE091E10E9470110894D7
:102B2000E11CF11CF70164916623A9F7E6E1F2E0EC
:102B300064917F0109C08FE091E10E9470110894B7
:102B4000E11CF11CF70164916623A9F78FE091E184
:102B5000B4010E94A5118FE091E16AE00E9470111A
:102B6000D50112961C92198A1C8A188A8AE393E06E
:102B70009F878E872DE4C22ED12CCA0CDB1CEFE27E
:102B8000F0E0AE0EBF1ED601AD92BC92E1EDFFEFBC
:102B9000AE0EBF1ED4018C918F3209F081C0C401EA
:102BA0006FE270E00E94A00E7C010894E11CF11C11
:102BB0003E010894611C711C260191E1292E312CE3
:102BC0002C0E3D1E68C0C7016FE270E00E94A00E8F
:102BD0006C01009709F472C0E816F90608F06EC09F
:102BE0008C010E191F09C301B701A8010E94C00E74
:102BF000060D171DF80110828FE091E1B3010E94CC
:102C0000A5118FE091E16AE00E947011D2016D91EF
:102C10007C916115710519F460E070E002C06D5F90
:102C20007F4FC101A30121E00E94B26A882341F5D0
:102C3000E2E0F2E064917F0109C08FE091E10E943F
:102C400070110894E11CF11CF70164916623A9F747
:102C50008FE091E1BE016F5F7F4F0E94A511E0E020
:102C6000F2E064917F0109C08FE091E10E94701150
:102C70000894E11CF11CF70164916623A9F720C1B7
:102C8000EEE0F0E0EC0FFD1FD201ED93FC93760136
:102C90000894E11CF11CE114F10409F094CF0BC07D
:102CA0002FE430E0A20EB31ED601AD92BC92E1EB50
:102CB000FFEFAE0EBF1E082DD92C02C00E2DDF2C4B
:102CC000F501E35BFF4F2CA5222309F4A6C0608128
:102CD00071816115710519F460E070E002C06D5FEB
:102CE0007F4FC5018F539E4F402F5D2D21E00E94E5
:102CF000B26A882309F46AC0A50142595D4F82ED8A
:102D000091E0A80EB91EF50180819181A281B38165
:102D10002EE23EEFA20EB31EFA0180839183A283BE
:102D2000B383E2EFF1E064917F0109C08FE091E1AC
:102D30000E9470110894E11CF11CF7016491662354
:102D4000A9F78FE091E1602F7D2D0E94A511EAEE99
:102D5000F1E064917F0109C08FE091E10E94701160
:102D60000894E11CF11CF70164916623A9F72EE693
:102D700032E0A20EB31ED5014D915D916D917C9113
:102D80008FE091E12AE000E00E94D4908FE091E191
:102D90006AE00E947011E8E0F0E0AE0EBF1ED501BF
:102DA0001D921D921D921C921397ECEDF1E064911F
:102DB0007F0109C08FE091E10E9470110894E11C2D
:102DC000F11CF70164916623A9F77AC0E8ECF1E001
:102DD00064917F0109C08FE091E10E947011089415
:102DE000E11CF11CF70164916623A9F78FE091E1E2
:102DF000602F7D2D0E94A511E6ECF1E064917F012A
:102E000009C08FE091E10E9470110894E11CF11C4F
:102E1000F70164916623A9F753C060817181611540
:102E2000710519F460E070E002C06D5F7F4FC5016D
:102E30008F539E4F402F5D2D26E50E94B26A882356
:102E400039F5E2EBF1E064917F0109C08FE091E197
:102E50000E9470110894E11CF11CF7016491662333
:102E6000A9F78FE091E1602F7D2D0E94A511E0EB85
:102E7000F1E064917F0109C08FE091E10E9470113F
:102E80000894E11CF11CF70164916623A9F718C0AE
:102E900081E0D5018C93EEE9F1E064917F0109C0F6
:102EA0008FE091E10E9470110894E11CF11CF70180
:102EB00064916623A9F78FE091E1B4010E94A51106
:102EC0008FE091E16AE00E947011CE010E960E949F
:102ED0009811AC960FB6F894DEBF0FBECDBFCF9160
:102EE000DF911F910F91FF90EF90DF90CF90BF90F7
:102EF000AF909F908F907F906F905F904F903F909A
:102F00002F900895EF92FF920F931F93CF93DF932B
:102F1000EC010E943A738E0104521E4FD8018C912D
:102F2000E1ECEE2EE1E0FE2EEC0EFD1E8823A1F179
:102F3000C7010E94A463F8016081615060838DE83D
:102F4000689FB00111246F517E4F6C0F7D1FCE0121
:102F500041E021E00E944814D801EC91F0E0EE0F2E
:102F6000FF1FEE0FFF1FEC0FFD1FE352FE4F4081CE
:102F7000518162817381CA58DD4F488359836A83C6
:102F80007B83C657D240C7010E948A628B81882307
:102F900089F181E08A832EC00E945571C7010E9489
:102FA000A4631A8283EE90E00E94124780917A080F
:102FB000882301F110927A0880911C06C82FD0E076
:102FC000CC0FDD1FCE50D04F68817981882777FDE7
:102FD0008095982F0E94BF952091A0023091A10268
:102FE0004091A2025091A3020E942B97181614F44C
:102FF00019821882DF91CF911F910F91FF90EF906E
:103000000895FC0181E08183CF0140E021E00E942E
:1030100048140895EF92FF920F931F93CF93DF937D
:103020008C01FC01138285A9882321F0C801C29676
:103030000E94A463FBE9EF2EF1E0FF2EE00EF11EEB
:10304000C70160E044E10E9444618823E9F4EFEEA7
:10305000F0E06491EF0107C08FE091E10E947011F0
:103060002196FE0164916623B9F7E3EDF2E06491E5
:10307000EF0107C08FE091E10E9470112196FE01DF
:1030800064916623B9F771C0E801C056DE4FCE01E6
:10309000B70141E00E94496C882321F5CE01B701B8
:1030A00040E00E94496C8823E9F4EFE1F1E064918B
:1030B000EF0107C08FE091E10E9470112196FE019F
:1030C00064916623B9F7E0ECF2E06491EF0107C088
:1030D0008FE091E10E9470112196FE0164916623B8
:1030E000B9F743C0C801C296BE010E94A5668823F5
:1030F000E9F4EFE1F1E06491EF0107C08FE091E1C5
:103100000E9470112196FE0164916623B9F7E0EBED
:10311000F2E06491EF0107C08FE091E10E9470112D
:103120002196FE0164916623B9F71FC081E0F80182
:103130008383EFEEF0E06491EF0107C08FE091E14F
:103140000E9470112196FE0164916623B9F7E5EAA9
:10315000F2E06491EF0107C08FE091E10E947011ED
:103160002196FE0164916623B9F78FE091E16AE050
:103170000E947011D801AE5ABF4FF801F2968BE150
:1031800001900D928150E1F7F80181A90F5A1F4F6C
:10319000F801808301551040C8018F96035B1F4FD3
:1031A000F80191838083DF91CF911F910F91FF9060
:1031B000EF9008952F923F924F925F926F927F927D
:1031C0009F92AF92BF92CF92DF92EF92FF920F93B6
:1031D0001F93DF93CF93CDB7DEB7CC55D0400FB65A
:1031E000F894DEBF0FBECDBF8C01662319F50658DB
:1031F0001D4FD8018C910A571240882309F4E7C06B
:103200000FB6F894209107113091081140910911DF
:1032100050910A110FBE0E581D4FF8018081918107
:10322000A281B3810257124082179307A407B50702
:1032300008F4CDC006581D4FD8011C920A57124001
:10324000F8018381882349F4C8010E940A18D80133
:1032500013968C91882309F4BAC000D000D000D016
:10326000EDB7FEB731966E010894C11CD11CADB705
:10327000BEB71296DC92CE92119786E191E09383CD
:103280008283D8019D968D919C919E97958384838E
:103290000E94CF0E7601EDB7FEB736960FB6F894C2
:1032A000FEBF0FBEEDBF56010AC0D7018C91992712
:1032B00087FD90950E946099F70181937F01F50148
:1032C00001900020E9F73197EA19FB098E2D8C193E
:1032D0008E175CF392E3A92EB12CA00EB11EC5018E
:1032E00040E050E060E070E00E948A6299248DE343
:1032F000C82ED12CCC0EDD1E2E010894411C511C71
:10330000BFE16B2E712C6C0E7D1EAFE02A2EA1E06A
:103310003A2E43C0D7018C9190E00E946099F7014A
:1033200081937F01D6010D900020E9F71197AC1928
:10333000BD098E2D8C198A176CF327968FAD2797B0
:103340008E3759F1C601B20145E050E00E94B20E3D
:10335000009719F500D000D000D0EDB7FEB7319638
:10336000ADB7BEB712967C926E92119733822282CD
:10337000558244820E94CF0EEDB7FEB736960FB647
:10338000F894FEBF0FBEEDBFC3010E9489478BE0DA
:1033900091E00E94124799249394C501B60140E040
:1033A00050E00E94C165181614F47601BBCF992035
:1033B00041F48FEF9FEFD8019E969C938E939D973B
:1033C00006C0F80185A596A5019696A785A7C45ABB
:1033D000DF4F0FB6F894DEBF0FBECDBFCF91DF91A8
:1033E0001F910F91FF90EF90DF90CF90BF90AF9023
:1033F0009F907F906F905F904F903F902F90089597
:103400002F923F924F925F926F927F928F929F92F4
:10341000AF92BF92CF92DF92EF92FF920F931F93E2
:10342000DF93CF93CDB7DEB7CD58D0400FB6F89429
:10343000DEBF0FBECDBF7C012B015A0183E090E0BF
:10344000A80EB91EF7017196C957DF4FF983E883BB
:10345000C758D040C7010496CC57DF4F9983888363
:10346000C458D040CA57DF4F1882C658D04054E6DF
:10347000C52ED12CCC0EDD1EF6013B96C757DF4F73
:10348000F983E883C958D0404BE7642E42E0742E9C
:103490006E0C7F1C3DE7832E32E0932E8E0C9F1C1A
:1034A00026E4222E312C2C0E3D1EC1010396C55759
:1034B000DF4F99838883CB58D040EFEEF0E09491B2
:1034C000C357DF4F9883CD58D04030C1F601838574
:1034D000482F50E0BA01687170706031710509F0D1
:1034E00033C1F301208131812130310509F42CC130
:1034F0002230310509F428C1F601DE0111969081D0
:10350000903239F08E2F8C19883011F48EE28D9321
:103510009D933196C757DF4F88819981C958D04014
:10352000E817F90761F71C921E86F2018081882353
:1035300031F4CE010E9660E071E00E94950ECE014E
:103540000E96B2010E94950ECE010E96BE016F5FDF
:103550007F4F0E94950ECE010E9660E071E00E94B2
:10356000950E1BA61EA61AA68AE393E099A788A724
:10357000CE018B96B501AE014F5F5F4F21E00E94F7
:10358000B26A882371F5F30180819181892B49F515
:10359000C357DF4F6881CD58D0400FEE10E008C010
:1035A0008FE091E10E9470110F5F1F4FF80164914D
:1035B0006623B1F78FE091E162E071E00E94A5110E
:1035C0008FE091E16AE00E9470118FE091E1BE010D
:1035D0006F5F7F4F0E94A5118FE091E16AE00E942A
:1035E0007011C557DF4FA881B981CB58D040FE017B
:1035F000BB968BE101900D928150E1F78AA5F10114
:1036000082838AE393E091838083C701BE01625F76
:103610007F4FA1010E94001AC1010E949811CE01A2
:1036200088960E94981182C0953E09F47FC09E3210
:1036300009F47CC09F3509F479C0F7019189992379
:1036400031F09E3209F472C09F3509F46FC043FD1A
:103650006DC080E06031710509F481E0F70184A755
:10366000882349F4F6018085873409F05FC081859D
:103670008E3709F45BC0CC57DF4FA881B981C4589D
:10368000D040F6018081803241F08E2F8C19883035
:1036900011F48EE28D9380818D933196C757DF4F61
:1036A00088819981C958D040E817F90759F71C92C9
:1036B000F301808191810097A9F48FE091E1B2013B
:1036C0000E94A5118FE091E1CC57DF4F688179818D
:1036D000C458D0400E94A5118FE091E16AE00E9499
:1036E000701124C08130910539F4F40180819181F9
:1036F0000196918380831AC00297C1F4CA57DF4FA5
:10370000F881C658D0402F2F30E0F401808191819C
:1037100028173907F1F0CA57DF4FF881C658D04053
:10372000FF5FCA57DF4FF883C658D040C501B601C6
:10373000C957DF4F48815981C758D0400E94C165A1
:1037400018160CF4C3CE05C0F6019081992309F038
:103750006BCFC357DF4F0FB6F894DEBF0FBECDBFA0
:10376000CF91DF911F910F91FF90EF90DF90CF905D
:10377000BF90AF909F908F907F906F905F904F9091
:103780003F902F900895EF92FF920F931F93DF9336
:10379000CF93CDB7DEB76E970FB6F894DEBF0FBEEE
:1037A000CDBF7C018BE792E0E80EF91EF701118294
:1037B000108285E89DEFE80EF91E87010E5C1F4F11
:1037C000C80140E050E060E070E00E948A62DE01E3
:1037D0001496F8018BE101900D928150E1F7F70109
:1037E00081A98B838AE393E09A838983C70165E18A
:1037F00071E08E010F5F1F4FA8010E94001AC801DF
:103800000E9498116E960FB6F894DEBF0FBECDBF22
:10381000CF91DF911F910F91FF90EF900895CF937B
:10382000DF93EC011AAA1DAA19AA8AE393E098ABC8
:103830008FA7CE5ADF4F188223961882C555D040E5
:10384000FE01E15BFF4FCF5ADF4F1882C155D040D8
:1038500091838083DE01A359BF4FFD0120E030E05A
:10386000482F13821682128240839183225E3F4F3B
:103870007E9681E02C323807A1F7C456DE4F89E1ED
:10388000888323961882689618822A96188223962F
:103890001882C45CD140FE01E254FE4FC054DE4F9A
:1038A000188240839183C255DF4F188219821A8291
:1038B0001B822896188219821A821B82C657D24010
:1038C0001A821B8218821982C756DE4F198218820B
:1038D000CD5BDF4F1882FD01C90111920197E9F715
:1038E000C256DF4F81E08883CA57D2401EA61DA66C
:1038F0000FB6F8948091071190910811A0910911C9
:10390000B0910A110FBE88579C4EAF4FBF4FCE5893
:10391000DD4F88839983AA83BB83DF91CF9108957C
:103920000F931F93DF93CF93CDB7DEB766970FB694
:10393000F894DEBF0FBECDBF8091160190911701A4
:10394000A0911801B09119018F87988BA98BBA8B20
:10395000FE013F9644E650E08081F999FECF1FBA00
:1039600052BD41BD80BD0FB6F894FA9AF99A0FBEC8
:103970004F5F5F4F4836510511F03196EDCFEEE1C4
:10398000F8E08081F999FECF1FBA52BD41BD80BDDC
:103990000FB6F894FA9AF99A0FBE4F5F5F4F483707
:1039A000510511F03196EDCFEEE0F8E08081F99904
:1039B000FECF1FBA52BD41BD80BD0FB6F894FA9A32
:1039C000F99A0FBE4F5F5F4F4838510511F031969D
:1039D000EDCFEEE2F8E08081F999FECF1FBA52BD3B
:1039E00041BD80BD0FB6F894FA9AF99A0FBE4F5FA9
:1039F0005F4F4839510511F03196EDCFE2E4F8E020
:103A00008081F999FECF1FBA52BD41BD80BD0FB66E
:103A1000F894FA9AF99A0FBE4F5F5F4F4C395105EF
:103A200011F03196EDCFE6E4F8E08081F999FECF10
:103A30001FBA52BD41BD80BD0FB6F894FA9AF99AEB
:103A40000FBE4F5F5F4F403A510511F03196EDCFF9
:103A5000EEE3F8E08081F999FECF1FBA52BD41BD77
:103A600080BD0FB6F894FA9AF99A0FBE4F5F5F4F78
:103A7000443A510511F03196EDCFE6E5F8E080814A
:103A8000F999FECF1FBA52BD41BD80BD0FB6F89463
:103A9000FA9AF99A0FBE4F5F5F4F483A510511F0FD
:103AA0003196EDCFEAE0F8E08081F999FECF1FBAB8
:103AB00052BD41BD80BD0FB6F894FA9AF99A0FBE77
:103AC0004F5F5F4F4C3A510511F03196EDCFEAE46C
:103AD000F8E08081F999FECF1FBA52BD41BD80BD8B
:103AE0000FB6F894FA9AF99A0FBE4F5F5F4F403BBA
:103AF000510511F03196EDCFEEE4F8E08081F999AF
:103B0000FECF1FBA52BD41BD80BD0FB6F894FA9AE0
:103B1000F99A0FBE4F5F5F4F443B510511F031964C
:103B2000EDCFE2E5F8E08081F999FECF1FBA52BDF2
:103B300041BD80BD0FB6F894FA9AF99A0FBE4F5F57
:103B40005F4F483B510511F03196EDCFE1E0F6E0D3
:103B50008081F999FECF1FBA52BD41BD80BD0FB61D
:103B6000F894FA9AF99A0FBE4F5F5F4F443C5105A3
:103B700011F03196EDCF84EB90E09A83898386E44F
:103B800090E09C838B832FEF30E03E832D8380EF8A
:103B900090E098878F8384E690E09A8789873C87B6
:103BA0002B87FE0131968081F999FECF1FBA52BD55
:103BB00041BD80BD0FB6F894FA9AF99A0FBE4F5FD7
:103BC0005F4F463C510571F7FE0133968081F999AC
:103BD000FECF1FBA52BD41BD80BD0FB6F894FA9A10
:103BE000F99A0FBE4F5F5F4F483C510511F0319677
:103BF000EDCFFE0135968081F999FECF1FBA52BDF7
:103C000041BD80BD0FB6F894FA9AF99A0FBE4F5F86
:103C10005F4F4A3C510511F03196EDCFFE013796CA
:103C20008081F999FECF1FBA52BD41BD80BD0FB64C
:103C3000F894FA9AF99A0FBE4F5F5F4F4C3C5105CA
:103C400011F03196EDCFFE0139968081F999FECFC2
:103C50001FBA52BD41BD80BD0FB6F894FA9AF99AC9
:103C60000FBE4F5F5F4F4E3C510511F03196EDCFC7
:103C7000FE013B968081F999FECF1FBA52BD41BD2E
:103C800080BD0FB6F894FA9AF99A0FBE4F5F5F4F56
:103C9000403D510511F03196EDCFEDEAF2E0808123
:103CA000F999FECF1FBA52BD41BD80BD0FB6F89441
:103CB000FA9AF99A0FBE4F5F5F4F443D510511F0DC
:103CC0003196EDCFE1EBF2E08081F999FECF1FBA9A
:103CD00052BD41BD80BD0FB6F894FA9AF99A0FBE55
:103CE0004F5F5F4F483D510511F03196EDCFE5EB49
:103CF000F2E08081F999FECF1FBA52BD41BD80BD6F
:103D00000FB6F894FA9AF99A0FBE4F5F5F4F4C3D89
:103D1000510511F03196EDCF80E290E09E878D87BE
:103D2000FE013D968081F999FECF1FBA52BD41BD7B
:103D300080BD0FB6F894FA9AF99A0FBE4F5F5F4FA5
:103D40004E3D510511F03196EDCFE3E3F6E0808171
:103D5000F999FECF1FBA52BD41BD80BD0FB6F89490
:103D6000FA9AF99A0FBE4F5F5F4F423E510511F02C
:103D70003196EDCFE7E8F2E08081F999FECF1FBAE6
:103D800052BD41BD80BD0FB6F894FA9AF99A0FBEA4
:103D90004F5F5F4F463E510511F03196EDCFE7E39F
:103DA000F6E08081F999FECF1FBA52BD41BD80BDBA
:103DB0000FB6F894FA9AF99A0FBE4F5F5F4F4A3EDA
:103DC000510511F03196EDCFEBE8F2E08081F999E1
:103DD000FECF1FBA52BD41BD80BD0FB6F894FA9A0E
:103DE000F99A0FBE4F5F5F4F4E3E510511F031966D
:103DF000EDCFEBE3F6E08081F999FECF1FBA52BD1B
:103E000041BD80BD0FB6F894FA9AF99A0FBE4F5F84
:103E10005F4F423F510511F03196EDCFEFE8F2E0F0
:103E20008081F999FECF1FBA52BD41BD80BD0FB64A
:103E3000F894FA9AF99A0FBE453F510521F04F5F69
:103E40005F4F3196EDCF80911A0190911B01A091A7
:103E50001C01B0911D018B8B9C8BAD8BBE8BFE0129
:103E6000739684E690E02081F999FECF1FBA92BD47
:103E700081BD20BD0FB6F894FA9AF99A0FBE873625
:103E8000910519F001963196EECFE0EEF2E06491E3
:103E90008F0108C08FE091E10E9470110F5F1F4FEA
:103EA000F80164916623B1F7EEE2F5E064918F01C9
:103EB00008C08FE091E10E9470110F5F1F4FF80161
:103EC00064916623B1F78FE091E16AE00E9470117E
:103ED00066960FB6F894DEBF0FBECDBFCF91DF91CF
:103EE0001F910F910895EF92FF920F931F93DF930D
:103EF000CF93CDB7DEB7E0970FB6F894DEBF0FBE15
:103F0000CDBFDE011196ECEEF2E080E101900D9262
:103F10008150E1F7DE015196ECEDF2E080E1019095
:103F20000D928150E1F7DE019196ECECF2E080E138
:103F300001900D928150E1F789819A81AB81BC811A
:103F400080931E0890931F08A0932008B093210827
:103F500089899A89AB89BC8980930E0890930F0850
:103F6000A0931008B093110889A19AA1ABA1BCA19C
:103F700080932E0890932F08A0933008B0933108B7
:103F80008D819E81AF81B88580932208909323080C
:103F9000A0932408B09325088D899E89AF89B88D98
:103FA0008093120890931308A0931408B0931508F7
:103FB0008DA19EA1AFA1B8A580933208909333083C
:103FC000A0933408B093350889859A85AB85BC8564
:103FD0008093260890932708A0932808B093290877
:103FE000898D9A8DAB8DBC8D8093160890931708A0
:103FF000A0931808B093190889A59AA5ABA5BCA5EC
:104000008093360890933708A0933808B093390806
:104010008D859E85AF85B88980932A0890932B085B
:10402000A0932C08B0932D088D8D9E8DAF8DB8A1D7
:1040300080931A0890931B08A0931C08B0931D0846
:104040008DA59EA5AFA5B8A980933A0890933B088B
:10405000A0933C08B0933D080E94924E80E090E807
:10406000ABE3B5E48093420890934308A0934408DF
:10407000B09345088093460890934708A09348085A
:10408000B09349080F2EF0E0EF2EF0E0FF2EF0E0A5
:104090000F2FF0E01F2FF02DE0923E08F0923F0826
:1040A000009340081093410880E29EE4A0E0B0E055
:1040B00080930A0890930B08A0930C08B0930D0806
:1040C000E0925608F0925708009358081093590848
:1040D00080E090E0A0EAB1E480934A0890934B0816
:1040E000A0934C08B0934D088DEC9CECACECBEE377
:1040F00080934E0890934F08A0935008B0935108B6
:1041000080E090E0A0EAB0E48093520890935308D6
:10411000A0935408B0935508E0920906F0920A065D
:1041200000930B0610930C06E0920506F09206062B
:104130000093070610930806E0920106F09202062B
:1041400000930306109304068AE999E9A1EBB1E410
:104150008093AD029093AE02A093AF02B093B002F1
:1041600061E77DE38AE89FE30E94A77B6093B10249
:104170007093B2028093B3029093B40260E070E057
:1041800084EE92E40E94B57B6093B5027093B60210
:104190008093B7029093B8020E94B77A80E090E0D3
:1041A000A0E8BFE38093B9029093BA02A093BB0248
:1041B000B093BC02E0923306F092340600933506C9
:1041C00010933606E0923706F092380600933906CF
:1041D00010933A06E0923B06F0923C0600933D06AF
:1041E00010933E0680E090E0A8E1B3E4809387025C
:1041F00090938802A0938902B0938A0280938B02E5
:1042000090938C02A0938D02B0938E0280E090E098
:10421000A3E0B3E480938F0290939002A093910265
:10422000B0939202E0EEF2E064918F0108C08FE05B
:1042300091E10E9470110F5F1F4FF8016491662396
:10424000B1F7E6EEF2E064918F0108C08FE091E1F2
:104250000E9470110F5F1F4FF80164916623B1F740
:104260008FE091E16AE00E947011E0960FB6F89439
:10427000DEBF0FBECDBFCF91DF911F910F91FF9099
:10428000EF9008950F931F93CF93DF9300EE12E00A
:10429000F8016491E80107C08FE091E10E9470117C
:1042A0002196FE0164916623B9F7EEE1F5E0649191
:1042B000EF0107C08FE091E10E9470112196FE018D
:1042C00064916623B9F78FE091E16AE00E94701172
:1042D000F8016491C0EED2E007C08FE091E10E9446
:1042E00070112196FE0164916623B9F740911E0872
:1042F00050911F08609120087091210886E195E097
:104300000E94B32C40912208509123086091240808
:104310007091250883E195E00E94B32C4091260816
:1043200050912708609128087091290880E195E054
:104330000E94B32C40912A0850912B0860912C08C0
:1043400070912D088DE095E00E94B32C8FE091E1F3
:104350006EE171E00E94A5118FE091E16AE00E9498
:104360007011F8016491C0EED2E007C08FE091E1D6
:104370000E9470112196FE0164916623B9F7E3EF64
:10438000F4E06491EF0107C08FE091E10E947011A9
:104390002196FE0164916623B9F78FE091E16AE00E
:1043A0000E947011F8016491C0EED2E007C08FE066
:1043B00091E10E9470112196FE0164916623B9F784
:1043C00040910E0850910F086091100870911108EB
:1043D0008AEE94E00E94B32C409112085091130889
:1043E000609114087091150887EE94E00E94B32C38
:1043F000409116085091170860911808709119089B
:1044000084EE94E00E94B32C40911A0850911B084E
:1044100060911C0870911D0881EE94E00E94B32CFD
:104420008FE091E16EE171E00E94A5118FE091E1D2
:104430006AE00E947011F8016491C0EED2E007C0FA
:104440008FE091E10E9470112196FE016491662334
:10445000B9F7E3ECF4E06491EF0107C08FE091E17C
:104460000E9470112196FE0164916623B9F78FE0D6
:1044700091E16AE00E947011F8016491C0EED2E00F
:1044800007C08FE091E10E9470112196FE016491B6
:104490006623B9F740912E0850912F08609130089B
:1044A000709131088AEB94E00E94A727409132086E
:1044B00050913308609134087091350887EB94E08F
:1044C0000E94A7274091360850913708609138081C
:1044D0007091390884EB94E00E94A72740913A0834
:1044E00050913B0860913C0870913D0881EB94E04D
:1044F0000E94A7278FE091E16EE171E00E94A51173
:104500008FE091E16AE00E947011F8016491C0EEC1
:10451000D2E007C08FE091E10E9470112196FE0168
:1045200064916623B9F7ECE7F4E06491EF0107C00A
:104530008FE091E10E9470112196FE016491662343
:10454000B9F78FE091E16AE00E947011F80164917F
:10455000C0EED2E007C08FE091E10E947011219679
:10456000FE0164916623B9F74091420850914308D7
:10457000609144087091450883E794E00E94B32C51
:104580004091460850914708609148087091490849
:1045900080E794E00E94B32C8FE091E16EE171E03E
:1045A0000E94A5118FE091E16AE00E947011F8016C
:1045B0006491C0EED2E007C08FE091E10E947011DB
:1045C0002196FE0164916623B9F7EDEBF3E0649167
:1045D000EF0107C08FE091E10E9470112196FE016A
:1045E00064916623B9F78FE091E16AE00E9470114F
:1045F000F8016491C0EED2E007C08FE091E10E9423
:1046000070112196FE0164916623B9F740913E082E
:1046100050913F08609140087091410884EB93E00D
:104620000E94B32C40915608509157086091580849
:104630007091590881EB93E00E94B32C40910A08D5
:1046400050910B0860910C0870910D088EEA93E070
:104650000E94A72740914A0850914B0860914C084E
:1046600070914D088BEA93E00E94B32C40914E0864
:1046700050914F08609150087091510888EA93E07A
:104680000E94B32C409152085091530860915408F5
:104690007091550885EA93E00E94B32C8FE091E178
:1046A0006EE171E00E94A5118FE091E16AE00E9445
:1046B0007011F8016491C0EED2E007C08FE091E183
:1046C0000E9470112196FE0164916623B9F7E3E917
:1046D000F3E06491EF0107C08FE091E10E94701157
:1046E0002196FE0164916623B9F78FE091E16AE0BB
:1046F0000E947011F8016491C0EED2E007C08FE013
:1047000091E10E9470112196FE0164916623B9F730
:1047100040910106509102066091030670910406D3
:104720008AE893E00E94B32C40910506509106065A
:10473000609107067091080687E893E00E94B32C09
:104740004091090650910A0660910B0670910C0683
:1047500084E893E00E94B32C8FE091E16EE171E078
:104760000E94A5118FE091E16AE00E947011F801AA
:104770006491C0EED2E007C08FE091E10E94701119
:104780002196FE0164916623B9F7E6E7F3E06491B0
:10479000EF0107C08FE091E10E9470112196FE01A8
:1047A00064916623B9F78FE091E16AE00E9470118D
:1047B000F8016491C0EED2E007C08FE091E10E9461
:1047C00070112196FE0164916623B9F74091AD0204
:1047D0005091AE026091AF027091B0028CE693E00E
:1047E0000E94B32C6091B1027091B2028091B30229
:1047F0009091B4020E94AE7BAB01BC0189E693E0CC
:104800000E94B32C6091B5027091B6028091B702FC
:104810009091B8020E94BC7BAB01BC0186E693E09C
:104820000E94B32C8FE091E16EE171E00E94A5112E
:104830008FE091E16AE00E947011F8016491C0EE8E
:10484000D2E007C08FE091E10E9470112196FE0135
:1048500064916623B9F7E3E5F3E06491EF0107C0E3
:104860008FE091E10E9470112196FE016491662310
:10487000B9F78FE091E16AE00E947011F80164914C
:10488000C0EED2E007C08FE091E10E947011219646
:10489000FE0164916623B9F74091330650913406C6
:1048A00060913506709136068AE493E00E94B32C3D
:1048B00040913706509138066091390670913A065A
:1048C00087E493E00E94B32C40913B0650913C0654
:1048D00060913D0670913E0684E493E00E94B32C03
:1048E0008FE091E16EE171E00E94A5118FE091E10E
:1048F0006AE00E947011F8016491C0EED2E007C036
:104900008FE091E10E9470112196FE01649166236F
:10491000B9F7E1E3F3E06491EF0107C08FE091E1C3
:104920000E9470112196FE0164916623B9F78FE011
:1049300091E16AE00E947011F8016491C0EED2E04A
:1049400007C08FE091E10E9470112196FE016491F1
:104950006623B9F7409187025091880260918902DD
:1049600070918A0288E293E00E94B32C40918B02FE
:1049700050918C0260918D0270918E0285E293E0DD
:104980000E94B32C40918F0250919002609191024D
:104990007091920282E293E00E94B32C8FE091E149
:1049A0006EE171E00E94A5118FE091E16AE00E9442
:1049B0007011DF91CF911F910F9108950F931F9365
:1049C000DF93CF93CDB7DEB766970FB6F894DEBF0F
:1049D0000FBECDBF80911A0190911B01A0911C01C7
:1049E000B0911D018B8B9C8BAD8BBE8BFE013F96D6
:1049F00004E610E0F999FECF12BD01BDF89A80B52A
:104A000080830F5F1F4F0836110511F03196F2CFEA
:104A1000CE014396BE01615F7F4F43E050E00E94AC
:104A2000B20E009709F0E6C1EEE1F8E0F999FECF89
:104A300012BD01BDF89A80B580830F5F1F4F083704
:104A4000110511F03196F2CFEEE0F8E0F999FECFC2
:104A500012BD01BDF89A80B580830F5F1F4F0838E3
:104A6000110511F03196F2CFEEE2F8E0F999FECFA0
:104A700012BD01BDF89A80B580830F5F1F4F0839C2
:104A8000110511F03196F2CF0E94924EE2E4F8E067
:104A9000F999FECF12BD01BDF89A80B580830F5FF2
:104AA0001F4F0C39110511F03196F2CFE6E4F8E012
:104AB000F999FECF12BD01BDF89A80B580830F5FD2
:104AC0001F4F003A110511F03196F2CFEEE3F8E0F6
:104AD000F999FECF12BD01BDF89A80B580830F5FB2
:104AE0001F4F043A110511F03196F2CFE6E5F8E0D8
:104AF000F999FECF12BD01BDF89A80B580830F5F92
:104B00001F4F083A110511F03196F2CFEAE0F8E0B4
:104B1000F999FECF12BD01BDF89A80B580830F5F71
:104B20001F4F0C3A110511F03196F2CFEAE4F8E08C
:104B3000F999FECF12BD01BDF89A80B580830F5F51
:104B40001F4F003B110511F03196F2CFEEE4F8E073
:104B5000F999FECF12BD01BDF89A80B580830F5F31
:104B60001F4F043B110511F03196F2CFE2E5F8E05A
:104B7000F999FECF12BD01BDF89A80B580830F5F11
:104B80001F4F083B110511F03196F2CFE1E0F6E03E
:104B9000F999FECF12BD01BDF89A80B580830F5FF1
:104BA0001F4F043C110511F03196F2CFFE013196F2
:104BB000F999FECF12BD01BDF89A80B580830F5FD1
:104BC0001F4F063C110599F7FE013396F999FECF68
:104BD00012BD01BDF89A80B580830F5F1F4F083C5E
:104BE000110511F03196F2CFFE013596F999FECFFD
:104BF00012BD01BDF89A80B580830F5F1F4F0A3C3C
:104C0000110511F03196F2CFFE013796F999FECFDA
:104C100012BD01BDF89A80B580830F5F1F4F0C3C19
:104C2000110511F03196F2CFFE013996F999FECFB8
:104C300012BD01BDF89A80B580830F5F1F4F0E3CF7
:104C4000110511F03196F2CFFE013B96F999FECF96
:104C500012BD01BDF89A80B580830F5F1F4F003DE4
:104C6000110511F03196F2CFEDEAF2E0F999FECF9D
:104C700012BD01BDF89A80B580830F5F1F4F043DC0
:104C8000110511F03196F2CFE1EBF2E0F999FECF88
:104C900012BD01BDF89A80B580830F5F1F4F083D9C
:104CA000110511F03196F2CFE5EBF2E0F999FECF64
:104CB00012BD01BDF89A80B580830F5F1F4F0C3D78
:104CC000110511F03196F2CFFE013D96F999FECF14
:104CD00012BD01BDF89A80B580830F5F1F4F0E3D56
:104CE000110511F03196F2CFE3E3F6E0F999FECF2A
:104CF00012BD01BDF89A80B580830F5F1F4F023E41
:104D0000110511F03196F2CFE7E8F2E0F999FECF04
:104D100012BD01BDF89A80B580830F5F1F4F063E1C
:104D2000110511F03196F2CFE7E3F6E0F999FECFE5
:104D300012BD01BDF89A80B580830F5F1F4F0A3EF8
:104D4000110511F03196F2CFEBE8F2E0F999FECFC0
:104D500012BD01BDF89A80B580830F5F1F4F0E3ED4
:104D6000110511F03196F2CFEBE3F6E0F999FECFA1
:104D700012BD01BDF89A80B580830F5F1F4F023FBF
:104D8000110511F03196F2CFEFE8F2E0F999FECF7C
:104D900012BD01BDF89A80B58083053F110521F051
:104DA0000F5F1F4F3196F2CF0E94B77AE0EEF2E02C
:104DB00064918F0108C08FE091E10E9470110F5F34
:104DC0001F4FF80164916623B1F7E8E0F3E06491C6
:104DD0008F0108C08FE091E10E9470110F5F1F4F9B
:104DE000F80164916623B1F78FE091E16AE00E94D7
:104DF000701104C00E94731F0E94901C0E944221E7
:104E000066960FB6F894DEBF0FBECDBFCF91DF918F
:104E10001F910F910895CF93DF930FB6F89480916F
:104E2000071190910811A0910911B0910A110FBEBC
:104E30008093480690934906A0934A06B0934B0688
:104E4000E0917106F0917206ED58F94F8081882348
:104E500099F4E0EEF5E06491EF0107C08FE091E195
:104E60000E9470112196FE0164916623B9F78FE0CC
:104E700091E16AE00E947011DF91CF910895089549
:104E80008091310608950F931F93CF93DF93813064
:104E9000910549F46F5F7F4F09F046C08AE693E0C1
:104EA0000E940F1C41C0892B09F03EC06F5F7F4FED
:104EB000D9F58AE393E090932905809328058091A2
:104EC0002E05882321F08BE295E00E94A463C5EEB5
:104ED000D4E00AE313E005C06E9783E0C93BD8072E
:104EE00051F0198308838E818823B1F3CE01039694
:104EF0000E94A463F1CF8AE393E0998388838E8133
:104F0000882321F0CE0103960E94A4638AE393E0F4
:104F100090939A038093990380919F03882321F0B3
:104F20008CE993E00E94A463DF91CF911F910F91D0
:104F3000089580E090E06FEF7FEF0E94432708958F
:104F400081E090E06FEF7FEF0E9443270895EF929A
:104F5000FF920F931F93CF93DF93EC017A018B01A4
:104F6000FC01649107C08FE091E10E9470112196CD
:104F7000FE0164916623B9F78FE091E1B801A701C2
:104F80002AE000E00E94D490DF91CF911F910F9111
:104F9000FF90EF900895CF93DF930E948A7B8091DA
:104FA0003106882309F034C081E080933106809176
:104FB000400690914106A0914206B091430680932D
:104FC000440690934506A0934606B0934706E4E452
:104FD000F5E06491EF0107C08FE091E10E9470114C
:104FE0002196FE0164916623B9F7EBE4F5E0649144
:104FF000EF0107C08FE091E10E9470112196FE0140
:1050000064916623B9F78FE091E16AE00E94701124
:10501000DF91CF910895CF93DF93F8940E948A7B1C
:10502000779A10921906769A10921A06479A109259
:105030001B06439AE4E4F5E06491EF0107C08FE0BA
:1050400091E10E9470112196FE0164916623B9F7E7
:10505000E1ECF5E06491EF0107C08FE091E10E947F
:1050600070112196FE0164916623B9F78FE091E1FA
:105070006AE00E947011FFCFEF92FF920F931F938F
:105080000FB6F8948091071190910811A091091121
:10509000B0910A110FBEE0904C06F0904D060091C1
:1050A0004E0610914F0620914806309149064091D6
:1050B0004A0650914B06821B930BA40BB50BE816C6
:1050C000F9060A071B0738F4E114F104010511057C
:1050D00011F00E940B28E0909302F090940200914E
:1050E000950210919602E114F1040105110561F198
:1050F0000FB6F8948091071190910811A0910911B1
:10510000B0910A110FBE2091480630914906409196
:105110004A0650914B06821B930BA40BB50BE81665
:10512000F9060A071B0780F490914B0D80914C0DF6
:10513000981751F4779A10921906769A10921A06D7
:10514000479A10921B06439A0E94624E1F910F913C
:10515000FF90EF9008956F927F928F929F92AF92FF
:10516000BF92CF92DF92EF92FF920F931F93F82E90
:1051700060915006709151068091520690915306AD
:10518000209154063091550640915606509157068D
:105190000E9438973B014C0100D000D000D00DB7E1
:1051A0001EB70F5F1F4F60917602709177028827BC
:1051B00077FD8095982F0E94BF952091970230919E
:1051C00098024091990250919A020E94FD9720E026
:1051D00030E040E752E40E94249520E030E048ECC3
:1051E00052E40E9424955B016C01F8016082718297
:1051F00082829382F48280911C06858381EF95E000
:105200006CE576E040E556E020E001E032E0E32E98
:105210000E94C54980915C0690915D06A0915E0652
:10522000B0915F068093F1059093F205A093F3058A
:10523000B093F4058091600690916106A09162069A
:10524000B09163068093F5059093F605A093F7055A
:10525000B093F8058091640690916506A09166066A
:10526000B09167068093F9059093FA05A093FB052A
:10527000B093FC058091680690916906A0916A063A
:10528000B0916B068093FD059093FE05A093FF05FA
:10529000B09300060FB6F894809107119091081111
:1052A000A0910911B0910A110FBE80934806909306
:1052B0004906A0934A06B0934B068DB79EB7069653
:1052C0000FB6F8949EBF0FBE8DBF1F910F91FF9038
:1052D000EF90DF90CF90BF90AF909F908F907F9096
:1052E0006F900895CF92DF92EF92FF920F931F93EA
:1052F0000FB6F8948091071190910811A0910911AF
:10530000B0910A110FBE8093480690934906A0936E
:105310004A06B0934B066091F1057091F2058091B9
:10532000F3059091F40520915C0630915D06409163
:105330005E0650915F060E941D95882309F07AC091
:105340006091F5057091F6058091F7059091F8054B
:10535000209160063091610640916206509163068B
:105360000E941D95882309F065C060919702709195
:1053700098028091990290919A0220E030E040E7F3
:1053800052E40E9424957B018C018CE596E060E656
:1053900076E044E656E028E636E0ECE1CE2EE6E0A4
:1053A000DE2E0E94C55380915C0690915D06A0910F
:1053B0005E06B0915F068093F1059093F205A0938D
:1053C000F305B093F4058091600690916106A09179
:1053D0006206B09163068093F5059093F605A0935D
:1053E000F705B093F8058091640690916506A09149
:1053F0006606B09167068093F9059093FA05A0932D
:10540000FB05B093FC058091680690916906A09118
:105410006A06B0916B068093FD059093FE05A093FC
:10542000FF05B09300061F910F91FF90EF90DF9062
:10543000CF9008956091760270917702882777FD6A
:105440008095982F0E94BF952091970230919802E5
:105450004091990250919A020E94FD9720E030E01D
:1054600040E752E40E94249520E030E048EC52E40A
:1054700088CFCF93DF938FE091E10E949A92E3EE81
:10548000F5E06491EF0107C08FE091E10E94701197
:105490002196FE0164916623B9F740914006509130
:1054A000410660914206709143064F5F5F4F6F4F18
:1054B0007F4F8FE091E10E9461918FE091E16AE07E
:1054C0000E9470110E940B27DF91CF9108952F92B7
:1054D0003F924F925F926F927F928F929F92AF9284
:1054E000BF92CF92DF92EF92FF920F931F93DF93C1
:1054F000CF93CDB7DEB768970FB6F894DEBF0FBE77
:10550000CDBF9E878D878330910508F0CFC1FC0108
:10551000E65EF84F14911C01220C331C220C331C44
:1055200091012F503A4F388B2F8780E090E0A0E018
:10553000B0E0F90180839183A283B38381EF95E08A
:1055400065EF75E049EF55E02DEF35E00E94DB4E49
:105550009E012F5F3F4F388F2F8BD901ECE01D92BA
:10556000EA95E9F76091870270918802809189023B
:1055700090918A022091330630913406409135068D
:10558000509136060E94439469837A838B839C836F
:1055900060918B0270918C0280918D0290918E02AD
:1055A00020913706309138064091390650913A06DD
:1055B0000E9443946D837E838F83988760918F02CE
:1055C00070919002809191029091920220913B06FD
:1055D00030913C0640913D0650913E060E94439416
:1055E00069877A878B879C87612F772767FD7095FE
:1055F000882777FD8095982F0E94BF952B013C014D
:105600009101245A394F3A8B298B81E090E08C0F1D
:105610009D1F820D931D9C8B8B8BDC016D917D9169
:105620008D919C9120E030E040EC5FE30E94FD977B
:10563000A30192010E94FD97E989FA896083718331
:105640008283938391012A593D4F3E8B2D8BD90143
:105650006D917D918D919C916093970270939802CA
:105660008093990290939A0220E030E040E752E460
:105670000E9424957B018C018CE596E060E676E043
:1056800044E656E028E636E0ACE1CA2EA6E0DA2E83
:105690000E94C5530E943A7380E090E0A0E0B0E021
:1056A000EF85F88980839183A283B38381EF95E0AE
:1056B00065EF75E049EF55E02DEF35E00E94DB4ED8
:1056C000F101E35EF84F85909590A590B490C501E7
:1056D000B4019058A30192010E94FD97A989BA894B
:1056E0006D937D938D939C93139760919702709126
:1056F00098028091990290919A0220E030E040E770
:1057000052E40E9424957B018C018CE596E060E6D2
:1057100076E044E656E028E636E00E94C5530E9453
:105720003A73C501B401A50194010E944494A301F8
:1057300092010E94FD97E989FA89608371838283CF
:105740009383AD89BE896D917D918D919C9120E06F
:1057500030E040E05FE30E94FD9760939702709312
:1057600098028093990290939A0220E030E040E7FB
:1057700052E40E9424957B018C018CE596E060E662
:1057800076E044E656E028E636E00E94C5530E94E3
:105790003A73EF89F88D2CE011922A95E9F7809100
:1057A000330690913406A0913506B0913606898370
:1057B0009A83AB83BC8380918B0290918C02A091E1
:1057C0008D02B0918E028D839E83AF83B8878091C6
:1057D0008F0290919002A0919102B09192028987DC
:1057E0009A87AB87BC87F101EF5FF94FA080B1804A
:1057F000C280D380C601B501AB89BC892D913D9192
:105800004D915C910E9444947B018C01CB01D801A5
:10581000EF85F88980839183A283B383FDE08F2E87
:10582000F6E09F2E820C931CF101ED5CF94F608134
:10583000718182819381A60195010E944494D401D3
:105840006D937D938D939C931397F101E957FD4FD1
:105850006081718182819381A60195010E944494A7
:10586000EAE7F2E02E0E3F1ED1016D937D938D93FA
:105870009C931397C701D801E989FA8980839183A2
:10588000A283B38380E090E0A0E0B0E08093970231
:1058900090939802A0939902B0939A020E94867006
:1058A000AD85BE85A75EB94F81E08C9368960FB633
:1058B000F894DEBF0FBECDBFCF91DF911F910F9146
:1058C000FF90EF90DF90CF90BF90AF909F908F9020
:1058D0007F906F905F904F903F902F9008954091F0
:1058E00071065091720620E630E0B901469F9001A2
:1058F000479F300D569F300D1124682F772767FD85
:105900007095C9018358994F0E94A00E9C019093F5
:105910007C0680937B0680E0232B09F081E00895CC
:10592000EF92FF920F931F93CF93DF93EC017A01D5
:105930008B01FC01649107C08FE091E10E9470111E
:105940002196FE0164916623B9F78FE091E1B801D9
:10595000A70122E00E947391DF91CF911F910F91D7
:10596000FF90EF900895EF92FF920F931F93CF93C4
:10597000DF93EC017A018B01FC01649107C08FE099
:1059800091E10E9470112196FE0164916623B9F79E
:105990008FE091E1B801A70122E00E947391DF91AD
:1059A000CF911F910F91FF90EF90089580917B060A
:1059B00090917C06019660E070E04AE050E00E9421
:1059C000170D089580917B0690917C06019660E00A
:1059D00070E00E94B70B08950F931F93CF93DF934E
:1059E0008C0180911C0680933F0684E50E946F2CF9
:1059F000882309F44FC00E94E22C0E949195609385
:105A00003F06662309F446C0EEE3F5E06491EF013A
:105A100007C08FE091E10E9470112196FE01649110
:105A20006623B9F70936110599F00A36110524F4F1
:105A300008361105E9F407C00D36110571F00A3D6D
:105A40001105B1F40FC08FE091E16FE171E00EC07C
:105A50008FE091E166E371E009C08FE091E16DE4D0
:105A600071E004C08FE091E164E671E00E94A5114D
:105A700040913F0650E060E070E08FE091E12AE065
:105A800000E00E94D4908FE091E16AE00E947011E2
:105A900081E001C080E0DF91CF911F910F910895C7
:105AA000AF92BF92CF92DF92EF92FF920F931F932C
:105AB000CF93DF9311EFE12E15E0F12ECCE5D6E088
:105AC00000E010E0F801E450FD4F80810E946F2C4F
:105AD000882339F10E94E22C5B016C01F801E55149
