:100000000C947B200C94AA200C94AA200C94AA2077
:100010000C94AA200C94AA200C94AA200C94AA2038
:100020000C94AA200C94AA200C9437B90C94B4B95F
:100030000C94AA200C94AA200C94AA200C94AA2018
:100040000C94AA200C94337A0C94AA200C94AA2025
:100050000C94AA200C94AA200C94858D0C949BB827
:100060000C94AA200C94AA200C94AA200C94AA20E8
:100070000C94AA200C94AA200C94AA200C94AA20D8
:100080000C94AA200C94AA200C94AA200C94AA20C8
:100090000C94E0C60C94AA20CE8DDC8DF88D068ED3
:1000A000208E2E8E488E568E768E20B74BB76DB72B
:1000B0006DB76DB76DB76DB76DB76DB76DB76DB720
:1000C0006DB76DB76DB763B75BB753B76DB76DB746
:1000D0006DB76DB76DB76DB76DB745B72BB733B7A4
:1000E0003DB7084AD73B3BCE016E84BCBFFDC12F54
:1000F0003D6C74319ABD56833DDA3D00C77F11BE19
:10010000D9E4BB4C3E916BAAAABE000000803F051B
:10011000A84CCDB2D44EB93836A9020C50B991864C
:1001200088083CA6AAAA2ABE000000803F004861B9
:100130007264636F6465642044656661756C7420E5
:1001400053657474696E6773204C6F6164656400F5
:1001500053746F7265642073657474696E6773207D
:1001600072657472696576656400205A00205900D2
:1001700020204D3231312058004D617820706F734E
:100180006974696F6E20286D6D293A00205A00202D
:10019000590020204D3231302058004D696E2070BA
:1001A0006F736974696F6E20286D6D293A00204461
:1001B000002049002020204D33303120500050498C
:1001C000442073657474696E67733A00205A002086
:1001D000590020204D323036205800486F6D652080
:1001E0006F666673657420286D6D293A002045009E
:1001F000205A0020580020420020540020204D3278
:100200003035205300416476616E63656420766109
:10021000726961626C65733A20533D4D696E206668
:100220006565647261746520286D6D2F73292C20BB
:10023000543D4D696E2074726176656C206665650B
:10024000647261746520286D6D2F73292C20423DE6
:100250006D696E696D756D207365676D656E74206F
:1002600074696D6520286D73292C20583D6D617867
:10027000696D756D205859206A65726B20286D6D07
:100280002F73292C20205A3D6D6178696D756D2082
:100290005A206A65726B20286D6D2F73292C2020DF
:1002A000453D6D6178696D756D2045206A65726B9D
:1002B00020286D6D2F73290020540020204D3230EE
:1002C00034205300416363656C65726174696F6EBD
:1002D0003A20533D616363656C65726174696F6E4A
:1002E0002C20543D72657472616374206163636590
:1002F0006C65726174696F6E00204500205A0020A1
:10030000590020204D3230312058004D6178696D00
:10031000756D20416363656C65726174696F6E20F1
:10032000286D6D2F7332293A00204500205A002095
:10033000590020204D3230332058004D6178696DCE
:10034000756D2066656564726174657320286D6DD6
:100350002F73293A00204500205A00205900202000
:100360004D393220580053746570732070657220C7
:10037000756E69743A0053657474696E67732053BF
:10038000746F726564006563686F3A0053544F5030
:100390005045442E20005072696E7465722073744B
:1003A0006F707065642064756520746F206572726B
:1003B0006F72732E204669782074686520657272AA
:1003C0006F7220616E6420757365204D3939392054
:1003D000746F20726573746172742E202854656D79
:1003E00070657261747572652069732072657365DA
:1003F000742E2053657420697420616674657220C0
:1004000072657374617274696E6729004B494C4C54
:1004100045442E20005072696E7465722068616CCC
:100420007465642E206B696C6C28292063616C6C88
:10043000656421006F6B00526573656E643A20003D
:100440002200556E6B6E6F776E20636F6D6D616EFF
:10045000643A2022004368616E67652066696C61BA
:100460006D656E74006C636420636F6E747261738B
:10047000742076616C75653A2000655F6D61783A2D
:100480002000655F6D696E3A20007A5F6D61783A91
:100490002000795F6D61783A2000785F6D696E3A6F
:1004A00020005A3A00593A0020436F756E74205864
:1004B0003A2000453A005A3A00593A00583A00208A
:1004C00053455249414C5F4E554D4245523A2000EA
:1004D0002045585452554445525F434F554E543A67
:1004E0002000204D414348494E455F545950453AFC
:1004F00020002050524F544F434F4C5F56455253AB
:10050000494F4E3A2000204649524D574152455FCF
:1005100055524C3A20004649524D574152455F4E84
:10052000414D453A204D61726C696E205631004252
:100530006F637573696E69204F66662E004265644D
:1005400020646F6E652E0020423A0020453A005428
:100550003A004265642048656174696E672E004800
:10056000656174696E6720646F6E652E0020573A6E
:100570000020453A00543A0048656174696E672E60
:100580002E2E002042403A0020403A00202F003A10
:1005900000205400202F0020423A00202F006F6BD3
:1005A00020543A002569206D696E2C20256920733E
:1005B000656300456E642066696C65206C697374C0
:1005C00000426567696E2066696C65206C697374AA
:1005D000004E6F206D6F76652E00526573756D69E4
:1005E0006E67207072696E74005761697420666F5F
:1005F0007220757365722E2E2E00536C6565702EF9
:100600002E2E00256920686F757273202569206D74
:10061000696E7574657300446F6E65207072696EE3
:1006200074696E672066696C650053544F5050457D
:10063000442E20005072696E7465722073746F705E
:100640007065642064756520746F206572726F72C6
:10065000732E2046697820746865206572726F7207
:1006600020616E6420757365204D39393920746FAF
:1006700020726573746172742E202854656D7065E4
:100680007261747572652069732072657365742E6A
:1006900020536574206974206166746572207265E8
:1006A0007374617274696E6729006F6B004E6F20FE
:1006B0004C696E65204E756D62657220776974684D
:1006C00020636865636B73756D2C204C61737420B7
:1006D0004C696E653A20004E6F20436865636B730A
:1006E000756D2077697468206C696E65206E756D14
:1006F0006265722C204C617374204C696E653A20DF
:1007000000636865636B73756D206D69736D6174EB
:1007100063682C204C617374204C696E653A20002C
:100720004C696E65204E756D626572206973206E2E
:100730006F74204C617374204C696E65204E756D2A
:100740006265722B312C204C617374204C696E658C
:100750003A20004D31313000446F6E652073617670
:10076000696E672066696C652E006F6B004D3239CB
:10077000002020506C616E6E65724275666665720F
:1007800042797465733A20002046726565204D6594
:100790006D6F72793A20004A756C20313120323009
:1007A000313600436F6D70696C65643A2000507299
:1007B000696E7472626F7400207C20417574686F7A
:1007C000723A20004A756C203131203230313620A7
:1007D00031313A30333A353600204C61737420554C
:1007E0007064617465643A2000312E302E30004D03
:1007F00061726C696E200020536F66747761726558
:1008000020526573657400205761746368646F6774
:10081000205265736574002042726F776E206F7589
:1008200074205265736574002045787465726E613A
:100830006C20526573657400506F77657255700057
:100840007374617274002200656E717565696E67FC
:100850002022002200656E717565696E6720220096
:10086000FF01010000A0400000A0400000803F65A3
:1008700063686F3A004572726F723A007C3C3E5E6C
:100880002B3D3F2F5B5D3B2C2A225C004D383420F2
:10089000582059205A20450043616E6E6F742065C0
:1008A0006E746572207375626469723A20004D320D
:1008B00034004D3233202573006175746F25692E25
:1008C00067006572726F722077726974696E672053
:1008D000746F2066696C65004E6F742053442070FD
:1008E00072696E74696E67002F00534420707269DC
:1008F0006E74696E67206279746520002E0044650D
:100900006C6574696F6E206661696C65642C204645
:10091000696C653A200046696C652064656C657495
:1009200065643A002E006F70656E206661696C65C3
:10093000642C2046696C653A200057726974696EB0
:100940006720746F2066696C653A20002E006F7016
:10095000656E206661696C65642C2046696C653A39
:1009600020002E006F70656E206661696C65642CD6
:100970002046696C653A200046696C652073656C99
:100980006563746564002053697A653A200046699E
:100990006C65206F70656E65643A20002E006F7084
:1009A000656E206661696C65642C2046696C653AE9
:1009B00020004E6F772066726573682066696C65EB
:1009C0003A20004E6F7720646F696E672066696C0D
:1009D000653A20002220706F7300222070617265DA
:1009E0006E743A2200535542524F5554494E452099
:1009F00043414C4C207461726765743A22007472F2
:100A000079696E6720746F2063616C6C2073756206
:100A10002D67636F64652066696C65732077697400
:100A20006820746F6F206D616E79206C6576656CDF
:100A3000732E204D4158206C6576656C2069733AA1
:100A40000053442063617264206F6B006F70656EA9
:100A5000526F6F74206661696C656400766F6C75A7
:100A60006D652E696E6974206661696C65640053FA
:100A70004420696E6974206661696C006563686F03
:100A80003A004572726F723A0028002920453A00F8
:100A9000280029205A3A0028002920593A00280025
:100AA00020583A00537465707065722063757272D5
:100AB000656E742076616C756573205B25287261A4
:100AC00077295D3A00656E6473746F70732068698E
:100AD000743A20452B0020452B3A00656E647374F0
:100AE0006F7073206869743A20452D0020452D3AB7
:100AF00000656E6473746F7073206869743A205A6D
:100B000000205A3A00656E6473746F7073206869D0
:100B1000743A20590020593A00656E6473746F70FE
:100B200073206869743A20580020583A00656E6452
:100B300073746F7073206869743A200024F4D430A1
:100B400050C38E20C2A24017828B7011127A910D71
:100B5000816CD90AA861E108C7586607615143064C
:100B60001E4B5D05C145A7041A411104093D9803B8
:100B7000713931034036DB0265339102D4305402BF
:100B8000802E1D02632CEE01752AC501B028A0013C
:100B9000102781018F2564012B244B01E0223401B1
:100BA000AC211F018D200D01801FFC00841EED0073
:100BB000971DDF00B81CD200E61BC600201BBC003E
:100BC000641AB200B219A8000A19A0006A189900A4
:100BD000D117910040178B00B516840031167E00A6
:100BE000B31579003A157300C7146F0058146A00E2
:100BF000EE1366008813630025135E00C7125B00C6
:100C00006C12570015125400C111510070114F00A1
:100C100021114B00D61049008D10470046104400AA
:100C200002104200C00F4000800F3E00420F3C0007
:100C3000060F3B00CB0E3800930E37005C0E3500DC
:100C4000270E3400F30D3200C10D3100900D30003D
:100C5000600D2E00320D2D00050D2C00D90C2B003F
:100C6000AE0C2900850C29005C0C2700350C2700F0
:100C70000E0C2600E80B2400C40B2400A00B23005C
:100C80007D0B23005A0B2100390B2100180B20008B
:100C9000F80A1F00D90A1E00BB0A1E009D0A1D008B
:100CA000800A1D00630A1C00470A1B002C0A1B0057
:100CB000110A1A00F7091A00DD091900C409190000
:100CC000AB091900920917007B0918006309170086
:100CD0004C09160036091600200916000A091500ED
:100CE000F5081500E0081400CC081400B80814003A
:100CF000A4081400900813007D0812006B0813006C
:100D00005808120046081200340811002308110088
:100D10001208110001081100F0071000E007100090
:100D2000D0071000C0071000B0070F00A107100087
:100D300091070E0083070F0074070F0065070E0070
:100D400057070E0049070E003B070D002E070E0047
:100D500020070D0013070D0006070D00F9060C0013
:100D6000ED060D00E0060C00D4060C00C8060C00D1
:100D7000BC060C00B0060C00A4060B0099060C0083
:100D80008D060B0082060B0077060B006C060B002D
:100D900061060A0057060B004C060A0042060A00CC
:100DA00038060A002E060A0024060A001A060A005F
:100DB0001006090007060A00FD050900F4050900F0
:100DC000EB050900E2050900D9050900D005090075
:100DD000C7050900BE050900B5050800AD050800F6
:100DE000A50509009C050800940508008C0508006D
:100DF000840508007C050800740508006C050700E0
:100E0000650508005D050700560508004E0507004A
:100E100047050700400508003805070031050700B1
:100E20002A050700230507001C0506001605070014
:100E30000F0507000805060002050700FB04060071
:100E4000F5040700EE040600E8040600E2040700CB
:100E5000DB040600D5040600CF040600C904060022
:100E6000C3040600BD040600B7040600B104050073
:100E7000AC040600A6040600A00405009B040600BE
:100E800095040500900406008A0405008504050009
:100E9000800406007A04050075040500700405004E
:100EA0006B04050066040500610405005C04050090
:100EB00057040500520405004D04050048040500D0
:100EC000430405003E0404003A040500350405000F
:100ED000300404002C04050027040400230405004A
:100EE0001E0404001A040400160405001104040082
:100EF0000D040400090405000404040000040400B7
:100F0000FC030400F8030400F4030400F0030400ED
:100F1000EC030400E8030400E4030400E00304001D
:100F2000DC030400D8030400D4030400D00304004D
:100F3000CC030400C8030300C503030024F404D950
:100F4000201BC40C5C0E9804C4095F026507710184
:100F5000F405F900FB04B30048048700C1036900ED
:100F60005803550003034500BE023A0084023100D5
:100F700053022A002902250004022000E4011C007B
:100F8000C8011900AF011700980114008401130073
:100F9000710110006101100051010E0043010D00AC
:100FA00036010B002B010B0020010B00150109007D
:100FB0000C01090003010800FB000800F300080011
:100FC000EB000700E4000600DE000600D800060083
:100FD000D2000600CC000500C7000500C2000500D5
:100FE000BD000400B9000400B5000400B100040015
:100FF000AD000400A9000400A5000300A200030046
:101000009F0004009B00030098000300950002006D
:1010100093000300900003008D0002008B0003008A
:1010200088000200860002008400030081000200A4
:101030007F0002007D0002007B00020079000200B8
:1010400077000100760002007400020072000100C7
:10105000710002006F0002006D0001006C000200D0
:101060006A000100690002006700010066000100DB
:1010700065000100640002006200010061000100DF
:10108000600001005F0002005D0001005C000100E3
:101090005B0001005A0001005900010058000100E6
:1010A00057000100560001005500010054000100E6
:1010B00053000000530001005200010051000100E4
:1010C000500001004F0001004E0000004E000100E2
:1010D0004D0001004C0001004B0000004B000100DE
:1010E0004A000100490001004800000048000100DA
:1010F00047000100460000004600010045000000D6
:1011000045000100440001004300000043000100CD
:1011100042000000420001004100000041000100C7
:10112000400001003F0000003F0001003E000000C1
:101130003E0001003D0000003D0001003C000000B9
:101140003C0000003C0001003B0000003B000100AF
:101150003A0000003A0001003900000039000100A7
:10116000380000003800000038000100370000009F
:101170003700010036000000360000003600010094
:10118000350000003500000035000100340000008B
:101190003400000034000100330000003300000080
:1011A0003300010032000000320000003200010074
:1011B000310000003100000031000100300000006B
:1011C00030000000300001002F0000002F00000060
:1011D0002F0000002F0001002E0000002E00000054
:1011E0002E0001002D0000002D0000002D00000049
:1011F0002D0001002C0000002C0000002C0000003D
:101200002C0001002B0000002B0000002B00000030
:101210002B0001002A0000002A0000002A00000024
:101220002A00010029000000290000002900000018
:10123000290000002900010028000000280000000B
:1012400028000000280000002800010027000000FE
:1012500027000000270000002700000027000100F1
:1012600026000000260000002600000026000000E6
:1012700026000100250000002500000025000000D8
:1012800025000000250000002500010024000000CA
:1012900024000000240000002400000024000100BD
:1012A00023000000230000002300000023000000B2
:1012B00023000000230000002300010022000000A2
:1012C0002200000022000000220000002200000096
:1012D0002200010021000000210000002100000088
:1012E0002100000021000000210000002100010079
:1012F000200000002000000020000000200000006E
:10130000200000002000000020000000200001005C
:101310001F0000001F0000001F0000001F00000051
:101320001F0000001F0000001F0001001E00000041
:101330001E0000001E0000001E0000006563686FB4
:101340003A004572723A204D415854454D50204262
:1013500045440054656D70657261747572652068EE
:10136000656174656420626564207377697463687D
:101370006564206F66662E204D415854454D5020BF
:101380007472696767657265642021210045727215
:101390003A204D494E54454D50003A2045787472DC
:1013A00075646572207377697463686564206F661D
:1013B000662E204D494E54454D5020747269676722
:1013C000657265642021004572723A204D4158547F
:1013D000454D50003A2045787472756465722073EB
:1013E00077697463686564206F66662E204D415886
:1013F00054454D5020747269676765726564202199
:1014000000202D20496E76616C69642065787472C5
:1014100075646572206E756D626572202100504999
:1014200044204175746F74756E652066696E6973CA
:10143000686564212050757420746865204B702C99
:10144000204B6920616E64204B6420636F6E73745F
:10145000616E747320696E746F20436F6E66696786
:1014600075726174696F6E2E680050494420417531
:10147000746F74756E65206661696C656421207493
:10148000696D656F75740020403A006F6B20543AA7
:10149000006F6B20423A00504944204175746F74CC
:1014A000756E65206661696C6564212054656D7098
:1014B0006572617475726520746F6F206869676802
:1014C00000204B643A2000204B693A2000204B70EA
:1014D0003A200020436C6173696320504944200026
:1014E0002054753A2000204B753A2000206D617819
:1014F0003A2000206D696E3A200020643A200020D6
:10150000626961733A20004572726F723A0010008E
:10151000AD0330016A0150022B0170030A019004EF
:10152000F500B005E500D006D800F007CE001009A0
:10153000C500300ABE00500BB700700CB100900D12
:10154000AB00B00EA600D00FA200F0109D0010124C
:101550009900301395005014920070158E0090166B
:101560008B00B0178700D0188400F0198100101B81
:101570007E00301C7B00501D7900701E7600901F8D
:101580007300B0207000D0216E00F0226B00102498
:10159000690030256600502663007027610090289E
:1015A0005E00B0295C00D02A5900F02B5600102DA7
:1015B0005400302E5100502F4E0070304B009031AF
:1015C0004800B0324500D0334200F0343E001036BF
:1015D0003B00303737005038330070392E00903AD6
:1015E0002900B03B2300D03C1B00F03D1100103F10
:1015F0000100F03F000070012C0190012701B001B3
:101600002201C0011D01F001180110021301300276
:101610000E016002090190020401C002FF000003F4
:10162000FA004003F5008003F000D003EB00200433
:10163000E6007004E100E004DC004005D700C005CE
:10164000D2004006CD00D006C8008007C300300895
:10165000BE00F008B900C009B400B00AAF00B00B7A
:10166000AA00D00CA500000EA000500F9B00C010D7
:1016700096005012910000148C00C0158700B0171E
:101680008200B0197D00D01B7800001E730040203E
:101690006E0090226900F024640040275F009029CA
:1016A0005A00E02B5500102E500020304B00103215
:1016B0004600E033410090353C0010373700703869
:1016C0003200A0392D00B03A2800A03B2300603C36
:1016D0001E00103D1900903D1400103E0F00703E9A
:1016E0000A00C03E0500003F00005900B02000B0D5
:1016F0002000B02000B020002D2D3A2D2D004D36B9
:101700003030004368616E67652066696C616D65A5
:101710006E7400466C6F7700466C6F770046616EA2
:101720002073706565640046616E20737065656442
:101730000042656400426564004E6F7A7A6C6533DE
:10174000004E6F7A7A6C6533004E6F7A7A6C653230
:10175000004E6F7A7A6C6532004E6F7A7A6C650053
:101760004E6F7A7A6C6500537065656400537065DE
:101770006564004D61696E00580059005A00457853
:101780007472756465720045787472756465720070
:101790004D6F7665205A004D6F76652059004D6F6C
:1017A00076652058004D6F76652041786973004D4D
:1017B0006F766520302E316D6D004D6F766520316E
:1017C0006D6D004D6F76652031306D6D0050726526
:1017D00070617265004D6F76652041786973004DC8
:1017E00038300053776974636820506F77657220D2
:1017F0004F6E004D38310053776974636820506F25
:10180000776572204F666600436F6F6C646F776E0A
:1018100000507265686561742041425300507265E2
:101820006865617420504C4100473238004175743E
:101830006F20486F6D65004D3834004469736162F4
:101840006C65205374657070657273004D61696ECC
:10185000005049442D43005049442D430050494411
:101860002D44005049442D44005049442D49005016
:1018700049442D49005049442D50005049442D50B1
:1018800000200220466163740020022046616374D8
:10189000002002204D6178002002204D6178002058
:1018A00002204D696E002002204D696E004F666671
:1018B000004F6E20004F6666004F6E200041757429
:1018C0006F74656D700046616E20737065656400AD
:1018D00046616E2073706565640042656400426510
:1018E00064004E6F7A7A6C6533004E6F7A7A6C655D
:1018F00033004E6F7A7A6C6532004E6F7A7A6C657F
:1019000032004E6F7A7A6C65004E6F7A7A6C6500A1
:10191000436F6E74726F6C00436F6E747261737498
:1019200000526573746F7265204661696C736166FD
:1019300065004C6F6164206D656D6F727900537442
:101940006F7265206D656D6F7279004C4344206342
:101950006F6E74726173740054656D70657261743A
:10196000757265004D61696E004D383420582059FC
:10197000205A2045004D3234004D3233202573006B
:10198000F92E2E00F852656672657368004D616924
:101990006E004D323100496E69742E2053442D4340
:1019A000617264004E6F2043617264004D323100F9
:1019B0004368616E67652053442D43617264005033
:1019C00072696E742066726F6D2053440053746F99
:1019D00070205072696E7400526573756D65205089
:1019E00072696E74005061757365205072696E740F
:1019F00000436F6E74726F6C005072657061726537
:101A00000054756E6500496E666F2073637265657C
:101A10006E0000060900FE070199032B20FFFE0857
:101A2000FE07FE0000000600000107070602008016
:101A3000808080800080030303060104A0A0A0052D
:101A400007070600005050F850F8505005070706E9
:101A500000002070A07028702005070706000048CD
:101A6000A8502050A89005070706000040A0A040FD
:101A7000A89068010303060204808080030707061C
:101A8000010020408080804020030707060100807D
:101A90004020202040800505050600018850F850B0
:101AA000880505050600012020F820200303030611
:101AB00001FF604080050101060003F803030306EF
:101AC00001FF40E04005070706000008081020401D
:101AD0008080050707060000205088888850200570
:101AE00007070600002060A0202020F80507070651
:101AF0000000708808304080F8050707060000F8ED
:101B00000810300888700507070600001030509054
:101B1000F81010050707060000F880B0C8088870A4
:101B2000050707060000304080B0C8887005070729
:101B3000060000F8081010204040050707060000C6
:101B4000708888708888700507070600007088987C
:101B5000680810600307070601FF40E0400040E00E
:101B6000400307070601FF40E04000604080040793
:101B700007060100102040804020100503030600E6
:101B800002F800F8040707060100804020102040FA
:101B90008005070706000070881020200020050738
:101BA00007060000708898A8B08070050707060037
:101BB0000020508888F88888050707060000F0484C
:101BC00048704848F005070706000070888080804C
:101BD0008870050707060000F04848484848F005A7
:101BE0000707060000F88080F08080F805070706E8
:101BF0000000F88080F080808005070706000070F4
:101C0000888080988870050707060000888888F813
:101C1000888888030707060100E04040404040E014
:101C20000507070600003810101010906005070720
:101C30000600008890A0C0A0908805070706000055
:101C4000808080808080F80507070600008888D89B
:101C5000A88888880507070600008888C8A898888B
:101C6000880507070600007088888888887005073F
:101C700007060000F08888F08080800508080600CC
:101C8000FF7088888888A87008050707060000F09C
:101C90008888F0A09088050707060000708880708B
:101CA000088870050707060000F820202020202063
:101CB0000507070600008888888888887005070758
:101CC000060000888888505050200507070600004D
:101CD000888888A8A8D88805070706000088885043
:101CE000205088880507070600008888502020209B
:101CF00020050707060000F80810204080F80307B9
:101D000007060100E08080808080E005070706006C
:101D10000080804020100808030707060100E0202B
:101D200020202020E0050303060004205088050140
:101D3000010600FFF80202020602068040050505C2
:101D40000600007008788878050707060000808084
:101D5000B0C888C8B0050505060000708880887086
:101D600005070706000008086898889868050505B3
:101D70000600007088F880700507070600003048EC
:101D800040F04040400507070600FE788888780844
:101D900088700507070600008080B0C8888888031F
:101DA00007070601004000C0404040E00409090662
:101DB00001FE10003010101090906005070706001B
:101DC0000080808890E09088030707060100C040EB
:101DD00040404040E0050505060000D0A8A8A888BE
:101DE000050505060000B0C88888880505050600B9
:101DF0000070888888700507070600FEB0C888C88C
:101E0000B080800507070600FE6898889868080873
:101E1000050505060000B0C88080800505050600A0
:101E20000070807008F00507070600004040F04091
:101E30004048300505050600008888889868050533
:101E4000050600008888505020050505060000881A
:101E500088A8A85005050506000088502050880570
:101E600007070600FE88889868088870050505063B
:101E70000000F8102040F804070706010030402059
:101E8000C0204030010707060200808080808080EB
:101E900080040707060100C02040304020C0050331
:101EA0000306000448A890000000010000000000A4
:101EB000010000000000010000000000010000001F
:101EC000000001000000000001000000000001000F
:101ED0000000000001000000000001000000000000
:101EE00001000000000001000000000001000000EF
:101EF00000000100000000000100000000000100DF
:101F000000000000010000000000010000000000CF
:101F100001000000000001000000000001000000BE
:101F200000000100000000000100000000000100AE
:101F3000000000000100000000000100000000009F
:101F4000010000000000010000000000010000008E
:101F5000000001000000000001000000000001007E
:101F6000000000000100000000000100000000006F
:101F70000600000107070602008000808080808044
:101F80000507070600FF2078A0A0A0782005070716
:101F9000060000304840E04048B005050506000056
:101FA00088705070880508080600FF88885020F85F
:101FB00020202001070706020080808000808080AA
:101FC0000508080600FF7080E0904838087003019B
:101FD00001060107A00507070600007088A8C8A829
:101FE00088700406060601017090B05000F00605E6
:101FF000050600002448904824040202060102F06D
:1020000010040101060103F00507070600007088AF
:10201000E8C8C88870050101060007F80303030635
:10202000010440A0400506060600002020F82020FC
:10203000F804050506010360902040F0040505063C
:102040000103E0106010E002020206020640800573
:1020500006060600FF888888C8B0800507070600C6
:102060000078E8E8682828280101010602038002B8
:1020700002020602FE408003050506010340C0403F
:1020800040E00406060601016090906000F006053D
:102090000506000090482448900609090600FF4004
:1020A000C04040E40C143C040609090600FF40C08F
:1020B0004040E81404081C0509090600FFC0204040
:1020C00020C81828780805070706000020002020EF
:1020D0004088700508080600004020708888F8884D
:1020E000880508080600001020708888F888880590
:1020F00008080600002050708888F88888050808BD
:1021000006000048B0708888F8888805080806002E
:10211000005000708888F8888805080806000020AC
:1021200050708888F888880607070600003C5090A1
:102130009CF0909C0509090600FE708880808088CC
:1021400070204005080806000040F88080F080807C
:10215000F805080806000010F88080F08080F80577
:10216000080806000020F88080F08080F805080844
:1021700006000050F88080F08080F803080806010F
:10218000008040E040404040E00308080601002095
:1021900040E040404040E003080806010040A0E065
:1021A00040404040E0030808060100A000E0404035
:1021B0004040E0050707060000F04848E84848F0BE
:1021C000050808060000285088C8A89888880508CF
:1021D0000806000040207088888888700508080676
:1021E00000001020708888888870050808060000A4
:1021F00020507088888888700508080600002850DC
:10220000708888888870050808060000500070886B
:1022100088888870050505060000885020508805CC
:102220000707060000709898A8C8C8700508080637
:10223000000040208888888888700508080600000B
:1022400010208888888888700508080600002050BB
:102250000088888888700508080600005000888873
:10226000888888700508080600001020888850209B
:10227000202005070706000080F088F08080800598
:102280000707060000708890A09088B0050808062F
:1022900000004020007008788878050808060000D3
:1022A0001020007008788878050808060000205083
:1022B000007008788878050808060000285000702B
:1022C00008788878050707060000500070087888AD
:1022D00078050808060000205020700878887806E5
:1022E000050506000078147C907C0507070600FEB3
:1022F0007088808870204005080806000040200093
:102300007088F880700508080600001020007088AA
:10231000F880700508080600002050007088F880DA
:102320007005070706000050007088F880700308E9
:1023300008060100804000C0404040E00308080655
:102340000100408000C0404040E003080806010052
:1023500040A000C0404040E0060A0A0600FEA4A8D3
:1023600000FC8480808084FC060A0A0600FE5494E7
:1023700000FC8404040484FC0508080600002850BE
:1023800000B0C88888880508080600004020007052
:1023900088888870040A0A0602FE30408090909077
:1023A00090909090040A0A0600FEC0201090909031
:1023B00090909090060707060001448C8C84804022
:1023C0003C06070706000188C4C4840408F005051C
:1023D000050600012000F80020050808060000405E
:1023E000F0C88888987810050808060000E0F8888A
:1023F00088888888F80505050600012030F8302017
:102400000508080600002070F820202020E00509BB
:10241000090600FF2070A8A8B8888850200509097F
:102420000600FFE080C0B0A8A830282805090906EA
:1024300000FFF8A88888888888A8F8050A0A060096
:10244000FE205050505088A8A8887000060900FE51
:1024500006018902FE20FFFE07FE06FE00000006C0
:1024600000070106060602008080808000800303CA
:1024700003060103A0A0A00507070600FF5050F8BF
:1024800050F850500509090600FE2070A8A07028D9
:10249000A870200608080600FF40A84810204854ED
:1024A000080507070600FF60909060989068010398
:1024B000030602038080800207070602FF40808037
:1024C000808080400207070602FF80404040404075
:1024D000800505050600008850F8508805050506AA
:1024E00000002020F820200204040602FEC0404024
:1024F00080050101060002F8020202060200C0C0C7
:10250000040606060100101020408080040606061E
:10251000010060909090906003060606010040C0A4
:10252000404040E00406060601006090102040F0A4
:10253000040606060100F020601010E005060606FD
:10254000000010305090F810040606060100F080DC
:10255000E01010E00406060601006080E090906044
:10256000040606060100F01010204040040606068E
:102570000100609060909060040606060100609083
:1025800090701060020505060200C0C000C0C002C5
:1025900007070602FEC0C000C040408005050506D2
:1025A00000001860806018050303060001F800F8B9
:1025B000050505060000C0300830C0040707060105
:1025C0000060901060400040050606060000709014
:1025D000A8B08070050606060000205088F888889C
:1025E000050606060000F088F08888F00406060656
:1025F0000100609080809060040606060100E09073
:10260000909090E0040606060100F080E08080F0E3
:10261000040606060100F080E080808004060606BD
:102620000100609080B09060040606060100909062
:10263000F0909090030606060100E040404040E024
:102640000506060600003810101090600406060605
:10265000010090A0C0A090900406060601008080B2
:10266000808080F005060606000088D8A8A8888823
:1026700004060606010090D0B0909090050606066C
:102680000000708888888870040606060100E090C3
:1026900090E080800407070601FF609090D0B06052
:1026A00010040606060100E09090E09090040606F3
:1026B000060100609040209060050606060000F8C4
:1026C0002020202020040606060100909090909083
:1026D00060040606060100909090F0606005060612
:1026E0000600008888A8A8D8880506060600008885
:1026F00050202050880506060600008888502020BB
:1027000020040606060100F010204080F0030606B3
:10271000060100E080808080E0040606060100805B
:102720008040201010030606060100E02020202033
:10273000E00503030600032050880501010600FEA2
:10274000F80202020602048040040404060100703C
:102750009090700406060601008080E09090E004EE
:102760000404060100708080700406060601001053
:10277000107090907004040406010060B0C07004F2
:102780000606060100205040E0404004060606010F
:10279000FE6090907010600406060601008080E0E4
:1027A0009090900306060601004000C04040E00300
:1027B00008080601FE200060202020A04004060634
:1027C0000601008080A0C0A090030606060100C09C
:1027D00040404040E0050404060000D0A8A888045A
:1027E0000404060100E090909004040406010060D7
:1027F0009090600406060601FEE09090E080800460
:1028000006060601FE709090701010040404060184
:1028100000A0D0808004040406010070C030E004F1
:1028200006060601004040E0405020040404060172
:102830000090909070040404060100909060600580
:10284000040406000088A8A85004040406010090AF
:102850006060900406060601FE90909070906004FF
:102860000404060100F02040F003070706010020E1
:102870004040804040200107070602FF80808080A2
:102880008080800307070601008040402040408090
:1028900004020206010350A0FFFFFFFFFFFFFFFF3E
:1028A000FFFFFFFFFFFFFFFFFFFFFFFFFFFFFFFF38
:1028B000FFFFFFFFFFFFFFFFFF0000000600070113
:1028C000060606020080008080808004060606015D
:1028D000FF2070A0A070200507070600FF304840C9
:1028E000F04040F8050505060000A8508850A805EE
:1028F00006060600008850F820F8200107070602A7
:10290000FF808080008080800407070601FF7080C0
:1029100060906010E0030101060105A006070706AC
:102920000000788494A4948478030505060101606E
:10293000A06000E00505050600002850A05028040E
:102940000303060100F01010040101060102F00665
:1029500007070600007884B4A4A484780401010663
:102960000105F004030306010260906005070706F5
:1029700000FF2020F8202000F80305050601014093
:10298000A02040E0030505060101C0204020C00250
:10299000020206020440800405050601FF9090B083
:1029A000D08005060606000078E8E86828280101BE
:1029B00001060202800202020602FE4080030505B3
:1029C00006010140C04040E003050506010140A0AA
:1029D0004000E0050505060000A0502850A00508AD
:1029E000080600FF40C04050703078100508080607
:1029F00000FF40C04050680810380508080600FF76
:102A0000C0204030F0307810040707060100200095
:102A1000206080906005070706000040202050706D
:102A20008888050707060000102020507088880558
:102A30000707060000205020507088880507070609
:102A400000002850205070888805070706000050B5
:102A5000002050708888050707060000205020508D
:102A600070888805060606000078A0F0A0A0B804CB
:102A700008080601FE6090808090602040040707EF
:102A80000601004020F080E080F004070706010006
:102A90002040F080E080F00407070601002050F09D
:102AA00080E080F00407070601005000F080E0801D
:102AB000F00307070601008040E0404040E00307C4
:102AC000070601002040E0404040E0030707060100
:102AD0000040A0E0404040E0030707060100A000DE
:102AE000E0404040E00506060600007048E848481F
:102AF0007004070706010050A090D0B09090040722
:102B000007060100402060909090600407070601CE
:102B1000002040609090906004070706010020505C
:102B2000609090906004070706010050A0609090AC
:102B300090600407070601005000609090906005C7
:102B4000050506000088502050880408080601FF8B
:102B50001070B0B0D0D0E08004070706010040201C
:102B6000909090906004070706010020409090909C
:102B70009060040707060100205090909090600438
:102B80000707060100500090909090600507070627
:102B90000000102088502020200406060601008036
:102BA000E09090E0800406060601006090A0A090EE
:102BB000A0040707060100402000709090700407F1
:102BC000070601002040007090907004070706017E
:102BD000002050007090907004070706010050A07C
:102BE00000709090700406060601005000709090EE
:102BF00070040707060100205020709090700504B3
:102C00000406000070A8B0780406060601FE708075
:102C10008070204004070706010040200060B0C01B
:102C20007004070706010020400060B0C070040770
:102C30000706010020500060B0C0700406060601BF
:102C400000500060B0C0700307070601008040001C
:102C5000C04040E0030707060100204000C040409C
:102C6000E003070706010040A000C04040E0030663
:102C700006060100A000C04040E00407070601006E
:102C80003060107090906004070706010050A000AB
:102C9000E0909090040707060100402000609090AB
:102CA0006004070706010020400060909060040760
:102CB000070601002050006090906004070706019D
:102CC0000050A000609090600406060601005000CD
:102CD000609090600505050600002000F8002004C3
:102CE000040406010070B0D0E004070706010040AC
:102CF000200090909070040707060100204000908B
:102D0000909070040707060100205000909090708A
:102D10000406060601005000909090700409090610
:102D200001FE204000909090709060040808060119
:102D3000FE8080E09090E080800408080601FE504C
:102D40000090909070906000000000000000000073
:102D50000000007FFFE00000000000000000000015
:102D600000007000E0000000000000000000000013
:102D70000061F8600000000000000000000000009A
:102D800041F82000000000000000000000000040AA
:102D9000F020000000000000000000000000406083
:102DA000200000000000000000000000005801A00A
:102DB0007F80003FC0003FC0004104005C63A0FB77
:102DC000C00079E00079E0002082005EF7A0F3C047
:102DD0000076E00076E0002082005EF7A0EBC00005
:102DE0007EE0007EE0004104005C63A07B80003D4B
:102DF000C00039C0008208005801A07B80003BC0A1
:102E0000003EC001041000406020FBC00077E000DD
:102E100076E00104100040F020FBC00070E0007973
:102E2000E00082080041F820FFC0007FE0007FE062
:102E30000041040061F8603F00001F80001F800017
:102E40000000007000E01E00000F00000F0001FFF6
:102E5000FF807FFFE00C0000060000060001FFFF7E
:102E600080000000000000000000000000000000E2
:102E70007FFFE00000000000000000000000007084
:102E800000E0000000000000000000000000630CF3
:102E900060000000000000000000000000470E205D
:102EA0000000000000000000000000004F0F2000A4
:102EB00000000000000000000000005F0FA0000004
:102EC000000000000000000000005E07A07F8000FE
:102ED0003FC0003FC000410400406020FBC00079BB
:102EE000E00079E00020820040F020F3C00076E0AE
:102EF0000076E00020820040F020EBC0007EE00081
:102F00007EE0004104004060207B80003DC000392D
:102F1000C0008208005E07A07B80003BC0003EC06E
:102F2000010410005F0FA0FBC00077E00076E00115
:102F30000410004F0F20FBC00070E00079E0008219
:102F40000800470E20FFC0007FE0007FE000410442
:102F500000630C603F00001F80001F800000000025
:102F60007000E01E00000F00000F0001FFFF807FD7
:102F7000FFE00C0000060000060001FFFF800000DB
:102F80000000000000000000000000000000000041
:102F90000000000000000000000000000000000031
:102FA000000000000000000000FC03000000000022
:102FB000000000000000000000FE0700000000000C
:102FC000000000000000000000FE070000000000FC
:102FD000000000000000000000FE070000000000EC
:102FE000000000000000000000FE0F0000000000D4
:102FF000000000000000000000FE0F0000000000C4
:10300000000000000000E0FF3FFEFF07000000009E
:10301000000000000000F0FF7FFEFF0F0000000036
:10302000000000000000F0FF7FFEFF0F0000000026
:10303000000000000000F0FF7FFEFF1F0000000006
:10304000000000000000F0FF7FFEFF1F00000000F6
:10305000000000000000F0FF7FFEFF1F00000000E6
:10306000000000000000F88F7FFEE11F000000005C
:10307000000000000000F8077FFEC01F00000000F5
:10308000000000000000F8037E7EC01F000000006A
:10309000000000000000F8037E7EC03F000000003A
:1030A000000000000000F8037E7EC03F000000002A
:1030B000000000000000F8077FFEE03F0000000075
:1030C000000000000000F89F7FFEF33F00000000BA
:1030D000000000000000FCFF7FFEFF3F000000003A
:1030E000000000000000FCFF7FFEFF7F00000000EA
:1030F000000000000000FCFF7FFEFF7F00000000DA
:10310000000000000000FCFF7FFEFF7F00000000C9
:10311000000000000000FCFF3FFCFF3F000000003B
:10312000000000000000FC7F000000000000000024
:10313000000000000000FC3F000000000000000054
:10314000000000000000FE1F000000000000000062
:10315000000000000000FE1F000000000000000052
:10316000000000000000FE1F000000000000000042
:10317000000000000000FC0F000000000000000044
:10318000000000000000000000000000000000003F
:10319000000000000000000000000000000000002F
:1031A000000000000000000000000000000000001F
:1031B000000000000000000000000000000000000F
:1031C00000000000000000000000000000000000FF
:1031D00000000000000000000000000000000000EF
:1031E00000000000000000000000000000000000DF
:1031F00000000000000000000000000000000000CF
:1032000000000000000000000000000000000000BE
:103210000000000000380000000000000000000076
:103220000000000000380000000000000000000066
:10323000000000000038000038008003000000702B
:103240000000000000000000380080030000007053
:103250000000000000000000380080030000007043
:103260000000FE03F839F81FFC819FF307F01FF8F8
:103270000780FF0FFE39FC3FFCE19FF31FF87FF84A
:1032800007C0FF1FFE39FE7FFCF19FF33FFCFFF8F4
:1032900007C0031C0F380FF038708003700EC07128
:1032A00000E00138073807E038708003700EC07105
:1032B00000E00038073807E0387080037000C07104
:1032C00000E00038073807E0387080037000C071F4
:1032D00000E00038073807E0387080037000C071E4
:1032E00000E00038073807E038708003700EC071C6
:1032F00000E0001C073807E070708007781EE0F1DE
:1033000000E0F81F073807E0F07300FF3FFCFFE024
:1033100007E0F80F073807E0E07300FE1FF87FC0F2
:1033200007E0F807073807E0C07300FC0FF03F0024
:1033300007E00000000000000000000000000000A6
:1033400000E000000000000000000000000000009D
:1033500000E000000000000000000000000000008D
:10336000000000000000000000000000000000005D
:10337000000000000000000000000000000000004D
:10338000000129022904290829102920294029801F
:1033900029012C022C0126022604260826102620AC
:1033A0002640268026402C802C012302230423085B
:1033B00023102320234023802301200220042008FF
:1033C000201020202040208020102C202C012F02B3
:1033D0002F042F082F102F202F402F802F000100A7
:1033E000008E3412000200004B34430003000047FB
:1033F0003404010309042D3418020309041534169A
:103400000303090407340C0C033100320033003489
:103410000035000000160355005300420020005301
:103420000065007200690061006C00000018035420
:1034300000650065006E0073007900640075006926
:10344000006E006F0000000403090409024300023B
:103450000100C0320904000001020201000524003D
:1034600010010524010001042402060524060001C0
:103470000705820308004009040100020A00000059
:103480000705030240000007058402400000120106
:10349000000202000020C0168304000101020301A3
:1034A0000001C102018036018136FFE0FFD1AFFF8C
:1034B00032FFD0FFFEFFE0FFD1AEFFD0FFFEFFE006
:1034C000FFD11000FFFEFFD0FFE0FFC1FFD1AED55E
:1034D00080A83FD300408D142000A1C8DA1281CF0C
:1034E000D9F1DB402EA4A6AFFFD0FFFE00091200E9
:1034F000FC0A01E803D720FFFD0EFD0BFD000000D4
:1035000009000E010B0B0904008080808080808000
:103510000000808004040409030790909090080A3A
:103520000A090000242424FF2424FF242424070B58
:103530000B0901FF107C929050381412927C1007F6
:103540000A0A09010042A4A4481010244A4A840728
:103550000A0A090100609090906062948894620168
:10356000040409040780808080030C0C0903FF20F9
:103570004040808080808080404020030C0C090304
:10358000FF80404020202020202040408007070767
:1035900009010310925438549210070707090101DA
:1035A000101010FE1010100204040904FEC0C040E8
:1035B00080070101090104FE020202090400C0C0E3
:1035C000070A0A0901000204040810102040408084
:1035D000070A0A09010038448282828282824438C2
:1035E000070A0A090100103050901010101010FE48
:1035F000070A0A090100384482020408102040FE2C
:10360000070A0A090100FE0204081804020284786D
:10361000070A0A090100040C14244484FE0404046B
:10362000070A0A090100FE808080F80402028478FB
:10363000070A0A0901003C408080B8C482824438ED
:10364000070A0A090100FE020404080810101010FD
:10365000070A0A0901003844824438448282443807
:10366000070A0A09010038448282463A02020478B5
:10367000020707090400C0C0000000C0C002090919
:103680000904FEC0C0000000C0C04080050909094F
:10369000020008102040804020100807040409019F
:1036A00002FE0000FE050909090200804020100802
:1036B00010204080070A0A090100384482020408E9
:1036C00010100010070A0A09010038449AAAAAAA91
:1036D000AA9C403C070A0A09010010282828447CBB
:1036E00044828282070A0A090100F8848284F884ED
:1036F000828284F8070A0A0901003C4280808080A7
:103700008080423C070A0A090100F8848282828292
:10371000828284F8070A0A090100FE808080F8800E
:10372000808080FE070A0A090100FE808080F88000
:1037300080808080070A0A09010038448280808ED8
:1037400082824438070A0A09010082828282FE824C
:1037500082828282050A0A090200F82020202020A5
:10376000202020F8070A0A0901003E080808080876
:1037700008888870070A0A09010082848890A0D00E
:1037800088848282070A0A09010080808080808004
:10379000808080FE070A0A0901008282C6AA9282FE
:1037A00082828282070A0A0901008282C2A2928A68
:1037B00086828282070A0A0901007C8282828282D2
:1037C0008282827C070A0A090100F884828284F8D6
:1037D00080808080080B0B0901FF3844828282823E
:1037E000828A443A01070A0A090100F88482828425
:1037F000F890888482070A0A0901007C8280807C14
:10380000020202827C070A0A090100FE1010101051
:103810001010101010070A0A0901008282828282A9
:103820008282824438070A0A090100828282444463
:103830004428282810070A0A0901008282828292FD
:10384000929292AA44070A0A09010082824428102F
:103850001028448282070A0A090100828244281043
:103860001010101010070A0A090100FE02040810C7
:1038700020408080FE040C0C0903FFF080808080D3
:10388000808080808080F0070A0A09010080404023
:1038900020101008040402040C0C0902FFF01010A0
:1038A0001010101010101010F00704040901061079
:1038B0002844820801010900FFFF03030309030AEA
:1038C0008040200707070901007C02027E82867A79
:1038D000070A0A090100808080BCC2828282C2BCC1
:1038E0000707070901007C82808080827C070A0A22
:1038F0000901000202027A86828282867A0707071D
:103900000901007C8282FE80827C070A0A0901008C
:103910001C22222020F820202020070A0A0901FD6D
:103920007A84848478807C82827C070A0A09010078
:10393000808080BCC28282828282050A0A090200DB
:10394000600000E02020202020F8050D0D0902FD78
:1039500018000038080808080808888870070A0A4C
:10396000090100808080848890B0C88482050A0A9A
:10397000090200E02020202020202020F80707074F
:10398000090100EC929292929282070707090100C6
:10399000BCC282828282820707070901007C828280
:1039A0008282827C070A0A0901FDB8C4828282C42D
:1039B000B8808080070A0A0901FD3A468282824661
:1039C0003A0202020707070901009C624240404098
:1039D000400707070901007C82807C02827C07097E
:1039E000090901002020FC20202020221C070707B5
:1039F0000901008282828282867A07070709010014
:103A00008282444428281007070709010082829215
:103A10009292AA440707070901008244281028440B
:103A200082070A0A0901FD42422424241818109032
:103A300060070707090100FE0408102040FE060B7E
:103A40000B0902001C20202020C0202020201C0167
:103A50000C0C0904FF8080808080808080808080C2
:103A600080060B0B090100E0101010100C10101054
:103A700010E007030309010762928CFFFFFFFFFFBD
:103A8000FFFFFFFFFFFFFFFFFFFFFFFFFFFFFFFF46
:103A9000FFFFFFFFFFFFFFFFFFFFFFFF0000000929
:103AA000000E010B0B0904008080000080808080E4
:103AB00080808006080809010008789490A0A47806
:103AC00040070A0A0901001C222020F8202060A2D9
:103AD0005C070606090103827C44447C82070A0ACB
:103AE000090100828244287C107C101010010B0B0D
:103AF0000904FF8080808080008080808080040BAB
:103B00000B0902FF609080609090906010906003BD
:103B1000020209030BA0A00809090900013C42990F
:103B2000A5A1A599423C0507070901036090709083
:103B30007800F807080809010112244890904824E9
:103B400012060404090102FC04040405010109022F
:103B500004F80809090900013C42B9A5BDA9A5421C
:103B60003C060101090109FC0404040903066090F4
:103B70009060070909090101101010FE10101000D3
:103B8000FE0406060901046090106080F004060639
:103B900009010460902010906003030309030A20C8
:103BA00040800709090901FE8282828282C6BA80AA
:103BB00080070A0A0901007E8A8A8A7A0A0A0A0AA2
:103BC0000A020202090404C0C00403030902FD2022
:103BD000906003060609010440C0404040E005062D
:103BE000060901047088887000F8070808090101B7
:103BF0009048241212244890070A0A09010040C084
:103C0000404042E60A121A06070A0A09010040C0AB
:103C100040404CF2020C101E070A0A090100609095
:103C2000201092660A121A06070A0A0901001000FB
:103C3000101020408082827C070E0E0901002010A7
:103C4000080010282828447C44828282070E0E092E
:103C500001000810200010282828447C4482828219
:103C6000070E0E0901001028440010282828447C63
:103C700044828282070D0D09010034580010282863
:103C800028447C44828282070D0D09010028280007
:103C900010282828447C44828282070E0E090100E5
:103CA0001028281010282828447C44828282070A81
:103CB0000A0901001E2828284E784888888E070D9A
:103CC0000D0901FD3C42808080808080423C0824B8
:103CD00018070E0E09010020100800FE808080F8F1
:103CE00080808080FE070E0E09010008102000FE73
:103CF000808080F880808080FE070E0E0901001011
:103D0000284400FE808080F880808080FE070D0DB2
:103D1000090100282800FE808080F880808080FED5
:103D2000050E0E09020040201000F820202020205F
:103D3000202020F8050E0E09020010204000F82077
:103D400020202020202020F8050E0E0902002050FF
:103D50008800F82020202020202020F8050D0D09C3
:103D60000200505000F82020202020202020F807BA
:103D70000A0A09010078444242F24242424478076A
:103D80000D0D0901003458008282C2A2928A8682F7
:103D90008282070E0E090100201008007C828282B8
:103DA00082828282827C070E0E09010008102000A8
:103DB0007C82828282828282827C070E0E090100CE
:103DC000102844007C82828282828282827C070D5B
:103DD0000D0901003458007C8282828282828282B4
:103DE0007C070D0D0901002828007C8282828282D6
:103DF0008282827C07070709010182442810284437
:103E000082070C0C0901FF027C868A8A9292A2A288
:103E1000C27C80070E0E09010020100800828282F9
:103E200082828282824438070E0E09010008102027
:103E30000082828282828282824438070E0E0901C9
:103E40000010284400828282828282828244380763
:103E50000D0D0901002828008282828282828282DE
:103E60004438070E0E090100081020008282442801
:103E7000101010101010070A0A0901008080FC823F
:103E80008282FC808080060A0A0901003844444886
:103E9000D04844444458070B0B0901002010080087
:103EA0007C02027E82867A070B0B09010008102033
:103EB000007C02027E82867A070B0B090100102823
:103EC00044007C02027E82867A070A0A09010034D5
:103ED00058007C02027E82867A070A0A09010028BD
:103EE00028007C02027E82867A070C0C09010010F1
:103EF000282810007C02027E82867A0707070901C3
:103F0000006C12127E90926C070A0A0901FD7C82F5
:103F1000808080827C104830070B0B090100201044
:103F200008007C8282FE80827C070B0B090100085E
:103F30001020007C8282FE80827C070B0B0901002E
:103F4000102844007C8282FE80827C070A0A0901D4
:103F5000002828007C8282FE80827C050C0C0902ED
:103F6000008040200000E02020202020F8050C0CDC
:103F70000902001020400000E02020202020F80549
:103F80000C0C0902002050880000E0202020202096
:103F9000F8050B0B09020050500000E02020202003
:103FA00020F8070B0B090100483050083C4482827E
:103FB000824438070A0A090100345800BCC28282D0
:103FC000828282070B0B090100201008007C82828C
:103FD0008282827C070B0B090100081020007C8282
:103FE000828282827C070B0B090100102844007C2E
:103FF00082828282827C070A0A0901003458007C8E
:1040000082828282827C070A0A0901002828007CB9
:1040100082828282827C070909090100103810001F
:10402000FE001038100709090901FF027C8A8A92F4
:10403000A2A27C80070B0B090100402010008282A5
:10404000828282867A070B0B090100081020008209
:1040500082828282867A070B0B09010010284400B5
:104060008282828282867A070A0A09010028280051
:104070008282828282867A070E0E0901FD04081070
:104080000042422424241818109060070B0B0901E9
:10409000FE8080B8C4828282C4B88080070D0D097A
:1040A00001FD242400424224242418181090604E5C
:1040B000414E494E495459494E46CDCCCC3D0AD784
:1040C000233C17B7D13877CC2B329595E6241FB116
:1040D0004F0A000020410000C84200401C4620BC9E
:1040E000BE4CCA1B0E5AAEC59D7425319A8304B5C9
:1040F00000BDFDC5293111241FBECFEFD0E2DEBFC8
:10410000CDBF13E0A0E0B1E0ECEAF6EA01E00BBFBE
:1041100002C007900D92AC39B107D9F722E1ACE9A2
:10412000B3E001C01D92AB35B207E1F710E4C4EF74
:10413000D0E400E006C022970109FE010BBF0E94F7
:1041400097C8CA3ED10780E00807A9F70E94B1B618
:104150000C9444D30C940000DB010D900020E9F78F
:10416000AD0141505109461B570BDC01ED91FC910B
:104170000280F381E02D0994CF93DF931F92CDB796
:10418000DEB76983DC01ED91FC910280F381E02DC3
:1041900041E050E0BE016F5F7F4F09950F90DF91C6
:1041A000CF910895EF92FF920F931F93CF93DF93D8
:1041B0001F92CDB7DEB78C017B01460FF7016191ED
:1041C0007F01F8018081918149830E948DD2F8019D
:1041D0008081918101969183808349814E11EECF38
:1041E0000F90DF91CF911F910F91FF90EF90089565
:1041F000EF92FF920F931F93CF93DF931F92CDB750
:10420000DEB78C017B01460FF801808191814983E3
:104210000E9485D2F70181937F01F801808191810D
:1042200001969183808349814E11EECF0F90DF91EB
:10423000CF911F910F91FF90EF9008950F931F93CF
:10424000CF93DF93CDB7DEB72A970FB6F894DEBFD2
:104250000FBECDBF80E390E3A0E3B0E08D839E83EB
:10426000AF83B88704E610E01A87098744E0BE01EF
:104270006B5F7F4FCE01099695DF40E160E87FE0FC
:10428000CE0109968FDF40E160E97FE0CE0109961B
:1042900089DF40E160E77FE0CE01099683DF44E0FB
:1042A00068E67FE0CE0109967DDF44E064E67FE0CA
:1042B000CE01099677DF44E06CE67FE0CE010996F7
:1042C00071DF44E064E57FE0CE0109966BDF44E0F6
:1042D00060EA7FE0CE01099665DF44E060E67FE0BA
:1042E000CE0109965FDF44E06CE57FE0CE010996E0
:1042F00059DF44E068E57FE0CE01099653DF4CE0EA
:1043000069E975E0CE0109964DDF42E06EEF70E19C
:10431000CE01099647DF42E06CEF70E1CE010996CD
:1043200041DF42E06AEF70E1CE0109963BDF42E0F7
:1043300068EF70E1CE01099635DF42E066EF70E18B
:10434000CE0109962FDF42E064EF70E1CE010996BD
:1043500029DF44E06EE571E0CE01099623DF44E0F9
:104360006AE571E0CE0109961DDF44E066E571E083
:10437000CE01099617DF42E061EF70E1CE010996A8
:1043800011DF44E06DE973E0CE0109960BDF44E0F4
:1043900064E071E0CE01099605DF44E061EA73E074
:1043A000CE010996FFDE44E068E071E0CE01099697
:1043B000F9DE44E065EA73E0CE010996F3DE44E0FD
:1043C0006CE071E0CE010996EDDE86E591E3A2E3B3
:1043D000B0E089839A83AB83BC831A87098744E062
:1043E000BE016F5F7F4FCE010996DCDEE6E8F3E0A9
:1043F00064918F01662341F080E191E1BDDE0F5FA2
:104400001F4FF8016491F6CFE6E7F3E064918F0166
:10441000662341F080E191E1AFDE0F5F1F4FF801AD
:104420006491F6CF6AE080E191E1A6DE2A960FB6AC
:10443000F894DEBF0FBECDBFDF91CF911F910F91DA
:1044400008950F931F93CF93DF93C6E8D3E0FE0147
:1044500064918E01662341F080E191E18DDE0F5F72
:104460001F4FF8016491F6CFE6E6F3E064918F0107
:10447000662341F080E191E17FDE0F5F1F4FF8017D
:104480006491F6CF6AE080E191E176DEFE0164910D
:1044900006E813E0662341F080E191E16DDE0F5FF5
:1044A0001F4FF8016491F6CF4091800F5091810F1A
:1044B0006091820F7091830F8EE593E0B3D74091A6
:1044C000840F5091850F6091860F7091870F8BE557
:1044D00093E0A8D74091880F5091890F60918A0F7F
:1044E00070918B0F88E593E09DD740918C0F509190
:1044F0008D0F60918E0F70918F0F85E593E092D7AD
:104500006EE173E080E191E127DE6AE080E191E114
:1045100033DEFE01649106E813E0662341F080E19A
:1045200091E12ADE0F5F1F4FF8016491F6CFEBE3B4
:10453000F3E064918F01662341F080E191E11CDE9C
:104540000F5F1F4FF8016491F6CF6AE080E191E1BF
:1045500013DEFE01649106E813E0662341F080E17A
:1045600091E10ADE0F5F1F4FF8016491F6CF409191
:10457000900F5091910F6091920F7091930F82E381
:1045800093E050D74091940F5091950F6091960F02
:104590007091970F8FE293E045D74091980F50911B
:1045A000990F60919A0F70919B0F8CE293E03AD72C
:1045B00040919C0F50919D0F60919E0F70919F0FA5
:1045C00089E293E02FD76EE173E080E191E1C4DDF1
:1045D0006AE080E191E1D0DDFE01649106E813E03C
:1045E000662341F080E191E1C7DD0F5F1F4FF801C5
:1045F0006491F6CFEBE0F3E064918F01662341F024
:1046000080E191E1B9DD0F5F1F4FF8016491F6CFB2
:104610006AE080E191E1B0DDFE01649106E813E01B
:10462000662341F080E191E1A7DD0F5F1F4FF801A4
:104630006491F6CF4091700F5091710F6091720F9D
:104640007091730F82E093E02DD74091740F5091D9
:10465000750F6091760F7091770F8FEF92E022D7F0
:104660004091780F5091790F60917A0F70917B0F84
:104670008CEF92E017D740917C0F50917D0F6091A5
:104680007E0F70917F0F89EF92E00CD76EE173E09F
:1046900080E191E161DD6AE080E191E16DDDFE01A3
:1046A000649106E813E0662341F080E191E164DD66
:1046B0000F5F1F4FF8016491F6CFE4ECF2E06491D4
:1046C0008F01662341F080E191E156DD0F5F1F4FBE
:1046D000F8016491F6CF6AE080E191E14DDDFE01E1
:1046E000649106E813E0662341F080E191E144DD46
:1046F0000F5F1F4FF8016491F6CF4091680F509102
:10470000690F60916A0F70916B0F8BEB92E08AD604
:104710004091640F5091650F6091660F7091670F23
:1047200088EB92E07FD66EE173E080E191E114DDE9
:104730006AE080E191E120DDFE01649106E813E08A
:10474000662341F080E191E117DD0F5F1F4FF80113
:104750006491F6CFE5E0F2E064918F01662341F0C9
:1047600080E191E109DD0F5F1F4FF8016491F6CF01
:104770006AE080E191E100DDFE01649106E813E06A
:10478000662341F080E191E1F7DC0F5F1F4FF801F4
:104790006491F6CF40916C0F50916D0F60916E0F48
:1047A00070916F0F8CEF91E03DD64091540F509176
:1047B000550F6091560F7091570F89EF91E032D6E7
:1047C0004091A00F5091A10F6091A20F7091A30F83
:1047D00086EF91E067D64091600F5091610F609134
:1047E000620F7091630F83EF91E01CD640915C0FD4
:1047F00050915D0F60915E0F70915F0F80EF91E0BF
:1048000011D64091580F5091590F60915A0F7091E5
:104810005B0F8DEE91E006D66EE173E080E191E1F1
:104820009BDC6AE080E191E1A7DCFE01649106E88F
:1048300013E0662341F080E191E19EDC0F5F1F4FA2
:10484000F8016491F6CFEBEDF1E064918F016623FE
:1048500041F080E191E190DC0F5F1F4FF80164911E
:10486000F6CF6AE080E191E187DCFE01649106E821
:1048700013E0662341F080E191E17EDC0F5F1F4F82
:10488000F8016491F6CF4091990550919A05609195
:104890009B0570919C0582ED91E0C4D540919D05EA
:1048A00050919E0560919F057091A0058FEC91E05D
:1048B000B9D54091A1055091A2056091A3057091D1
:1048C000A4058CEC91E0AED56EE173E080E191E15E
:1048D00043DC6AE080E191E14FDCFE01649106E88F
:1048E00013E0662341F080E191E146DC0F5F1F4F4A
:1048F000F8016491F6CFEEEBF1E064918F0166234D
:1049000041F080E191E138DC0F5F1F4FF8016491C5
:10491000F6CF6AE080E191E12FDCFE01649106E8C8
:1049200013E0662341F080E191E126DC0F5F1F4F29
:10493000F8016491F6CF40915E0150915F01609162
:1049400060017091610184EB91E06CD560915A0136
:1049500070915B0180915C0190915D010E94F98EE4
:10496000AB01BC0181EB91E05DD560915601709186
:10497000570180915801909159010E94058FAB0118
:10498000BC018EEA91E04ED56EE173E080E191E1E9
:10499000E3DB6AE080E191E1EFDBFE01649106E890
:1049A00013E0662341F080E191E1E6DB0F5F1F4FEA
:1049B000F8016491F6CFEBE9F1E064918F01662391
:1049C00041F080E191E1D8DB0F5F1F4FF801649166
:1049D000F6CF6AE080E191E1CFDBFE01649106E869
:1049E00013E0662341F080E191E1C6DB0F5F1F4FCA
:1049F000F8016491F6CF40919D0350919E03609120
:104A00009F037091A00382E991E00CD54091A1032E
:104A10005091A2036091A3037091A4038FE891E0E9
:104A200001D54091A5035091A6036091A703709111
:104A3000A8038CE891E0F6D46EE173E080E191E1A7
:104A40008BDB6AE080E191E197DBFE01649106E88F
:104A500013E0662341F080E191E18EDB0F5F1F4F91
:104A6000F8016491F6CFE9E7F1E064918F016623E4
:104A700041F080E191E180DB0F5F1F4FF80164910D
:104A8000F6CF6AE080E191E177DBFE01649106E810
:104A900013E0662341F080E191E16EDB0F5F1F4F71
:104AA000F8016491F6CF40910401509105016091A5
:104AB00006017091070180E791E0B4D440910801AC
:104AC0005091090160910A0170910B018DE691E00E
:104AD000A9D440910C0150910D0160910E0170918B
:104AE0000F018AE691E09ED46EE173E080E191E1EE
:104AF00033DB6AE080E191E1DF91CF911F910F916B
:104B00003BCBAF92BF92CF92DF92EF92FF920F9387
:104B10001F93CF93DF93CDB7DEB7E0970FB6F8942E
:104B2000DEBF0FBECDBF80E1EFE8F1E0DE01919680
:104B300001900D928A95E1F780E1EFE9F1E0DE0165
:104B4000519601900D928A95E1F780E1EFEAF1E04C
:104B5000DE01119601900D928A95E1F76E0181E2D6
:104B6000C80ED11C80E8E82E8FE0F82E8E010F5E73
:104B70001F4F60E97FE0AE014F5F5F4F90E7A92EC6
:104B80009FE0B92E20E030E0F60181919191A19152
:104B9000B1916F01F70181939193A193B1937F013B
:104BA000F80181919191A191B1918F01FB018193C4
:104BB0009193A193B193BF01FA0181919191A19138
:104BC000B191AF01F50181939193A193B1935F01ED
:104BD0002F5F3F4F24303105B9F60E94CC7880E03A
:104BE00090E8ABE3B5E48093680F9093690FA093CE
:104BF0006A0FB0936B0F8093640F9093650FA0932F
:104C0000660FB093670F10926C0F10926D0F109299
:104C10006E0F10926F0F80E29EE4A0E0B0E08093F0
:104C2000A00F9093A10FA093A20FB093A30F109287
:104C3000540F1092550F1092560F1092570F80E09C
:104C400090E0A0EAB1E48093600F9093610FA0938D
:104C5000620FB093630F8DEC9CECACECBEE38093E1
:104C60005C0F90935D0FA0935E0FB0935F0F80E099
:104C700090E0A0EAB0E48093580F9093590FA0936E
:104C80005A0FB0935B0F1092A1051092A2051092DB
:104C9000A3051092A40510929D0510929E051092F6
:104CA0009F051092A0051092990510929A051092F6
:104CB0009B0510929C0584EB90E09093FF108093ED
:104CC000FE1086E490E09093FD108093FC108FEF2F
:104CD00090E09093FB108093FA1020EF30E0309337
:104CE000F9102093F81024E630E03093F710209369
:104CF000F6109093F5108093F41080E290E090937A
:104D0000F2108093F1108AE999E9A1EBB1E4809364
:104D10005E0190935F01A0936001B093610161E730
:104D20007DE38AE89FE30E94F38E60935A017093BB
:104D30005B0180935C0190935D0160E070E084EE24
:104D400092E40E94FF8E6093560170935701809306
:104D50005801909359010E94348580E090E0A0E8CA
:104D6000BFE38093520190935301A0935401B093F9
:104D7000550110929D0310929E0310929F03109272
:104D8000A0031092A1031092A2031092A303109209
:104D9000A4031092A5031092A6031092A7031092E9
:104DA000A80380E090E0A8E1B3E48093040190932D
:104DB0000501A0930601B093070180930801909329
:104DC0000901A0930A01B0930B0180E090E0A3E0F9
:104DD000B3E480930C0190930D01A0930E01B09366
:104DE0000F01E6E8F3E064918F01662341F080E172
:104DF00091E1C2D90F5F1F4FF8016491F6CFEEE247
:104E0000F1E064918F01662341F080E191E1B4D932
:104E10000F5F1F4FF8016491F6CF6AE080E191E1E6
:104E2000E0960FB6F894DEBF0FBECDBFDF91CF91F5
:104E30001F910F91FF90EF90DF90CF90BF90AF90B8
:104E40009BC90F931F93CF93DF93CDB7DEB72A97FC
:104E50000FB6F894DEBF0FBECDBF84E690E09A8710
:104E6000898786E591E3A2E3B0E089839A83AB83E7
:104E7000BC8344E0BE016B5F7F4FCE010996B8D979
:104E800043E050E0BE016B5F7F4FCE0101960E9470
:104E90004CD0892B09F0CDC040E160E87FE0CE0125
:104EA0000996A6D940E160E97FE0CE010996A0D934
:104EB00040E160E77FE0CE0109969AD90E94CC7864
:104EC00044E068E67FE0CE01099692D944E064E6CA
:104ED0007FE0CE0109968CD944E06CE67FE0CE01FC
:104EE000099686D944E064E57FE0CE01099680D931
:104EF00044E060EA7FE0CE0109967AD944E060E6BA
:104F00007FE0CE01099674D944E06CE57FE0CE01E4
:104F100009966ED944E068E57FE0CE01099668D92C
:104F20004CE069E975E0CE01099662D942E06EEF86
:104F300070E1CE0109965CD942E06CEF70E1CE01E0
:104F4000099656D942E06AEF70E1CE01099650D930
:104F500042E068EF70E1CE0109964AD942E066EF7F
:104F600070E1CE01099644D942E064EF70E1CE01D0
:104F700009963ED944E06EE571E0CE01099638D934
:104F800044E06AE571E0CE01099632D944E066E575
:104F900071E0CE0109962CD942E061EF70E1CE01BB
:104FA000099626D944E06DE973E0CE01099620D92F
:104FB00044E064E071E0CE0109961AD944E061EA68
:104FC00073E0CE01099614D944E068E071E0CE01A7
:104FD00009960ED944E065EA73E0CE01099608D936
:104FE00044E06CE071E0CE01099602D90E9434855C
:104FF000E6E8F3E064918F01662341F080E191E1FE
:10500000BBD80F5F1F4FF8016491F6CFE0E5F1E0E8
:1050100064918F01662341F080E191E1ADD80F5F8B
:105020001F4FF8016491F6CF6AE080E191E1A4D8C6
:1050300002C067DD03D905DA2A960FB6F894DEBF01
:105040000FBECDBFDF91CF911F910F9108952F9289
:105050003F924F925F926F927F928F929F92AF9208
:10506000BF92CF92DF92EF92FF920F931F93CF9355
:10507000DF93CDB7DEB72C970FB6F894DEBF0FBE27
:10508000CDBF4C01FC01E05AF74F14915C01AA0C12
:10509000BB1CAA0CBB1C95012B553A4F1901F901F9
:1050A000108211821282138221EB35E04DEA55E025
:1050B00069EA75E085EA95E00E94037820919D03F6
:1050C00030919E0340919F035091A0036091040191
:1050D0007091050180910601909107010E94AAC874
:1050E00069837A838B839C832091A1033091A203EF
:1050F0004091A3035091A4036091080170910901AC
:1051000080910A0190910B010E94AAC86D837E8351
:105110008F8398872091A5033091A6034091A70320
:105120005091A80360910C0170910D0180910E01C6
:1051300090910F010E94AAC869877A878B879C8704
:10514000FE01EA0DFB1DC180D280E380F480612F57
:10515000772767FD7095872F972F0E9426CA2B010E
:105160003C01850103591A4F20E030E040EC5FE339
:10517000C701B6010E9459CCA30192010E9459CCEB
:10518000F8016083718382839383F501E55DFE4FAF
:105190006081718182819381609315017093160102
:1051A000809317019093180120E030E040E752E42B
:1051B0000E948BC929E8C22E25E0D22E7B018C01EA
:1051C00029E735E045E755E061E775E08DE695E0D4
:1051D0000E944B6F0E943C81F10110821182128269
:1051E000138221EB35E04DEA55E069EA75E085EA86
:1051F00095E00E94037895012D59374F5901F90127
:1052000085919591A591B4918401000F111F000F14
:10521000111F03591A4FBC01CD019058A3019201EF
:105220000E9459CCF801608371838283938320E0CC
:1052300030E040E752E460911501709116018091D1
:105240001701909118010E948BC97B018C0129E7FD
:1052500035E045E755E061E775E08DE695E00E94B1
:105260004B6F0E943C81F5016591759185919491F8
:105270005401AA0CBB1CAA0CBB1C950123593A4F24
:1052800019019B01AC010E94ABC8A30192010E94CD
:1052900059CCF1016083718382839383F501E55DCD
:1052A000FE4F20E030E040E05FE360817181828169
:1052B00093810E9459CC60931501709316018093DD
:1052C00017019093180120E030E040E752E40E947B
:1052D0008BC97B018C0129E735E045E755E061E7A3
:1052E00075E08DE695E00E944B6F0E943C818091B5
:1052F0009D0390919E03A0919F03B091A003898389
:105300009A83AB83BC838091080190910901A0919D
:105310000A01B0910B018D839E83AF83B887809182
:105320000C0190910D01A0910E01B0910F018987A0
:105330009A87AB87BC87FE01EA0DFB1D61817281F4
:1053400083819481F501E756FA4FC080D180E280D5
:10535000F380A70196010E94ABC82B013C01F50127
:10536000EB55FA4F608371838283938385010357E2
:105370001A4FF501E356FC4FA70196016081718138
:10538000828193810E94ABC8F8016083718382831C
:1053900093838501055E1E4FF501EC5FFE4FA7016B
:1053A000960160817181828193810E94ABC8F8016E
:1053B0006083718382839383F10140825182628290
:1053C000738210921501109216011092170110921B
:1053D00018010E941F7AF401E657FA4F81E080839A
:1053E0002C960FB6F894DEBF0FBECDBFDF91CF91E4
:1053F0001F910F91FF90EF90DF90CF90BF90AF90F3
:105400009F908F907F906F905F904F903F902F90E4
:105410000895AB01662757FD6095762F0C94B9B5BA
:105420000C94FEB5CF92DF92EF92FF92CF93DF9371
:10543000EC016A017B01FE016491662331F080E199
:1054400091E10E94BC202196F6CF22E030E0B70126
:10545000A60180E191E1DF91CF91FF90EF90DF9085
:10546000CF90DECFCF92DF92EF92FF92CF93DF9378
:10547000EC016A017B01FE016491662331F080E159
:1054800091E10E94BC202196F6CF22E030E0B701E6
:10549000A60180E191E1DF91CF91FF90EF90DF9045
:1054A000CF90BECFCF92DF92EF92FF92CF93DF9358
:1054B000EC016A017B01FE016491662331F080E119
:1054C00091E10E94BC202196F6CF20E0B701A60111
:1054D00080E191E1DF91CF91FF90EF90DF90CF904D
:1054E0000C945DB5CF93DF9300D0CDB7DEB780913C
:1054F0000211909103119E012F5F3F4F009719F405
:105500002B55324102C0281B390B3A8329838981EC
:105510009A810F900F90DF91CF910895CF93DF93F1
:105520002091C2033091C303243031050CF065C0D3
:105530004091C4035091C50360E6649F9001659F4C
:10554000300D1124BC01C90184539C4F0E9445D0E9
:10555000EFE6F8E06491EF01662341F080E191E12C
:105560000E94BC202196FE016491F6CFE5E5F8E0AB
:105570006491EF01662341F080E191E10E94BC203B
:105580002196FE016491F6CF8091C4039091C503EA
:1055900020E6289FB001299F700D112464537C4F91
:1055A00080E191E10E94AC20E3E5F8E06491EF0135
:1055B000662341F080E191E10E94BC202196FE012A
:1055C0006491F6CF6AE080E191E10E94BC20809175
:1055D000C4039091C503019664E070E00E9430C856
:1055E0009093C5038093C4038091C2039091C30339
:1055F00001969093C3038093C203DF91CF910895E6
:10560000CF93DF932091C2033091C303243031053F
:105610000CF065C04091C4035091C50360E6649FDF
:105620009001659F300D1124BC01C90184539C4F2A
:105630000E94C8CFEFE6F8E06491EF01662341F0E5
:1056400080E191E10E94BC202196FE016491F6CF99
:10565000E8E4F8E06491EF01662341F080E191E134
:105660000E94BC202196FE016491F6CF8091C40374
:105670009091C50320E6289FB001299F700D112449
:1056800064537C4F80E191E10E94AC20E6E4F8E0B5
:105690006491EF01662341F080E191E10E94BC201A
:1056A0002196FE016491F6CF6AE080E191E10E94CB
:1056B000BC208091C4039091C503019664E070E022
:1056C0000E9430C89093C5038093C4038091C203A5
:1056D0009091C30301969093C3038093C203DF911B
:1056E000CF910895FF920F931F93CF93DF9380E89C
:1056F00085BF85BF40E950ED63E070E080E191E156
:105700000E9498BCE0E4F8E06491EF01662341F068
:1057100080E191E10E94BC202196FE016491F6CFC8
:105720006AE080E191E10E94BC20CFE6D8E0FE0172
:1057300064918E01662349F080E191E10E94BC20D2
:105740000F5F1F4FF8016491F5CFF4B6F0FE14C05F
:10575000E8E3F8E064918F01662349F080E191E18C
:105760000E94BC200F5F1F4FF8016491F5CF6AE0E3
:1057700080E191E10E94BC20F1FE14C0E8E2F8E073
:1057800064918F01662349F080E191E10E94BC2081
:105790000F5F1F4FF8016491F5CF6AE080E191E15E
:1057A0000E94BC20F2FE14C0E7E1F8E064918F0192
:1057B000662349F080E191E10E94BC200F5F1F4FFA
:1057C000F8016491F5CF6AE080E191E10E94BC208C
:1057D000F3FE14C0E7E0F8E064918F01662349F01E
:1057E00080E191E10E94BC200F5F1F4FF80164919E
:1057F000F5CF6AE080E191E10E94BC20F5FE14C083
:10580000E7EFF7E064918F01662349F080E191E1D1
:105810000E94BC200F5F1F4FF8016491F5CF6AE032
:1058200080E191E10E94BC2014BEEFEEF7E06491AC
:105830008F01662349F080E191E10E94BC200F5F57
:105840001F4FF8016491F5CFE9EEF7E064918F0105
:10585000662349F080E191E10E94BC200F5F1F4F59
:10586000F8016491F5CF6AE080E191E10E94BC20EB
:10587000FE0164910FE618E0662349F080E191E1B2
:105880000E94BC200F5F1F4FF8016491F5CFE9ED36
:10589000F7E064918F01662349F080E191E10E9475
:1058A000BC200F5F1F4FF8016491F5CFE4ECF7E0E7
:1058B00064918F01662349F080E191E10E94BC2050
:1058C0000F5F1F4FF8016491F5CFE8EBF7E06491AB
:1058D0008F01662349F080E191E10E94BC200F5FB7
:1058E0001F4FF8016491F5CFEEEAF7E064918F0164
:1058F000662349F080E191E10E94BC200F5F1F4FB9
:10590000F8016491F5CF6AE080E191E10E94BC204A
:10591000E3EAF7E064918F01662349F080E191E1C9
:105920000E94BC200F5F1F4FF8016491F5CFE7E99B
:10593000F7E064918F01662349F080E191E10E94D4
:10594000BC200F5F1F4FF8016491F5CF6AE080E142
:1059500091E10E94BC20FE0164910FE618E06623ED
:1059600049F080E191E10E94BC200F5F1F4FF801D8
:105970006491F5CFE8E8F7E06491EF01662341F028
:1059800080E191E10E94BC202196FE016491F6CF56
:10599000A9DDBC0180E191E13CDDE1E7F7E0649144
:1059A000EF01662341F080E191E10E94BC20219645
:1059B000FE016491F6CF60ED74E080E191E129DDB4
:1059C0006AE080E191E10E94BC201092C80310922D
:1059D000C9031092CA031092CB0333DA0E94A58741
:1059E0000E94DE6D0E9426830E94DC800E94ACA093
:1059F000FFEF23ED80E3F15020408040E1F700C04D
:105A00000000DF91CF911F910F91FF900895809139
:105A1000BC039091BD0360E070E001960C941FCD33
:105A20008091BC039091BD034AE050E060E070E0DB
:105A300001960C9487CE682F772767FD709520918B
:105A4000C6033091C70340E6429FC001439F900DBB
:105A5000112484539C4F0E943AD09093BD038093AD
:105A6000BC0321E0892B09F420E0822F0895CF9315
:105A7000DF930FB6F8948091051190910611A091D3
:105A80000711B09108110FBE8093B8039093B9032A
:105A9000A093BA03B093BB03E091C603F091C70390
:105AA000E853FC4F8081811115C0E4E3F4E0649178
:105AB000EF01662341F080E191E10E94BC20219634
:105AC000FE016491F6CF6AE080E191E1DF91CF9130
:105AD0000C94BC20DF91CF9108958F929F92AF924A
