:100000000C94920B0C94BD0B0C94BD0B0C94BD0B7B
:100010000C94BD0B0C94BD0B0C94BD0B0C94BD0B40
:100020000C94BD0B0C94BD0B0C9414900C94E08DAF
:100030000C94BD0B0C94BD0B0C94BD0B0C94BD0B20
:100040000C94BD0B0C945F730C94BD0B0C94BD0B06
:100050000C94BD0B0C94BD0B0C947C7C0C94A38C69
:100060000C94BD0B0C94BD0B0C94BD0B0C94BD0BF0
:100070000C94BD0B0C94BD0B0C94BD0B0C94BD0BE0
:100080000C94BD0B0C94BD0B0C94BD0B0C94BD0BD0
:100090000C94CF880C94BD0B084AD73B3BCE016E25
:1000A00084BCBFFDC12F3D6C74319ABD56833DDACF
:1000B0003D00C77F11BED9E4BB4C3E916BAAAABEDE
:1000C000000000803F05A84CCDB2D44EB93836A907
:1000D000020C50B9918688083CA6AAAA2ABE000044
:1000E00000803F4D383420582059205A2045006563
:1000F00063686F3A0043616E6E6F7420656E74655D
:1001000072207375626469723A20004D3234004D7A
:100110003233202573006175746F25692E670045A1
:1001200072726F723A006572726F722077726974C0
:10013000696E6720746F2066696C65004E6F74206D
:100140005344207072696E74696E67002F005344C7
:10015000207072696E74696E672062797465200020
:100160002E0044656C6574696F6E206661696C650C
:10017000642C2046696C653A200046696C652064F1
:10018000656C657465643A002E006F70656E20665C
:1001900061696C65642C2046696C653A2000577271
:1001A0006974696E6720746F2066696C653A200017
:1001B0002E006F70656E206661696C65642C204648
:1001C000696C653A20002E006F70656E206661696B
:1001D0006C65642C2046696C653A200046696C6544
:1001E0002073656C6563746564002053697A653AB1
:1001F000200046696C65206F70656E65643A20006A
:100200002E006F70656E206661696C65642C2046F7
:10021000696C653A20004E6F7720667265736820BE
:1002200066696C653A20004E6F7720646F696E676F
:100230002066696C653A20002220706F73002220CE
:10024000706172656E743A2200535542524F555494
:10025000494E452043414C4C207461726765743AA5
:100260002200747279696E6720746F2063616C6C10
:10027000207375622D67636F64652066696C6573B2
:10028000207769746820746F6F206D616E79206CBF
:100290006576656C732E204D4158206C6576656CD3
:1002A0002069733A0053442063617264206F6B00CD
:1002B0006F70656E526F6F74206661696C65640063
:1002C000766F6C756D652E696E6974206661696CF8
:1002D000656400534420696E6974206661696C002E
:1002E0006563686F3A0048617264636F6465642097
:1002F00044656661756C742053657474696E6773C8
:10030000204C6F616465640053746F726564207380
:10031000657474696E677320726574726965766559
:100320006400205A0020590020204D3231312058DD
:10033000004D617820706F736974696F6E20286D4D
:100340006D293A00205A0020590020204D323130CA
:100350002058004D696E20706F736974696F6E204C
:10036000286D6D293A002044002049002020204DAE
:100370003330312050005049442073657474696EE5
:1003800067733A00205A0020590020204D32303641
:10039000205800486F6D65206F666673657420286D
:1003A0006D6D293A00204500205A00205800204257
:1003B0000020540020204D32303520530041647617
:1003C000616E636564207661726961626C65733A1F
:1003D00020533D4D696E20666565647261746520C9
:1003E000286D6D2F73292C20543D4D696E20747239
:1003F0006176656C20666565647261746520286D40
:100400006D2F73292C20423D6D696E696D756D20CD
:100410007365676D656E742074696D6520286D73F2
:10042000292C20583D6D6178696D756D20585920D3
:100430006A65726B20286D6D2F73292C20205A3D20
:100440006D6178696D756D205A206A65726B202820
:100450006D6D2F73292C2020453D6D6178696D7578
:100460006D2045206A65726B20286D6D2F73290001
:1004700020540020204D3230342053004163636506
:100480006C65726174696F6E3A20533D6163636598
:100490006C65726174696F6E2C20543D7265747264
:1004A00061637420616363656C65726174696F6E0A
:1004B00000204500205A0020590020204D323031C4
:1004C0002058004D6178696D756D20416363656CDE
:1004D00065726174696F6E20286D6D2F7332293AD1
:1004E00000204500205A0020590020204D32303392
:1004F0002058004D6178696D756D20666565647280
:100500006174657320286D6D2F73293A00204500B2
:10051000205A0020590020204D39322058005374B1
:100520006570732070657220756E69743A0053654A
:100530007474696E67732053746F726564006563C9
:10054000686F3A004572726F723A005072696E7449
:1005500065722073746F70706564206475652074B3
:100560006F206572726F72732E20466978207468EE
:1005700065206572726F7220616E642075736520EC
:100580004D39393920746F20726573746172742E1D
:10059000202854656D706572617475726520697389
:1005A0002072657365742E20536574206974206110
:1005B000667465722072657374617274696E6729FE
:1005C000005072696E7465722068616C7465642E87
:1005D000206B696C6C28292063616C6C6564210058
:1005E0006F6B00526573656E643A20002200556E91
:1005F0006B6E6F776E20636F6D6D616E643A202253
:1006000000655F6D61783A2000655F6D696E3A2024
:10061000007A5F6D61783A2000795F6D61783A20E9
:1006200000785F6D696E3A20005A3A00593A00200E
:10063000436F756E7420583A2000453A005A3A00CC
:10064000593A00583A002053455249414C5F4E55A3
:100650004D4245523A200020455854525544455287
:100660005F434F554E543A2000204D414348494E78
:10067000455F545950453A20002050524F544F4343
:100680004F4C5F56455253494F4E3A200020464941
:10069000524D574152455F55524C3A2000464952FF
:1006A0004D574152455F4E414D453A204D61726C68
:1006B000696E2056310020423A0020453A00543AF3
:1006C0000020573A0020453A00543A002042403A70
:1006D0000020403A00202F003A00205400202F0034
:1006E00020423A00202F006F6B20543A00256920E9
:1006F0006D696E2C2025692073656300456E64204A
:1007000066696C65206C69737400426567696E2068
:1007100066696C65206C69737400FF01010000A0BC
:10072000400000A0400000803F256920686F75727E
:1007300073202569206D696E7574657300446F6E52
:1007400065207072696E74696E672066696C6500F9
:100750005072696E7465722073746F707065642076
:1007600064756520746F206572726F72732E2046F7
:10077000697820746865206572726F7220616E649A
:1007800020757365204D39393920746F2072657377
:10079000746172742E202854656D70657261747571
:1007A00072652069732072657365742E20536574B9
:1007B0002069742061667465722072657374617259
:1007C00074696E6729006F6B004E6F204C696E650F
:1007D000204E756D62657220776974682063686564
:1007E000636B73756D2C204C617374204C696E655E
:1007F0003A20004E6F20436865636B73756D2077F8
:10080000697468206C696E65206E756D6265722C06
:10081000204C617374204C696E653A2000636865F2
:10082000636B73756D206D69736D617463682C20E3
:100830004C617374204C696E653A20004C696E659A
:10084000204E756D626572206973206E6F74204C46
:10085000617374204C696E65204E756D6265722BF4
:10086000312C204C617374204C696E653A20004D28
:1008700031313000446F6E6520736176696E672098
:1008800066696C652E006F6B004D32390020205078
:100890006C616E6E657242756666657242797465EA
:1008A000733A20002046726565204D656D6F727940
:1008B0003A20004D61792032352032303136004304
:1008C0006F6D70696C65643A20005072696E747265
:1008D000626F7400207C20417574686F723A20004A
:1008E0004D617920323520323031362032313A3084
:1008F000373A303000204C61737420557064617455
:1009000065643A2000312E302E30004D61726C69E2
:100910006E200020536F6674776172652052657394
:10092000657400205761746368646F672052657353
:100930006574002042726F776E206F757420526567
:10094000736574002045787465726E616C20526521
:1009500073657400506F77657255700073746172BF
:1009600074002200656E717565696E672022002231
:1009700000656E717565696E672022007C3C3E5E85
:100980002B3D3F2F5B5D3B2C2A225C0045313A20FA
:100990000045303A20005A3A2000593A2000583A8F
:1009A00020004D53312C4D53322050696E730A0094
:1009B0006563686F3A0028002920453A002800291D
:1009C000205A3A0028002920593A00280020583A95
:1009D00000537465707065722063757272656E7411
:1009E0002076616C756573205B2528726177295DBF
:1009F0003A0024F404D9201BC40C5C0E9804C409EA
:100A00005F0265077101F405F900FB04B3004804B7
:100A10008700C10369005803550003034500BE0267
:100A20003A008402310053022A0029022500040200
:100A30002000E4011C00C8011900AF011700980153
:100A400014008401130071011000610110005101B4
:100A50000E0043010D0036010B002B010B0020019D
:100A60000B00150109000C01090003010800FB003F
:100A70000800F3000800EB000700E4000600DE00B9
:100A80000600D8000600D2000600CC000500C70012
:100A90000500C2000500BD000400B9000400B50057
:100AA0000400B1000400AD000400A9000400A5008A
:100AB0000300A20003009F0004009B0003009800B5
:100AC00003009500020093000300900003008D00D6
:100AD00002008B00030088000200860002008400F0
:100AE0000300810002007F0002007D0002007B0005
:100AF0000200790002007700010076000200740015
:100B0000020072000100710002006F0002006D001F
:100B100001006C0002006A00010069000200670029
:100B2000010066000100650001006400020062002F
:100B3000010061000100600001005F0002005D0033
:100B400001005C0001005B0001005A000100590037
:100B50000100580001005700010056000100550037
:100B60000100540001005300000053000100520036
:100B7000010051000100500001004F0001004E0033
:100B800000004E0001004D0001004C0001004B0030
:100B900000004B0001004A0001004900010048002C
:100BA0000000480001004700010046000000460028
:100BB0000100450000004500010044000100430021
:100BC000000043000100420000004200010041001B
:100BD000000041000100400001003F0000003F0014
:100BE00001003E0000003E0001003D0000003D000D
:100BF00001003C0000003C0000003C0001003B0004
:100C000000003B0001003A0000003A0001003900FA
:100C100000003900010038000000380000003800F2
:100C200001003700000037000100360000003600E8
:100C300000003600010035000000350000003500DE
:100C400001003400000034000000340001003300D3
:100C500000003300000033000100320000003200C9
:100C600000003200010031000000310000003100BE
:100C700001003000000030000000300001002F00B3
:100C800000002F0000002F0000002F0001002E00A8
:100C900000002E0000002E0001002D0000002D009D
:100CA00000002D0000002D0001002C0000002C0091
:100CB00000002C0000002C0001002B0000002B0085
:100CC00000002B0000002B0001002A0000002A0079
:100CD00000002A0000002A0001002900000029006D
:100CE0000000290000002900000029000100280060
:100CF0000000280000002800000028000000280054
:100D00000100270000002700000027000000270046
:100D10000000270001002600000026000000260039
:100D2000000026000000260001002500000025002C
:100D3000000025000000250000002500000025001F
:100D40000100240000002400000024000000240012
:100D50000000240001002300000023000000230005
:100D600000002300000023000000230000002300F7
:100D700001002200000022000000220000002200EA
:100D800000002200000022000100210000002100DC
:100D900000002100000021000000210000002100CF
:100DA00000002100010020000000200000002000C1
:100DB00000002000000020000000200000002000B3
:100DC0000000200001001F0000001F0000001F00A5
:100DD00000001F0000001F0000001F0000001F0097
:100DE00001001E0000001E0000001E0000001E008A
:100DF000000024F4D43050C38E20C2A24017828B4E
:100E00007011127A910D816CD90AA861E108C75856
:100E10006607615143061E4B5D05C145A7041A4193
:100E20001104093D9803713931034036DB02653303
:100E30009102D4305402802E1D02632CEE01752ADB
:100E4000C501B028A001102781018F2564012B2442
:100E50004B01E0223401AC211F018D200D01801FC8
:100E6000FC00841EED00971DDF00B81CD200E61BBD
:100E7000C600201BBC00641AB200B219A8000A19EF
:100E8000A0006A189900D117910040178B00B51681
:100E9000840031167E00B31579003A157300C7142B
:100EA0006F0058146A00EE13660088136300251360
:100EB0005E00C7125B006C12570015125400C1117E
:100EC000510070114F0021114B00D61049008D10B8
:100ED00047004610440002104200C00F4000800F3F
:100EE0003E00420F3C00060F3B00CB0E3800930E35
:100EF00037005C0E3500270E3400F30D3200C10DB3
:100F00003100900D3000600D2E00320D2D00050DCA
:100F10002C00D90C2B00AE0C2900850C29005C0C90
:100F20002700350C27000E0C2600E80B2400C40B0C
:100F30002400A00B23007D0B23005A0B2100390B4A
:100F40002100180B2000F80A1F00D90A1E00BB0A56
:100F50001E009D0A1D00800A1D00630A1C00470A2E
:100F60001B002C0A1B00110A1A00F7091A00DD09E0
:100F70001900C4091900AB091900920917007B096F
:100F80001800630917004C091600360916002009DD
:100F900016000A091500F5081500E0081400CC0831
:100FA0001400B8081400A4081400900813007D0869
:100FB00012006B081300580812004608120034088B
:100FC0001100230811001208110001081100F00798
:100FD0001000E0071000D0071000C0071000B00795
:100FE0000F00A107100091070E0083070F00740780
:100FF0000F0065070E0057070E0049070E003B075C
:101000000D002E070E0020070D0013070D00060728
:101010000D00F9060C00ED060D00E0060C00D406EC
:101020000C00C8060C00BC060C00B0060C00A406A0
:101030000B0099060C008D060B0082060B0077064C
:101040000B006C060B0061060A0057060B004C06ED
:101050000A0042060A0038060A002E060A00240684
:101060000A001A060A001006090007060A00FD0514
:101070000900F4050900EB050900E2050900D9059E
:101080000900D0050900C7050900BE050900B5051E
:101090000800AD050800A50509009C050800940599
:1010A00008008C050800840508007C05080074050C
:1010B00008006C050700650508005D05070056057A
:1010C00008004E05070047050700400508003805E1
:1010D0000700310507002A050700230507001C0546
:1010E0000600160507000F050700080506000205A3
:1010F0000700FB040600F5040700EE040600E80400
:101100000600E2040700DB040600D5040600CF0455
:101110000600C9040600C3040600BD040600B704A7
:101120000600B1040500AC040600A6040600A004F5
:1011300005009B04060095040500900406008A043F
:10114000050085040500800406007A040500750486
:101150000500700405006B040500660405006104C9
:1011600005005C04050057040500520405004D0409
:10117000050048040500430405003E0404003A0449
:10118000050035040500300404002C040500270484
:101190000400230405001E0404001A0404001604BD
:1011A0000500110404000D040400090405000404F2
:1011B000040000040400FC030400F8030400F4032A
:1011C0000400F0030400EC030400E8030400E4035B
:1011D0000400E0030400DC030400D8030400D4038B
:1011E0000400D0030400CC030400C8030300C503BB
:1011F000030020453A00205A3A0020593A0020586E
:101200003A00656E6473746F7073206869743A2075
:10121000004572726F723A0054656D706572617448
:101220007572652068656174656420626564207309
:1012300077697463686564206F66662E204D415837
:1012400054454D502074726967676572656420214A
:1012500021003A204578747275646572207377694D
:101260007463686564206F66662E204D494E544550
:101270004D50207472696767657265642021003A79
:101280002045787472756465722073776974636839
:101290006564206F66662E204D415854454D5020A0
:1012A000747269676765726564202100202D20498A
:1012B0006E76616C696420657874727564657220FD
:1012C0006E756D6265722021001000AD0330016AF9
:1012D0000150022B0170030A019004F500B005E5EE
:1012E00000D006D800F007CE001009C500300ABEB5
:1012F00000500BB700700CB100900DAB00B00EA603
:1013000000D00FA200F0109D00101299003013952C
:10131000005014920070158E0090168B00B0178745
:1013200000D0188400F0198100101B7E00301C7B57
:1013300000501D7900701E7600901F7300B0207061
:1013400000D0216E00F0226B001024690030256669
:1013500000502663007027610090285E00B0295C71
:1013600000D02A5900F02B5600102D5400302E5179
:1013700000502F4E0070304B0090314800B0324585
:1013800000D0334200F0343E0010363B0030373797
:10139000005038330070392E00903A2900B03B23BA
:1013A00000D03C1B00F03D1100103F0100F03F0059
:1013B00000504944204175746F74756E65206669EC
:1013C0006E697368656421205075742074686520A7
:1013D0004B702C204B6920616E64204B6420636F3E
:1013E0006E7374616E747320696E746F20436F6ED8
:1013F00066696775726174696F6E2E680050494442
:10140000204175746F74756E65206661696C6564E2
:10141000212074696D656F75740020403A006F6B10
:1014200020543A006F6B20423A00504944204175E5
:10143000746F74756E65206661696C6564212054F3
:10144000656D706572617475726520746F6F206868
:1014500069676800204B643A2000204B693A2000FD
:10146000204B703A200020436C617369632050491F
:101470004420002054753A2000204B753A2000206B
:101480006D61783A2000206D696E3A200020643A40
:10149000200020626961733A200070012C019001E4
:1014A0002701B0012201C0011D01F0011801100245
:1014B000130130020E016002090190020401C00212
:1014C000FF000003FA004003F5008003F000D003A2
:1014D000EB002004E6007004E100E004DC004005BD
:1014E000D700C005D2004006CD00D006C800800756
:1014F000C3003008BE00F008B900C009B400B00A4B
:10150000AF00B00BAA00D00CA500000EA000500F39
:101510009B00C01096005012910000148C00C01562
:101520008700B0178200B0197D00D01B7800001E24
:10153000730040206E0090226900F0246400402770
:101540005F0090295A00E02B5500102E50002030EB
:101550004B0010324600E033410090353C0010371C
:10156000370070383200A0392D00B03A2800A03B77
:101570002300603C1E00103D1900903D1400103EF9
:101580000F00703E0A00C03E0500003F0000012928
:101590000229042908291029202940298029012C01
:1015A000022C012602260426082610262026402684
:1015B0008026402C802C012302230423082310239F
:1015C0002023402380230120022004200820102013
:1015D000202040208020102C202C012F022F042FAF
:1015E000082F102F202F402F802F7EFE7EFD7EFBA8
:1015F0007EF77EEF7EDF7EBF7E7F000100002E162D
:10160000120002000040164300030000831604018C
:10161000030904871614020309049D16280303090D
:1016200004C716160001C10201803601813612017D
:1016300000020200002074293006000101020301AB
:1016400009024300020100C0320904000001020245
:1016500001000524001001052401000104240206F4
:101660000524060001070582030800400904010063
:10167000020A00000007050302400000070584027B
:101680004000000403090414035000720069006E56
:10169000007400720062006F007400000028034DA7
:1016A0000061006700690063002000430061006E74
:1016B0000064007900200046006100630074006F40
:1016C000007200790000001603310032003300344C
:1016D000003500360037003800390030000000497E
:1016E0004E46494E4954594E414ECDCCCC3D0AD779
:1016F000233C17B7D13877CC2B329595E6241FB110
:101700004F0A000020410000C84200401C4620BC97
:10171000BE4CCA1B0E5AAEC59D74AC2784714D8752
:10172000D593A52711241FBECFEFD0E2DEBFCDBFDA
:1017300013E0A0E0B1E0E6E7F3E301E00BBF02C095
:1017400007900D92A637B107D9F71BBE11E1A6E7A6
:10175000B3E001C01D92A732B107E1F717E1C2E281
:10176000D7E104C02297FE010E946099CA31D107D7
:10177000C9F70E9493900C94AE990C940000A0E0DD
:10178000B0E0E5ECFBE00C947D99EC015B016115A8
:10179000710519F0FB0191838083F9908F2D90E002
:1017A0000E946499892BC9F7FDE2FF1621F4F99094
:1017B000EE24E39405C02BE2F21609F4F990EE242E
:1017C0008E0101501040C8016FED76E143E050E01A
:1017D0000E94550E892B01F58E010E5F1F4FC80127
:1017E00062EE76E145E050E00E94550E892B19F437
:1017F0008E01095F1F4FA114B10419F0F501118387
:101800000083E0FC04C070E090E080E814C070E069
:1018100090E080E86FEF08C1C80167EE76E143E031
:1018200050E00E94550E892B69F4A114B10429F4EB
:1018300070E090E080EC6FE7F7C02296F501D1836D
:10184000C083F6CF8824992440E050E060E070E047
:10185000EF2DE053EA30A0F5F2E0EF2A8E2D90E074
:101860009C0128703070E2FE06C0232B79F50894A5
:10187000811C911C2BC0232B19F00894810891081E
:10188000DB01CA0112E0880F991FAA1FBB1F1A951E
:10189000D1F7480F591F6A1F7B1F440F551F661F42
:1018A000771F4E0F511D611D711D483929E95207DF
:1018B00029E9620729E1720748F084E0E82A06C0B6
:1018C000EE3F31F4E3FC39C098E0E92AF990C0CF4B
:1018D000E53311F0E53189F529912D3219F4E0E174
:1018E000EE2A05C02B3219F081E090E003C0299167
:1018F00082E090E0E22FE053EA3018F0C81BD90BE9
:101900001CC020E030E0FCE020383F075CF4C90157
:10191000880F991F880F991F280F391F220F331F17
:101920002E0F311DE991E053EA3068F3E4FE03C065
:10193000309521953F4F820E931ECE2CDD24E1FE83
:1019400007C0A114B10421F02197F501D183C08310
:10195000CB01BA010E94C9957B018C01F3E0CF2233
:10196000DD2423E0C216D10421F417FB109517F9EA
:10197000109557016801C801B70120E030E040E050
:1019800050E00E942995882309F44AC097FE0DC0B3
:101990002EEFE22E26E1F22E9094819491089394FA
:1019A000C0E2D0E000E010E012C096E1E92E97E13D
:1019B000F92EF6CFF7012591359145915491C60145
:1019C000B5010E9409985B016C018C1A9D0A8C1666
:1019D0009D0684F7D595C7950F5F1F4F06301105FB
:1019E00029F08CEF9FEFE80EF91EF1CFC501D6016B
:1019F0007C018D018C2D880F8D2D881F8F3F51F01C
:101A0000C601B50120E030E040E050E00E94299599
:101A1000882331F482E290E090932611809325117F
:101A20007E2D9F2D802F612F272F392F482F562F46
:101A3000B901CA01CDB7DEB7ECE00C9499992F92A9
:101A40003F925F926F927F928F929F92AF92BF92DE
:101A5000CF92DF92EF92FF920F931F93CF93DF937A
:101A60008C011B01EA016115710519F0FB019183DD
:101A70008083209749F0CE010297839728F020E0D9
:101A800030E040E050E0F6C0F801A1908F018A2DCF
:101A900090E00E946499892BB9F7FDE2AF1631F40A
:101AA000F801A1908F015524539407C0FBE2AF16B3
:101AB00019F4F801A1908F015524209719F0C03135
:101AC000D105C1F4F0E3AF1679F4F80180818837CD
:101AD00011F0883549F4F801A1800E5F1F4FF2E044
:101AE0005F2AC0E1D0E006C0209721F480E3A81669
:101AF000E9F427C0C830D10531F1C930D10524F44B
:101B0000C230D10531F50CC0CA30D10589F0C031E1
:101B1000D105F9F4C12CD12CE12CB8E0FB2E28C062
:101B2000C12CD12CE12CA0E4FA2E22C0CAE0D0E0D6
:101B3000FCECCF2EFCECDF2EFCECEF2EFCE0FF2EBD
:101B400017C0C8E0D0E0C12CD12CE12CE0E1FE2E82
:101B50000FC09E01442737FD4095542F60E070E090
:101B600080E090E80E942199C901DA016C017D01B1
:101B700020E030E040E050E060E03E01882477FC67
:101B80008094982C70EDB72EBA0CE9E0EB1570F448
:101B90008A2D81548A3118F499ECB92E06C08A2D09
:101BA00081568A3150F589EAB82EBA0C8B2D90E017
:101BB0008C179D0714F56F3FE1F0C216D306E406BB
:101BC000F506B0F0CA01B901A40193010E94DB98A7
:101BD0009B01AC012B0D311D411D511D2130F0E049
:101BE0003F07F0E04F07F0E85F0710F461E001C045
:101BF0006FEFF801A1908F01C5CF2114310481F05E
:101C0000662331F001501040F1011183008308C0B8
:101C100051FE1AC002501040F1011183008314C01C
:101C200067FF12C050FC05C02FEF3FEF4FEF5FE79B
:101C300004C020E030E040E050E882E290E0909381
:101C400026118093251116C050FE08C0509540956E
:101C5000309521953F4F4F4F5F4F0CC057FF0AC043
:101C600082E290E090932611809325112FEF3FEFB1
:101C70004FEF5FE7B901CA01DF91CF911F910F913B
:101C8000FF90EF90DF90CF90BF90AF909F908F909C
:101C90007F906F905F903F902F900895FB01DC0143
:101CA00005900D920020E1F70895FB01DC01415001
:101CB000504088F08D9181341CF08B350CF4805E9F
:101CC000659161341CF06B350CF4605E861B61110C
:101CD00071F3990B0895881BFCCFFB015591552397
:101CE000A9F0BF01DC014D9145174111E1F759F40D
:101CF000CD010590002049F04D9140154111C9F3E7
:101D0000FB014111EFCF81E090E001970895FB01C5
:101D1000DC0104C08D910190801921F441505040A4
:101D2000C8F7881B990B0895FB01DC0102C00190E4
:101D30000D9241505040D8F70895FB01DC010D9001
:101D40000020E9F7119701900D920020E1F7089526
:101D5000FC018191861721F08823D9F799270895EE
:101D60003197CF010895FB01DC0101900D92002015
:101D7000E1F70895FB01DC014150504030F08D91B6
:101D80000190801919F40020B9F7881B990B089568
:101D9000FB01DC014150504048F001900D920020C1
:101DA000C9F701C01D9241505040E0F70895AEE0E0
:101DB000B0E0EDEDFEE00C9485990D891E898EE072
:101DC0008C831A8309838FEF9FE79E838D839E0107
:101DD000275E3F4FCE0101966F89788DA9010E9441
:101DE000FB0E2F813885020F131FF80110822E96EB
:101DF000E4E00C94A199ABE0B0E0E1E0FFE00C94EA
:101E000077993C012B015A01FC01178216828381CC
:101E100081FD03C06FEF7FEFC6C19AE0892E1E01DE
:101E20000894211C311CF3012381F20123FD8591CB
:101E300023FF81912F01882309F4B2C1853239F43F
:101E400023FD859123FF81912F01853229F490E0B4
:101E5000B3010E94EE10E7CF982FFF24EE249924BF
:101E6000FFE1FF15D0F09B3269F09C3228F49032EC
:101E700059F0933291F40EC09D3249F0903369F4D9
:101E800041E024C052E0F52A84E0F82A28C098E016
:101E9000F92A25C0E0E1FE2A22C0F7FC29C0892FDB
:101EA00080538A3070F4F6FE05C0989C902C112463
:101EB000980E15C0E89CE02C1124E80EF0E2FF2AF1
:101EC0000EC09E3229F4F6FC6BC140E4F42A07C030
:101ED0009C3619F450E8F52A02C0983649F4F2010C
:101EE00023FD959123FF91912F01992309F0B8CFFC
:101EF000892F8554833018F08052833038F444E0C1
:101F000050E0A40EB51E5FE359830FC0933631F045
:101F1000933779F0933509F056C020C0F5018081E0
:101F2000898342E050E0A40EB51E610101E010E09B
:101F300012C0F501C080D180F6FC03C06FEF7FEFC7
:101F400002C0692D70E042E050E0A40EB51EC6014B
:101F50000E94E3108C015FE7F52214C0F501C080F8
:101F6000D180F6FC03C06FEF7FEF02C0692D70E0F7
:101F700042E050E0A40EB51EC6010E94D8108C01AC
:101F800050E8F52AF3FE07C01AC080E290E0B301E2
:101F90000E94EE10EA948E2D90E008171907A8F31E
:101FA0000EC0F601F7FC8591F7FE81916F0190E07C
:101FB000B3010E94EE10E110EA94015010400115A7
:101FC000110579F7EAC0943611F0993669F5F7FEF4
:101FD00008C0F501208131814281538184E090E085
:101FE0000AC0F501808191819C01442737FD40950D
:101FF000542F82E090E0A80EB91E9FE6F92257FF09
:1020000009C050954095309521953F4F4F4F5F4FF8
:10201000E0E8FE2ACA01B901A1012AE030E00E94ED
:102020001A11D82ED21840C0953729F41F2D1F7EC3
:102030002AE030E01DC01F2D197F9F3661F09037D8
:1020400020F4983509F0ACC00FC0903739F09837BC
:1020500009F0A6C004C028E030E00AC0106114FDF9
:10206000146020E130E004C014FD166020E132E08D
:1020700017FF08C0F501608171818281938144E07E
:1020800050E008C0F50180819181BC0180E090E0C2
:1020900042E050E0A40EB51EA1010E941A11D82EF4
:1020A000D2188FE7F82EF122F6FE0BC05EEFF52274
:1020B000D91438F4F4FE07C0F2FC05C08FEEF82204
:1020C00002C01D2D01C0192DF4FE0DC0FE01ED0D45
:1020D000F11D8081803319F499EEF92208C01F5F49
:1020E000F2FE05C003C08F2D867809F01F5F0F2D0B
:1020F000F3FC14C0F0FE0FC01E1510F09D2C0BC099
:102100009D2C9E0C911A1E2D06C080E290E0B3011A
:102110000E94EE101F5F1E15C0F304C01E1510F4C0
:10212000E11A01C0EE2404FF0FC080E390E0B30188
:102130000E94EE1002FF1DC001FD03C088E790E081
:102140000EC088E590E00BC0802F867891F001FFEB
:1021500002C08BE201C080E2F7FC8DE290E0B301A7
:102160000E94EE1006C080E390E0B3010E94EE10E2
:102170009A94D914C0F3DA94F101ED0DF11D808128
:1021800090E0B3010E94EE10DD20A9F706C080E2C6
:1021900090E0B3010E94EE10EA94EE20C1F743CE26
:1021A000F30166817781CB012B96E2E10C94939940
:1021B000FC010590615070400110D8F78095909512
:1021C0008E0F9F1F0895FC01615070400190011017
:1021D000D8F7809590958E0F9F1F08950F931F93AA
:1021E000CF93DF938C01EB018B8181FF1BC082FFBA
:1021F0000DC02E813F818C819D812817390764F4A1
:10220000E881F9810193F983E88306C0E885F985BF
:10221000802F0995892B31F48E819F8101969F83B0
:102220008E8302C00FEF1FEFC801DF91CF911F9186
:102230000F910895FA01AA27283051F1203181F138
:10224000E8946F936E7F6E5F7F4F8F4F9F4FAF4FBE
:10225000B1E03ED0B4E03CD0670F781F891F9A1FD1
:10226000A11D680F791F8A1F911DA11D6A0F711D85
:10227000811D911DA11D20D009F468943F912AE091
:10228000269F11243019305D3193DEF6CF01089579
:10229000462F4770405D4193B3E00FD0C9F7F6CFAA
:1022A000462F4F70405D4A3318F0495D31FD405272
:1022B000419302D0A9F7EACFB4E0A6959795879508
:1022C00077956795BA95C9F70097610571050895E7
:1022D0009B01AC010A2E0694579547953795279593
:1022E000BA95C9F7620F731F841F951FA01D08952B
:1022F000DF93CF930F92CDB7DEB7FC016983A08146
:10230000B18112962D913C911397BE016F5F7F4F63
:1023100041E050E0F90109950F90CF91DF910895C8
:10232000FC01128213820895FC018381882311F03D
:1023300081E082830895FC018281811112820895D7
:10234000FC0185E493E0918380838681882321F0DA
:10235000CF0103960E94B0630895CF93DF93DB0112
:102360000D900020E9F71197A61BB70BEC01E8814F
:10237000F9810280F381E02DAD010995DF91CF91C4
:102380000895EF92FF920F931F938C01E1ECEE2ED4
:10239000E1E0FE2EE80EF91EC7010E946063C7014E
:1023A0000E94B063F801108211821F910F91FF907B
:1023B000EF900895CF92DF92EF92FF920F931F93C9
:1023C000CF93DF937C016B01DB010D900020E9F7D7
:1023D0008D0101501040061B170BE1ECF1E0EE0EF1
:1023E000FF1ED7011C92EFE3FEEFEE0EFF1ECB01A6
:1023F0006EE470E00E94A80EEC01009731F4F80141
:102400003197EC0DFD1D86010EC060E270E00E9468
:10241000A80E8C010F5F1F4FCE016AE270E00E9490
:10242000A80EFC0131978DE081838AE082831382BC
:10243000C70182549E4FB8010E94C06B81EC91E0AD
:10244000E80EF91ED7018C91882309F1EFE1F1E044
:102450006491EF0107C08BE191E10E947811219610
:10246000FE0164916623B9F7E6E2F1E06491EF01C1
:1024700007C08BE191E10E9478112196FE016491E1
:102480006623B9F78BE191E16AE00E947811DF9150
:10249000CF911F910F91FF90EF90DF90CF90089513
:1024A000EF92FF920F93CF93DF937C01FC01838126
:1024B000882309F43FC0EEE4F1E06491EF0107C026
:1024C0008BE191E10E9478112196FE0164916623CF
:1024D000B9F786E792E0E80EF91EF70140815181D5
:1024E000628173818AE89DEFE80EF91E8BE191E12C
:1024F0002AE000E00E94E090ECE4F1E06491EF015A
:1025000007C08BE191E10E9478112196FE01649150
:102510006623B9F78EE692E0E80EF91EF7014081D6
:102520005181628173818BE191E12AE000E00E9498
:10253000E0900EC0ECE3F1E06491EF0107C08BE1A5
:1025400091E10E9478112196FE0164916623B9F70A
:102550008BE191E16AE00E947811DF91CF910F91B8
:10256000FF90EF9008952F923F924F925F926F925B
:102570007F928F929F92AF92BF92CF92DF92EF9213
:10258000FF920F931F93DF93CF93CDB7DEB7AB9737
:102590000FB6F894DEBF0FBECDBF5C014B01FC014E
:1025A0008381882309F41AC1C5018F539E4F0E946D
:1025B000B063F5011282198A1C8A188A85E493E0B7
:1025C0009F878E87ADE4CA2ED12CCA0CDB1C2FE26C
:1025D00030E0A20EB31EF601B182A08221ED3FEFE2
:1025E000A20EB31EF40180818F3209F081C0C401B4
:1025F0006FE270E00E94A80E7C010894E11CF11CBF
:102600003E010894611C711C2601F1E12F2E312C32
:102610002C0E3D1E68C0C7016FE270E00E94A80E3C
:102620006C01009709F472C0E816F90608F06EC054
:102630008C010E191F09C301B701A8010E94C80E21
:10264000060D171DF80110828BE191E1B3010E9484
:10265000AD118BE191E16AE00E947811F201608195
:1026600071816115710519F460E070E002C06D5F61
:102670007F4FC101A30121E00E94BE6A882341F57A
:10268000EAE8F1E064917F0109C08BE191E10E94E9
:1026900078110894E11CF11CF70164916623A9F7F5
:1026A0008BE191E1BE016F5F7F4F0E94AD11E8E8C1
:1026B000F1E064917F0109C08BE191E10E94781102
:1026C0000894E11CF11CF70164916623A9F77DC011
:1026D0002EE030E02C0F3D1FF20131832083760184
:1026E0000894E11CF11CE114F10409F094CF0BC033
:1026F0008FE490E0A80EB91EF601B182A08221EB12
:102700003FEFA20EB31ED82C092D02C0DE2C0F2DD8
:102710008DE490E0A80EB91EF5018081918123EB34
:102720003FEFA20EB31E009719F480E090E001C0C5
:1027300003966D2D702F0E94906B882301F1EAE7BC
:10274000F1E064917F0109C08BE191E10E94781171
:102750000894E11CF11CF70164916623A9F78BE151
:1027600091E16D2D702F0E94AD1126E732E0A20E8F
:10277000B31EF50110821182128213822BC0E2E691
:10278000F1E064917F0109C08BE191E10E94781131
:102790000894E11CF11CF70164916623A9F78BE111
:1027A00091E16D2D702F0E94AD11E0E6F1E0649192
:1027B0007F0109C08BE191E10E9478110894E11C2E
:1027C000F11CF70164916623A9F78BE191E16AE0BE
:1027D0000E947811CE010E960E94A011AB960FB602
:1027E000F894DEBF0FBECDBFCF91DF911F910F9147
:1027F000FF90EF90DF90CF90BF90AF909F908F9021
:102800007F906F905F904F903F902F900895BF9270
:10281000CF92DF92EF92FF920F931F93CF93DF93AC
:102820008C01EB018FE28993EE24E394FF2489E984
:10283000C82E81E0D82EC00ED11EBEE1BB2E14C022
:10284000FB9CC001112480599F4F800F911FBE0136
:102850000E94C26302C02196E3948881882319F004
:102860008CE88E15C0F7F3942F2D30E0F6018081AF
:1028700091812817390720F3E7FC07C0C8018F535F
:102880009E4FBE010E94C26301C01882DF91CF91AA
:102890001F910F91FF90EF90DF90CF90BF90089520
:1028A0002F923F924F925F926F927F928F929F9260
:1028B000AF92BF92CF92DF92EF92FF920F931F934E
:1028C000DF93CF93CDB7DEB7AC970FB6F894DEBFEA
:1028D0000FBECDBF5C014B014CA7DC0113968C9160
:1028E000882309F4FEC2E4ECF1E0AE0EBF1ED50170
:1028F0008C91ECE3FEEFAE0EBF1E882309F404C1F9
:10290000222309F0D1C02CED31E0A20EB31ED50177
:102910008C91E4E2FEEFAE0EBF1E882381F1EFE161
:10292000F1E064917F0109C08BE191E10E9478118F
:102930000894E11CF11CF70164916623A9F7E2E613
:10294000F2E064917F0109C08BE191E10E9478116E
:102950000894E11CF11CF70164916623A9F78BE14F
:1029600091E141E050E060E070E00E946D918BE108
:1029700091E16AE00E9478110E941728B2C2EFEE3E
:10298000F0E064917F0109C08BE191E10E94781130
:102990000894E11CF11CF70164916623A9F7E9E4AE
:1029A000F2E064917F0109C08BE191E10E9478110E
:1029B0000894E11CF11CF70164916623A9F78BE1EF
:1029C00091E1B4010E94AD11EEE3F2E064917F0168
:1029D00009C08BE191E10E9478110894E11CF11C7F
:1029E000F70164916623A9F7850104521E4FD801AF
:1029F0006C915DE8F52E6F9DB00111246F517E4FF3
:102A00006A0D7B1DC5010E940714F80160816F9D4E
:102A1000B00111246F517E4F6A0D7B1D8BE191E156
:102A20000E94AD11E8E3F2E064917F0109C08BE1FF
:102A300091E10E9478110894E11CF11CF701649166
:102A40006623A9F746E7E42E42E0F42EEA0CFB1CCD
:102A5000D7014D915D916D917C918BE191E12AE0DF
:102A600000E00E94E0908BE191E16AE00E94781121
:102A7000A50144525E4FFA012081E22FF0E0EE0FF3
:102A8000FF1FEE0FFF1FEA0DFB1DE352FE4FD701A4
:102A9000CD90DD90ED90FC90C082D182E282F382F5
:102AA0002F5FFA0120832AC0EFEEF0E064917F01EE
:102AB00009C08BE191E10E9478110894E11CF11C9E
:102AC000F70164916623A9F7E7E2F2E064917F01E0
:102AD00009C08BE191E10E9478110894E11CF11C7E
:102AE000F70164916623A9F78BE191E1B4010E949B
:102AF000AD118BE191E16AE00E947811C5018F531D
:102B00009E4F0E94B06334C02CED31E0A20EB31E84
:102B1000D5011C92E4E2FEEFAE0EBF1EEFEEF0E038
:102B200064917F0109C08BE191E10E9478110894C2
:102B3000E11CF11CF70164916623A9F7E6E1F2E0DC
:102B400064917F0109C08BE191E10E9478110894A2
:102B5000E11CF11CF70164916623A9F78BE191E177
:102B6000B4010E94AD118BE191E16AE00E947811FD
:102B7000D50112961C92198A1C8A188A85E493E062
:102B80009F878E872DE4C22ED12CCA0CDB1CEFE26E
:102B9000F0E0AE0EBF1ED601AD92BC92E1EDFFEFAC
:102BA000AE0EBF1ED4018C918F3209F081C0C401DA
:102BB0006FE270E00E94A80E7C010894E11CF11CF9
:102BC0003E010894611C711C260191E1292E312CD3
:102BD0002C0E3D1E68C0C7016FE270E00E94A80E77
:102BE0006C01009709F472C0E816F90608F06EC08F
:102BF0008C010E191F09C301B701A8010E94C80E5C
:102C0000060D171DF80110828BE191E1B3010E94BE
:102C1000AD118BE191E16AE00E947811D2016D91D2
:102C20007C916115710519F460E070E002C06D5F80
:102C30007F4FC101A30121E00E94BE6A882341F5B4
:102C4000E2E0F2E064917F0109C08BE191E10E9432
:102C500078110894E11CF11CF70164916623A9F72F
:102C60008BE191E1BE016F5F7F4F0E94AD11E0E00B
:102C7000F2E064917F0109C08BE191E10E9478113B
:102C80000894E11CF11CF70164916623A9F720C1A7
:102C9000EEE0F0E0EC0FFD1FD201ED93FC93760126
:102CA0000894E11CF11CE114F10409F094CF0BC06D
:102CB0002FE430E0A20EB31ED601AD92BC92E1EB40
:102CC000FFEFAE0EBF1E082DD92C02C00E2DDF2C3B
:102CD000F501E35BFF4F2CA5222309F4A6C0608118
:102CE00071816115710519F460E070E002C06D5FDB
:102CF0007F4FC5018F539E4F402F5D2D21E00E94D5
:102D0000BE6A882309F46AC0A50142595D4F82ED6D
:102D100091E0A80EB91EF50180819181A281B38155
:102D20002EE23EEFA20EB31EFA0180839183A283AE
:102D3000B383E2EFF1E064917F0109C08BE191E19F
:102D40000E9478110894E11CF11CF701649166233C
:102D5000A9F78BE191E1602F7D2D0E94AD11EAEE84
:102D6000F1E064917F0109C08BE191E10E9478114B
:102D70000894E11CF11CF70164916623A9F72EE683
:102D800032E0A20EB31ED5014D915D916D917C9103
:102D90008BE191E12AE000E00E94E0908BE191E17B
:102DA0006AE00E947811E8E0F0E0AE0EBF1ED501A7
:102DB0001D921D921D921C921397ECEDF1E064910F
:102DC0007F0109C08BE191E10E9478110894E11C18
:102DD000F11CF70164916623A9F77AC0E8ECF1E0F1
:102DE00064917F0109C08BE191E10E947811089400
:102DF000E11CF11CF70164916623A9F78BE191E1D5
:102E0000602F7D2D0E94AD11E6ECF1E064917F0111
:102E100009C08BE191E10E9478110894E11CF11C3A
:102E2000F70164916623A9F753C060817181611530
:102E3000710519F460E070E002C06D5F7F4FC5015D
:102E40008F539E4F402F5D2D26E50E94BE6A88233A
:102E500039F5E2EBF1E064917F0109C08BE191E18A
:102E60000E9478110894E11CF11CF701649166231B
:102E7000A9F78BE191E1602F7D2D0E94AD11E0EB70
:102E8000F1E064917F0109C08BE191E10E9478112A
:102E90000894E11CF11CF70164916623A9F718C09E
:102EA00081E0D5018C93EEE9F1E064917F0109C0E6
:102EB0008BE191E10E9478110894E11CF11CF7016B
:102EC00064916623A9F78BE191E1B4010E94AD11F1
:102ED0008BE191E16AE00E947811CE010E960E948A
:102EE000A011AC960FB6F894DEBF0FBECDBFCF9148
:102EF000DF911F910F91FF90EF90DF90CF90BF90E7
:102F0000AF909F908F907F906F905F904F903F9089
:102F10002F900895EF92FF920F931F93CF93DF931B
:102F2000EC010E9446738E0104521E4FD8018C9111
:102F3000E1ECEE2EE1E0FE2EEC0EFD1E8823A1F169
:102F4000C7010E94B063F8016081615060838DE821
:102F5000689FB00111246F517E4F6C0F7D1FCE0111
:102F600041E021E00E945014D801EC91F0E0EE0F16
:102F7000FF1FEE0FFF1FEC0FFD1FE352FE4F4081BE
:102F8000518162817381CA58DD4F488359836A83B6
:102F90007B83C657D240C7010E9496628B818823EB
:102FA00089F181E08A832EC00E946171C7010E946D
:102FB000B0631A8283EE90E00E941E4780918608DB
:102FC000882301F11092860880912806C82FD0E04E
:102FD000CC0FDD1FC250D04F68817981882777FDE3
:102FE0008095982F0E94CB952091AB023091AC0236
:102FF0004091AD025091AE020E943797181614F41A
:1030000019821882DF91CF911F910F91FF90EF905D
:103010000895FC0181E08183CF0140E021E00E941E
:1030200050140895EF92FF920F931F93CF93DF9365
:103030008C01FC01138285A9882321F0C801C29666
:103040000E94B063FBE9EF2EF1E0FF2EE00EF11ECF
:10305000C70160E044E10E9450618823E9F4EFEE8B
:10306000F0E06491EF0107C08BE191E10E947811DB
:103070002196FE0164916623B9F7E3EDF2E06491D5
:10308000EF0107C08BE191E10E9478112196FE01CA
:1030900064916623B9F771C0E801C056DE4FCE01D6
:1030A000B70141E00E94556C882321F5CE01B7019C
:1030B00040E00E94556C8823E9F4EFE1F1E064916F
:1030C000EF0107C08BE191E10E9478112196FE018A
:1030D00064916623B9F7E0ECF2E06491EF0107C078
:1030E0008BE191E10E9478112196FE0164916623A3
:1030F000B9F743C0C801C296BE010E94B1668823D9
:10310000E9F4EFE1F1E06491EF0107C08BE191E1B7
:103110000E9478112196FE0164916623B9F7E0EBD5
:10312000F2E06491EF0107C08BE191E10E94781118
:103130002196FE0164916623B9F71FC081E0F80172
:103140008383EFEEF0E06491EF0107C08BE191E142
:103150000E9478112196FE0164916623B9F7E5EA91
:10316000F2E06491EF0107C08BE191E10E947811D8
:103170002196FE0164916623B9F78BE191E16AE043
:103180000E947811D801AE5ABF4FF801F2968BE138
:1031900001900D928150E1F7F80181A90F5A1F4F5C
:1031A000F801808301551040C8018F96035B1F4FC3
:1031B000F80191838083DF91CF911F910F91FF9050
:1031C000EF9008952F923F924F925F926F927F926D
:1031D0009F92AF92BF92CF92DF92EF92FF920F93A6
:1031E0001F93DF93CF93CDB7DEB7CC55D0400FB64A
:1031F000F894DEBF0FBECDBF8C01662319F50658CB
:103200001D4FD8018C910A571240882309F4E7C05A
:103210000FB6F894209113113091141140911511AB
:10322000509116110FBE0E581D4FF80180819181EB
:10323000A281B3810257124082179307A407B507F2
:1032400008F4CDC006581D4FD8011C920A571240F1
:10325000F8018381882349F4C8010E941218D8011B
:1032600013968C91882309F4BAC000D000D000D006
:10327000EDB7FEB731966E010894C11CD11CADB7F5
:10328000BEB71296DC92CE92119786E191E09383BD
:103290008283D8019D968D919C919E97958384837E
:1032A0000E94D70E7601EDB7FEB736960FB6F894AA
:1032B000FEBF0FBEEDBF56010AC0D7018C91992702
:1032C00087FD90950E946C99F70181937F01F5012C
:1032D00001900020E9F73197EA19FB098E2D8C192E
:1032E0008E175CF392E3A92EB12CA00EB11EC5017E
:1032F00040E050E060E070E00E94966299248DE327
:10330000C82ED12CCC0EDD1E2E010894411C511C60
:10331000BFE16B2E712C6C0E7D1EAFE02A2EA1E05A
:103320003A2E43C0D7018C9190E00E946C99F7012E
:1033300081937F01D6010D900020E9F71197AC1918
:10334000BD098E2D8C198A176CF327968FAD2797A0
:103350008E3759F1C601B20145E050E00E94BA0E25
:10336000009719F500D000D000D0EDB7FEB7319628
:10337000ADB7BEB712967C926E92119733822282BD
:10338000558244820E94D70EEDB7FEB736960FB62F
:10339000F894FEBF0FBEEDBFC3010E9495478BE0BE
:1033A00091E00E941E4799249394C501B60140E024
:1033B00050E00E94CD65181614F47601BBCF992019
:1033C00041F48FEF9FEFD8019E969C938E939D972B
:1033D00006C0F80185A596A5019696A785A7C45AAB
:1033E000DF4F0FB6F894DEBF0FBECDBFCF91DF9198
:1033F0001F910F91FF90EF90DF90CF90BF90AF9013
:103400009F907F906F905F904F903F902F90089586
:103410002F923F924F925F926F927F928F929F92E4
:10342000AF92BF92CF92DF92EF92FF920F931F93D2
:10343000DF93CF93CDB7DEB7CD58D0400FB6F89419
:10344000DEBF0FBECDBF7C012B015A0183E090E0AF
:10345000A80EB91EF7017196C957DF4FF983E883AB
:10346000C758D040C7010496CC57DF4F9983888353
:10347000C458D040CA57DF4F1882C658D04054E6CF
:10348000C52ED12CCC0EDD1EF6013B96C757DF4F63
:10349000F983E883C958D0404BE7642E42E0742E8C
:1034A0006E0C7F1C3DE7832E32E0932E8E0C9F1C0A
:1034B00026E4222E312C2C0E3D1EC1010396C55749
:1034C000DF4F99838883CB58D040EFEEF0E09491A2
:1034D000C357DF4F9883CD58D04030C1F601838564
:1034E000482F50E0BA01687170706031710509F0C1
:1034F00033C1F301208131812130310509F42CC120
:103500002230310509F428C1F601DE0111969081BF
:10351000903239F08E2F8C19883011F48EE28D9311
:103520009D933196C757DF4F88819981C958D04004
:10353000E817F90761F71C921E86F2018081882343
:1035400031F4CE010E9660E071E00E949D0ECE0136
:103550000E96B2010E949D0ECE010E96BE016F5FC7
:103560007F4F0E949D0ECE010E9660E071E00E949A
:103570009D0E1BA61EA61AA685E493E099A788A710
:10358000CE018B96B501AE014F5F5F4F21E00E94E7
:10359000BE6A882371F5F30180819181892B49F5F9
:1035A000C357DF4F6881CD58D0400FEE10E008C000
:1035B0008BE191E10E9478110F5F1F4FF801649138
:1035C0006623B1F78BE191E162E071E00E94AD11F9
:1035D0008BE191E16AE00E9478118BE191E1BE01FB
:1035E0006F5F7F4F0E94AD118BE191E16AE00E9415
:1035F0007811C557DF4FA881B981CB58D040FE0163
:10360000BB968BE101900D928150E1F78AA5F10103
:10361000828385E493E091838083C701BE01625F6A
:103620007F4FA1010E94081AC1010E94A011CE0182
:1036300088960E94A01182C0953E09F47FC09E32F8
:1036400009F47CC09F3509F479C0F7019189992369
:1036500031F09E3209F472C09F3509F46FC043FD0A
:103660006DC080E06031710509F481E0F70184A745
:10367000882349F4F6018085873409F05FC081858D
:103680008E3709F45BC0CC57DF4FA881B981C4588D
:10369000D040F6018081803241F08E2F8C19883025
:1036A00011F48EE28D9380818D933196C757DF4F51
:1036B00088819981C958D040E817F90759F71C92B9
:1036C000F301808191810097A9F48BE191E1B2012E
:1036D0000E94AD118BE191E1CC57DF4F6881798178
:1036E000C458D0400E94AD118BE191E16AE00E9484
:1036F000781124C08130910539F4F40180819181E1
:103700000196918380831AC00297C1F4CA57DF4F94
:10371000F881C658D0402F2F30E0F401808191818C
:1037200028173907F1F0CA57DF4FF881C658D04043
:10373000FF5FCA57DF4FF883C658D040C501B601B6
:10374000C957DF4F48815981C758D0400E94CD6585
:1037500018160CF4C3CE05C0F6019081992309F028
:103760006BCFC357DF4F0FB6F894DEBF0FBECDBF90
:10377000CF91DF911F910F91FF90EF90DF90CF904D
:10378000BF90AF909F908F907F906F905F904F9081
:103790003F902F900895EF92FF920F931F93DF9326
:1037A000CF93CDB7DEB76E970FB6F894DEBF0FBEDE
:1037B000CDBF7C018BE792E0E80EF91EF701118284
:1037C000108285E89DEFE80EF91E87010E5C1F4F01
:1037D000C80140E050E060E070E00E949662DE01C7
:1037E0001496F8018BE101900D928150E1F7F701F9
:1037F00081A98B8385E493E09A838983C70165E17E
:1038000071E08E010F5F1F4FA8010E94081AC801C6
:103810000E94A0116E960FB6F894DEBF0FBECDBF0A
:10382000CF91DF911F910F91FF90EF900895CF936B
:10383000DF93EC011AAA1DAA19AA85E493E098ABBC
:103840008FA7CE5ADF4F188223961882C555D040D5
:10385000FE01E15BFF4FCF5ADF4F1882C155D040C8
:1038600091838083DE01A359BF4FFD0120E030E04A
:10387000482F13821682128240839183225E3F4F2B
:103880007E9681E02C323807A1F7C456DE4F89E1DD
:10389000888323961882689618822A96188223961F
:1038A0001882C45CD140FE01E254FE4FC054DE4F8A
:1038B000188240839183C255DF4F188219821A8281
:1038C0001B822896188219821A821B82C657D24000
:1038D0001A821B8218821982C756DE4F19821882FB
:1038E000CD5BDF4F1882FD01C90111920197E9F705
:1038F000C256DF4F81E08883CA57D2401EA61DA65C
:103900000FB6F8948091131190911411A091151194
:10391000B09116110FBE88579C4EAF4FBF4FCE5877
:10392000DD4F88839983AA83BB83DF91CF9108956C
:103930000F931F93DF93CF93CDB7DEB766970FB684
:10394000F894DEBF0FBECDBF809116019091170194
:10395000A0911801B09119018F87988BA98BBA8B10
:10396000FE013F9644E650E08081F999FECF1FBAF0
:1039700052BD41BD80BD0FB6F894FA9AF99A0FBEB8
:103980004F5F5F4F4836510511F03196EDCFEAE2B7
:10399000F8E08081F999FECF1FBA52BD41BD80BDCC
:1039A0000FB6F894FA9AF99A0FBE4F5F5F4F4837F7
:1039B000510511F03196EDCFEAE1F8E08081F999F7
:1039C000FECF1FBA52BD41BD80BD0FB6F894FA9A22
:1039D000F99A0FBE4F5F5F4F4838510511F031968D
:1039E000EDCFEAE3F8E08081F999FECF1FBA52BD2E
:1039F00041BD80BD0FB6F894FA9AF99A0FBE4F5F99
:103A00005F4F4839510511F03196EDCFEEE4F8E003
:103A10008081F999FECF1FBA52BD41BD80BD0FB65E
:103A2000F894FA9AF99A0FBE4F5F5F4F4C395105DF
:103A300011F03196EDCFE2E5F8E08081F999FECF03
:103A40001FBA52BD41BD80BD0FB6F894FA9AF99ADB
:103A50000FBE4F5F5F4F403A510511F03196EDCFE9
:103A6000EAE4F8E08081F999FECF1FBA52BD41BD6A
:103A700080BD0FB6F894FA9AF99A0FBE4F5F5F4F68
:103A8000443A510511F03196EDCFE2E6F8E080813D
:103A9000F999FECF1FBA52BD41BD80BD0FB6F89453
:103AA000FA9AF99A0FBE4F5F5F4F483A510511F0ED
:103AB0003196EDCFE6E1F8E08081F999FECF1FBAAB
:103AC00052BD41BD80BD0FB6F894FA9AF99A0FBE67
:103AD0004F5F5F4F4C3A510511F03196EDCFE6E55F
:103AE000F8E08081F999FECF1FBA52BD41BD80BD7B
:103AF0000FB6F894FA9AF99A0FBE4F5F5F4F403BAA
:103B0000510511F03196EDCFEAE5F8E08081F999A1
:103B1000FECF1FBA52BD41BD80BD0FB6F894FA9AD0
:103B2000F99A0FBE4F5F5F4F443B510511F031963C
:103B3000EDCFEEE5F8E08081F999FECF1FBA52BDD6
:103B400041BD80BD0FB6F894FA9AF99A0FBE4F5F47
:103B50005F4F483B510511F03196EDCFEDE0F6E0B7
:103B60008081F999FECF1FBA52BD41BD80BD0FB60D
:103B7000F894FA9AF99A0FBE4F5F5F4F443C510593
:103B800011F03196EDCF84EB90E09A83898386E43F
:103B900090E09C838B832FEF30E03E832D8380EF7A
:103BA00090E098878F8384E690E09A8789873C87A6
:103BB0002B87FE0131968081F999FECF1FBA52BD45
:103BC00041BD80BD0FB6F894FA9AF99A0FBE4F5FC7
:103BD0005F4F463C510571F7FE0133968081F9999C
:103BE000FECF1FBA52BD41BD80BD0FB6F894FA9A00
:103BF000F99A0FBE4F5F5F4F483C510511F0319667
:103C0000EDCFFE0135968081F999FECF1FBA52BDE6
:103C100041BD80BD0FB6F894FA9AF99A0FBE4F5F76
:103C20005F4F4A3C510511F03196EDCFFE013796BA
:103C30008081F999FECF1FBA52BD41BD80BD0FB63C
:103C4000F894FA9AF99A0FBE4F5F5F4F4C3C5105BA
:103C500011F03196EDCFFE0139968081F999FECFB2
:103C60001FBA52BD41BD80BD0FB6F894FA9AF99AB9
:103C70000FBE4F5F5F4F4E3C510511F03196EDCFB7
:103C8000FE013B968081F999FECF1FBA52BD41BD1E
:103C900080BD0FB6F894FA9AF99A0FBE4F5F5F4F46
:103CA000403D510511F03196EDCFE8EBF2E0808117
:103CB000F999FECF1FBA52BD41BD80BD0FB6F89431
:103CC000FA9AF99A0FBE4F5F5F4F443D510511F0CC
:103CD0003196EDCFECEBF2E08081F999FECF1FBA7F
:103CE00052BD41BD80BD0FB6F894FA9AF99A0FBE45
:103CF0004F5F5F4F483D510511F03196EDCFE0EC3D
:103D0000F2E08081F999FECF1FBA52BD41BD80BD5E
:103D10000FB6F894FA9AF99A0FBE4F5F5F4F4C3D79
:103D2000510511F03196EDCF80E290E09E878D87AE
:103D3000FE013D968081F999FECF1FBA52BD41BD6B
:103D400080BD0FB6F894FA9AF99A0FBE4F5F5F4F95
:103D50004E3D510511F03196EDCFEFE3F6E0808155
:103D6000F999FECF1FBA52BD41BD80BD0FB6F89480
:103D7000FA9AF99A0FBE4F5F5F4F423E510511F01C
:103D80003196EDCFE2E9F2E08081F999FECF1FBADA
:103D900052BD41BD80BD0FB6F894FA9AF99A0FBE94
:103DA0004F5F5F4F463E510511F03196EDCFE3E492
:103DB000F6E08081F999FECF1FBA52BD41BD80BDAA
:103DC0000FB6F894FA9AF99A0FBE4F5F5F4F4A3ECA
:103DD000510511F03196EDCFE6E9F2E08081F999D5
:103DE000FECF1FBA52BD41BD80BD0FB6F894FA9AFE
:103DF000F99A0FBE4F5F5F4F4E3E510511F031965D
:103E0000EDCFE7E4F6E08081F999FECF1FBA52BD0D
:103E100041BD80BD0FB6F894FA9AF99A0FBE4F5F74
:103E20005F4F423F510511F03196EDCFEAE9F2E0E4
:103E30008081F999FECF1FBA52BD41BD80BD0FB63A
:103E4000F894FA9AF99A0FBE453F510521F04F5F59
:103E50005F4F3196EDCF80911A0190911B01A09197
:103E60001C01B0911D018B8B9C8BAD8BBE8BFE0119
:103E7000739684E690E02081F999FECF1FBA92BD37
:103E800081BD20BD0FB6F894FA9AF99A0FBE873615
:103E9000910519F001963196EECFE0EEF2E06491D3
:103EA0008F0108C08BE191E10E9478110F5F1F4FD5
:103EB000F80164916623B1F7EEE2F5E064918F01B9
:103EC00008C08BE191E10E9478110F5F1F4FF8014C
:103ED00064916623B1F78BE191E16AE00E94781169
:103EE00066960FB6F894DEBF0FBECDBFCF91DF91BF
:103EF0001F910F910895EF92FF920F931F93DF93FD
:103F0000CF93CDB7DEB7E0970FB6F894DEBF0FBE04
:103F1000CDBFDE011196E7EFF2E080E101900D9256
:103F20008150E1F7DE015196E7EEF2E080E1019089
:103F30000D928150E1F7DE019196E7EDF2E080E12C
:103F400001900D928150E1F789819A81AB81BC810A
:103F500080932A0890932B08A0932C08B0932D08E7
:103F600089899A89AB89BC8980931A0890931B0828
:103F7000A0931C08B0931D0889A19AA1ABA1BCA174
:103F800080933A0890933B08A0933C08B0933D0877
:103F90008D819E81AF81B88580932E0890932F08E4
:103FA000A0933008B09331088D899E89AF89B88D70
:103FB00080931E0890931F08A0932008B0932108B7
:103FC0008DA19EA1AFA1B8A580933E0890933F0814
:103FD000A0934008B093410889859A85AB85BC853C
:103FE0008093320890933308A0933408B093350837
:103FF000898D9A8DAB8DBC8D809322089093230878
:10400000A0932408B093250889A59AA5ABA5BCA5C3
:104010008093420890934308A0934408B0934508C6
:104020008D859E85AF85B889809336089093370833
:10403000A0933808B09339088D8D9E8DAF8DB8A1AF
:104040008093260890932708A0932808B093290806
:104050008DA59EA5AFA5B8A9809346089093470863
:10406000A0934808B09349080E949E4E80E090E8D3
:10407000ABE3B5E480934E0890934F08A0935008AB
:10408000B09351088093520890935308A09354081A
:10409000B09355080F2EF0E0EF2EF0E0FF2EF0E089
:1040A0000F2FF0E01F2FF02DE0924A08F0924B08FE
:1040B00000934C0810934D0880E29EE4A0E0B0E02D
:1040C0008093160890931708A0931808B0931908C6
:1040D000E0926208F0926308009364081093650808
:1040E00080E090E0A0EAB1E48093560890935708EE
:1040F000A0935808B09359088DEC9CECACECBEE34F
:1041000080935A0890935B08A0935C08B0935D0875
:1041100080E090E0A0EAB0E480935E0890935F08AE
:10412000A0936008B0936108E0921506F09216061D
:104130000093170610931806E0921106F0921206EB
:104140000093130610931406E0920D06F0920E06EB
:1041500000930F06109310068AE999E9A1EBB1E4E8
:104160008093B8029093B902A093BA02B093BB02B5
:1041700061E77DE38AE89FE30E94B37B6093BC0222
:104180007093BD028093BE029093BF0260E070E026
:1041900084EE92E40E94C17B6093C0027093C102DE
:1041A0008093C2029093C3020E94C37A80E090E0A1
:1041B000A0E8BFE38093C4029093C502A093C60217
:1041C000B093C702E0923F06F0924006009341068A
:1041D00010934206E0924306F0924406009345068F
:1041E00010934606E0924706F0924806009349066F
:1041F00010934A0680E090E0A6E6B3E48093920232
:1042000090939302A0939402B093950280E090E083
:10421000A0E2B3E48093960290939702A093980251
:10422000B093990280E090E0A2EAB2E480939A020F
:1042300090939B02A0939C02B0939D02E0EEF2E06B
:1042400064918F0108C08BE191E10E9478110F5FAA
:104250001F4FF80164916623B1F7E6EEF2E0649136
:104260008F0108C08BE191E10E9478110F5F1F4F11
:10427000F80164916623B1F78BE191E16AE00E9455
:104280007811E0960FB6F894DEBF0FBECDBFCF9188
:10429000DF911F910F91FF90EF9008950F931F935F
:1042A000CF93DF9300EE12E0F8016491E80107C0BC
:1042B0008BE191E10E9478112196FE0164916623C1
:1042C000B9F7EEE1F5E06491EF0107C08BE191E110
:1042D0000E9478112196FE0164916623B9F78BE163
:1042E00091E16AE00E947811F8016491C0EED2E099
:1042F00007C08BE191E10E9478112196FE01649143
:104300006623B9F740912A0850912B0860912C0838
:1043100070912D0886E195E00E94BF2C40912E08F7
:1043200050912F08609130087091310883E195E039
:104330000E94BF2C4091320850913308609134089C
:104340007091350880E195E00E94BF2C40913608BD
:104350005091370860913808709139088DE095E0E8
:104360000E94BF2C8BE191E16EE171E00E94AD11E2
:104370008BE191E16AE00E947811F8016491C0EE4E
:10438000D2E007C08BE191E10E9478112196FE01F5
:1043900064916623B9F7E3EFF4E06491EF0107C09D
:1043A0008BE191E10E9478112196FE0164916623D0
:1043B000B9F78BE191E16AE00E947811F80164910C
:1043C000C0EED2E007C08BE191E10E947811219606
:1043D000FE0164916623B9F740911A0850911B08B9
:1043E00060911C0870911D088AEE94E00E94BF2C19
:1043F00040911E0850911F0860912008709121087B
:1044000087EE94E00E94BF2C40912208509123082F
:10441000609124087091250884EE94E00E94BF2CDE
:10442000409126085091270860912808709129082A
:1044300081EE94E00E94BF2C8BE191E16EE171E08E
:104440000E94AD118BE191E16AE00E947811F801C0
:104450006491C0EED2E007C08BE191E10E94781137
:104460002196FE0164916623B9F7E3ECF4E06491D0
:10447000EF0107C08BE191E10E9478112196FE01C6
:1044800064916623B9F78BE191E16AE00E947811AB
:10449000F8016491C0EED2E007C08BE191E10E9487
:1044A00078112196FE0164916623B9F740913A088C
:1044B00050913B0860913C0870913D088AEB94E074
:1044C0000E94B32740913E0850913F0860914008F8
:1044D0007091410887EB94E00E94B3274091420815
:1044E00050914308609144087091450884EB94E032
:1044F0000E94B327409146085091470860914808B0
:104500007091490881EB94E00E94B3278BE191E11F
:104510006EE171E00E94AD118BE191E16AE00E94D1
:104520007811F8016491C0EED2E007C08BE191E10F
:104530000E9478112196FE0164916623B9F7ECE799
:10454000F4E06491EF0107C08BE191E10E947811E2
:104550002196FE0164916623B9F78BE191E16AE04F
:104560000E947811F8016491C0EED2E007C08BE19F
:1045700091E10E9478112196FE0164916623B9F7BA
:1045800040914E0850914F08609150087091510829
:1045900083E794E00E94BF2C409152085091530849
:1045A000609154087091550880E794E00E94BF2CF8
:1045B0008BE191E16EE171E00E94AD118BE191E13F
:1045C0006AE00E947811F8016491C0EED2E007C061
:1045D0008BE191E10E9478112196FE01649166239E
:1045E000B9F7EDEBF3E06491EF0107C08BE191E1E6
:1045F0000E9478112196FE0164916623B9F78BE140
:1046000091E16AE00E947811F8016491C0EED2E075
:1046100007C08BE191E10E9478112196FE0164911F
:104620006623B9F740914A0850914B0860914C08B5
:1046300070914D0884EB93E00E94BF2C409162087A
:1046400050916308609164087091650881EB93E074
:104650000E94BF2C409116085091170860911808CD
:10466000709119088EEA93E00E94B3274091560892
:104670005091570860915808709159088BEA93E05F
:104680000E94BF2C40915A0850915B0860915C08D1
:1046900070915D0888EA93E00E94BF2C40915E080B
:1046A00050915F08609160087091610885EA93E01D
:1046B0000E94BF2C8BE191E16EE171E00E94AD118F
:1046C0008BE191E16AE00E947811F8016491C0EEFB
:1046D000D2E007C08BE191E10E9478112196FE01A2
:1046E00064916623B9F7E3E9F3E06491EF0107C051
:1046F0008BE191E10E9478112196FE01649166237D
:10470000B9F78BE191E16AE00E947811F8016491B8
:10471000C0EED2E007C08BE191E10E9478112196B2
:10472000FE0164916623B9F740910D0650910E0683
:1047300060910F06709110068AE893E00E94BF2CEA
:104740004091110650911206609113067091140663
:1047500087E893E00E94BF2C409115065091160601
:10476000609117067091180684E893E00E94BF2CB0
:104770008BE191E16EE171E00E94AD118BE191E17D
:104780006AE00E947811F8016491C0EED2E007C09F
:104790008BE191E10E9478112196FE0164916623DC
:1047A000B9F7E6E7F3E06491EF0107C08BE191E12F
:1047B0000E9478112196FE0164916623B9F78BE17E
:1047C00091E16AE00E947811F8016491C0EED2E0B4
:1047D00007C08BE191E10E9478112196FE0164915E
:1047E0006623B9F74091B8025091B9026091BA02BC
:1047F0007091BB028CE693E00E94BF2C6091BC02DA
:104800007091BD028091BE029091BF020E94BA7B5E
:10481000AB01BC0189E693E00E94BF2C6091C0020D
:104820007091C1028091C2029091C3020E94C87B24
:10483000AB01BC0186E693E00E94BF2C8BE191E1C5
:104840006EE171E00E94AD118BE191E16AE00E949E
:104850007811F8016491C0EED2E007C08BE191E1DC
:104860000E9478112196FE0164916623B9F7E3E571
:10487000F3E06491EF0107C08BE191E10E947811B0
:104880002196FE0164916623B9F78BE191E16AE01C
:104890000E947811F8016491C0EED2E007C08BE16C
:1048A00091E10E9478112196FE0164916623B9F787
:1048B00040913F065091400660914106709142063A
:1048C0008AE493E00E94BF2C409143065091440635
:1048D000609145067091460687E493E00E94BF2CE4
:1048E00040914706509148066091490670914A06EA
:1048F00084E493E00E94BF2C8BE191E16EE171E0D2
:104900000E94AD118BE191E16AE00E947811F801FB
:104910006491C0EED2E007C08BE191E10E94781172
:104920002196FE0164916623B9F7E1E3F3E0649117
:10493000EF0107C08BE191E10E9478112196FE0101
:1049400064916623B9F78BE191E16AE00E947811E6
:10495000F8016491C0EED2E007C08BE191E10E94C2
:1049600078112196FE0164916623B9F74091920275
:1049700050919302609194027091950288E293E0C5
:104980000E94BF2C4091960250919702609198022C
:104990007091990285E293E00E94BF2C40919A02A7
:1049A00050919B0260919C0270919D0282E293E083
:1049B0000E94BF2C8BE191E16EE171E00E94AD118C
:1049C0008BE191E16AE00E947811DF91CF911F9114
:1049D0000F9108950F931F93DF93CF93CDB7DEB759
:1049E00066970FB6F894DEBF0FBECDBF80911A0157
:1049F00090911B01A0911C01B0911D018B8B9C8B90
:104A0000AD8BBE8BFE013F9604E610E0F999FECF18
:104A100012BD01BDF89A80B580830F5F1F4F083625
:104A2000110511F03196F2CFCE014396BE01615FC0
:104A30007F4F43E050E00E94BA0E009709F0E6C1B4
:104A4000EAE2F8E0F999FECF12BD01BDF89A80B50F
:104A500080830F5F1F4F0837110511F03196F2CF99
:104A6000EAE1F8E0F999FECF12BD01BDF89A80B5F0
:104A700080830F5F1F4F0838110511F03196F2CF78
:104A8000EAE3F8E0F999FECF12BD01BDF89A80B5CE
:104A900080830F5F1F4F0839110511F03196F2CF57
:104AA0000E949E4EEEE4F8E0F999FECF12BD01BDE2
:104AB000F89A80B580830F5F1F4F0C39110511F0F4
:104AC0003196F2CFE2E5F8E0F999FECF12BD01BDD3
:104AD000F89A80B580830F5F1F4F003A110511F0DF
:104AE0003196F2CFEAE4F8E0F999FECF12BD01BDAC
:104AF000F89A80B580830F5F1F4F043A110511F0BB
:104B00003196F2CFE2E6F8E0F999FECF12BD01BD91
:104B1000F89A80B580830F5F1F4F083A110511F096
:104B20003196F2CFE6E1F8E0F999FECF12BD01BD72
:104B3000F89A80B580830F5F1F4F0C3A110511F072
:104B40003196F2CFE6E5F8E0F999FECF12BD01BD4E
:104B5000F89A80B580830F5F1F4F003B110511F05D
:104B60003196F2CFEAE5F8E0F999FECF12BD01BD2A
:104B7000F89A80B580830F5F1F4F043B110511F039
:104B80003196F2CFEEE5F8E0F999FECF12BD01BD06
:104B9000F89A80B580830F5F1F4F083B110511F015
:104BA0003196F2CFEDE0F6E0F999FECF12BD01BDEE
:104BB000F89A80B580830F5F1F4F043C110511F0F8
:104BC0003196F2CFFE013196F999FECF12BD01BDAB
:104BD000F89A80B580830F5F1F4F063C110599F747
:104BE000FE013396F999FECF12BD01BDF89A80B54A
:104BF00080830F5F1F4F083C110511F03196F2CFF3
:104C0000FE013596F999FECF12BD01BDF89A80B527
:104C100080830F5F1F4F0A3C110511F03196F2CFD0
:104C2000FE013796F999FECF12BD01BDF89A80B505
:104C300080830F5F1F4F0C3C110511F03196F2CFAE
:104C4000FE013996F999FECF12BD01BDF89A80B5E3
:104C500080830F5F1F4F0E3C110511F03196F2CF8C
:104C6000FE013B96F999FECF12BD01BDF89A80B5C1
:104C700080830F5F1F4F003D110511F03196F2CF79
:104C8000E8EBF2E0F999FECF12BD01BDF89A80B5CC
:104C900080830F5F1F4F043D110511F03196F2CF55
:104CA000ECEBF2E0F999FECF12BD01BDF89A80B5A8
:104CB00080830F5F1F4F083D110511F03196F2CF31
:104CC000E0ECF2E0F999FECF12BD01BDF89A80B593
:104CD00080830F5F1F4F0C3D110511F03196F2CF0D
:104CE000FE013D96F999FECF12BD01BDF89A80B53F
:104CF00080830F5F1F4F0E3D110511F03196F2CFEB
:104D0000EFE3F6E0F999FECF12BD01BDF89A80B548
:104D100080830F5F1F4F023E110511F03196F2CFD5
:104D2000E2E9F2E0F999FECF12BD01BDF89A80B533
:104D300080830F5F1F4F063E110511F03196F2CFB1
:104D4000E3E4F6E0F999FECF12BD01BDF89A80B513
:104D500080830F5F1F4F0A3E110511F03196F2CF8D
:104D6000E6E9F2E0F999FECF12BD01BDF89A80B5EF
:104D700080830F5F1F4F0E3E110511F03196F2CF69
:104D8000E7E4F6E0F999FECF12BD01BDF89A80B5CF
:104D900080830F5F1F4F023F110511F03196F2CF54
:104DA000EAE9F2E0F999FECF12BD01BDF89A80B5AB
:104DB0008083053F110521F00F5F1F4F3196F2CF21
:104DC0000E94C37AE0EEF2E064918F0108C08BE1AB
:104DD00091E10E9478110F5F1F4FF80164916623E3
:104DE000B1F7E8E0F3E064918F0108C08BE191E155
:104DF0000E9478110F5F1F4FF80164916623B1F78D
:104E00008BE191E16AE00E94781104C00E947B1F4F
:104E10000E94981C0E944E2166960FB6F894DEBF41
:104E20000FBECDBFCF91DF911F910F910895CF930A
:104E3000DF930FB6F8948091131190911411A09103
:104E40001511B09116110FBE80935406909355061C
:104E5000A0935606B0935706E0917D06F0917E062A
:104E6000E158F94F8081882399F4E0EEF5E06491F0
:104E7000EF0107C08BE191E10E9478112196FE01BC
:104E800064916623B9F78BE191E16AE00E947811A1
:104E9000DF91CF910895089580913D0608950F9375
:104EA0001F93CF93DF938130910549F46F5F7F4F5C
:104EB00009F046C086E793E00E94171C41C0892B89
:104EC00009F03EC06F5F7F4FD9F585E493E0909382
:104ED00035058093340580913A05882321F087E3D6
:104EE00095E00E94B063C1EFD4E005E413E005C093
:104EF0006E9783E0C53CD80751F0198308838E81F3
:104F00008823B1F3CE0103960E94B063F1CF85E40C
:104F100093E0998388838E81882321F0CE010396C4
:104F20000E94B06385E493E09093A6038093A50369
:104F30008091AB03882321F088EA93E00E94B0635C
:104F4000DF91CF911F910F91089580E090E06FEF76
:104F50007FEF0E944F27089581E090E06FEF7FEF91
:104F60000E944F270895EF92FF920F931F93CF93C4
:104F7000DF93EC017A018B01FC01649107C08BE1A6
:104F800091E10E9478112196FE0164916623B9F7A0
:104F90008BE191E1B801A7012AE000E00E94E090D6
:104FA000DF91CF911F910F91FF90EF900895CF93D4
:104FB000DF930E94967B80913D06882309F034C0E0
:104FC00081E080933D0680914C0690914D06A09122
:104FD0004E06B0914F068093500690935106A093D1
:104FE0005206B0935306E4E4F5E06491EF0107C084
:104FF0008BE191E10E9478112196FE016491662374
:10500000B9F7EBE4F5E06491EF0107C08BE191E1C2
:105010000E9478112196FE0164916623B9F78BE115
:1050200091E16AE00E947811DF91CF910895CF93CA
:10503000DF93F8940E94967B779A10922506769AD1
:1050400010922606479A10922706439AE4E4F5E068
:105050006491EF0107C08BE191E10E9478112196E4
:10506000FE0164916623B9F7E1ECF5E06491EF018C
:1050700007C08BE191E10E9478112196FE016491B5
:105080006623B9F78BE191E16AE00E947811FFCFC6
:10509000EF92FF920F931F930FB6F8948091131124
:1050A00090911411A0911511B09116110FBEE090BE
:1050B0005806F090590600915A0610915B0620910F
:1050C0005406309155064091560650915706821B62
:1050D000930BA40BB50BE816F9060A071B0738F467
:1050E000E114F1040105110511F00E941728E09068
:1050F0009E02F0909F020091A0021091A102E11483
:10510000F1040105110561F10FB6F89480911311B6
:1051100090911411A0911511B09116110FBE20910C
:105120005406309155064091560650915706821B01
:10513000930BA40BB50BE816F9060A071B0780F4BE
:105140009091570D8091580D981751F4779A1092BD
:105150002506769A10922606479A10922706439AB9
:105160000E946E4E1F910F91FF90EF9008956F92E5
:105170007F928F929F92AF92BF92CF92DF92EF92E7
:10518000FF920F931F93F82E60915C0670915D065D
:1051900080915E0690915F062091600630916106D5
:1051A00040916206509163060E9444973B014C0176
:1051B00000D000D000D00DB71EB70F5F1F4F609119
:1051C000810270918202882777FD8095982F0E9436
:1051D000CB952091A2023091A3024091A40250915C
:1051E000A5020E94099820E030E040E752E40E94C6
:1051F000309520E030E048EC52E40E9430955B01AD
:105200006C01F8016082718282829382F4828091C3
:10521000280685838DEF95E068E676E04CE556E05C
:1052200020E001E032E0E32E0E94D149809168063F
:1052300090916906A0916A06B0916B068093FD0576
:105240009093FE05A093FF05B093000680916C0635
:1052500090916D06A0916E06B0916F068093010645
:1052600090930206A0930306B09304068091700603
:1052700090917106A0917206B09173068093050615
:1052800090930606A0930706B093080680917406D3
:1052900090917506A0917606B091770680930906E5
:1052A00090930A06A0930B06B0930C060FB6F894E1
:1052B0008091131190911411A0911511B0911611B4
:1052C0000FBE8093540690935506A0935606B09354
:1052D00057068DB79EB706960FB6F8949EBF0FBEC1
:1052E0008DBF1F910F91FF90EF90DF90CF90BF90F7
:1052F000AF909F908F907F906F900895CF92DF92A4
:10530000EF92FF920F931F930FB6F89480911311B1
:1053100090911411A0911511B09116110FBE8093A8
:10532000540690935506A0935606B0935706609185
:10533000FD057091FE058091FF059091000620917A
:1053400068063091690640916A0650916B060E948A
:105350002995882309F07AC06091010670910206B0
:10536000809103069091040620916C0630916D06A1
:1053700040916E0650916F060E942995882309F08E
:1053800065C06091A2027091A3028091A4029091E5
:10539000A50220E030E040E752E40E9430957B0116
:1053A0008C0188E696E06CE676E040E756E024E77C
:1053B00036E0E8E2CE2EE6E0DE2E0E94D153809168
:1053C000680690916906A0916A06B0916B06809379
:1053D000FD059093FE05A093FF05B0930006809114
:1053E0006C0690916D06A0916E06B0916F06809349
:1053F000010690930206A0930306B09304068091E1
:10540000700690917106A0917206B0917306809318
:10541000050690930606A0930706B09308068091B0
:10542000740690917506A0917606B09177068093E8
:10543000090690930A06A0930B06B0930C061F91E1
:105440000F91FF90EF90DF90CF90089560918102CF
:1054500070918202882777FD8095982F0E94CB95C6
:105460002091A2023091A3024091A4025091A50282
:105470000E94099820E030E040E752E40E94309515
:1054800020E030E048EC52E488CFCF93DF938BE10B
:1054900091E10E94A692E3EEF5E06491EF0107C06E
:1054A0008BE191E10E9478112196FE0164916623BF
:1054B000B9F740914C0650914D0660914E0670919F
:1054C0004F064F5F5F4F6F4F7F4F8BE191E10E941F
:1054D0006D918BE191E16AE00E9478110E9417279B
:1054E000DF91CF9108952F923F924F925F926F92EA
:1054F0007F928F929F92AF92BF92CF92DF92EF9264
:10550000FF920F931F93DF93CF93CDB7DEB76897CA
:105510000FB6F894DEBF0FBECDBF9E878D87833058
:10552000910508F0CFC1FC01E65EF84F14911C0113
:10553000220C331C220C331C910123503A4F388B20
:105540002F8780E090E0A0E0B0E0F90180839183B4
:10555000A283B3838DEF95E061E076E045E056E00D
:1055600029E036E00E94E74E9E012F5F3F4F388FC3
:105570002F8BD901ECE01D92EA95E9F76091920238
:1055800070919302809194029091950220913F0630
:105590003091400640914106509142060E944F943E
:1055A00069837A838B839C836091960270919702C2
:1055B000809198029091990220914306309144067F
:1055C00040914506509146060E944F946D837E831C
:1055D0008F83988760919A0270919B0280919C02C0
:1055E00090919D02209147063091480640914906CE
:1055F00050914A060E944F9469877A878B879C87CF
:10560000612F772767FD7095882777FD8095982F04
:105610000E94CB952B013C0191012859394F3A8BBF
:10562000298B81E090E08C0F9D1F820D931D9C8B38
:105630008B8BDC016D917D918D919C9120E030E010
:1056400040EC5FE30E940998A30192010E9409982F
:10565000E989FA89608371838283938391012F584A
:105660003D4F3E8B2D8BD9016D917D918D919C91FC
:105670006093A2027093A3028093A4029093A50268
:1056800020E030E040E752E40E9430957B018C013D
:1056900088E696E06CE676E040E756E024E736E000
:1056A000A8E2CA2EA6E0DA2E0E94D1530E944673C9
:1056B00080E090E0A0E0B0E0EF85F88980839183FE
:1056C000A283B3838DEF95E061E076E045E056E09C
:1056D00029E036E00E94E74EF101E35EF84F859045
:1056E0009590A590B490C501B4019058A301920182
:1056F0000E940998A989BA896D937D938D939C9393
:1057000013976091A2027091A3028091A4029091DC
:10571000A50220E030E040E752E40E9430957B0192
:105720008C0188E696E06CE676E040E756E024E7F8
:1057300036E00E94D1530E944673C501B401A50111
:1057400094010E945094A30192010E940998E98952
:10575000FA896083718382839383AD89BE896D9159
:105760007D918D919C9120E030E040E05FE30E94CC
:1057700009986093A2027093A3028093A40290936D
:10578000A50220E030E040E752E40E9430957B0122
:105790008C0188E696E06CE676E040E756E024E788
:1057A00036E00E94D1530E944673EF89F88D2CE0B9
:1057B00011922A95E9F780913F0690914006A091B9
:1057C0004106B091420689839A83AB83BC83809162
:1057D000960290919702A0919802B09199028D83C0
:1057E0009E83AF83B88780919A0290919B02A0918B
:1057F0009C02B0919D0289879A87AB87BC87F10193
:10580000E35FF94FA080B180C280D380C601B501AB
:10581000AB89BC892D913D914D915C910E94509432
:105820007B018C01CB01D801EF85F88980839183BE
:10583000A283B383F9E18F2EF6E09F2E820C931C96
:10584000F101E15CF94F6081718182819381A60150
:1058500095010E945094D4016D937D938D939C93F8
:105860001397F101EE56FD4F608171818281938122
:10587000A60195010E945094E5E8F2E02E0E3F1E2D
:10588000D1016D937D938D939C931397C701D8019C
:10589000E989FA8980839183A283B38380E090E0D1
:1058A000A0E0B0E08093A2029093A302A093A40290
:1058B000B093A5020E949270AD85BE85AB5DB94FD5
:1058C00081E08C9368960FB6F894DEBF0FBECDBF13
:1058D000CF91DF911F910F91FF90EF90DF90CF90CC
:1058E000BF90AF909F908F907F906F905F904F9000
:1058F0003F902F90089540917D0650917E0620E6BE
:1059000030E0B901469F9001479F300D569F300D02
:105910001124682F772767FD7095C9018757994F24
:105920000E94A80E9C01909388068093870680E0D1
:10593000232B09F081E00895EF92FF920F931F93BC
:10594000CF93DF93EC017A018B01FC01649107C0D6
:105950008BE191E10E9478112196FE01649166230A
:10596000B9F78BE191E1B801A70122E00E947F9194
:10597000DF91CF911F910F91FF90EF900895EF92DB
:10598000FF920F931F93CF93DF93EC017A018B016A
:10599000FC01649107C08BE191E10E94781121968E
:1059A000FE0164916623B9F78BE191E1B801A7018B
:1059B00022E00E947F91DF91CF911F910F91FF9084
:1059C000EF9008958091870690918806019660E097
:1059D00070E04AE050E00E941F0D08958091870614
:1059E00090918806019660E070E00E94BF0B0895D8
:1059F0000F931F93CF93DF938C01809128068093A0
:105A00004B0684E50E947B2C882309F44FC00E943A
:105A1000EE2C0E949D9560934B06662309F446C0C8
:105A2000EEE3F5E06491EF0107C08BE191E10E94A4
:105A300078112196FE0164916623B9F709361105A4
:105A400099F00A36110524F408361105E9F407C067
:105A50000D36110571F00A3D1105B1F40FC08BE14F
:105A600091E16FE171E00EC08BE191E166E371E0DD
:105A700009C08BE191E16DE471E004C08BE191E13B
:105A800064E671E00E94AD1140914B0650E060E089
:105A900070E08BE191E12AE000E00E94E0908BE170
:105AA00091E16AE00E94781181E001C080E0DF911D
:105AB000CF911F910F910895AF92BF92CF92DF9235
:105AC000EF92FF920F931F93CF93DF931DEFE12E81
:105AD00015E0F12EC8E6D6E000E010E0F801E95F3D
