:100000000C94EE200C941D210C941D210C941D21A8
:100010000C941D210C941D210C941D210C941D2168
:100020000C941D210C941D210C9473CD0C94F0CDD7
:100030000C941D210C941D210C941D210C941D2148
:100040000C941D210C9496890C941D210C941D2157
:100050000C941D210C941D210C94809C0C94D7CCE5
:100060000C941D210C941D210C941D210C941D2118
:100070000C941D210C941D210C941D210C941D2108
:100080000C941D210C941D210C941D210C941D21F8
:100090000C941CDB0C941D21C99CD79CF39C019DE6
:1000A0001B9D299D439D519D719D5CCB87CBA9CB09
:1000B000A9CBA9CBA9CBA9CBA9CBA9CBA9CBA9CBA0
:1000C000A9CBA9CBA9CB9FCB97CB8FCBA9CBA9CBC6
:1000D000A9CBA9CBA9CBA9CBA9CB81CB67CB6FCB24
:1000E00079CB084AD73B3BCE016E84BCBFFDC12F04
:1000F0003D6C74319ABD56833DDA3D00C77F11BE19
:10010000D9E4BB4C3E916BAAAABE000000803F051B
:10011000A84CCDB2D44EB93836A9020C50B991864C
:1001200088083CA6AAAA2ABE000000803F004861B9
:100130007264636F6465642044656661756C7420E5
:1001400053657474696E6773204C6F6164656400F5
:1001500053746F7265642073657474696E6773207D
:1001600072657472696576656400205A00205900D2
:1001700020204D3231322058004265642070726F69
:100180006265206F666673657420286D6D293A007C
:10019000205A0020590020204D3231312058004D86
:1001A000617820706F736974696F6E20286D6D2996
:1001B0003A00205A0020590020204D32313020587A
:1001C000004D696E20706F736974696F6E20286DC1
:1001D0006D293A002044002049002020204D333072
:1001E000312050005049442073657474696E677300
:1001F0003A00205A0020590020204D323036205835
:1002000000486F6D65206F666673657420286D6D9C
:10021000293A00204500205A0020580020420020A2
:10022000540020204D323035205300416476616EF9
:10023000636564207661726961626C65733A20530C
:100240003D4D696E20666565647261746520286D38
:100250006D2F73292C20543D4D696E207472617688
:10026000656C20666565647261746520286D6D2F0C
:1002700073292C20423D6D696E696D756D20736523
:10028000676D656E742074696D6520286D73292C07
:1002900020583D6D6178696D756D205859206A65EB
:1002A000726B20286D6D2F73292C20205A3D6D61B3
:1002B00078696D756D205A206A65726B20286D6DA6
:1002C0002F73292C2020453D6D6178696D756D2057
:1002D00045206A65726B20286D6D2F7329002054AC
:1002E0000020204D323034205300416363656C653B
:1002F000726174696F6E3A20533D616363656C652A
:10030000726174696F6E2C20543D72657472616302
:100310007420616363656C65726174696F6E00203F
:100320004500205A0020590020204D3230312058FD
:10033000004D6178696D756D20416363656C657210
:100340006174696F6E20286D6D2F7332293A002019
:100350004500205A0020590020204D3230332058CB
:10036000004D6178696D756D2066656564726174B4
:10037000657320286D6D2F73293A00204500205A9F
:100380000020590020204D393220580053746570E8
:10039000732070657220756E69743A0053657474C9
:1003A000696E67732053746F726564006563686F6C
:1003B0003A0053544F505045442E20005072696EFD
:1003C0007465722073746F70706564206475652045
:1003D000746F206572726F72732E20466978207474
:1003E0006865206572726F7220616E642075736536
:1003F000204D39393920746F2072657374617274BD
:100400002E202854656D706572617475726520695F
:10041000732072657365742E20536574206974208F
:1004200061667465722072657374617274696E6757
:1004300029004B494C4C45442E20005072696E7483
:1004400065722068616C7465642E206B696C6C2821
:10045000292063616C6C656421006F6B00526573C9
:10046000656E643A20002200556E6B6E6F776E20C9
:10047000636F6D6D616E643A2022004368616E6740
:10048000652066696C616D656E74006C63642063E1
:100490006F6E74726173742076616C75653A2000BA
:1004A0007A5F6D696E3A2000795F6D61783A20005D
:1004B000785F6D696E3A20005A3A00593A0020433D
:1004C0006F756E7420583A2000453A005A3A005928
:1004D0003A00583A002053455249414C5F4E554D21
:1004E0004245523A20002045585452554445525FE7
:1004F000434F554E543A2000204D414348494E4504
:100500005F545950453A20002050524F544F434FAA
:100510004C5F56455253494F4E3A200020464952AF
:100520004D574152455F55524C3A20004649524D75
:10053000574152455F4E414D453A204D61726C69BD
:100540006E205631005072696E7472626F74205062
:100550006C7573204F66662E0042656420646F6E72
:10056000652E0020423A0020453A00543A00426588
:10057000642048656174696E672E0048656174691E
:100580006E6720646F6E652E0020573A0020453A52
:1005900000543A0048656174696E672E2E2E002063
:1005A00042403A0020403A00202F003A00205400F8
:1005B000202F0020423A00202F006F6B20543A0079
:1005C0002569206D696E2C202569207365630045BF
:1005D0006E642066696C65206C697374004265679F
:1005E000696E2066696C65206C697374004E6F20BB
:1005F0006D6F76652E00526573756D696E6720703C
:1006000072696E74005761697420666F7220757329
:1006100065722E2E2E000A00205A3A200020593AE8
:10062000200042656420506F736974696F6E2058B2
:100630003A20000A00207A3A200020793A2000422D
:10064000656420783A20000A00207A3A2000207958
:100650003A200042656420783A20000A00207A3A65
:10066000200020793A200042656420783A20005A20
:1006700050726F6265204F757473696465204265BE
:1006800064005A50726F6265204F757473696465B7
:100690002042656400486F6D6520582F59206265BF
:1006A000666F7265205A00486F6D6520582F59207B
:1006B0006265666F7265205A00536C6565702E2EF8
:1006C0002E00256920686F757273202569206D6979
:1006D0006E7574657300446F6E65207072696E7418
:1006E000696E672066696C650053544F50504544ED
:1006F0002E20005072696E7465722073746F707072
:1007000065642064756520746F206572726F727302
:100710002E2046697820746865206572726F722099
:10072000616E6420757365204D39393920746F20EE
:10073000726573746172742E202854656D706572D1
:1007400061747572652069732072657365742E20FB
:1007500053657420697420616674657220726573D4
:1007600074617274696E6729006F6B004E6F204C64
:10077000696E65204E756D626572207769746820B8
:10078000636865636B73756D2C204C617374204CCA
:10079000696E653A20004E6F20436865636B737520
:1007A0006D2077697468206C696E65206E756D6266
:1007B00065722C204C617374204C696E653A200080
:1007C000636865636B73756D206D69736D617463C8
:1007D000682C204C617374204C696E653A20004C83
:1007E000696E65204E756D626572206973206E6F4B
:1007F00074204C617374204C696E65204E756D6277
:1008000065722B312C204C617374204C696E653AF3
:1008100020004D31313000446F6E65207361766980
:100820006E672066696C652E006F6B004D32390073
:100830002020506C616E6E6572427566666572420C
:10084000797465733A20002046726565204D656DA8
:100850006F72793A20004A756E2032392032303179
:100860003600436F6D70696C65643A2000507269A0
:100870006E7472626F7400207C20417574686F72B0
:100880003A20004A756E203239203230313620311C
:10089000303A32353A353700204C61737420557048
:1008A00064617465643A2000312E302E30004D6151
:1008B000726C696E200020536F66747761726520D8
:1008C000526573657400205761746368646F6720B4
:1008D0005265736574002042726F776E206F757475
:1008E000205265736574002045787465726E616C82
:1008F00020526573657400506F7765725570007390
:1009000074617274002200656E717565696E67208E
:1009100022002200656E717565696E67202200FFF6
:1009200001FF0000A0400000A0400000803F656380
:10093000686F3A004572726F723A007C3C3E5E2BE3
:100940003D3F2F5B5D3B2C2A225C004D3834205804
:100950002059205A20450043616E6E6F7420656EE9
:10096000746572207375626469723A20004D323486
:10097000004D3233202573006175746F25692E6731
:10098000006572726F722077726974696E67207485
:100990006F2066696C65004E6F742053442070723E
:1009A000696E74696E67002F005344207072696E1F
:1009B00074696E67206279746520002E0044656C4E
:1009C0006574696F6E206661696C65642C20466988
:1009D0006C653A200046696C652064656C657465D9
:1009E000643A002E006F70656E206661696C656404
:1009F0002C2046696C653A200057726974696E67ED
:100A000020746F2066696C653A20002E006F706557
:100A10006E206661696C65642C2046696C653A20BD
:100A2000002E006F70656E206661696C65642C2015
:100A300046696C653A200046696C652073656C6593
:100A400063746564002053697A653A200046696CD6
:100A500065206F70656E65643A20002E006F7065CA
:100A60006E206661696C65642C2046696C653A206D
:100A7000004E6F772066726573682066696C653A10
:100A800020004E6F7720646F696E672066696C6521
:100A90003A20002220706F73002220706172656E10
:100AA000743A2200535542524F5554494E45204303
:100AB000414C4C207461726765743A2200747279FB
:100AC000696E6720746F2063616C6C207375622D92
:100AD00067636F64652066696C6573207769746805
:100AE00020746F6F206D616E79206C6576656C7314
:100AF0002E204D4158206C6576656C2069733A0054
:100B000053442063617264206F6B006F70656E5296
:100B10006F6F74206661696C656400766F6C756DCB
:100B2000652E696E6974206661696C656400534462
:100B300020696E6974206661696C006563686F3A4C
:100B4000004572726F723A0020746F6F206C6F6E86
:100B50006720657874727573696F6E207072657640
:100B6000656E7465640020636F6C642065787472D0
:100B70007573696F6E2070726576656E746564005A
:100B80006563686F3A0028002920453A002800294B
:100B9000205A3A0028002920593A00280020583AC3
:100BA00000537465707065722063757272656E743F
:100BB0002076616C756573205B2528726177295DED
:100BC0003A00656E6473746F7073206869743A20BC
:100BD000450020453A00656E6473746F7073206839
:100BE00069743A205A00205A3A00656E6473746F33
:100BF0007073206869743A20590020593A00656E74
:100C00006473746F7073206869743A2058002058B8
:100C10003A00656E6473746F7073206869743A206B
:100C20000024F4D43050C38E20C2A24017828B70AF
:100C300011127A910D816CD90AA861E108C7586632
:100C400007615143061E4B5D05C145A7041A4111BA
:100C500004093D9803713931034036DB0265339155
:100C600002D4305402802E1D02632CEE01752AC579
:100C700001B028A001102781018F2564012B244B8E
:100C800001E0223401AC211F018D200D01801FFCE9
:100C900000841EED00971DDF00B81CD200E61BC6C5
:100CA00000201BBC00641AB200B219A8000A19A0E7
:100CB000006A189900D117910040178B00B516846F
:100CC0000031167E00B31579003A157300C7146F12
:100CD0000058146A00EE1366008813630025135E43
:100CE00000C7125B006C12570015125400C111515D
:100CF0000070114F0021114B00D61049008D104794
:100D0000004610440002104200C00F4000800F3E19
:100D100000420F3C00060F3B00CB0E3800930E370D
:100D2000005C0E3500270E3400F30D3200C10D318A
:100D300000900D3000600D2E00320D2D00050D2CA1
:100D400000D90C2B00AE0C2900850C29005C0C2767
:100D500000350C27000E0C2600E80B2400C40B24E1
:100D600000A00B23007D0B23005A0B2100390B211F
:100D700000180B2000F80A1F00D90A1E00BB0A1E2B
:100D8000009D0A1D00800A1D00630A1C00470A1B03
:100D9000002C0A1B00110A1A00F7091A00DD0919B4
:100DA00000C4091900AB091900920917007B091842
:100DB00000630917004C09160036091600200916B1
:100DC000000A091500F5081500E0081400CC081405
:100DD00000B8081400A4081400900813007D08123D
:100DE000006B08130058081200460812003408115E
:100DF00000230811001208110001081100F007106B
:100E000000E0071000D0071000C0071000B0070F67
:100E100000A107100091070E0083070F0074070F51
:100E20000065070E0057070E0049070E003B070D2F
:100E3000002E070E0020070D0013070D0006070DFA
:100E400000F9060C00ED060D00E0060C00D4060CBF
:100E500000C8060C00BC060C00B0060C00A4060B73
:100E60000099060C008D060B0082060B0077060B1E
:100E7000006C060B0061060A0057060B004C060AC0
:100E80000042060A0038060A002E060A0024060A56
:100E9000001A060A001006090007060A00FD0509E7
:100EA00000F4050900EB050900E2050900D9050970
:100EB00000D0050900C7050900BE050900B50508F1
:100EC00000AD050800A50509009C0508009405086B
:100ED000008C050800840508007C050800740508DE
:100EE000006C050700650508005D0507005605084C
:100EF000004E0507004705070040050800380507B4
:100F000000310507002A050700230507001C050618
:100F100000160507000F0507000805060002050773
:100F200000FB040600F5040700EE040600E80406D2
:100F300000E2040700DB040600D5040600CF040627
:100F400000C9040600C3040600BD040600B7040679
:100F500000B1040500AC040600A6040600A00405C8
:100F6000009B04060095040500900406008A040511
:100F70000085040500800406007A04050075040558
:100F800000700405006B040500660405006104059B
:100F9000005C04050057040500520405004D0405DB
:100FA0000048040500430405003E0404003A04051B
:100FB0000035040500300404002C04050027040457
:100FC00000230405001E0404001A0404001604058E
:100FD00000110404000D04040009040500040404C5
:100FE0000000040400FC030400F8030400F40304FC
:100FF00000F0030400EC030400E8030400E403042D
:1010000000E0030400DC030400D8030400D403045C
:1010100000D0030400CC030400C8030300C503038D
:101020000024F404D9201BC40C5C0E9804C4095F8E
:101030000265077101F405F900FB04B30048048759
:1010400000C10369005803550003034500BE023A7E
:10105000008402310053022A0029022500040220E4
:1010600000E4011C00C8011900AF01170098011429
:101070000084011300710110006101100051010E84
:101080000043010D0036010B002B010B0020010B6A
:1010900000150109000C01090003010800FB00080C
:1010A00000F3000800EB000700E4000600DE000685
:1010B00000D8000600D2000600CC000500C70005DD
:1010C00000C2000500BD000400B9000400B5000422
:1010D00000B1000400AD000400A9000400A5000355
:1010E00000A20003009F0004009B0003009800037F
:1010F000009500020093000300900003008D0002A1
:10110000008B0003008800020086000200840003B8
:1011100000810002007F0002007D0002007B0002CF
:1011200000790002007700010076000200740002DE
:101130000072000100710002006F0002006D0001EA
:10114000006C0002006A00010069000200670001F3
:1011500000660001006500010064000200620001F9
:101160000061000100600001005F0002005D0001FD
:10117000005C0001005B0001005A00010059000101
:101180000058000100570001005600010055000101
:101190000054000100530000005300010052000100
:1011A0000051000100500001004F0001004E0000FE
:1011B000004E0001004D0001004C0001004B0000FA
:1011C000004B0001004A00010049000100480000F6
:1011D00000480001004700010046000000460001F1
:1011E00000450000004500010044000100430000EC
:1011F00000430001004200000042000100410000E5
:101200000041000100400001003F0000003F0001DC
:10121000003E0000003E0001003D0000003D0001D6
:10122000003C0000003C0000003C0001003B0000CE
:10123000003B0001003A0000003A000100390000C4
:1012400000390001003800000038000000380001BB
:1012500000370000003700010036000000360000B3
:1012600000360001003500000035000000350001A7
:10127000003400000034000000340001003300009E
:101280000033000000330001003200000032000093
:101290000032000100310000003100000031000187
:1012A000003000000030000000300001002F00007E
:1012B000002F0000002F0000002F0001002E000072
:1012C000002E0000002E0001002D0000002D000067
:1012D000002D0000002D0001002C0000002C00005B
:1012E000002C0000002C0001002B0000002B00004F
:1012F000002B0000002B0001002A0000002A000043
:10130000002A0000002A0001002900000029000036
:101310000029000000290000002900010028000029
:10132000002800000028000000280000002800011C
:101330000027000000270000002700000027000011
:101340000027000100260000002600000026000003
:1013500000260000002600010025000000250000F6
:1013600000250000002500000025000000250001E8
:1013700000240000002400000024000000240000DD
:1013800000240001002300000023000000230000CF
:1013900000230000002300000023000000230001C0
:1013A00000220000002200000022000000220000B5
:1013B00000220000002200010021000000210000A6
:1013C0000021000000210000002100000021000099
:1013D000002100010020000000200000002000008B
:1013E000002000000020000000200000002000007D
:1013F00000200001001F0000001F0000001F00006F
:10140000001F0000001F0000001F0000001F00015F
:10141000001E0000001E0000001E0000001E000054
:10142000006563686F3A004572723A204D41585426
:10143000454D50204245440054656D70657261749D
:1014400075726520686561746564206265642073E7
:1014500077697463686564206F66662E204D415815
:1014600054454D5020747269676765726564202128
:1014700021004572723A204D494E54454D50003A74
:101480002045787472756465722073776974636837
:101490006564206F66662E204D494E54454D5020A0
:1014A0007472696767657265642021004572723ADB
:1014B000204D415854454D50003A2045787472757E
:1014C000646572207377697463686564206F66660B
:1014D0002E204D415854454D502074726967676500
:1014E000726564202100202D20496E76616C69644C
:1014F000206578747275646572206E756D626572B0
:10150000202100504944204175746F74756E652028
:1015100066696E697368656421205075742074680B
:1015200065204B702C204B6920616E64204B642039
:10153000636F6E7374616E747320696E746F204391
:101540006F6E66696775726174696F6E2E680050A0
:101550004944204175746F74756E65206661696CCD
:101560006564212074696D656F75740020403A00D0
:101570006F6B20543A006F6B20423A005049442070
:101580004175746F74756E65206661696C65642160
:101590002054656D706572617475726520746F6F2B
:1015A000206869676800204B643A2000204B693A44
:1015B0002000204B703A200020436C617369632047
:1015C00050494420002054753A2000204B753A20A1
:1015D00000206D61783A2000206D696E3A2000206D
:1015E000643A200020626961733A20004572726F8C
:1015F000723A001000AD0330016A0150022B0170F5
:10160000030A019004F500B005E500D006D800F00B
:1016100007CE001009C500300ABE00500BB700709D
:101620000CB100900DAB00B00EA600D00FA200F0E0
:10163000109D001012990030139500501492007004
:10164000158E0090168B00B0178700D0188400F01C
:10165000198100101B7E00301C7B00501D7900702A
:101660001E7600901F7300B0207000D0216E00F035
:10167000226B00102469003025660050266300703C
:1016800027610090285E00B0295C00D02A5900F044
:101690002B5600102D5400302E5100502F4E00704C
:1016A000304B0090314800B0324500D0334200F05A
:1016B000343E0010363B003037370050383300706E
:1016C000392E00903A2900B03B2300D03C1B00F09B
:1016D0003D1100103F0100F03F000070012C01900F
:1016E000012701B0012201C0011D01F00118011004
:1016F00002130130020E016002090190020401C0D0
:1017000002FF000003FA004003F5008003F000D060
:1017100003EB002004E6007004E100E004DC00407C
:1017200005D700C005D2004006CD00D006C8008015
:1017300007C3003008BE00F008B900C009B400B00B
:101740000AAF00B00BAA00D00CA500000EA00050FC
:101750000F9B00C01096005012910000148C00C026
:10176000158700B0178200B0197D00D01B780000EB
:101770001E730040206E0090226900F02464004037
:10178000275F0090295A00E02B5500102E500020B2
:10179000304B0010324600E033410090353C0010E1
:1017A00037370070383200A0392D00B03A2800A039
:1017B0003B2300603C1E00103D1900903D140010BA
:1017C0003E0F00703E0A00C03E0500003F00005979
:1017D00000B02000B02000B02000B020002D2D3A35
:1017E0002D2D004D363030004368616E67652066F0
:1017F000696C616D656E7400466C6F7700466C6F46
:10180000770046616E2073706565640046616E20E6
:1018100073706565640042656400426564004E6FE4
:101820007A7A6C6533004E6F7A7A6C6533004E6F4E
:101830007A7A6C6532004E6F7A7A6C6532004E6F40
:101840007A7A6C65004E6F7A7A6C650053706565C4
:1018500064005370656564004D61696E00580059FD
:10186000005A004578747275646572004578747228
:1018700075646572004D6F7665205A004D6F766510
:101880002059004D6F76652058004D6F76652041D8
:10189000786973004D6F766520302E316D6D004D87
:1018A0006F766520316D6D004D6F76652031306D3E
:1018B0006D0050726570617265004D6F76652041F4
:1018C000786973004D38300053776974636820502D
:1018D0006F776572204F6E004D3831005377697411
:1018E000636820506F776572204F666600436F6FA4
:1018F0006C646F776E005072656865617420414258
:1019000053005072656865617420504C4100473245
:1019100038004175746F20486F6D65004D38340094
:1019200044697361626C652053746570706572738D
:10193000004D61696E005049442D43005049442DCB
:1019400043005049442D44005049442D440050491F
:10195000442D49005049442D49005049442D500020
:101960005049442D5000200220466163740020023B
:101970002046616374002002204D6178002002201F
:101980004D6178002002204D696E002002204D69D3
:101990006E004F6666004F6E20004F6666004F6E09
:1019A00020004175746F74656D700046616E207320
:1019B000706565640046616E207370656564004201
:1019C000656400426564004E6F7A7A6C6533004E40
:1019D0006F7A7A6C6533004E6F7A7A6C6532004E9E
:1019E0006F7A7A6C6532004E6F7A7A6C65004E6F52
:1019F0007A7A6C6500436F6E74726F6C00436F6E21
:101A0000747261737400526573746F7265204661FD
:101A1000696C73616665004C6F6164206D656D6F04
:101A200072790053746F7265206D656D6F72790005
:101A30004C434420636F6E74726173740054656D1F
:101A40007065726174757265004D61696E004D3824
:101A50003420582059205A2045004D3234004D3250
:101A60003320257300F92E2E00F8526566726573D7
:101A700068004D61696E004D323100496E69742E07
:101A80002053442D43617264004E6F2043617264A1
:101A9000004D3231004368616E67652053442D4329
:101AA000617264005072696E742066726F6D2053AB
:101AB000440053746F70205072696E7400526573E5
:101AC000756D65205072696E740050617573652084
:101AD0005072696E7400436F6E74726F6C00507256
:101AE00065706172650054756E6500496E666F20A1
:101AF00073637265656E0000060900FE07019903B5
:101B00002B20FFFE08FE07FE000000060000010774
:101B100007060200808080808000800303030601A6
:101B200004A0A0A00507070600005050F850F85088
:101B3000500507070600002070A0702870200507D8
:101B40000706000048A8502050A890050707060087
:101B50000040A0A040A89068010303060204808012
:101B60008003070706010020408080804020030793
:101B70000706010080402020204080050505060062
:101B8000018850F850880505050600012020F8203E
:101B9000200303030601FF604080050101060003E6
:101BA000F80303030601FF40E040050707060000B5
:101BB0000808102040808005070706000020508894
:101BC000888850200507070600002060A0202020FC
:101BD000F8050707060000708808304080F8050700
:101BE00007060000F808103008887005070706008F
:101BF0000010305090F81010050707060000F8801C
:101C0000B0C8088870050707060000304080B0C8DB
:101C10008870050707060000F808101020404005EE
:101C20000707060000708888708888700507070617
:101C30000000708898680810600307070601FF40DD
:101C4000E0400040E0400307070601FF40E040009D
:101C500060408004070706010010204080402010EB
:101C6000050303060002F800F804070706010080D8
:101C700040201020408005070706000070881020D3
:101C8000200020050707060000708898A8B0807023
:101C900005070706000020508888F8888805070790
:101CA000060000F04848704848F0050707060000A5
:101CB00070888080808870050707060000F048481B
:101CC000484848F0050707060000F88080F080804B
:101CD000F8050707060000F88080F080808005077F
:101CE0000706000070888080988870050707060046
:101CF00000888888F8888888030707060100E04084
:101D000040404040E0050707060000381010101062
:101D100090600507070600008890A0C0A090880585
:101D20000707060000808080808080F8050707068E
:101D300000008888D8A888888805070706000088DA
:101D400088C8A898888805070706000070888888D2
:101D5000888870050707060000F08888F08080807A
:101D60000508080600FF7088888888A8700805079D
:101D700007060000F08888F0A09088050707060095
:101D80000070888070088870050707060000F8203A
:101D900020202020200507070600008888888888E2
:101DA0008870050707060000888888505050200575
:101DB0000707060000888888A8A8D88805070706AE
:101DC0000000888850205088880507070600008892
:101DD000885020202020050707060000F808102062
:101DE0004080F8030707060100E08080808080E0E3
:101DF0000507070600008080402010080803070739
:101E0000060100E02020202020E005030306000456
:101E10002050880501010600FFF8020202060206B2
:101E200080400505050600007008788878050707DA
:101E30000600008080B0C888C8B00505050600000F
:101E40007088808870050707060000080868988871
:101E500098680505050600007088F880700507077A
:101E6000060000304840F04040400507070600FEED
:101E7000788888780888700507070600008080B099
:101E8000C88888880307070601004000C04040401A
:101E9000E00409090601FE10003010101090906057
:101EA00005070706000080808890E09088030707F8
:101EB000060100C04040404040E005050506000026
:101EC000D0A8A8A888050505060000B0C88888889D
:101ED000050505060000708888887005070706005C
:101EE000FEB0C888C8B080800507070600FE689865
:101EF0008898680808050505060000B0C88080803D
:101F000005050506000070807008F005070706004B
:101F1000004040F040404830050505060000888834
:101F2000889868050505060000888850502005053A
:101F3000050600008888A8A8500505050600008849
:101F4000502050880507070600FE88889868088892
:101F500070050505060000F8102040F80407070684
:101F60000100304020C020403001070706020080F9
:101F7000808080808080040707060100C0204030F8
:101F80004020C005030306000448A890000000019B
:101F9000000000000001000000000001000000003F
:101FA000000100000000000100000000000100002E
:101FB000000000010000000000010000000000011E
:101FC000000000000001000000000001000000000F
:101FD00000010000000000010000000000010000FE
:101FE00000000001000000000001000000000001EE
:101FF00000000000000100000000000100000000DF
:1020000000010000000000010000000000010000CD
:1020100000000001000000000001000000000001BD
:1020200000000000000100000000000100000000AE
:10203000000100000000000100000000000100009D
:10204000000000010000000000010000000000018D
:1020500000000000000600000107070602008000E3
:1020600080808080800507070600FF2078A0A0A060
:102070007820050707060000304840E04048B005DA
:10208000050506000088705070880508080600FFE6
:1020900088885020F8202020010707060200808051
:1020A00080008080800508080600FF7080E090486E
:1020B000380870030101060107A0050707060000A4
:1020C0007088A8C8A888700406060601017090B040
:1020D0005000F0060505060000244890482404023C
:1020E00002060102F010040101060103F0050707D2
:1020F0000600007088E8C8C888700501010600075E
:10210000F803030306010440A0400506060600008C
:102110002020F82020F804050506010360902040E7
:10212000F0040505060103E0106010E0020202065B
:10213000020640800506060600FF888888C8B08031
:1021400005070706000078E8E8682828280101014B
:10215000060203800202020602FE40800305050615
:10216000010340C04040E004060606010160909073
:102170006000F00605050600009048244890060916
:10218000090600FF40C04040E40C143C0406090965
:102190000600FF40C04040E81404081C0509090679
:1021A00000FFC0204020C81828780805070706004F
:1021B000002000202040887005080806000040200C
:1021C000708888F888880508080600001020708844
:1021D00088F888880508080600002050708888F86C
:1021E000888805080806000048B0708888F8888844
:1021F0000508080600005000708888F888880508DF
:10220000080600002050708888F8888806070706AE
:1022100000003C50909CF0909C0509090600FE705F
:10222000888080808870204005080806000040F8FB
:102230008080F08080F805080806000010F8808093
:10224000F08080F805080806000020F88080F08003
:1022500080F805080806000050F88080F08080F8BB
:102260000308080601008040E040404040E00308C9
:10227000080601002040E040404040E00308080616
:10228000010040A0E040404040E003080806010093
:10229000A000E040404040E0050707060000F0488D
:1022A00048E84848F0050808060000285088C8A8F3
:1022B000988888050808060000402070888888886B
:1022C000700508080600001020708888888870054E
:1022D0000808060000205070888888887005080863
:1022E0000600002850708888888870050808060055
:1022F00000500070888888887005050506000088F1
:1023000050205088050707060000709898A8C8C894
:1023100070050808060000402088888888887005B5
:10232000080806000010208888888888700508083A
:10233000060000205000888888887005080806007C
:1023400000500088888888887005080806000010FA
:102350002088885020202005070706000080F0888C
:10236000F0808080050707060000708890A09088A4
:10237000B00508080600004020007008788878053D
:102380000808060000102000700878887805080802
:1023900006000020500070087888780508080600BC
:1023A000002850007008788878050707060000505C
:1023B0000070087888780508080600002050207012
:1023C0000878887806050506000078147C907C055E
:1023D00007070600FE708880887020400508080600
:1023E00000004020007088F8807005080806000092
:1023F0001020007088F88070050808060000205042
:10240000007088F88070050707060000500070888B
:10241000F88070030808060100804000C04040407A
:10242000E0030808060100408000C0404040E0038F
:10243000080806010040A000C0404040E0060A0A2B
:102440000600FEA4A800FC8480808084FC060A0AA2
:102450000600FE549400FC8404040484FC0508086F
:10246000060000285000B0C88888880508080600C3
:10247000004020007088888870040A0A0602FE3036
:10248000408090909090909090040A0A0600FEC0C0
:1024900020109090909090909006070706000144BD
:1024A0008C8C8480403C06070706000188C4C484E5
:1024B0000408F00505050600012000F800200508C5
:1024C0000806000040F0C8888898781005080806BB
:1024D0000000E0F88888888888F80505050600016E
:1024E0002030F830200508080600002070F8202071
:1024F0002020E00509090600FF2070A8A8B88888F8
:1025000050200509090600FFE080C0B0A8A83028C7
:10251000280509090600FFF8A88888888888A8F88F
:10252000050A0A0600FE205050505088A8A888705E
:1025300000060900FE06018902FE20FFFE07FE06D6
:10254000FE000000060007010606060200808080EB
:10255000800080030303060103A0A0A0050707066F
:1025600000FF5050F850F850500509090600FE20B1
:1025700070A8A07028A870200608080600FF40A8D0
:102580004810204854080507070600FF6090906037
:102590009890680103030602038080800207070603
:1025A00002FF408080808080400207070602FF8093
:1025B0004040404040800505050600008850F85026
:1025C000880505050600002020F8202002040406E6
:1025D00002FEC0404080050101060002F80202022E
:1025E000060200C0C004060606010010102040804C
:1025F0008004060606010060909090906003060635
:1026000006010040C0404040E004060606010060AC
:1026100090102040F0040606060100F02060101023
:10262000E005060606000010305090F8100406067B
:10263000060100F080E01010E004060606010060CC
:1026400080E0909060040606060100F01010204023
:102650004004060606010060906090906004060643
:10266000060100609090701060020505060200C02F
:10267000C000C0C00207070602FEC0C000C0404044
:102680008005050506000018608060180503030634
:102690000001F800F8050505060000C0300830C04C
:1026A0000407070601006090106040004005060620
:1026B0000600007090A8B080700506060600002095
:1026C0005088F88888050606060000F088F088889B
:1026D000F004060606010060908080906004060603
:1026E000060100E090909090E0040606060100F0DC
:1026F00080E08080F0040606060100F080E0808023
:1027000080040606060100609080B0906004060612
:102710000601009090F0909090030606060100E0FC
:1027200040404040E00506060600003810101090BA
:102730006004060606010090A0C0A0909004060662
:102740000601008080808080F00506060600008873
:10275000D8A8A8888804060606010090D0B09090FA
:1027600090050606060000708888888870040606B2
:10277000060100E09090E080800407070601FF60FA
:102780009090D0B06010040606060100E09090E042
:1027900090900406060601006090402090600506B7
:1027A00006060000F820202020200406060601006E
:1027B000909090909060040606060100909090F032
:1027C00060600506060600008888A8A8D888050667
:1027D00006060000885020205088050606060000E6
:1027E000888850202020040606060100F0102040B2
:1027F00080F0030606060100E080808080E0040689
:102800000606010080804020101003060606010025
:10281000E020202020E00503030600032050880567
:1028200001010600FEF802020206020480400404D0
:102830000406010070909070040606060100808076
:10284000E09090E0040404060100708080700406AB
:102850000606010010107090907004040406010038
:1028600060B0C070040606060100205040E0404001
:102870000406060601FE60909070106004060606CD
:1028800001008080E0909090030606060100400061
:10289000C04040E00308080601FE20006020202020
:1028A000A0400406060601008080A0C0A090030698
:1028B00006060100C040404040E005040406000058
:1028C000D0A8A888040404060100E09090900404B5
:1028D00004060100609090600406060601FEE09088
:1028E00090E080800406060601FE70909070101043
:1028F000040404060100A0D0808004040406010042
:1029000070C030E00406060601004040E040502060
:102910000404040601009090907004040406010071
:102920009090606005040406000088A8A850040484
:1029300004060100906060900406060601FE909077
:1029400090709060040404060100F02040F003073A
:102950000706010020404080404020010707060292
:10296000FF80808080808080030707060100804010
:10297000402040408004020206010350A0FFFFFFF8
:10298000FFFFFFFFFFFFFFFFFFFFFFFFFFFFFFFF57
:10299000FFFFFFFFFFFFFFFFFFFFFFFFFFFF000045
:1029A0000006000701060606020080008080808085
:1029B0000406060601FF2070A0A070200507070688
:1029C00000FF304840F04040F8050505060000A82B
:1029D000508850A80506060600008850F820F82008
:1029E0000107070602FF80808000808080040707BF
:1029F0000601FF708060906010E003010106010590
:102A0000A0060707060000788494A4948478030540
:102A10000506010160A06000E0050505060000282C
:102A200050A05028040303060100F0101004010117
:102A3000060102F00607070600007884B4A4A48407
:102A400078040101060105F0040303060102609009
:102A5000600507070600FF2020F8202000F8030586
:102A60000506010140A02040E0030505060101C064
:102A7000204020C002020206020440800405050630
:102A800001FF9090B0D08005060606000078E8E8C7
:102A9000682828010101060202800202020602FEE5
:102AA000408003050506010140C04040E0030505E4
:102AB00006010140A04000E0050505060000A05009
:102AC0002850A00508080600FF40C040507030782C
:102AD000100508080600FF40C0405068081038057F
:102AE00008080600FFC0204030F0307810040707C7
:102AF00006010020002060809060050707060000A6
:102B0000402020507088880507070600001020200C
:102B100050708888050707060000205020507088F4
:102B20008805070706000028502050708888050790
:102B3000070600005000205070888805070706002F
:102B4000002050205070888805060606000078A0F6
:102B5000F0A0A0B80408080601FE60908080906094
:102B600020400407070601004020F080E080F004C8
:102B700007070601002040F080E080F00407070608
:102B800001002050F080E080F004070706010050AB
:102B900000F080E080F00307070601008040E0407D
:102BA0004040E00307070601002040E0404040E0CD
:102BB00003070706010040A0E0404040E00307078C
:102BC000060100A000E0404040E0050606060000C7
:102BD0007048E848487004070706010050A090D0EC
:102BE000B09090040707060100402060909090602C
:102BF00004070706010020406090909060040707DA
:102C000006010020506090909060040707060100C4
:102C100050A060909090600407070601005000608B
:102C200090909060050505060000885020508804AB
:102C300008080601FF1070B0B0D0D0E0800407078C
:102C40000601004020909090906004070706010064
:102C5000204090909090600407070601002050905B
:102C600090909060040707060100500090909090AB
:102C70006005070706000010208850202020040669
:102C80000606010080E09090E08004060606010040
:102C90006090A0A090A004070706010040200070EB
:102CA000909070040707060100204000709090701B
:102CB0000407070601002050007090907004070779
:102CC00006010050A00070909070040606060100F6
:102CD000500070909070040707060100205020708B
:102CE00090907005040406000070A8B078040606F1
:102CF0000601FE7080807020400407070601004036
:102D0000200060B0C070040707060100204000608A
:102D1000B0C07004070706010020500060B0C0700A
:102D2000040606060100500060B0C07003070706E5
:102D30000100804000C04040E0030707060100207A
:102D40004000C04040E003070706010040A000C06B
:102D50004040E0030606060100A000C04040E00439
:102D600007070601003060107090906004070706A6
:102D7000010050A000E09090900407070601004079
:102D8000200060909060040707060100204000606A
:102D9000909060040707060100205000609090604A
:102DA00004070706010050A000609090600406062A
:102DB00006010050006090906005050506000020A7
:102DC00000F8002004040406010070B0D0E00407FD
:102DD000070601004020009090907004070706014C
:102DE00000204000909090700407070601002050DA
:102DF000009090907004060606010050009090909C
:102E0000700409090601FE204000909090709060C7
:102E10000408080601FE8080E09090E080800408AD
:102E2000080601FE50009090907090600000000035
:102E300000000000000000007FFFE0000000000034
:102E4000000000000000007000E000000000000032
:102E500000000000000061F86000000000000000B9
:102E6000000000000041F820000000000000000009
:102E70000000000040F02000000000000000000002
:102E80000000004060200000000000000000000082
:102E900000005801A07F80003FC0003FC0004104F7
:102EA000005C63A0FBC00079E00079E000208200B4
:102EB0005EF7A0F3C00076E00076E0002082005EBE
:102EC000F7A0EBC0007EE0007EE0004104005C6300
:102ED000A07B80003DC00039C0008208005801A0DE
:102EE0007B80003BC0003EC001041000406020FB1E
:102EF000C00077E00076E00104100040F020FBC045
:102F00000070E00079E00082080041F820FFC00076
:102F10007FE0007FE00041040061F8603F00001F97
:102F200080001F80000000007000E01E00000F0005
:102F3000000F0001FFFF807FFFE00C000006000093
:102F4000060001FFFF8000000000000000000000FC
:102F500000000000007FFFE0000000000000000013
:102F6000000000007000E000000000000000000011
:102F7000000000630C600000000000000000000082
:102F80000000470E200000000000000000000000CC
:102F9000004F0F20000000000000000000000000B3
:102FA0005F0FA00000000000000000000000005EB5
:102FB00007A07F80003FC0003FC000410400406088
:102FC00020FBC00079E00079E00020820040F02082
:102FD000F3C00076E00076E00020820040F020EBB5
:102FE000C0007EE0007EE0004104004060207B8065
:102FF000003DC00039C0008208005E07A07B800051
:103000003BC0003EC0010410005F0FA0FBC0007772
:10301000E00076E0010410004F0F20FBC00070E0DC
:103020000079E000820800470E20FFC0007FE0002A
:103030007FE000410400630C603F00001F80001F20
:1030400080000000007000E01E00000F00000F0074
:1030500001FFFF807FFFE00C00000600000600017A
:10306000FFFF8000000000000000000000000000E2
:103070000000000000000000000000000000000050
:103080000000000000000000000000000000FC0341
:103090000000000000000000000000000000FE072B
:1030A0000000000000000000000000000000FE071B
:1030B0000000000000000000000000000000FE070B
:1030C0000000000000000000000000000000FE0FF3
:1030D0000000000000000000000000000000FE0FE3
:1030E0000000000000000000000000E0FF3FFEFFC5
:1030F0000700000000000000000000F0FF7FFEFF5E
:103100000F00000000000000000000F0FF7FFEFF45
:103110000F00000000000000000000F0FF7FFEFF35
:103120001F00000000000000000000F0FF7FFEFF15
:103130001F00000000000000000000F0FF7FFEFF05
:103140001F00000000000000000000F88F7FFEE17B
:103150001F00000000000000000000F8077FFEC014
:103160001F00000000000000000000F8037E7EC089
:103170001F00000000000000000000F8037E7EC079
:103180003F00000000000000000000F8037E7EC049
:103190003F00000000000000000000F8077FFEE094
:1031A0003F00000000000000000000F89F7FFEF3D9
:1031B0003F00000000000000000000FCFF7FFEFF59
:1031C0003F00000000000000000000FCFF7FFEFF49
:1031D0007F00000000000000000000FCFF7FFEFFF9
:1031E0007F00000000000000000000FCFF7FFEFFE9
:1031F0007F00000000000000000000FCFF3FFCFF1B
:103200003F00000000000000000000FC7F00000004
:103210000000000000000000000000FC3F00000073
:103220000000000000000000000000FE1F00000081
:103230000000000000000000000000FE1F00000071
:103240000000000000000000000000FE1F00000061
:103250000000000000000000000000FC0F00000063
:10326000000000000000000000000000000000005E
:10327000000000000000000000000000000000004E
:10328000000000000000000000000000000000003E
:10329000000000000000000000000000000000002E
:1032A000000000000000000000000000000000001E
:1032B000000000000000000000000000000000000E
:1032C00000000000000000000000000000000000FE
:1032D00000000000000000000000000000000000EE
:1032E00000000000000000000000000000000000DE
:1032F0000000000000000000000038000000000096
:103300000000000000000000000038000000000085
:1033100000000000000000000000380000380080BD
:103320000300000070000000000000000038008072
:103330000300000070000000000000000038008062
:1033400003000000700000FE03F839F81FFC819FA5
:10335000F307F01FF80780FF0FFE39FC3FFCE19FE9
:10336000F31FF87FF807C0FF1FFE39FE7FFCF19FB7
:10337000F33FFCFFF807C0031C0F380FF0387080D4
:1033800003700EC07100E00138073807E038708024
:1033900003700EC07100E00038073807E038708015
:1033A000037000C07100E00038073807E038708013
:1033B000037000C07100E00038073807E038708003
:1033C000037000C07100E00038073807E0387080F3
:1033D00003700EC07100E0001C073807E0707080B9
:1033E00007781EE0F100E0F81F073807E0F07300EF
:1033F000FF3FFCFFE007E0F80F073807E0E073004D
:10340000FE1FF87FC007E0F807073807E0C0730029
:10341000FC0FF03F0007E00000000000000000008B
:10342000000000000000E0000000000000000000BC
:10343000000000000000E0000000000000000000AC
:10344000000000000000000000000000000000007C
:10345000000000000000000000000000000000006C
:103460000000000000000129022904290829102970
:10347000202940298029012C022C0126022604261D
:1034800008261026202640268026402C802C01234A
:103490000223042308231023202340238023012018
:1034A0000220042008201020202040208020102C02
:1034B000202C012F022F042F082F102F202F402FF8
:1034C000802F0001000073351200020000303543E8
:1034D000000300002C35040103090412351802030F
:1034E0000904FA341603030904EC340C0C0331000C
:1034F000320033003400350000001603550053003D
:1035000042002000530065007200690061006C00F9
:10351000000018035400650065006E007300790018
:103520006400750069006E006F0000000403090468
:1035300009024300020100C0320904000001020236
:1035400001000524001001052401000104240206E5
:103550000524060001070582030800400904010054
:10356000020A00000007050302400000070584026C
:103570004000001201000202000020C01683040077
:1035800001010203010001C102018036018136FF01
:10359000E0FFD1AFFF32FFD0FFFEFFE0FFD1AEFF73
:1035A000D0FFFEFFE0FFD11000FFFEFFD0FFE0FFE5
:1035B000C1FFD1AED580A83FD300408D142000A11B
:1035C000C8DA1281CFD9F1DB402EA4A6AFFFD0FF1D
:1035D000FE00091200FC0A01E803D720FFFD0EFDE2
:1035E0000BFD00000009000E010B0B090400808098
:1035F000808080808000008080040404090307909C
:10360000909090080A0A090000242424FF2424FF33
:10361000242424070B0B0901FF107C9290503814CE
:1036200012927C10070A0A09010042A4A448101053
:10363000244A4A84070A0A09010060909090606257
:103640009488946201040409040780808080030C3C
:103650000C0903FF20404080808080808040402013
:10366000030C0C0903FF8040402020202020204034
:10367000408007070709010310925438549210073D
:103680000707090101101010FE10101002040409B0
:1036900004FEC0C04080070101090104FE020202CD
:1036A000090400C0C0070A0A090100020404081046
:1036B0001020404080070A0A0901003844828282B3
:1036C0008282824438070A0A0901001030509010A3
:1036D00010101010FE070A0A090100384482020483
:1036E00008102040FE070A0A090100FE020408181B
:1036F0000402028478070A0A090100040C14244415
:1037000084FE040404070A0A090100FE808080F890
:103710000402028478070A0A0901003C408080B84C
:10372000C482824438070A0A090100FE0204040820
:103730000810101010070A0A0901003844824438A2
:103740004482824438070A0A0901003844828246CA
:103750003A02020478020707090400C0C000000012
:10376000C0C00209090904FEC0C0000000C0C0407A
:103770008005090909020008102040804020100837
:10378000070404090102FE0000FE05090909020000
:10379000804020100810204080070A0A09010038E4
:1037A000448202040810100010070A0A09010038B8
:1037B000449AAAAAAAAA9C403C070A0A0901001036
:1037C000282828447C44828282070A0A090100F8DA
:1037D000848284F884828284F8070A0A0901003C02
:1037E00042808080808080423C070A0A090100F8FC
:1037F0008482828282828284F8070A0A090100FE9A
:10380000808080F880808080FE070A0A090100FE1F
:10381000808080F88080808080070A0A0901003853
:10382000448280808E82824438070A0A090100821D
:10383000828282FE8282828282050A0A090200F85E
:103840002020202020202020F8070A0A0901003E1D
:10385000080808080808888870070A0A0901008211
:10386000848890A0D088848282070A0A0901008097
:103870008080808080808080FE070A0A09010082A3
:1038800082C6AA928282828282070A0A0901008283
:1038900082C2A2928A86828282070A0A0901007C79
:1038A00082828282828282827C070A0A090100F86F
:1038B00084828284F880808080080B0B0901FF38A5
:1038C0004482828282828A443A01070A0A090100FC
:1038D000F884828284F890888482070A0A090100A9
:1038E0007C8280807C020202827C070A0A09010035
:1038F000FE101010101010101010070A0A09010015
:1039000082828282828282824438070A0A09010006
:1039100082828244444428282810070A0A090100A8
:103920008282828292929292AA44070A0A09010034
:1039300082824428101028448282070A0A09010062
:1039400082824428101010101010070A0A09010082
:10395000FE0204081020408080FE040C0C0903FFC6
:10396000F080808080808080808080F0070A0A0953
:10397000010080404020101008040402040C0C09CF
:1039800002FFF010101010101010101010F00704AB
:1039900004090106102844820801010900FFFF0301
:1039A000030309030A8040200707070901007C027E
:1039B000027E82867A070A0A090100808080BCC2E2
:1039C000828282C2BC0707070901007C8280808056
:1039D000827C070A0A0901000202027A8682828238
:1039E000867A0707070901007C8282FE80827C07B5
:1039F0000A0A0901001C22222020F820202020078A
:103A00000A0A0901FD7A84848478807C82827C079A
:103A10000A0A090100808080BCC2828282828205FB
:103A20000A0A090200600000E02020202020F8059A
:103A30000D0D0902FD18000038080808080808885C
:103A40008870070A0A090100808080848890B0C8C5
:103A50008482050A0A090200E0202020202020207C
:103A600020F8070707090100EC92929292928207D0
:103A70000707090100BCC282828282820707070908
:103A800001007C82828282827C070A0A0901FDB8D9
:103A9000C4828282C4B8808080070A0A0901FD3A84
:103AA00046828282463A0202020707070901009C09
:103AB0006242404040400707070901007C82807C49
:103AC00002827C0709090901002020FC2020202017
:103AD000221C0707070901008282828282867A07F8
:103AE00007070901008282444428281007070709B4
:103AF00001008282929292AA44070707090100827C
:103B0000442810284482070A0A0901FD424224245D
:103B1000241818109060070707090100FE04081018
:103B20002040FE060B0B0902001C20202020C02094
:103B30002020201C010C0C0904FF808080808080E4
:103B4000808080808080060B0B090100E01010103F
:103B5000100C10101010E007030309010762928C8B
:103B6000FFFFFFFFFFFFFFFFFFFFFFFFFFFFFFFF65
:103B7000FFFFFFFFFFFFFFFFFFFFFFFFFFFFFFFF55
:103B8000FF00000009000E010B0B090400808000FB
:103B90000080808080808080060808090100087805
:103BA0009490A0A47840070A0A0901001C22202052
:103BB000F8202060A25C070606090103827C4444C9
:103BC0007C82070A0A090100828244287C107C104A
:103BD0001010010B0B0904FF808080808000808022
:103BE000808080040B0B0902FF60908060909090B1
:103BF0006010906003020209030BA0A008090909E4
:103C000000013C4299A5A1A599423C05070709017D
:103C100003609070907800F80708080901011224E9
:103C2000489090482412060404090102FC0404048C
:103C3000050101090204F80809090900013C42B91B
:103C4000A5BDA9A5423C060101090109FC04040423
:103C5000090306609090600709090901011010101E
:103C6000FE10101000FE04060609010460901060AA
:103C700080F00406060901046090201090600303A0
:103C80000309030A2040800709090901FE82828294
:103C90008282C6BA8080070A0A0901007E8A8A8A5F
:103CA0007A0A0A0A0A0A020202090404C0C00403CA
:103CB000030902FD20906003060609010440C0408C
:103CC0004040E00506060901047088887000F80786
:103CD00008080901019048241212244890070A0A92
:103CE00009010040C0404042E60A121A06070A0ACB
:103CF00009010040C040404CF2020C101E070A0AA5
:103D00000901006090201092660A121A06070A0A3A
:103D10000901001000101020408082827C070E0EE6
:103D20000901002010080010282828447C448282C1
:103D300082070E0E090100081020001028282844D0
:103D40007C44828282070E0E090100102844001074
:103D5000282828447C44828282070D0D0901003402
:103D6000580010282828447C44828282070D0D09BF
:103D7000010028280010282828447C4482828207D9
:103D80000E0E0901001028281010282828447C4411
:103D9000828282070A0A0901001E2828284E7848D4
:103DA00088888E070D0D0901FD3C4280808080804F
:103DB00080423C082418070E0E090100201008005C
:103DC000FE808080F880808080FE070E0E09010052
:103DD00008102000FE808080F880808080FE070E22
:103DE0000E09010010284400FE808080F880808049
:103DF00080FE070D0D090100282800FE808080F854
:103E000080808080FE050E0E09020040201000F820
:103E10002020202020202020F8050E0E090200106E
:103E2000204000F82020202020202020F8050E0E21
:103E300009020020508800F8202020202020202087
:103E4000F8050D0D090200505000F8202020202018
:103E5000202020F8070A0A09010078444242F24271
:103E600042424478070D0D0901003458008282C295
:103E7000A2928A86828282070E0E09010020100813
:103E8000007C82828282828282827C070E0E0901FD
:103E900000081020007C82828282828282827C07DB
:103EA0000E0E090100102844007C828282828282E8
:103EB00082827C070D0D0901003458007C828282C9
:103EC00082828282827C070D0D0901002828007CF5
:103ED00082828282828282827C07070709010182B4
:103EE000442810284482070C0C0901FF027C868AB2
:103EF0008A9292A2A2C27C80070E0E0901002010B5
:103F0000080082828282828282824438070E0E09F1
:103F100001000810200082828282828282824438DC
:103F2000070E0E09010010284400828282828282DC
:103F300082824438070D0D09010028280082828200
:103F400082828282824438070E0E09010008102006
:103F50000082824428101010101010070A0A09016C
:103F6000008080FC828282FC808080060A0A09012F
:103F70000038444448D04844444458070B0B0901D6
:103F800000201008007C02027E82867A070B0B0953
:103F90000100081020007C02027E82867A070B0B4B
:103FA000090100102844007C02027E82867A070AFA
:103FB0000A0901003458007C02027E82867A070AD0
:103FC0000A0901002828007C02027E82867A070CFA
:103FD0000C09010010282810007C02027E82867ADB
:103FE0000707070901006C12127E90926C070A0AFB
:103FF0000901FD7C82808080827C104830070B0B99
:10400000090100201008007C8282FE80827C070B60
:104010000B090100081020007C8282FE80827C0750
:104020000B0B090100102844007C8282FE80827CF8
:10403000070A0A0901002828007C8282FE80827C0F
:10404000050C0C0902008040200000E02020202008
:1040500020F8050C0C0902001020400000E0202090
:10406000202020F8050C0C0902002050880000E0F8
:104070002020202020F8050B0B09020050500000E2
:10408000E02020202020F8070B0B090100483050C9
:10409000083C448282824438070A0A0901003458E5
:1040A00000BCC28282828282070B0B0901002010B1
:1040B00008007C82828282827C070B0B0901000847
:1040C0001020007C82828282827C070B0B09010017
:1040D000102844007C82828282827C070A0A0901BD
:1040E000003458007C82828282827C070A0A09019D
:1040F000002828007C82828282827C0709090901CB
:104100000010381000FE001038100709090901FFDF
:10411000027C8A8A92A2A27C80070B0B09010040D4
:104120002010008282828282867A070B0B090100AE
:10413000081020008282828282867A070B0B090196
:1041400000102844008282828282867A070A0A0945
:1041500001002828008282828282867A070E0E0958
:1041600001FD040810004242242424181810906015
:10417000070B0B0901FE8080B8C4828282C4B8801C
:1041800080070D0D0901FD24240042422424241837
:10419000181090604E414E494E495459494E46CDF3
:1041A000CCCC3D0AD7233C17B7D13877CC2B3295EE
:1041B00095E6241FB14F0A000020410000C84200CC
:1041C000401C4620BCBE4CCA1B0E5AAEC59D740096
:1041D000CC34959269C43CD139DAD03411241FBE55
:1041E000CFEFD0E2DEBFCDBF13E0A0E0B1E0E4E26C
:1041F000FFEC01E00BBF02C007900D92A63DB10796
:10420000D9F722E1A6EDB3E001C01D92A239B207B1
:10421000E1F711E4CAEDD1E400E006C022970109FC
:10422000FE010BBF0E94D3DCC03DD10780E0080730
:10423000A9F70E94EDCA0C9480E70C940000DB0102
:104240000D900020E9F7AD0141505109461B570B75
:10425000DC01ED91FC910280F381E02D0994CF9374
:10426000DF931F92CDB7DEB76983DC01ED91FC913E
:104270000280F381E02D41E050E0BE016F5F7F4F8F
:1042800009950F90DF91CF910895EF92FF920F93D0
:104290001F93CF93DF931F92CDB7DEB78C017B01C5
:1042A000460FF70161917F01F80180819181498377
:1042B0000E94C9E6F80180819181019691838083F3
:1042C00049814E11EECF0F90DF91CF911F910F9149
:1042D000FF90EF900895EF92FF920F931F93CF936B
:1042E000DF931F92CDB7DEB78C017B01460FF8013B
:1042F0008081918149830E94C1E6F70181937F010A
:10430000F8018081918101969183808349814E11CA
:10431000EECF0F90DF91CF911F910F91FF90EF9013
:1043200008950F931F93CF93DF93CDB7DEB72A97EE
:104330000FB6F894DEBF0FBECDBF80E390E3A0E3DD
:10434000B0E08D839E83AF83B88704E610E01A87C0
:10435000098744E0BE016B5F7F4FCE01099695DF70
:1043600040E16AEB7FE0CE0109968FDF40E16AEC25
:104370007FE0CE01099689DF40E16AEA7FE0CE0165
:10438000099683DF44E062EA7FE0CE0109967DDF93
:1043900044E06EE97FE0CE01099677DF44E066EA0B
:1043A0007FE0CE01099671DF44E06EE87FE0CE0148
:1043B00009966BDF44E06AED7FE0CE01099665DF88
:1043C00044E06AE97FE0CE0109965FDF44E066E9F8
:1043D0007FE0CE01099659DF44E062E97FE0CE013B
:1043E000099653DF4CE063ED75E0CE0109964DDF91
:1043F00042E065E371E1CE01099647DF42E063E305
:1044000071E1CE01099641DF42E061E371E1CE0145
:1044100009963BDF42E06FE271E1CE01099635DF9C
:1044200042E06DE271E1CE0109962FDF42E06BE2DE
:1044300071E1CE01099629DF44E064E071E0CE012C
:10444000099623DF44E068E071E0CE0109961DDFA4
:1044500044E06CE071E0CE01099617DF44E062E9C8
:1044600071E0CE01099611DF44E06EE871E0CE0103
:1044700009960BDF44E06AE871E0CE01099605DF9A
:1044800042E068E271E1CE010996FFDE44E067EDAB
:1044900073E0CE010996F9DE44E060E171E0CE01FF
:1044A0000996F3DE44E06BED73E0CE010996EDDE94
:1044B00044E064E171E0CE010996E7DE44E06FED8F
:1044C00073E0CE010996E1DE44E068E171E0CE01DF
:1044D0000996DBDE86E591E3A2E3B0E089839A8367
:1044E000AB83BC831A87098744E0BE016F5F7F4FAF
:1044F000CE010996CADEECEAF3E064918F016623EF
:1045000041F087E491E1ABDE0F5F1F4FF80164914A
:10451000F6CFECE9F3E064918F01662341F087E484
:1045200091E19DDE0F5F1F4FF8016491F6CF6AE0C5
:1045300087E491E194DE2A960FB6F894DEBF0FBEB1
:10454000CDBFDF91CF911F910F9108950F931F93CE
:10455000CF93DF93CCEAD3E0FE0164918E01662312
:1045600041F087E491E17BDE0F5F1F4FF80164911A
:10457000F6CFECE8F3E064918F01662341F087E425
:1045800091E16DDE0F5F1F4FF8016491F6CF6AE095
:1045900087E491E164DEFE0164910CEA13E0662396
:1045A00041F087E491E15BDE0F5F1F4FF8016491FA
:1045B000F6CF4091BA0F5091BB0F6091BC0F709134
:1045C000BD0F84E893E00E947C2D4091BE0F509176
:1045D000BF0F6091C00F7091C10F81E893E00E94FE
:1045E0007C2D4091C20F5091C30F6091C40F709108
:1045F000C50F8EE793E00E947C2D4091C60F50912D
:10460000C70F6091C80F7091C90F8BE793E00E94AC
:104610007C2D68E573E087E491E111DE6AE087E4D0
:1046200091E11DDEFE0164910CEA13E0662341F086
:1046300087E491E114DE0F5F1F4FF8016491F6CF1C
:10464000E1E6F3E064918F01662341F087E491E1B4
:1046500006DE0F5F1F4FF8016491F6CF6AE087E432
:1046600091E1FDDDFE0164910CEA13E0662341F067
:1046700087E491E1F4DD0F5F1F4FF8016491F6CFFD
:104680004091CA0F5091CB0F6091CC0F7091CD0F1C
:1046900088E593E00E947C2D4091CE0F5091CF0F82
:1046A0006091D00F7091D10F85E593E00E947C2D31
:1046B0004091D20F5091D30F6091D40F7091D50FCC
:1046C00082E593E00E947C2D4091D60F5091D70F48
:1046D0006091D80F7091D90F8FE493E00E947C2DE8
:1046E00068E573E087E491E1AADD6AE087E491E19F
:1046F000B6DDFE0164910CEA13E0662341F087E425
:1047000091E1ADDD0F5F1F4FF8016491F6CFE1E35A
:10471000F3E064918F01662341F087E491E19FDD2E
:104720000F5F1F4FF8016491F6CF6AE087E491E1D3
:1047300096DDFE0164910CEA13E0662341F087E404
:1047400091E18DDD0F5F1F4FF8016491F6CF40912D
:10475000AA0F5091AB0F6091AC0F7091AD0F88E232
:1047600093E00E94BC2D4091AE0F5091AF0F60912D
:10477000B00F7091B10F85E293E00E94BC2D409183
:10478000B20F5091B30F6091B40F7091B50F82E2E8
:1047900093E00E94BC2D4091B60F5091B70F6091ED
:1047A000B80F7091B90F8FE193E00E94BC2D68E5BE
:1047B00073E087E491E143DD6AE087E491E14FDD56
:1047C000FE0164910CEA13E0662341F087E491E175
:1047D00046DD0F5F1F4FF8016491F6CFEAEEF2E07D
:1047E00064918F01662341F087E491E138DD0F5F2A
:1047F0001F4FF8016491F6CF6AE087E491E12FDD65
:10480000FE0164910CEA13E0662341F087E491E134
:1048100026DD0F5F1F4FF8016491F6CF4091A20F84
:104820005091A30F6091A40F7091A50F81EE92E0BB
:104830000E947C2D40919E0F50919F0F6091A00F80
:104840007091A10F8EED92E00E947C2D68E573E0DF
:1048500087E491E1F4DC6AE087E491E100DDFE01A8
:1048600064910CEA13E0662341F087E491E1F7DC00
:104870000F5F1F4FF8016491F6CFEBE2F2E0649115
:104880008F01662341F087E491E1E9DC0F5F1F4F60
:10489000F8016491F6CF6AE087E491E1E0DCFE0183
:1048A00064910CEA13E0662341F087E491E1D7DCE0
:1048B0000F5F1F4FF8016491F6CF4091A60F509102
:1048C000A70F6091A80F7091A90F82E292E00E9459
:1048D0007C2D40918E0F50918F0F6091900F7091B1
:1048E000910F8FE192E00E947C2D4091DA0F509160
:1048F000DB0F6091DC0F7091DD0F8CE192E00E9484
:10490000BC2D40919A0F50919B0F60919C0F70911C
:104910009D0F89E192E00E947C2D4091960F50916D
:10492000970F6091980F7091990F86E192E00E9425
:104930007C2D4091920F5091930F6091940F709144
:10494000950F83E192E00E947C2D68E573E087E497
:1049500091E175DC6AE087E491E181DCFE0164911C
:104960000CEA13E0662341F087E491E178DC0F5F05
:104970001F4FF8016491F6CFE1E0F2E064918F01FE
:10498000662341F087E491E16ADC0F5F1F4FF80175
:104990006491F6CF6AE087E491E161DCFE01649105
:1049A0000CEA13E0662341F087E491E158DC0F5FE5
:1049B0001F4FF8016491F6CF4091D3055091D40573
:1049C0006091D5057091D60588EF91E00E947C2D0D
:1049D0004091D7055091D8056091D9057091DA05BD
:1049E00085EF91E00E947C2D4091DB055091DC0524
:1049F0006091DD057091DE0582EF91E00E947C2DD3
:104A000068E573E087E491E11ADC6AE087E491E10C
:104A100026DCFE0164910CEA13E0662341F087E492
:104A200091E11DDC0F5F1F4FF8016491F6CFE4EEBA
:104A3000F1E064918F01662341F087E491E10FDC9E
:104A40000F5F1F4FF8016491F6CF6AE087E491E1B0
:104A500006DCFE0164910CEA13E0662341F087E472
:104A600091E1FDDB0F5F1F4FF8016491F6CF40919C
:104A700092015091930160919401709195018AED9A
:104A800091E00E947C2D60918E0170918F01809148
:104A90009001909191010E94F49DAB01BC0187EDC2
:104AA00091E00E947C2D60918A0170918B01809130
:104AB0008C0190918D010E94009EAB01BC0184EDA0
:104AC00091E00E947C2D68E573E087E491E1B7DB1B
:104AD0006AE087E491E1C3DBFE0164910CEA13E034
:104AE000662341F087E491E1BADB0F5F1F4FF801C5
:104AF0006491F6CFE1ECF1E064918F01662341F01F
:104B000087E491E1ACDB0F5F1F4FF8016491F6CFB2
:104B10006AE087E491E1A3DBFE0164910CEA13E013
:104B2000662341F087E491E19ADB0F5F1F4FF801A4
:104B30006491F6CF4091D7035091D8036091D90387
:104B40007091DA0388EB91E0D7D74091DB03509165
:104B5000DC036091DD037091DE0385EB91E0CCD73F
:104B60004091DF035091E0036091E1037091E20313
:104B700082EB91E0C1D768E573E087E491E15FDB08
:104B80006AE087E491E16BDBFE0164910CEA13E0DB
:104B9000662341F087E491E162DB0F5F1F4FF8016C
:104BA0006491F6CFEFE9F1E064918F01662341F063
:104BB00087E491E154DB0F5F1F4FF8016491F6CF5A
:104BC0006AE087E491E14BDBFE0164910CEA13E0BB
:104BD000662341F087E491E142DB0F5F1F4FF8014C
:104BE0006491F6CF40911001509111016091120132
:104BF0007091130186E991E07FD7409114015091A3
:104C00001501609116017091170183E991E074D745
:104C1000409118015091190160911A0170911B0186
:104C200080E991E069D768E573E087E491E107DB0B
:104C30006AE087E491E113DBFE0164910CEA13E082
:104C4000662341F087E491E10ADB0F5F1F4FF80113
:104C50006491F6CFE9E7F1E064918F01662341F0BA
:104C600087E491E1FCDA0F5F1F4FF8016491F6CF02
:104C70006AE087E491E1F3DAFE0164910CEA13E063
:104C8000662341F087E491E1EADA0F5F1F4FF801F4
:104C90006491F6CF409104015091050160910601A5
:104CA0007091070180E791E027D74091080150916A
:104CB000090160910A0170910B018DE691E01CD70A
:104CC00040910C0150910D0160910E0170910F0106
:104CD0008AE691E011D768E573E087E491E1AFDA05
:104CE0006AE087E491E1DF91CF911F910F91B7CAFC
:104CF000AF92BF92CF92DF92EF92FF920F931F93EA
:104D0000CF93DF93CDB7DEB7E0970FB6F894DEBF51
:104D10000FBECDBF80E1E3ECF1E0DE0191960190A2
:104D20000D928A95E1F780E1E3EDF1E0DE01519625
:104D300001900D928A95E1F780E1E3EEF1E0DE016A
:104D4000119601900D928A95E1F76E0181E2C80EED
:104D5000D11C8AEBE82E8FE0F82E8E010F5E1F4FDC
:104D60006AEC7FE0AE014F5F5F4F9AEAA92E9FE0A9
:104D7000B92E20E030E0F60181919191A191B1919D
:104D80006F01F70181939193A193B1937F01F80192
:104D900081919191A191B1918F01FB0181939193A7
:104DA000A193B193BF01FA0181919191A191B19128
:104DB000AF01F50181939193A193B1935F012F5FAF
:104DC0003F4F24303105B9F60E94598880E090E8C1
:104DD000ABE3B5E48093A20F9093A30FA093A40F2D
:104DE000B093A50F80939E0F90939F0FA093A00F59
:104DF000B093A10F1092A60F1092A70F1092A80FB8
:104E00001092A90F80E29EE4A0E0B0E08093DA0F58
:104E10009093DB0FA093DC0FB093DD0F10928E0FF9
:104E200010928F0F1092900F1092910F80E090E0EF
:104E3000A0EAB1E480939A0F90939B0FA0939C0FEC
:104E4000B0939D0F4DEC5CEC6CEC7EE34093960FC1
:104E50005093970F6093980F7093990F40E050E034
:104E600060EA70E44093920F5093930F6093940F15
:104E70007093950F1092DB051092DC051092DD0502
:104E80001092DE051092D7051092D8051092D90520
:104E90001092DA051092D3051092D4051092D50520
:104EA0001092D60524EB30E0309336112093351163
:104EB00026E430E030933411209333112FEF30E0AB
:104EC000309332112093311140EF50E05093301164
:104ED00040932F1144E650E050932E1140932D1132
:104EE00030932C1120932B11809304019093050192
:104EF000A0930601B09307011092080110920901D6
:104F000010920A0110920B0110920C0110920D01E7
:104F100010920E0110920F0180E290E090932911FF
:104F2000809328118AE999E9A1EBB1E48093920179
:104F300090939301A0939401B093950161E77DE371
:104F40008AE89FE30E94EE9D60938E0170938F012B
:104F5000809390019093910160E070E084EE92E480
:104F60000E94FA9D60938A0170938B0180938C015B
:104F700090938D010E942F9480E090E0A0E8BFE321
:104F80008093860190938701A0938801B093890153
:104F90001092D7031092D8031092D9031092DA031B
:104FA0001092DB031092DC031092DD031092DE03FB
:104FB0001092DF031092E0031092E1031092E203DB
:104FC00080E090E0AAE7B3E4809310019093110190
:104FD000A0931201B09313018093140190931501D3
:104FE000A0931601B093170180E090E0AEE7B3E420
:104FF0008093180190931901A0931A01B0931B019B
:10500000ECEAF3E064918F01662341F087E491E1DB
:1050100026D90F5F1F4FF8016491F6CFEEE2F1E061
:1050200064918F01662341F087E491E118D90F5F05
:105030001F4FF8016491F6CF6AE087E491E1E096B2
:105040000FB6F894DEBF0FBECDBFDF91CF911F9199
:105050000F91FF90EF90DF90CF90BF90AF90FFC87F
:105060000F931F93CF93DF93CDB7DEB72A970FB679
:10507000F894DEBF0FBECDBF84E690E09A878987A3
:1050800086E591E3A2E3B0E089839A83AB83BC8396
:1050900044E0BE016B5F7F4FCE0109961CD943E00F
:1050A00050E0BE016B5F7F4FCE0101960E9488E405
:1050B000892B09F0E1C040E16AEB7FE0CE0109965F
:1050C0000AD940E16AEC7FE0CE01099604D940E1BB
:1050D0006AEA7FE0CE010996FED80E94598844E032
:1050E00062EA7FE0CE010996F6D844E06EE97FE0FF
:1050F000CE010996F0D844E066EA7FE0CE01099639
:10510000EAD844E06EE87FE0CE010996E4D844E0B6
:105110006AED7FE0CE010996DED844E06AE97FE0DF
:10512000CE010996D8D844E066E97FE0CE01099621
:10513000D2D844E062E97FE0CE010996CCD84CE0B9
:1051400063ED75E0CE010996C6D842E065E371E1F2
:10515000CE010996C0D842E063E371E1CE01099621
:10516000BAD842E061E371E1CE010996B4D842E0D9
:105170006FE271E1CE010996AED842E06DE271E1D5
:10518000CE010996A8D842E06BE271E1CE01099602
:10519000A2D844E064E071E0CE0109969CD844E0D6
:1051A00068E071E0CE01099696D844E06CE071E0C9
:1051B000CE01099690D844E062E971E0CE010996EB
:1051C0008AD844E06EE871E0CE01099684D844E0C4
:1051D0006AE871E0CE0109967ED842E068E271E1AA
:1051E000CE01099678D844E067ED73E0CE010996C8
:1051F00072D844E060E171E0CE0109966CD844E0D9
:105200006BED73E0CE01099666D844E064E171E08D
:10521000CE01099660D844E06FED73E0CE010996A7
:105220005AD844E068E171E0CE01099654D80E9452
:105230002F94ECEAF3E064918F01662341F087E458
:1052400091E10DD80F5F1F4FF8016491F6CFE0E5B3
:10525000F1E064918F01662349F087E491E10E94B7
:105260002F210F5F1F4FF8016491F5CF6AE087E4AB
:1052700091E10E942F2102C03BDD53D867D92A96C5
:105280000FB6F894DEBF0FBECDBFDF91CF911F9157
:105290000F9108958091210190912201A091230105
:1052A000B09124018093930590939405A093950564
:1052B000B093960580913501909136019093F00559
:1052C0008093EF0584E690E090933601809335015A
:1052D0000FB6F89480913C1190913D11A0913E1130
:1052E000B0913F110FBE8093F2039093F303A0930C
:1052F000F403B093F50381E00C948D8980E00E9463
:105300008D898091930590919405A0919505B09118
:1053100096058093210190932201A0932301B093DD
:1053200024018091EF059091F005909336018093D0
:1053300035010FB6F89480913C1190913D11A091E8
:105340003E11B0913F110FBE8093F2039093F3038F
:10535000A093F403B093F50308954F925F926F9278
:105360007F928F929F92AF92BF92CF92DF92EF92F5
:10537000FF920F931F934090210150902201609063
:10538000230170902401812CE0E49E2EECE9AE2EE6
:10539000E5E4BE2E8092210190922201A092230189
:1053A000B09224016093DF057093E0058093E105DE
:1053B0009093E2052093E3053093E4054093E505DF
:1053C0005093E605E092E705F092E8050093E905C1
:1053D0001093EA05E3ECF5E0FF93EF93FBEA8F2EE1
:1053E000FAEA9F2EF6EAAF2EF2E4BF2EABEECA2EFB
:1053F000A5E0DA2E0E94E07C0E94249040922101D8
:105400005092220160922301709224010F900F901C
:105410001F910F91FF90EF90DF90CF90BF90AF90D2
:105420009F908F907F906F905F904F9008954F92D4
:105430005F926F927F928F929F92AF92BF92CF9224
:10544000DF92EF92FF920F931F93CF93DF9387E545
:1054500091E00E94CEC760913F0170914001809120
:105460004101909142016093210170932201809348
:1054700023019093240120E030E040E752E40E94B1
:10548000C7DD4B015C01B3EE6B2EB5E07B2EF30163
:105490002081318142815381CFEDD5E068817981CE
:1054A0008A819B81E3ECF5E0FF93EF931BEEC12E25
:1054B00015E0D12EE12CF12C00E211EC0E94E07CF1
:1054C0000E94249082E00E948C904B015C01F301C9
:1054D0002081318142815381688179818A819B81D8
:1054E000850174010E944B87CAE2D9E0FE01259133
:1054F000359145915491C501B4010E94E7DC2B011F
:105500003C0120E030E040E752E4609121017091DD
:10551000220180912301909124010E94C7DD4B015B
:105520005C012091E3053091E4054091E50550913F
:10553000E6056091DF057091E0058091E1059091AD
:10554000E205E3ECF5E0FF93EF93830172010E9423
:10555000E07C0E94249020E030E040E85EE360912F
:105560003F017091400180914101909142010E9460
:1055700095E0609321017093220180932301909321
:105580002401FE01C590D590E590F49020E030E034
:1055900040E752E40E94C7DD4B015C01A701960180
:1055A000C701B6010E94E7DC9B01AC01C301B20157
:1055B0000E94E6DC7B018C01C3EED5E028813981B5
:1055C0004A815B81FFED6F2EF5E07F2EF301608154
:1055D000718182819381E3ECF5E0FF93EF93ABEE71
:1055E000CA2EA5E0DA2E0E94E07C0E94249082E080
:1055F0000E948C907B018C016093E7057093E80515
:105600008093E9059093EA05288139814A815B817D
:10561000F30160817181828193810E944B870F9099
:105620000F900F900F900F900F90DF91CF911F91DF
:105630000F91FF90EF90DF90CF90BF90AF909F9031
:105640008F907F906F905F904F9008952F923F9230
:105650004F925F926F927F928F929F92AF92BF9282
:10566000CF92DF92EF92FF920F931F93CF93DF932E
:10567000CDB7DEB760970FB6F894DEBF0FBECDBFD3
:105680009E878D87FC01E15EF64FB4903C01660C6D
:10569000771C660C771C930121523A4F388B2F8769
:1056A000F9011082118212821382E7EEF5E0E080A8
:1056B000F18002811381E3EEF5E0208131814281A6
:1056C0005381EFEDF5E06081718182819381EBEE92
:1056D000CE2EE5E0DE2E0E944B872091D70330913D
:1056E000D8034091D9035091DA0360911001709171
:1056F000110180911201909113010E94E6DC6983EF
:105700007A838B839C832091DB033091DC0340916F
:10571000DD035091DE0360911401709115018091B9
:105720001601909117010E94E6DC6D837E838F83C2
:1057300098872091DF033091E0034091E10350917D
:10574000E203609118017091190180911A01909102
:105750001B010E94E6DC69877A878B879C87FE01A4
:10576000E60DF71DC180D280E380F4806B2D772792
:1057700067FD7095872F972F0E9462DE1B012C0119
:10578000830109551A4F20E030E040EC5FE3C70188
:10579000B6010E9495E0A20191010E9495E0F801F6
:1057A0006083718382839383F301E95CFE4F6081A0
:1057B0007181828193816093210170932201809392
:1057C00023019093240120E030E040E752E40E945E
:1057D000C7DD4B015C01E090AF05F090B005009192
:1057E000B1051091B2052091AB053091AC05409107
:1057F000AD055091AE056091A7057091A805809107
:10580000A9059091AA05E3ECF5E0FF93EF93F3EB84
:10581000CF2EF5E0DF2E0E94E07C0E942490EF85E1
:10582000F8891082118212821382E7EEF5E0E0809F
:10583000F18002811381E3EEF5E020813181428124
:105840005381EFEDF5E06081718182819381ABEE50
:10585000CA2EA5E0DA2E0E944B8793012E5D364FAB
:105860003901F90185919591A591B4910D851E8518
:10587000000F111F000F111F09551A4FBC01CD0158
:105880009058A20191010E9495E0F8016083718314
:105890008283938320E030E040E752E4609121016D
:1058A0007091220180912301909124010E94C7DD13
:1058B0004B015C01E090AF05F090B0050091B1059F
:1058C0001091B2052091AB053091AC054091AD052A
:1058D0005091AE056091A7057091A8058091A9052A
:1058E0009091AA05E3ECF5E0FF93EF93E3EBCE2E66
:1058F000E5E0DE2E0E94E07C0E942490F301659199
:105900007591859194916D847E84660C771C660CEC
:10591000771C930129553A4F388B2F879B01AC0197
:105920000E94E7DCA20191010E9495E0EF85F889D1
:105930006083718382839383F301E95CFE4F20E0EF
:1059400030E040E05FE360817181828193810E9459
:1059500095E060932101709322018093230190933D
:10596000240120E030E040E752E40E94C7DD4B0113
:105970005C01E090AF05F090B0050091B105109189
:10598000B2052091AB053091AC054091AD05509129
:10599000AE056091A7057091A8058091A905909129
:1059A000AA05E3ECF5E0FF93EF930E94E07C0E94F0
:1059B00024908091D7039091D803A091D903B091FE
:1059C000DA0389839A83AB83BC838091140190911D
:1059D0001501A0911601B09117018D839E83AF83AD
:1059E000B8878091DF039091E003A091E103B0912B
:1059F000E20389879A87AB87BC87FE01E60DF71D16
:105A00006181728183819481F301ED52FA4FC080EC
:105A1000D180E280F380A70196010E94E7DC4B0170
:105A20005C01F301E152FA4F6083718382839383B7
:105A3000830109531A4FF301E952FC4FA701960164
:105A400060817181828193810E94E7DCF80160832B
:105A50007183828393838301095D1E4FF301E05FAD
:105A6000FE4FA701960160817181828193810E941E
:105A7000E7DCF8016083718382839383EF85F88983
:105A800080829182A282B38210922101109222011F
:105A900010922301109224010E948489ED85FE85D5
:105AA000EC53FA4F81E080830F900F900F900F908E
:105AB0000F900F9060960FB6F894DEBF0FBECDBF6B
:105AC000DF91CF911F910F91FF90EF90DF90CF90DA
:105AD000BF90AF909F908F907F906F905F904F900E
