:100000000C94140E0C943F0E0C943F0E0C943F0E67
:100010000C943F0E0C943F0E0C943F0E0C943F0E2C
:100020000C943F0E0C943F0E0C9449E40C9415E292
:100030000C943F0E0C943F0E0C943F0E0C943F0E0C
:100040000C943F0E0C94EF8E0C943F0E0C943F0ECC
:100050000C943F0E0C943F0E0C948D970C94D8E0AA
:100060000C943F0E0C943F0E0C943F0E0C943F0EDC
:100070000C943F0E0C943F0E0C943F0E0C943F0ECC
:100080000C943F0E0C943F0E0C943F0E0C943F0EBC
:100090000C94E8DA0C943F0E084AD73B3BCE016E35
:1000A00084BCBFFDC12F3D6C74319ABD56833DDACF
:1000B0003D00C77F11BED9E4BB4C3E916BAAAABEDE
:1000C000000000803F05A84CCDB2D44EB93836A907
:1000D000020C50B9918688083CA6AAAA2ABE000044
:1000E00000803F4D383420582059205A2045006563
:1000F00063686F3A0043616E6E6F7420656E74655D
:1001000072207375626469723A20004D3234004D7A
:100110003233202573006175746F25692E670045A1
:1001200072726F723A006572726F722077726974C0
:10013000696E6720746F2066696C65004E6F74206D
:100140005344207072696E74696E67002F005344C7
:10015000207072696E74696E672062797465200020
:100160002E0044656C6574696F6E206661696C650C
:10017000642C2046696C653A200046696C652064F1
:10018000656C657465643A002E006F70656E20665C
:1001900061696C65642C2046696C653A2000577271
:1001A0006974696E6720746F2066696C653A200017
:1001B0002E006F70656E206661696C65642C204648
:1001C000696C653A20002E006F70656E206661696B
:1001D0006C65642C2046696C653A200046696C6544
:1001E0002073656C6563746564002053697A653AB1
:1001F000200046696C65206F70656E65643A20006A
:100200002E006F70656E206661696C65642C2046F7
:10021000696C653A20004E6F7720667265736820BE
:1002200066696C653A20004E6F7720646F696E676F
:100230002066696C653A20002220706F73002220CE
:10024000706172656E743A2200535542524F555494
:10025000494E452043414C4C207461726765743AA5
:100260002200747279696E6720746F2063616C6C10
:10027000207375622D67636F64652066696C6573B2
:10028000207769746820746F6F206D616E79206CBF
:100290006576656C732E204D4158206C6576656CD3
:1002A0002069733A0053442063617264206F6B00CD
:1002B0006F70656E526F6F74206661696C65640063
:1002C000766F6C756D652E696E6974206661696CF8
:1002D000656400534420696E6974206661696C002E
:1002E0006563686F3A0048617264636F6465642097
:1002F00044656661756C742053657474696E6773C8
:10030000204C6F616465640053746F726564207380
:10031000657474696E677320726574726965766559
:100320006400205A0020590020204D3231322058DC
:10033000004265642070726F6265206F6666736547
:100340007420286D6D293A00205A00205900202081
:100350004D3231312058004D617820706F736974CF
:10036000696F6E20286D6D293A00205A00205900CF
:1003700020204D3231302058004D696E20706F734F
:100380006974696F6E20286D6D293A002044002041
:1003900049002020204D3330312050005049442066
:1003A00073657474696E67733A00205A00205900AF
:1003B00020204D323036205800486F6D65206F6622
:1003C0006673657420286D6D293A00204500205A17
:1003D0000020580020420020540020204D323035AB
:1003E000205300416476616E6365642076617269B2
:1003F00061626C65733A20533D4D696E2066656598
:10040000647261746520286D6D2F73292C20543D12
:100410004D696E2074726176656C206665656472E4
:1004200061746520286D6D2F73292C20423D6D6904
:100430006E696D756D207365676D656E7420746986
:100440006D6520286D73292C20583D6D6178696D8C
:10045000756D205859206A65726B20286D6D2F7359
:10046000292C20205A3D6D6178696D756D205A20C8
:100470006A65726B20286D6D2F73292C2020453DF5
:100480006D6178696D756D2045206A65726B2028F5
:100490006D6D2F73290020540020204D3230342000
:1004A0005300416363656C65726174696F6E3A20D5
:1004B000533D616363656C65726174696F6E2C2076
:1004C000543D7265747261637420616363656C6529
:1004D000726174696F6E00204500205A0020590037
:1004E00020204D3230312058004D6178696D756D96
:1004F00020416363656C65726174696F6E20286D5D
:100500006D2F7332293A00204500205A00205900EF
:1005100020204D3230332058004D6178696D756D63
:100520002066656564726174657320286D6D2F7334
:10053000293A00204500205A0020590020204D393A
:100540003220580053746570732070657220756E88
:1005500069743A0053657474696E67732053746FDD
:10056000726564006563686F3A004572726F723A33
:100570000053544F505045442E20005072696E7401
:1005800065722073746F7070656420647565207483
:100590006F206572726F72732E20466978207468BE
:1005A00065206572726F7220616E642075736520BC
:1005B0004D39393920746F20726573746172742EED
:1005C000202854656D706572617475726520697359
:1005D0002072657365742E205365742069742061E0
:1005E000667465722072657374617274696E6729CE
:1005F000004B494C4C45442E20005072696E746586
:10060000722068616C7465642E206B696C6C28299B
:100610002063616C6C656421006F6B0052657365CB
:100620006E643A20002200556E6B6E6F776E206309
:100630006F6D6D616E643A2022004368616E67657C
:100640002066696C616D656E74007A5F6D696E3AE3
:100650002000795F6D61783A2000785F6D696E3AAD
:1006600020005A3A00593A0020436F756E742058A2
:100670003A2000453A005A3A00593A00583A0020C8
:1006800053455249414C5F4E554D4245523A200028
:100690002045585452554445525F434F554E543AA5
:1006A0002000204D414348494E455F545950453A3A
:1006B00020002050524F544F434F4C5F56455253E9
:1006C000494F4E3A2000204649524D574152455F0E
:1006D00055524C3A20004649524D574152455F4EC3
:1006E000414D453A204D61726C696E205631005083
:1006F00072696E7472626F742053696D706C6520DC
:100700004F66662E0042656420646F6E652E002081
:10071000423A0020453A00543A0042656420486558
:100720006174696E672E0048656174696E67206444
:100730006F6E652E0020573A0020453A00543A006B
:1007400048656174696E672E2E2E002042403A0083
:1007500020403A00202F003A00205400202F002093
:10076000423A00202F006F6B20543A002569206D1B
:10077000696E2C2025692073656300456E642066D0
:10078000696C65206C69737400426567696E2066E8
:10079000696C65206C697374004E6F206D6F7665AF
:1007A0002E00526573756D696E67207072696E7484
:1007B000005761697420666F7220757365722E2E02
:1007C0002E000A00205A3A200020593A20004265A3
:1007D0006420506F736974696F6E20583A20000A64
:1007E00000207A3A200020793A200042656420787F
:1007F0003A20000A00207A3A200020793A2000426C
:10080000656420783A20000A00207A3A2000207996
:100810003A200042656420783A20005A50726F6294
:1008200065204F75747369646520426564005A5091
:10083000726F6265204F75747369646520426564E8
:1008400000486F6D6520582F59206265666F72658C
:10085000205A00486F6D6520582F59206265666FD9
:100860007265205A00536C6565702E2E2E00FF01B4
:10087000FF0000A0400000A0400000803F2569204C
:10088000686F757273202569206D696E7574657364
:1008900000446F6E65207072696E74696E672066C1
:1008A000696C650053544F505045442E20005072DF
:1008B000696E7465722073746F70706564206475FE
:1008C0006520746F206572726F72732E204669788E
:1008D00020746865206572726F7220616E64207585
:1008E0007365204D39393920746F207265737461D6
:1008F00072742E202854656D70657261747572650E
:100900002069732072657365742E205365742069A5
:1009100074206166746572207265737461727469A3
:100920006E6729006F6B004E6F204C696E65204E1C
:10093000756D626572207769746820636865636BA2
:1009400073756D2C204C617374204C696E653A2070
:10095000004E6F20436865636B73756D2077697413
:1009600068206C696E65206E756D6265722C204C16
:10097000617374204C696E653A2000636865636B2F
:1009800073756D206D69736D617463682C204C61A3
:100990007374204C696E653A20004C696E65204E78
:1009A000756D626572206973206E6F74204C61737F
:1009B00074204C696E65204E756D6265722B312C0A
:1009C000204C617374204C696E653A20004D3131C2
:1009D0003000446F6E6520736176696E67206669CA
:1009E0006C652E006F6B004D3239002020506C6119
:1009F0006E6E657242756666657242797465733AA9
:100A000020002046726565204D656D6F72793A2031
:100A1000004D6172203233203230313600436F6D29
:100A200070696C65643A20005072696E7472626F0E
:100A30007400207C20417574686F723A20004D610B
:100A40007220323320323031362031313A31353A6A
:100A5000343300204C617374205570646174656494
:100A60003A2000312E302E30004D61726C696E20BC
:100A70000020536F667477617265205265736574E8
:100A800000205761746368646F67205265736574F2
:100A9000002042726F776E206F7574205265736507
:100AA00074002045787465726E616C2052657365C0
:100AB0007400506F776572557000737461727400C2
:100AC0002200656E717565696E67202200220065DF
:100AD0006E717565696E672022006563686F3A0004
:100AE00020746F6F206C6F6E6720657874727573F9
:100AF000696F6E2070726576656E74656400206340
:100B00006F6C6420657874727573696F6E20707293
:100B10006576656E746564007C3C3E5E2B3D3F2FC0
:100B20005B5D3B2C2A225C0045313A200045303A7F
:100B300020005A3A2000593A2000583A20004D53DC
:100B4000312C4D53322050696E730A006563686F13
:100B50003A0028002920453A00280029205A3A0066
:100B600028002920593A00280020583A005374657B
:100B7000707065722063757272656E742076616C38
:100B8000756573205B2528726177295D3A0024F42E
:100B900004D9201BC40C5C0E9804C4095F026507CD
:100BA0007101F405F900FB04B30048048700C10398
:100BB00069005803550003034500BE023A00840251
:100BC000310053022A002902250004022000E4011A
:100BD0001C00C8011900AF0117009801140084011E
:100BE0001300710110006101100051010E0043015A
:100BF0000D0036010B002B010B0020010B0015012D
:100C000009000C01090003010800FB000800F300C3
:100C10000800EB000700E4000600DE000600D80034
:100C20000600D2000600CC000500C7000500C20087
:100C30000500BD000400B9000400B5000400B100C7
:100C40000400AD000400A9000400A5000300A200F8
:100C500003009F0004009B00030098000300950020
:100C6000020093000300900003008D0002008B003F
:100C70000300880002008600020084000300810057
:100C800002007F0002007D0002007B00020079006C
:100C9000020077000100760002007400020072007A
:100CA0000100710002006F0002006D0001006C0085
:100CB00002006A000100690002006700010066008E
:100CC0000100650001006400020062000100610093
:100CD0000100600001005F0002005D0001005C0097
:100CE00001005B0001005A0001005900010058009A
:100CF000010057000100560001005500010054009A
:100D00000100530000005300010052000100510097
:100D10000100500001004F0001004E0000004E0095
:100D200001004D0001004C0001004B0000004B0091
:100D300001004A000100490001004800000048008D
:100D40000100470001004600000046000100450088
:100D50000000450001004400010043000000430082
:100D6000010042000000420001004100000041007B
:100D70000100400001003F0000003F0001003E0074
:100D800000003E0001003D0000003D0001003C006D
:100D900000003C0000003C0001003B0000003B0064
:100DA00001003A0000003A0001003900000039005B
:100DB0000100380000003800000038000100370052
:100DC0000000370001003600000036000000360049
:100DD000010035000000350000003500010034003E
:100DE0000000340000003400010033000000330034
:100DF0000000330001003200000032000000320029
:100E0000010031000000310000003100010030001D
:100E1000000030000000300001002F0000002F0013
:100E200000002F0000002F0001002E0000002E0007
:100E300000002E0001002D0000002D0000002D00FC
:100E400000002D0001002C0000002C0000002C00F0
:100E500000002C0001002B0000002B0000002B00E4
:100E600000002B0001002A0000002A0000002A00D8
:100E700000002A00010029000000290000002900CC
:100E800000002900000029000100280000002800BF
:100E900000002800000028000000280001002700B2
:100EA00000002700000027000000270000002700A6
:100EB0000100260000002600000026000000260099
:100EC000000026000100250000002500000025008C
:100ED000000025000000250000002500010024007E
:100EE0000000240000002400000024000000240072
:100EF0000100230000002300000023000000230065
:100F00000000230000002300000023000100220055
:100F10000000220000002200000022000000220049
:100F2000000022000100210000002100000021003B
:100F3000000021000000210000002100000021002D
:100F40000100200000002000000020000000200020
:100F50000000200000002000000020000000200011
:100F600001001F0000001F0000001F0000001F0004
:100F700000001F0000001F0000001F0001001E00F5
:100F800000001E0000001E0000001E00000024F4EF
:100F9000D43050C38E20C2A24017828B7011127AB7
:100FA000910D816CD90AA861E108C75866076151A3
:100FB00043061E4B5D05C145A7041A411104093DB6
:100FC0009803713931034036DB0265339102D43026
:100FD0005402802E1D02632CEE01752AC501B02833
:100FE000A001102781018F2564012B244B01E022F1
:100FF0003401AC211F018D200D01801FFC00841ED7
:10100000ED00971DDF00B81CD200E61BC600201BB8
:10101000BC00641AB200B219A8000A19A0006A182C
:101020009900D117910040178B00B5168400311636
:101030007E00B31579003A157300C7146F00581479
:101040006A00EE1366008813630025135E00C71262
:101050005B006C12570015125400C1115100701141
:101060004F0021114B00D61049008D10470046104B
:10107000440002104200C00F4000800F3E00420FAB
:101080003C00060F3B00CB0E3800930E37005C0E81
:101090003500270E3400F30D3200C10D3100900DE4
:1010A0003000600D2E00320D2D00050D2C00D90CE6
:1010B0002B00AE0C2900850C29005C0C2700350C98
:1010C00027000E0C2600E80B2400C40B2400A00B04
:1010D00023007D0B23005A0B2100390B2100180B34
:1010E0002000F80A1F00D90A1E00BB0A1E009D0A34
:1010F0001D00800A1D00630A1C00470A1B002C0A01
:101100001B00110A1A00F7091A00DD091900C409A9
:101110001900AB091900920917007B09180063092F
:1011200017004C09160036091600200916000A0996
:101130001500F5081500E0081400CC081400B808E4
:101140001400A4081400900813007D0812006B0816
:101150001300580812004608120034081100230832
:1011600011001208110001081100F0071000E0073B
:101170001000D0071000C0071000B0070F00A10733
:10118000100091070E0083070F0074070F0065071A
:101190000E0057070E0049070E003B070D002E07F3
:1011A0000E0020070D0013070D0006070D00F906BD
:1011B0000C00ED060D00E0060C00D4060C00C8067D
:1011C0000C00BC060C00B0060C00A4060B0099062F
:1011D0000C008D060B0082060B0077060B006C06D8
:1011E0000B0061060A0057060B004C060A00420677
:1011F0000A0038060A002E060A0024060A001A060B
:101200000A001006090007060A00FD050900F4059A
:101210000900EB050900E2050900D9050900D00520
:101220000900C7050900BE050900B5050800AD05A0
:101230000800A50509009C050800940508008C0518
:101240000800840508007C050800740508006C058A
:101250000700650508005D050700560508004E05F6
:10126000070047050700400508003805070031055D
:1012700007002A050700230507001C0506001605C0
:1012800007000F0507000805060002050700FB041C
:101290000600F5040700EE040600E8040600E20478
:1012A0000700DB040600D5040600CF040600C904CD
:1012B0000600C3040600BD040600B7040600B1041E
:1012C0000500AC040600A6040600A00405009B046B
:1012D000060095040500900406008A0405008504B4
:1012E0000500800406007A040500750405007004FA
:1012F00005006B04050066040500610405005C043C
:10130000050057040500520405004D04050048047B
:101310000500430405003E0404003A0405003504BA
:101320000500300404002C040500270404002304F5
:1013300005001E0404001A0404001604050011042C
:1013400004000D0404000904050004040400000462
:101350000400FC030400F8030400F4030400F00399
:101360000400EC030400E8030400E4030400E003C9
:101370000400DC030400D8030400D4030400D003F9
:101380000400CC030400C8030300C5030300656E1A
:101390006473746F7073206869743A205A00205A1D
:1013A0003A00656E6473746F7073206869743A20D4
:1013B000590020593A00656E6473746F7073206829
:1013C00069743A20580020583A00656E6473746F4F
:1013D0007073206869743A20004572726F723A0027
:1013E0004572723A204D415854454D502042454473
:1013F0000054656D70657261747572652068656111
:1014000074656420626564207377697463686564D9
:10141000206F66662E204D415854454D5020747201
:1014200069676765726564202121004572723A2000
:101430004D494E54454D50003A20457874727564BC
:101440006572207377697463686564206F66662EC1
:10145000204D494E54454D5020747269676765723E
:1014600065642021004572723A204D415854454D23
:1014700050003A20457874727564657220737769FC
:101480007463686564206F66662E204D415854452C
:101490004D50207472696767657265642021002071
:1014A0002D20496E76616C6964206578747275646C
:1014B0006572206E756D6265722021001000AD03AB
:1014C00030016A0150022B0170030A019004F500FB
:1014D000B005E500D006D800F007CE001009C50021
:1014E000300ABE00500BB700700CB100900DAB007D
:1014F000B00EA600D00FA200F0109D0010129900AF
:10150000301395005014920070158E0090168B00C9
:10151000B0178700D0188400F0198100101B7E00DE
:10152000301C7B00501D7900701E7600901F7300E8
:10153000B0207000D0216E00F0226B0010246900F2
:1015400030256600502663007027610090285E00F9
:10155000B0295C00D02A5900F02B5600102D540001
:10156000302E5100502F4E0070304B00903148000B
:10157000B0324500D0334200F0343E0010363B001C
:10158000303737005038330070392E00903A290038
:10159000B03B2300D03C1B00F03D1100103F010088
:1015A000F03F0000504944204175746F74756E65BA
:1015B0002066696E697368656421205075742074B3
:1015C0006865204B702C204B6920616E64204B6451
:1015D00020636F6E7374616E747320696E746F2014
:1015E000436F6E66696775726174696F6E2E68000D
:1015F000504944204175746F74756E652066616949
:101600006C6564212074696D656F75740020403AC3
:10161000006F6B20543A006F6B20423A00504944EF
:10162000204175746F74756E65206661696C6564C0
:10163000212054656D706572617475726520746FD8
:101640006F206869676800204B643A2000204B696E
:101650003A2000204B703A200020436C617369638C
:101660002050494420002054753A2000204B753A00
:101670002000206D61783A2000206D696E3A2000CC
:1016800020643A200020626961733A200070012CC6
:101690000190012701B0012201C0011D01F00118D4
:1016A000011002130130020E0160020901900204D0
:1016B00001C002FF000003FA004003F5008003F0C0
:1016C00000D003EB002004E6007004E100E004DC3D
:1016D000004005D700C005D2004006CD00D006C8A6
:1016E000008007C3003008BE00F008B900C009B48C
:1016F00000B00AAF00B00BAA00D00CA500000EA0ED
:1017000000500F9B00C01096005012910000148CE6
:1017100000C0158700B0178200B0197D00D01B787B
:1017200000001E730040206E0090226900F02464C7
:101730000040275F0090295A00E02B5500102E50E2
:101740000020304B0010324600E033410090353C21
:10175000001037370070383200A0392D00B03A2819
:1017600000A03B2300603C1E00103D1900903D147A
:1017700000103E0F00703E0A00C03E0500003F0012
:10178000002D2D3A2D2D002D2D2D005344002059D4
:10179000000120000120004D323100496E69742E95
:1017A0002053442D43617264004E6F204361726484
:1017B000004D3231004368616E67652053442D430C
:1017C000617264005072696E742066726F6D20538E
:1017D000440053746F70205072696E7400526573C8
:1017E000756D65205072696E740050617573652067
:1017F0005072696E7400436F6E74726F6C00507239
:1018000065706172650054756E6500496E666F2083
:1018100073637265656E00052E2E00045265667254
:10182000657368004D61696E004D3234004D32338E
:10183000202573004D383420582059205A20450067
:10184000526573746F7265204661696C7361666579
:10185000004C6F6164206D656D6F72790053746F19
:101860007265206D656D6F72790054656D7065727B
:101870006174757265004D61696E005049442D4375
:10188000005049442D43005049442D4400504944E0
:101890002D44005049442D49005049442D490050E1
:1018A00049442D50005049442D50002002204661EB
:1018B00063740020022046616374002002204D61A1
:1018C00078002002204D6178002002204D696E00D2
:1018D0002002204D696E004F6666004F6E20004F5B
:1018E0006666004F6E20004175746F74656D700000
:1018F00046616E2073706565640046616E2073708A
:101900006565640042656400426564004E6F7A7AE2
:101910006C6533004E6F7A7A6C6533004E6F7A7A5D
:101920006C6532004E6F7A7A6C6532004E6F7A7A4F
:101930006C65004E6F7A7A6C6500436F6E74726FDF
:101940006C004D6F76652041786973004D3830002A
:1019500053776974636820506F776572204F6E000B
:101960004D38310053776974636820506F77657222
:10197000204F666600436F6F6C646F776E00507225
:101980006568656174204142530050726568656105
:101990007420504C4100473238004175746F204824
:1019A0006F6D65004D38340044697361626C652069
:1019B0005374657070657273004D61696E004D6F90
:1019C000766520302E316D6D004D6F766520316D5E
:1019D0006D004D6F76652031306D6D005072657011
:1019E000617265004578747275646572004D6F763A
:1019F00065205A004D6F76652059004D6F76652041
:101A000058004D6F7665204178697300457874728F
:101A100075646572005A00590058004D3630300028
:101A20004368616E67652066696C616D656E740000
:101A3000466C6F7700466C6F770046616E2073705E
:101A40006565640046616E2073706565640042657B
:101A50006400426564004E6F7A7A6C6533004E6FA5
:101A60007A7A6C6533004E6F7A7A6C6532004E6F0D
:101A70007A7A6C6532004E6F7A7A6C65004E6F7AB6
:101A80007A6C650053706565640053706565640029
:101A90004D61696E000129022904290829102920B5
:101AA0002940298029012C022C012602260426081F
:101AB000261026202640268026402C802C0123023A
:101AC0002304230823102320234023802301200202
:101AD00020042008201020202040208020102C20CE
:101AE0002C012F022F042F082F102F202F402F8082
:101AF0002F7EFE7EFD7EFB7EF77EEF7EDF7EBF7E4D
:101B00007F00010000351B1200020000471B43004C
:101B10000300008A1B04010309048E1B140203093D
:101B200004A41B2203030904C81B160001C10201FF
:101B30008036018136120100020200002074291053
:101B40000600010102030109024300020100C03244
:101B5000090400000102020100052400100105240F
:101B60000100010424020605240600010705820382
:101B700008004009040100020A00000007050302F2
:101B80004000000705840240000004030904140318
:101B90005000720069006E007400720062006F00F5
:101BA0007400000022035000720069006E0074008F
:101BB000720062006F0074002000530069006D0025
:101BC00070006C0065000000160331003200330025
:101BD000340035003600370038003900300000008E
:101BE000494E46494E4954594E414ECDCCCC3D0A02
:101BF000D7233C17B7D13877CC2B329595E6241FE5
:101C0000B14F0A000020410000C84200401C46209D
:101C1000BCBE4CCA1B0E5AAEC59D7400EE2D128D73
:101C200095CD66D90AE8E72D11241FBECFEFD0E28B
:101C3000DEBFCDBF14E0A0E0B1E0E0EEFBED01E0DF
:101C40000BBF02C007900D92A633B107D9F71BBE98
:101C500012E1A6E3B4E001C01D92AC33B107E1F795
:101C60001CE1C6E2DCE104C02297FE010E9495ED72
:101C7000CC31D107C9F70E94C8E40C94E3ED0C9471
:101C80000000A0E0B0E0E7E4FEE00C94B2EDEC016F
:101C90005B016115710519F0FB0191838083F99057
:101CA0008F2D90E00E9499ED892BC9F7FDE2FF1678
:101CB00021F4F990EE24E39405C02BE2F21609F426
:101CC000F990EE248E0101501040C80160EE7BE1D6
:101CD00043E050E00E94E010892B01F58E010E5F79
:101CE0001F4FC80163EE7BE145E050E00E94E01029
:101CF000892B19F48E01095F1F4FA114B10419F04B
:101D0000F50111830083E0FC04C070E090E080E8FE
:101D100014C070E090E080E86FEF08C1C80168EE81
:101D20007BE143E050E00E94E010892B69F4A114AC
:101D3000B10429F470E090E080EC6FE7F7C02296E0
:101D4000F501D183C083F6CF8824992440E050E088
:101D500060E070E0EF2DE053EA30A0F5F2E0EF2A0A
:101D60008E2D90E09C0128703070E2FE06C0232B7F
:101D700079F50894811C911C2BC0232B19F0089431
:101D800081089108DB01CA0112E0880F991FAA1F80
:101D9000BB1F1A95D1F7480F591F6A1F7B1F440FAD
:101DA000551F661F771F4E0F511D611D711D48394C
:101DB00029E9520729E9620729E1720748F084E01E
:101DC000E82A06C0EE3F31F4E3FC39C098E0E92A86
:101DD000F990C0CFE53311F0E53189F529912D3225
:101DE00019F4E0E1EE2A05C02B3219F081E090E011
:101DF00003C0299182E090E0E22FE053EA3018F02E
:101E0000C81BD90B1CC020E030E0FCE020383F07A5
:101E10005CF4C901880F991F880F991F280F391F7B
:101E2000220F331F2E0F311DE991E053EA3068F382
:101E3000E4FE03C0309521953F4F820E931ECE2CB9
:101E4000DD24E1FE07C0A114B10421F02197F501C2
:101E5000D183C083CB01BA010E94FEE97B018C01D2
:101E6000F3E0CF22DD2423E0C216D10421F417FBD6
:101E7000109517F9109557016801C801B70120E0C6
:101E800030E040E050E00E945EE9882309F44AC057
:101E900097FE0DC02FEFE22E2BE1F22E909481944D
:101EA00091089394C0E2D0E000E010E012C097E106
:101EB000E92E9CE1F92EF6CFF70125913591459158
:101EC0005491C601B5010E943EEC5B016C018C1A75
:101ED0009D0A8C169D0684F7D595C7950F5F1F4FF9
:101EE0000630110529F08CEF9FEFE80EF91EF1CFB7
:101EF000C501D6017C018D018C2D880F8D2D881F89
:101F00008F3F51F0C601B50120E030E040E050E0E5
:101F10000E945EE9882331F482E290E090933B12C4
:101F200080933A127E2D9F2D802F612F272F392FDE
:101F3000482F562FB901CA01CDB7DEB7ECE00C949B
:101F4000CEED2F923F925F926F927F928F929F92EF
:101F5000AF92BF92CF92DF92EF92FF920F931F93B7
:101F6000CF93DF938C011B01EA016115710519F014
:101F7000FB0191838083209749F0CE0102978397DC
:101F800028F020E030E040E050E0F6C0F801A190F9
:101F90008F018A2D90E00E9499ED892BB9F7FDE21F
:101FA000AF1631F4F801A1908F015524539407C066
:101FB000FBE2AF1619F4F801A1908F015524209788
:101FC00019F0C031D105C1F4F0E3AF1679F4F8018E
:101FD0008081883711F0883549F4F801A1800E5FBF
:101FE0001F4FF2E05F2AC0E1D0E006C0209721F445
:101FF00080E3A816E9F427C0C830D10531F1C93013
:10200000D10524F4C230D10531F50CC0CA30D10558
:1020100089F0C031D105F9F4C12CD12CE12CB8E004
:10202000FB2E28C0C12CD12CE12CA0E4FA2E22C01A
:10203000CAE0D0E0FCECCF2EFCECDF2EFCECEF2E67
:10204000FCE0FF2E17C0C8E0D0E0C12CD12CE12C61
:10205000E0E1FE2E0FC09E01442737FD4095542F2E
:1020600060E070E080E090E80E9456EDC901DA017E
:102070006C017D0120E030E040E050E060E03E0196
:10208000882477FC8094982C70EDB72EBA0CE9E088
:10209000EB1570F48A2D81548A3118F499ECB92E1D
:1020A00006C08A2D81568A3150F589EAB82EBA0CBD
:1020B0008B2D90E08C179D0714F56F3FE1F0C21651
:1020C000D306E406F506B0F0CA01B901A4019301F4
:1020D0000E9410ED9B01AC012B0D311D411D511DC6
:1020E0002130F0E03F07F0E04F07F0E85F0710F421
:1020F00061E001C06FEFF801A1908F01C5CF2114FD
:10210000310481F0662331F001501040F101118358
:10211000008308C051FE1AC002501040F101118323
:10212000008314C067FF12C050FC05C02FEF3FEFC3
:102130004FEF5FE704C020E030E040E050E882E28B
:1021400090E090933B1280933A1216C050FE08C064
:1021500050954095309521953F4F4F4F5F4F0CC0A4
:1021600057FF0AC082E290E090933B1280933A12AC
:102170002FEF3FEF4FEF5FE7B901CA01DF91CF913A
:102180001F910F91FF90EF90DF90CF90BF90AF9095
:102190009F908F907F906F905F903F902F900895C9
:1021A000FB01DC0105900D920020E1F70895FC0190
:1021B00005900020E9F7809590958E0F9F1F089558
:1021C000FB01DC014150504088F08D9181341CF0BE
:1021D0008B350CF4805E659161341CF06B350CF42A
:1021E000605E861B611171F3990B0895881BFCCF0B
:1021F000FB01DC014150504048F005900D92002059
:10220000C9F701C01D9241505040E0F70895FB010D
:1022100055915523A9F0BF01DC014D91451741119E
:10222000E1F759F4CD010590002049F04D9140159A
:102230004111C9F3FB014111EFCF81E090E001971B
:102240000895FB01DC0104C08D910190801921F4F7
:1022500041505040C8F7881B990B0895FB01DC01E1
:1022600002C001900D9241505040D8F70895FB01F3
:10227000DC010D900020E9F7119701900D920020EC
:10228000E1F70895FC018191861721F08823D9F7A1
:10229000992708953197CF010895FB01DC01019042
:1022A0000D920020E1F70895FB01DC014150504000
:1022B00030F08D910190801919F40020B9F7881B36
:1022C000990B0895FB01DC014150504048F001900A
:1022D0000D920020C9F701C01D9241505040E0F717
:1022E0000895AEE0B0E0E7E7F1E10C94BAED0D89B6
:1022F0001E898EE08C831A8309838FEF9FE79E836C
:102300008D839E01275E3F4FCE0101966F89788DA8
:10231000A9010E9495112F813885020F131FF80122
:1023200010822E96E4E00C94D6EDABE0B0E0EBE941
:10233000F1E10C94ACED3C012B015A01FC01178238
:102340001682838181FD03C06FEF7FEFC6C19AE0E3
:10235000892E1E010894211C311CF3012381F201F6
:1023600023FD859123FF81912F01882309F4B2C1B8
:10237000853239F423FD859123FF81912F01853228
:1023800029F490E0B3010E948813E7CF982FFF242F
:10239000EE249924FFE1FF15D0F09B3269F09C32C6
:1023A00028F4903259F0933291F40EC09D3249F0E6
:1023B000903369F441E024C052E0F52A84E0F82A21
:1023C00028C098E0F92A25C0E0E1FE2A22C0F7FCE7
:1023D00029C0892F80538A3070F4F6FE05C0989C7E
:1023E000902C1124980E15C0E89CE02C1124E80EC6
:1023F000F0E2FF2A0EC09E3229F4F6FC6BC140E4E5
:10240000F42A07C09C3619F450E8F52A02C0983621
:1024100049F4F20123FD959123FF91912F01992316
:1024200009F0B8CF892F8554833018F0805283305B
:1024300038F444E050E0A40EB51E5FE359830FC0AA
:10244000933631F0933779F0933509F056C020C0B8
:10245000F5018081898342E050E0A40EB51E610140
:1024600001E010E012C0F501C080D180F6FC03C08D
:102470006FEF7FEF02C0692D70E042E050E0A40EE4
:10248000B51EC6010E947D138C015FE7F52214C0C2
:10249000F501C080D180F6FC03C06FEF7FEF02C072
:1024A000692D70E042E050E0A40EB51EC6010E9406
:1024B00072138C0150E8F52AF3FE07C01AC080E2BF
:1024C00090E0B3010E948813EA948E2D90E00817E3
:1024D0001907A8F30EC0F601F7FC8591F7FE81916C
:1024E0006F0190E0B3010E948813E110EA9401505B
:1024F00010400115110579F7EAC0943611F09936AC
:1025000069F5F7FE08C0F5012081318142815381D0
:1025100084E090E00AC0F501808191819C0144270C
:1025200037FD4095542F82E090E0A80EB91E9FE63B
:10253000F92257FF09C050954095309521953F4F9E
:102540004F4F5F4FE0E8FE2ACA01B901A1012AE01E
:1025500030E00E94B413D82ED21840C0953729F429
:102560001F2D1F7E2AE030E01DC01F2D197F9F36D2
:1025700061F0903720F4983509F0ACC00FC0903767
:1025800039F0983709F0A6C004C028E030E00AC04E
:10259000106114FD146020E130E004C014FD1660E9
:1025A00020E132E017FF08C0F5016081718182816E
:1025B000938144E050E008C0F50180819181BC0125
:1025C00080E090E042E050E0A40EB51EA1010E9420
:1025D000B413D82ED2188FE7F82EF122F6FE0BC0D6
:1025E0005EEFF522D91438F4F4FE07C0F2FC05C002
:1025F0008FEEF82202C01D2D01C0192DF4FE0DC072
:10260000FE01ED0DF11D8081803319F499EEF92260
:1026100008C01F5FF2FE05C003C08F2D867809F049
:102620001F5F0F2DF3FC14C0F0FE0FC01E1510F03D
:102630009D2C0BC09D2C9E0C911A1E2D06C080E275
:1026400090E0B3010E9488131F5F1E15C0F304C001
:102650001E1510F4E11A01C0EE2404FF0FC080E340
:1026600090E0B3010E94881302FF1DC001FD03C06A
:1026700088E790E00EC088E590E00BC0802F867858
:1026800091F001FF02C08BE201C080E2F7FC8DE215
:1026900090E0B3010E94881306C080E390E0B3018C
:1026A0000E9488139A94D914C0F3DA94F101ED0DC5
:1026B000F11D808190E0B3010E948813DD20A9F70D
:1026C00006C080E290E0B3010E948813EA94EE20F5
:1026D000C1F743CEF30166817781CB012B96E2E10E
:1026E0000C94C8EDFC010590615070400110D8F7C2
:1026F000809590958E0F9F1F0895FC01615070404A
:1027000001900110D8F7809590958E0F9F1F089526
:102710000F931F93CF93DF938C01EB018B8181FF8C
:102720001BC082FF0DC02E813F818C819D812817A7
:10273000390764F4E881F9810193F983E88306C0DD
:10274000E885F985802F0995892B31F48E819F8149
:1027500001969F838E8302C00FEF1FEFC801DF91A8
:10276000CF911F910F910895FA01AA27283051F1B6
:10277000203181F1E8946F936E7F6E5F7F4F8F4FB2
:102780009F4FAF4FB1E03ED0B4E03CD0670F781F11
:10279000891F9A1FA11D680F791F8A1F911DA11DF6
:1027A0006A0F711D811D911DA11D20D009F468942F
:1027B0003F912AE0269F11243019305D3193DEF6D7
:1027C000CF010895462F4770405D4193B3E00FD08D
:1027D000C9F7F6CF462F4F70405D4A3318F0495D78
:1027E00031FD4052419302D0A9F7EACFB4E0A6955B
:1027F0009795879577956795BA95C9F7009761057D
:10280000710508959B01AC010A2E069457954795D2
:1028100037952795BA95C9F7620F731F841F951FC7
:10282000A01D0895DF93CF930F92CDB7DEB7FC01C3
:102830006983A081B18112962D913C911397BE01BD
:102840006F5F7F4F41E050E0F90109950F90CF9104
:10285000DF910895FC01128213820895FC018381A7
:10286000882311F081E082830895FC018281811127
:1028700012820895CF93DF93DC01FC01E756FE4FEF
:10288000808191810097A1F1019791838083ED016F
:10289000CE5ADF4FFD01E059FF4F8BE101900992C5
:1028A0008150E1F7FD01EF5AFF4FA159BF4F8C91C5
:1028B000AF56B0408083FD01E059FF4F20E030E08B
:1028C000AD0147565E4F0EC02F5F3F4FEF01DF0156
:1028D0005E968BE10D9009928150E1F7858D3197DD
:1028E00080837F96DA018D919C912817390760F3D8
:1028F000DF91CF910895FC0186EB93E09183808373
:102900008681882321F0CF0103960E94257F0895B8
:10291000CF93DF93DB010D900020E9F71197A61B01
:10292000B70BEC01E881F9810280F381E02DAD0164
:102930000995DF91CF910895CF92DF92EF92FF92A8
:102940000F931F93DF93CF93CDB7DEB76E970FB67C
:10295000F894DEBF0FBECDBF8C016B010B5A1F4F29
:10296000D8018C9105551040882321F47FE2E72E91
:10297000F12C03C06FE4E62EF12CE00EF11E86EB85
:1029800093E09A8389831B821F821C82B7016D5F4B
:102990007F4FCE010496A60121E00E943386882352
:1029A00049F5EFEEF0E064918F0108C080E392E119
:1029B0000E9412140F5F1F4FF80164916623B1F754
:1029C000E5EFF0E064918F0108C080E392E10E949E
:1029D00012140F5F1F4FF80164916623B1F780E373
:1029E00092E1B6010E94881480E392E16AE00E94BD
:1029F000121457C0F801E756FE4F208131812A306A
:102A0000310508F03FC02F5F3F4F318320832150B5
:102A10003040C901880F991FF90145E0EE0FFF1FF3
:102A20004A95E1F7E81BF90BE059FF4FE00FF11F62
:102A300011C0AF01425E5F4FBF018BE1DB010D9022
:102A4000BD01DA010D92AD018150C1F7829131963D
:102A5000858F7E9721503040BFEF2E3F3B0749F7CF
:102A6000D801A059BF4FF70133968BE101900D9229
:102A70008150E1F701591F4FF7018281D8018C93F2
:102A80000F561040D801AE5ABF4FFE0134968BE16D
:102A900001900D928150E1F70F5A1F4F8B81F80181
:102AA0008083CE0101960E947B146E960FB6F89437
:102AB000DEBF0FBECDBFCF91DF911F910F91FF9071
:102AC000EF90DF90CF900895EF92FF920F931F93B6
:102AD0008C01E1ECEE2EE1E0FE2EE80EF91EC701BE
:102AE0000E94D57EC7010E94257FF80110821182C5
:102AF0001F910F91FF90EF900895CF92DF92EF9288
:102B0000FF920F931F93CF93DF937C016B01DB0147
:102B10000D900020E9F78D0101501040061B170BA6
:102B2000E1ECF1E0EE0EFF1ED7011C92EFE3FEEFA9
:102B3000EE0EFF1ECB016EE470E00E944211EC012C
:102B4000009731F4F8013197EC0DFD1D86010EC0A0
:102B500060E270E00E9442118C010F5F1F4FCE01B6
:102B60006AE270E00E944211FC0131978DE081839E
:102B70008AE082831382C70182549E4FB8010E946B
:102B8000358781EC91E0E80EF91ED7018C918823FE
:102B900009F1EFE1F1E06491EF0107C080E392E118
:102BA0000E9412142196FE0164916623B9F7E6E2B1
:102BB000F1E06491EF0107C080E392E10E941214FA
:102BC0002196FE0164916623B9F780E392E16AE001
:102BD0000E941214DF91CF911F910F91FF90EF90FF
:102BE000DF90CF900895EF92FF920F93CF93DF93F2
:102BF0007C01FC018381882309F43FC0EEE4F1E00D
:102C00006491EF0107C080E392E10E9412142196C3
:102C1000FE0164916623B9F786E792E0E80EF91E9B
:102C2000F70140815181628173818AE89DEFE80E4E
:102C3000F91E80E392E12AE000E00E9415E5ECE451
:102C4000F1E06491EF0107C080E392E10E94121469
:102C50002196FE0164916623B9F78EE692E0E80EB4
:102C6000F91EF701408151816281738180E392E115
:102C70002AE000E00E9415E50EC0ECE3F1E064916B
:102C8000EF0107C080E392E10E9412142196FE0139
:102C900064916623B9F780E392E16AE00E9412141E
:102CA000DF91CF910F91FF90EF9008952F923F9277
:102CB0004F925F926F927F928F929F92AF92BF924C
:102CC000CF92DF92EF92FF920F931F93DF93CF93F8
:102CD000CDB7DEB7AB970FB6F894DEBF0FBECDBF52
:102CE0005C014B01FC018381882309F41AC1C501F1
:102CF0008F539E4F0E94257FF5011282198A1C8AEC
:102D0000188A86EB93E09F878E87ADE4CA2ED12C7C
:102D1000CA0CDB1C2FE230E0A20EB31EF601B1821A
:102D2000A08221ED3FEFA20EB31EF40180818F320D
:102D300009F081C0C4016FE270E00E9442117C0181
:102D40000894E11CF11C3E010894611C711C2601D1
:102D5000F1E12F2E312C2C0E3D1E68C0C7016FE211
:102D600070E00E9442116C01009709F472C0E816ED
:102D7000F90608F06EC08C010E191F09C301B701D6
:102D8000A8010E946211060D171DF801108280E350
:102D900092E1B3010E94881480E392E16AE00E940C
:102DA0001214F201608171816115710519F460E0FE
:102DB00070E002C06D5F7F4FC101A30121E00E945E
:102DC0003386882341F5EAE8F1E064917F0109C088
:102DD00080E392E10E9412140894E11CF11CF701B7
:102DE00064916623A9F780E392E1BE016F5F7F4F94
:102DF0000E948814E8E8F1E064917F0109C080E353
:102E000092E10E9412140894E11CF11CF7016491F4
:102E10006623A9F77DC02EE030E02C0F3D1FF201A4
:102E20003183208376010894E11CF11CE114F10444
:102E300009F094CF0BC08FE490E0A80EB91EF60104
:102E4000B182A08221EB3FEFA20EB31ED82C092D38
:102E500002C0DE2C0F2D8DE490E0A80EB91EF50106
:102E60008081918123EB3FEFA20EB31E009719F4EE
:102E700080E090E001C003966D2D702F0E940587C1
:102E8000882301F1EAE7F1E064917F0109C080E362
:102E900092E10E9412140894E11CF11CF701649164
:102EA0006623A9F780E392E16D2D702F0E948814AC
:102EB00026E732E0A20EB31EF501108211821282C3
:102EC00013822BC0E2E6F1E064917F0109C080E348
:102ED00092E10E9412140894E11CF11CF701649124
:102EE0006623A9F780E392E16D2D702F0E9488146C
:102EF000E0E6F1E064917F0109C080E392E10E9485
:102F000012140894E11CF11CF70164916623A9F7DF
:102F100080E392E16AE00E941214CE010E960E94B4
:102F20007B14AB960FB6F894DEBF0FBECDBFCF912A
:102F3000DF911F910F91FF90EF90DF90CF90BF90A6
:102F4000AF909F908F907F906F905F904F903F9049
:102F50002F900895BF92CF92DF92EF92FF920F933E
:102F60001F93CF93DF938C01EB018FE28993EE24C3
:102F7000E394FF2489E9C82E81E0D82EC00ED11E2B
:102F8000BEE1BB2E14C0FB9CC001112480599F4F91
:102F9000800F911FBE010E94377F02C02196E394EB
:102FA0008881882319F08CE88E15C0F7F3942F2DB3
:102FB00030E0F601808191812817390720F3E7FC82
:102FC00007C0C8018F539E4FBE010E94377F01C0CA
:102FD0001882DF91CF911F910F91FF90EF90DF90BA
:102FE000CF90BF9008952F923F924F925F926F9231
:102FF0007F928F929F92AF92BF92CF92DF92EF9289
:10300000FF920F931F93DF93CF93CDB7DEB7AC97AB
:103010000FB6F894DEBF0FBECDBF5C014B014CA7CD
:10302000DC0113968C91882309F407C3E4ECF1E0EA
:10303000AE0EBF1ED5018C91ECE3FEEFAE0EBF1EAF
:10304000882309F404C1222309F0D1C02CED31E01A
:10305000A20EB31ED5018C91E4E2FEEFAE0EBF1EB0
:10306000882381F1EFE1F1E064917F0109C080E301
:1030700092E10E9412140894E11CF11CF701649182
:103080006623A9F7E2E6F2E064917F0109C080E3DC
:1030900092E10E9412140894E11CF11CF701649162
:1030A0006623A9F780E392E141E050E060E070E040
:1030B0000E94A2E580E392E16AE00E9412140E945D
:1030C0005D2EBBC2EFEEF0E064917F0109C080E3AA
:1030D00092E10E9412140894E11CF11CF701649122
:1030E0006623A9F7E9E4F2E064917F0109C080E377
:1030F00092E10E9412140894E11CF11CF701649102
:103100006623A9F780E392E1B4010E948814EEE3FC
:10311000F2E064917F0109C080E392E10E94121401
:103120000894E11CF11CF70164916623A9F785015D
:1031300004521E4FD8016C915DE8F52E6F9DB001D1
:1031400011246F517E4F6A0D7B1DC5010E94AA1785
:10315000F80160816F9DB00111246F517E4F6A0D9F
:103160007B1D80E392E10E948814E8E3F2E0649121
:103170007F0109C080E392E10E9412140894E11CCF
:10318000F11CF70164916623A9F746E7E42E42E0BB
:10319000F42EEA0CFB1CD7014D915D916D917C9151
:1031A00080E392E12AE000E00E9415E580E392E1ED
:1031B0006AE00E941214A50144525E4FFA01208178
:1031C000E22FF0E0EE0FFF1FEE0FFF1FEA0DFB1DD9
:1031D000E352FE4FD701CD90DD90ED90FC90C08280
:1031E000D182E282F3822F5FFA0120832AC0EFEEC0
:1031F000F0E064917F0109C080E392E10E94121423
:103200000894E11CF11CF70164916623A9F7E7E239
:10321000F2E064917F0109C080E392E10E94121400
:103220000894E11CF11CF70164916623A9F780E37F
:1032300092E1B4010E94881480E392E16AE00E9466
:103240001214C5018F539E4F0E94257F34C02CED70
:1032500031E0A20EB31ED5011C92E4E2FEEFAE0EE9
:10326000BF1EEFEEF0E064917F0109C080E392E1C0
:103270000E9412140894E11CF11CF701649166236A
:10328000A9F7E6E1F2E064917F0109C080E392E1F1
:103290000E9412140894E11CF11CF701649166234A
:1032A000A9F780E392E1B4010E94881480E392E1DF
:1032B0006AE00E941214D50112961C92198A1C8A87
:1032C000188A86EB93E09F878E872DE4C22ED12C3F
:1032D000CA0CDB1CEFE2F0E0AE0EBF1ED601AD92D1
:1032E000BC92E1EDFFEFAE0EBF1ED4018C918F3288
:1032F00009F081C0C4016FE270E00E9442117C01BC
:103300000894E11CF11C3E010894611C711C26010B
:1033100091E1292E312C2C0E3D1E68C0C7016FE2B1
:1033200070E00E9442116C01009709F472C0E81627
:10333000F90608F06EC08C010E191F09C301B70110
:10334000A8010E946211060D171DF801108280E38A
:1033500092E1B3010E94881480E392E16AE00E9446
:103360001214D2016D917C916115710519F460E020
:1033700070E002C06D5F7F4FC101A30121E00E9498
:103380003386882341F5E2E0F2E064917F0109C0D1
:1033900080E392E10E9412140894E11CF11CF701F1
:1033A00064916623A9F780E392E1BE016F5F7F4FCE
:1033B0000E948814E0E0F2E064917F0109C080E39C
:1033C00092E10E9412140894E11CF11CF70164912F
:1033D0006623A9F707C1EEE0F0E0EC0FFD1FD20174
:1033E000ED93FC9376010894E11CF11CE114F104C7
:1033F00009F094CF0BC02FE430E0A20EB31ED6012B
:10340000AD92BC92E1EBFFEFAE0EBF1ED82CC92CE3
:1034100002C0DE2CCF2CF501E35BFF4F2CA522234D
:1034200009F4A6C0608171816115710519F460E02D
:1034300070E002C06D5F7F4FC5018F539E4F4D2DD1
:103440005C2D21E00E943386882309F46AC0A5011F
:1034500042595D4F82ED91E0A80EB91EF5018081C1
:103460009181A281B3812EE23EEFA20EB31EFA013A
:1034700080839183A283B383E2EFF1E064917F01C3
:1034800009C080E392E10E9412140894E11CF11C2F
:10349000F70164916623A9F780E392E16D2D7C2DFD
:1034A0000E948814EAEEF1E064917F0109C080E394
:1034B00092E10E9412140894E11CF11CF70164913E
:1034C0006623A9F72EE632E0A20EB31ED5014D9178
:1034D0005D916D917C9180E392E12AE000E00E9491
:1034E00015E580E392E16AE00E941214E8E0F0E062
:1034F000AE0EBF1ED5011D921D921D921C921397F8
:10350000ECEDF1E064917F0109C080E392E10E945B
:1035100012140894E11CF11CF70164916623A9F7C9
:103520007FC0E8ECF1E064917F0109C080E392E1A3
:103530000E9412140894E11CF11CF70164916623A7
:10354000A9F780E392E16D2D7C2D0E948814E6ECB2
:10355000F1E064917F0109C080E392E10E941214BE
:103560000894E11CF11CF70164916623A9F73AC0A5
:10357000608171816115710519F460E070E002C02D
:103580006D5F7F4FC5018F539E4F4D2D5C2D26E5FE
:103590000E943386882361F5E2EBF1E064917F01BC
:1035A00009C080E392E10E9412140894E11CF11C0E
:1035B000F70164916623A9F780E392E16D2D7C2DDC
:1035C0000E948814E0EBF1E064917F0109C080E380
:1035D00092E10E9412140894E11CF11CF70164911D
:1035E0006623A9F780E392E16AE00E94121421C0E9
:1035F00081E0D5018C93EEE9F1E064917F0109C08F
:1036000080E392E10E9412140894E11CF11CF7017E
:1036100064916623A9F780E392E1B4010E948814C3
:1036200080E392E16AE00E9412148D2D9C2D0E948D
:10363000F5CDCE010E960E947B14AC960FB6F89491
:10364000DEBF0FBECDBFCF91DF911F910F91FF90D5
:10365000EF90DF90CF90BF90AF909F908F907F9032
:103660006F905F904F903F902F900895EF92FF9250
:103670000F931F93CF93DF93EC010E94D48E8E01A2
:1036800004521E4FD8018C91E1ECEE2EE1E0FE2EAB
:10369000EC0EFD1E8823A1F1C7010E94257FF801D1
:1036A0006081615060838DE8689FB00111246F5183
:1036B0007E4F6C0F7D1FCE0141E021E00E94F31789
:1036C000D801EC91F0E0EE0FFF1FEE0FFF1FEC0FA3
:1036D000FD1FE352FE4F4081518162817381CA58C0
:1036E000DD4F488359836A837B83C657D240C70125
:1036F0000E940B7E8B81882389F181E08A832EC012
:103700000E94EF8CC7010E94257F1A8283EE90E011
:103710000E94286080914609882301F11092460991
:103720008091E806C82FD0E0CC0FDD1FC554DF4ED6
:1037300068817981882777FD8095982F0E9400EA1B
:103740002091000330910103409102035091030343
:103750000E946CEB181614F419821882DF91CF9135
:103760001F910F91FF90EF900895FC0181E08183FC
:10377000CF0140E021E00E94F3170895EF92FF92FD
:103780000F931F93CF93DF938C01FC01138285A9C4
:10379000882321F0C801C2960E94257FFBE9EF2E05
:1037A000F1E0FF2EE00EF11EC70160E044E10E944F
:1037B000C57C8823E9F4EFEEF0E06491EF0107C0E7
:1037C00080E392E10E9412142196FE016491662327
:1037D000B9F7E3EDF2E06491EF0107C080E392E115
:1037E0000E9412142196FE0164916623B9F771C0FC
:1037F000E801C056DE4FCE01B70141E00E94CA8702
:10380000882321F5CE01B70140E00E94CA878823B2
:10381000E9F4EFE1F1E06491EF0107C080E392E1A8
:103820000E9412142196FE0164916623B9F7E0EC20
:10383000F2E06491EF0107C080E392E10E9412146C
:103840002196FE0164916623B9F743C0C801C29670
:10385000BE010E9426828823E9F4EFE1F1E0649141
:10386000EF0107C080E392E10E9412142196FE014D
:1038700064916623B9F7E0EBF2E06491EF0107C0D1
:1038800080E392E10E9412142196FE016491662366
:10389000B9F71FC081E0F8018383EFEEF0E0649197
:1038A000EF0107C080E392E10E9412142196FE010D
:1038B00064916623B9F7E5EAF2E06491EF0107C08D
:1038C00080E392E10E9412142196FE016491662326
:1038D000B9F780E392E16AE00E941214D801AE5A6F
:1038E000BF4FF801F2968BE101900D928150E1F704
:1038F000F80181A90F5A1F4FF8018083015510402C
:10390000C8018F96035B1F4FF80191838083DF917D
:10391000CF911F910F91FF90EF9008952F923F92BA
:103920004F925F926F927F929F92AF92BF92CF928F
:10393000DF92EF92FF920F931F93DF93CF93CDB758
:10394000DEB7CC55D0400FB6F894DEBF0FBECDBF6A
:103950008C01662319F506581D4FD8018C910A5722
:103960001240882309F4E7C00FB6F894209128127A
:103970003091291240912A1250912B120FBE0E58ED
:103980001D4FF80180819181A281B38102571240BD
:1039900082179307A407B50708F4CDC006581D4F3A
:1039A000D8011C920A571240F8018381882349F4F8
:1039B000C8010E94BE1BD80113968C91882309F47C
:1039C000BAC000D000D000D0EDB7FEB731966E017E
:1039D0000894C11CD11CADB7BEB71296DC92CE9232
:1039E000119786E191E093838283D8019D968D9112
:1039F0009C919E97958384830E9471117601EDB707
:103A0000FEB736960FB6F894FEBF0FBEEDBF560157
:103A10000AC0D7018C91992787FD90950E94A1ED4E
:103A2000F70181937F01F50101900020E9F73197BB
:103A3000EA19FB098E2D8C198E175CF392E3A92EDF
:103A4000B12CA00EB11EC50140E050E060E070E076
:103A50000E940B7E99248DE3C82ED12CCC0EDD1E46
:103A60002E010894411C511CBFE16B2E712C6C0E71
:103A70007D1EAFE02A2EA1E03A2E43C0D7018C91E3
:103A800090E00E94A1EDF70181937F01D6010D9096
:103A90000020E9F71197AC19BD098E2D8C198A17F2
:103AA0006CF327968FAD27978E3759F1C601B20177
:103AB00045E050E00E945411009719F500D000D065
:103AC00000D0EDB7FEB73196ADB7BEB712967C9277
:103AD0006E92119733822282558244820E94711124
:103AE000EDB7FEB736960FB6F894FEBF0FBEEDBF2A
:103AF000C3010E949F608BE091E00E94286099249E
:103B00009394C501B60140E050E00E94428118162E
:103B100014F47601BBCF992041F48FEF9FEFD801C9
:103B20009E969C938E939D9706C0F80185A596A5B9
:103B3000019696A785A7C45ADF4F0FB6F894DEBF4B
:103B40000FBECDBFCF91DF911F910F91FF90EF90EE
:103B5000DF90CF90BF90AF909F907F906F905F90DD
:103B60004F903F902F9008952F923F924F925F92E7
:103B70006F927F928F929F92AF92BF92CF92DF927D
:103B8000EF92FF920F931F93DF93CF93CDB7DEB7E2
:103B9000CD58D0400FB6F894DEBF0FBECDBF7C012C
:103BA0002B015A0183E090E0A80EB91EF70171962F
:103BB000C957DF4FF983E883C758D040C70104963F
:103BC000CC57DF4F99838883C458D040CA57DF4F02
:103BD0001882C658D04054E6C52ED12CCC0EDD1E1E
:103BE000F6013B96C757DF4FF983E883C958D040A9
:103BF0004BE7642E42E0742E6E0C7F1C3DE7832E53
:103C000032E0932E8E0C9F1C26E4222E312C2C0E9B
:103C10003D1EC1010396C557DF4F99838883CB585A
:103C2000D040EFEEF0E09491C357DF4F9883CD582A
:103C3000D04030C1F6018385482F50E0BA01687149
:103C400070706031710509F033C1F3012081318159
:103C50002130310509F42CC12230310509F428C185
:103C6000F601DE0111969081903239F08E2F8C1979
:103C7000883011F48EE28D939D933196C757DF4FB4
:103C800088819981C958D040E817F90761F71C92DB
:103C90001E86F2018081882331F4CE010E9660E009
:103CA00071E00E943711CE010E96B2010E943711C9
:103CB000CE010E96BE016F5F7F4F0E943711CE017D
:103CC0000E9660E071E00E9437111BA61EA61AA690
:103CD00086EB93E099A788A7CE018B96B501AE013C
:103CE0004F5F5F4F21E00E943386882371F5F30117
:103CF00080819181892B49F5C357DF4F6881CD5869
:103D0000D0400FEE10E008C080E392E10E94121450
:103D10000F5F1F4FF80164916623B1F780E392E1D2
:103D200062E071E00E94881480E392E16AE00E9400
:103D3000121480E392E1BE016F5F7F4F0E948814EE
:103D400080E392E16AE00E941214C557DF4FA88118
:103D5000B981CB58D040FE01BB968BE101900D920A
:103D60008150E1F78AA5F101828386EB93E091838C
:103D70008083C701BE01625F7F4FA1010E94B41D15
:103D8000C1010E947B14CE0188960E947B1482C0E0
:103D9000953E09F47FC09E3209F47CC09F3509F43A
:103DA00079C0F7019189992331F09E3209F472C0EC
:103DB0009F3509F46FC043FD6DC080E0603171052F
:103DC00009F481E0F70184A7882349F4F60180858E
:103DD000873409F05FC081858E3709F45BC0CC570A
:103DE000DF4FA881B981C458D040F601808180326C
:103DF00041F08E2F8C19883011F48EE28D938081E2
:103E00008D933196C757DF4F88819981C958D0402B
:103E1000E817F90759F71C92F30180819181009707
:103E2000A9F480E392E1B2010E94881480E392E158
:103E3000CC57DF4F68817981C458D0400E948814E4
:103E400080E392E16AE00E94121424C0813091055F
:103E500039F4F401808191810196918380831AC0A5
:103E60000297C1F4CA57DF4FF881C658D0402F2FB0
:103E700030E0F4018081918128173907F1F0CA57A9
:103E8000DF4FF881C658D040FF5FCA57DF4FF88335
:103E9000C658D040C501B601C957DF4F4881598186
:103EA000C758D0400E94428118160CF4C3CE05C0FA
:103EB000F6019081992309F06BCFC357DF4F0FB6FE
:103EC000F894DEBF0FBECDBFCF91DF911F910F9150
:103ED000FF90EF90DF90CF90BF90AF909F908F902A
:103EE0007F906F905F904F903F902F900895EF924A
:103EF000FF920F931F93DF93CF93CDB7DEB76E97EB
:103F00000FB6F894DEBF0FBECDBF7C018C01035B02
:103F10001F4F815B9F4FF801918380832BE732E035
:103F2000E20EF31E21E030E0F701219331937F018F
:103F30001182108223E83DEFE20EF31E039640E06B
:103F400050E060E070E00E940B7EF801208131813A
:103F5000DE011496F90133968BE101900D928150A8
:103F6000E1F7F90182818B8386EB93E09A83898361
:103F7000C70165E171E08E010F5F1F4FA8010E942C
:103F8000B41DC8010E947B14F701E358FD4F8081E6
:103F900091816E960FB6F894DEBF0FBECDBFCF9164
:103FA000DF911F910F91FF90EF900895EF92FF9294
:103FB0000F931F93DF93CF93CDB7DEB76E970FB6F6
:103FC000F894DEBF0FBECDBF7C018C01035B1F4F99
:103FD000815B9F4FF801918380832BE732E0E20EF3
:103FE000F31E22E030E0F7013183208325E83DEF26
:103FF000E20EF31EF701E358FD4F60831182039632
:1040000040E050E060E070E00E940B7EF80120810B
:104010003181DE011496F90133968BE101900D9206
:104020008150E1F7F90182818B8386EB93E09A83DB
:104030008983C70165E171E08E010F5F1F4FA80101
:104040000E94B41DC8010E947B146E960FB6F894AE
:10405000DEBF0FBECDBFCF91DF911F910F91FF90BB
:10406000EF900895EF92FF920F931F93DF93CF93FA
:10407000CDB7DEB76E970FB6F894DEBF0FBECDBFDB
:104080007C018BE792E0E80EF91EF70111821082A5
:1040900085E89DEFE80EF91E87010E5C1F4FC801F1
:1040A00040E050E060E070E00E940B7EDE0114967C
:1040B000F8018BE101900D928150E1F7F70181A9A0
:1040C0008B8386EB93E09A838983C70165E171E076
:1040D0008E010F5F1F4FA8010E94B41DC8010E94EE
:1040E0007B146E960FB6F894DEBF0FBECDBFCF9196
:1040F000DF911F910F91FF90EF900895CF93DF9381
:10410000EC011AAA1DAA19AA86EB93E098AB8FA717
:10411000CE5ADF4F188223961882C555D040FE0133
:10412000E15BFF4FCF5ADF4F1882C155D0409183DA
:104130008083DE01A359BF4FFD0120E030E0482F0E
:1041400013821682128240839183225E3F4F7E96B5
:1041500081E02C323807A1F7C456DE4F89E188830D
:1041600023961882689618822A96188223961882B7
:10417000C45CD140FE01E254FE4FC054DE4F1882B1
:1041800040839183C255DF4F188219821A821B82A5
:104190002896188219821A821B82C657D2401A8228
:1041A0001B8218821982C756DE4F19821882CD5B96
:1041B000DF4F1882FD01C90111920197E9F7C2563C
:1041C000DF4F81E08883CA57D2401EA61DA60FB6D6
:1041D000F8948091281290912912A0912A12B091FE
:1041E0002B120FBE88579C4EAF4FBF4FCE58DD4F9E
:1041F00088839983AA83BB83DF91CF9108950F931E
:104200001F93DF93CF93CDB7DEB72A970FB6F894FD
:10421000DEBF0FBECDBF8091160190911701A09116
:104220001801B09119018B839C83AD83BE83FE017D
:10423000339624E630E08081F999FECF1FBA32BD73
:1042400021BD80BD0FB6F894FA9AF99A0FBE2F5F80
:104250003F4F2836310511F03196EDCFEAEEF8E008
:104260008081F999FECF1FBA32BD21BD80BD0FB646
:10427000F894FA9AF99A0FBE2F5F3F4F283731050D
:1042800011F03196EDCFEAEDF8E08081F999FECF9B
:104290001FBA32BD21BD80BD0FB6F894FA9AF99AC3
:1042A0000FBE2F5F3F4F2838310511F03196EDCF0B
:1042B000EAEFF8E08081F999FECF1FBA32BD21BD47
:1042C00080BD0FB6F894FA9AF99A0FBE2F5F3F4F50
:1042D0002839310511F03196EDCFEEE0F9E080811B
:1042E000F999FECF1FBA32BD21BD80BD0FB6F8943B
:1042F000FA9AF99A0FBE2F5F3F4F2C39310511F012
:104300003196EDCFE2E1F9E08081F999FECF1FBA55
:1043100032BD21BD80BD0FB6F894FA9AF99A0FBE4E
:104320002F5F3F4F203A310511F03196EDCFEAE093
:10433000F9E08081F999FECF1FBA32BD21BD80BD61
:104340000FB6F894FA9AF99A0FBE2F5F3F4F243AAE
:10435000310511F03196EDCFE2E2F9E08081F99973
:10436000FECF1FBA32BD21BD80BD0FB6F894FA9AB8
:10437000F99A0FBE2F5F3F4F283A310511F0319661
:10438000EDCFE6EDF8E08081F999FECF1FBA32BD9E
:1043900021BD80BD0FB6F894FA9AF99A0FBE2F5F2F
:1043A0003F4F2C3A310511F03196EDCFE6E1F9E0BF
:1043B0008081F999FECF1FBA32BD21BD80BD0FB6F5
:1043C000F894FA9AF99A0FBE2F5F3F4F203B3105C0
:1043D00011F03196EDCFEAE1F9E08081F999FECF55
:1043E0001FBA32BD21BD80BD0FB6F894FA9AF99A72
:1043F0000FBE2F5F3F4F243B310511F03196EDCFBB
:10440000EEE1F9E08081F999FECF1FBA32BD21BDFE
:1044100080BD0FB6F894FA9AF99A0FBE2F5F3F4FFE
:10442000283B310511F03196EDCFEDECF6E08081BF
:10443000F999FECF1FBA32BD21BD80BD0FB6F894E9
:10444000FA9AF99A0FBE2F5F3F4F243C310511F0C5
:104450003196EDCFEDE0F1E18081F999FECF1FBA01
:1044600032BD21BD80BD0FB6F894FA9AF99A0FBEFD
:104470002F5F3F4F263C310511F03196EDCFEFE035
:10448000F1E18081F999FECF1FBA32BD21BD80BD17
:104490000FB6F894FA9AF99A0FBE2F5F3F4F283C57
:1044A000310511F03196EDCFE1E1F1E18081F9992B
:1044B000FECF1FBA32BD21BD80BD0FB6F894FA9A67
:1044C000F99A0FBE2F5F3F4F2A3C310511F031960C
:1044D000EDCFE3E1F1E18081F999FECF1FBA32BD62
:1044E00021BD80BD0FB6F894FA9AF99A0FBE2F5FDE
:1044F0003F4F2C3C310511F03196EDCFE5E1F1E174
:104500008081F999FECF1FBA32BD21BD80BD0FB6A3
:10451000F894FA9AF99A0FBE2F5F3F4F2E3C31055F
:1045200011F03196EDCFE7E1F1E18081F999FECF0D
:104530001FBA32BD21BD80BD0FB6F894FA9AF99A20
:104540000FBE2F5F3F4F203D310511F03196EDCF6B
:10455000E3ECF2E08081F999FECF1FBA32BD21BDB4
:1045600080BD0FB6F894FA9AF99A0FBE2F5F3F4FAD
:10457000243D310511F03196EDCFE7ECF2E080817A
:10458000F999FECF1FBA32BD21BD80BD0FB6F89498
:10459000FA9AF99A0FBE2F5F3F4F283D310511F06F
:1045A0003196EDCFEBECF2E08081F999FECF1FBAA6
:1045B00032BD21BD80BD0FB6F894FA9AF99A0FBEAC
:1045C0002F5F3F4F2C3D310511F03196EDCFE1E1EA
:1045D000F3E08081F999FECF1FBA32BD21BD80BDC5
:1045E0000FB6F894FA9AF99A0FBE2F5F3F4F203E0C
:1045F000310511F03196EDCFE5E1F3E08081F999D5
:10460000FECF1FBA32BD21BD80BD0FB6F894FA9A15
:10461000F99A0FBE2F5F3F4F243E310511F03196BE
:10462000EDCFE9E1F3E08081F999FECF1FBA32BD09
:1046300021BD80BD0FB6F894FA9AF99A0FBE2F5F8C
:104640003F4F283E310511F03196EDCF80E290E0EA
:104650009A838983FE0131968081F999FECF1FBA32
:1046600032BD21BD80BD0FB6F894FA9AF99A0FBEFB
:104670002F5F3F4F2A3E310571F7EFEFF6E0808163
:10468000F999FECF1FBA32BD21BD80BD0FB6F89497
:10469000FA9AF99A0FBE2F5F3F4F2E3E310511F067
:1046A0003196EDCFE7EBF2E08081F999FECF1FBAAA
:1046B00032BD21BD80BD0FB6F894FA9AF99A0FBEAB
:1046C0002F5F3F4F223F310511F03196EDCFE3E0F0
:1046D000F7E08081F999FECF1FBA32BD21BD80BDC0
:1046E0000FB6F894FA9AF99A0FBE2F5F3F4F263F04
:1046F000310511F03196EDCFEBEBF2E08081F999C5
:10470000FECF1FBA32BD21BD80BD0FB6F894FA9A14
:10471000F99A0FBE2F5F3F4F2A3F310511F03196B6
:10472000EDCFE7E0F7E08081F999FECF1FBA32BD07
:1047300021BD80BD0FB6F894FA9AF99A0FBE2F5F8B
:104740003F4F2E3F310511F03196EDCFEFEBF2E008
:104750008081F999FECF1FBA32BD21BD80BD0FB651
:10476000F894FA9AF99A0FBE81E02130380721F0C7
:104770002F5F3F4F3196ECCF80911A0190911B0132
:10478000A0911C01B0911D018F839887A987BA87DA
:10479000FE01379684E690E02081F999FECF1FBA9A
:1047A00092BD81BD20BD0FB6F894FA9AF99A0FBE5A
:1047B0008736910519F001963196EECFE0EEF2E0E2
:1047C00064918F0108C080E392E10E9412140F5F90
:1047D0001F4FF80164916623B1F7E4E5F5E06491B9
:1047E0008F0108C080E392E10E9412140F5F1F4FF7
:1047F000F80164916623B1F780E392E16AE00E94D8
:1048000012142A960FB6F894DEBF0FBECDBFCF911B
:10481000DF911F910F910895EF92FF920F931F93D5
:10482000DF93CF93CDB7DEB7E0970FB6F894DEBF36
:104830000FBECDBFDE011196E8E6F3E080E1019006
:104840000D928150E1F7DE015196E8E5F3E080E159
:1048500001900D928150E1F7DE019196E8E4F3E0DA
:1048600080E101900D928150E1F789819A81AB81BD
:10487000BC818093EA089093EB08A093EC08B09376
:10488000ED0889899A89AB89BC898093DA0890936D
:10489000DB08A093DC08B093DD0889A19AA1ABA145
:1048A000BCA18093FA089093FB08A093FC08B093F6
:1048B000FD088D819E81AF81B8858093EE0890932D
:1048C000EF08A093F008B093F1088D899E89AF8915
:1048D000B88D8093DE089093DF08A093E008B09332
:1048E000E1088DA19EA1AFA1B8A58093FE08909389
:1048F000FF08A0930009B093010989859A85AB85CB
:10490000BC858093F2089093F308A093F408B093C9
:10491000F508898D9A8DAB8DBC8D8093E2089093BC
:10492000E308A093E408B093E50889A59AA5ABA590
:10493000BCA58093020990930309A0930409B09346
:1049400005098D859E85AF85B8898093F60890937B
:10495000F708A093F808B093F9088D8D9E8DAF8D60
:10496000B8A18093E6089093E708A093E808B09375
:10497000E9088DA59EA5AFA5B8A9809306099093D7
:104980000709A0930809B09309090E94EC6780E029
:1049900090E8ABE3B5E480930E0990930F09A093E0
:1049A0001009B09311098093120990931309A093F1
:1049B0001409B09315090F2EF0E0EF2EF0E0FF2E52
:1049C000F0E00F2FF0E01F2FF02DE0920A09F09297
:1049D0000B0900930C0910930D0980E29EE4A0E0FE
:1049E000B0E08093D6089093D708A093D808B093EE
:1049F000D908E0922209F092230900932409109328
:104A0000250940E050E060EA71E4409316095093B4
:104A1000170960931809709319098DEC9CECACECA4
:104A2000BEE380931A0990931B09A0931C09B093CD
:104A30001D0980E090E0A0EAB0E480931E09909305
:104A40001F09A0932009B0932109E092D506F092A6
:104A5000D6060093D7061093D806E092D106F092BE
:104A6000D2060093D3061093D406E092CD06F092BE
:104A7000CE060093CF061093D00684EB90E090937F
:104A80000E1180930D1186E490E0909310118093A5
:104A90000F112FEF30E0309312112093111180EF9E
:104AA00090E0909314118093131184E690E090931A
:104AB00016118093151130931811209317114093FC
:104AC000C3025093C4026093C5027093C602E09281
:104AD000C702F092C8020093C9021093CA02E09282
:104AE000CB02F092CC020093CD021093CE028AE961
:104AF00099E9A1EBB1E48093110390931203A09381
:104B00001303B093140361E77DE38AE89FE30E94F7
:104B1000B6966093150370931603809317039093D2
:104B2000180360E070E084EE92E40E94C496609303
:104B3000190370931A0380931B0390931C030E9424
:104B4000C69580E090E0A0E8BFE380931D039093BA
:104B50001E03A0931F03B0932003E092FF06F09280
:104B600000070093010710930207E0920307F092F9
:104B700004070093050710930607E0920707F092D9
:104B800008070093090710930A0780E090E0A8E166
:104B9000B3E48093B7029093B802A093B902B093A4
:104BA000BA028093BB029093BC02A093BD02B09363
:104BB000BE028093BF029093C002A093C102B09343
:104BC000C202E0EEF2E064918F0108C080E392E15E
:104BD0000E9412140F5F1F4FF80164916623B1F712
:104BE000E6EEF2E064918F0108C080E392E10E945A
:104BF00012140F5F1F4FF80164916623B1F780E331
:104C000092E16AE00E941214E0960FB6F894DEBFBB
:104C10000FBECDBFCF91DF911F910F91FF90EF900D
:104C20000895EF92FF920F931F93DF93CF9300D0DD
:104C300000D0CDB7DEB780EEE82E82E0F82EF70187
:104C40006491870108C080E392E10E9412140F5F13
:104C50001F4FF80164916623B1F780E392E16EE1A2
:104C600071E00E94881480E392E16AE171E00E94A1
:104C7000881480E392E10E94F9E4FE01319624E673
:104C800030E0F999FECF32BD21BDF89A80B580831E
:104C90002736310521F02F5F3F4F3196F2CF80E369
:104CA00092E16EE271E00E94881480E392E1BE011D
:104CB0006F5F7F4F0E94881480E392E10E94F9E4C5
:104CC000E4E4F5E064918F0108C080E392E10E9482
:104CD00012140F5F1F4FF80164916623B1F780E350
:104CE00092E16AE00E941214F701649100EE12E072
:104CF00008C080E392E10E9412140F5F1F4FF80179
:104D000064916623B1F74091EA085091EB086091F5
:104D1000EC087091ED088CE395E00E94FD35409120
:104D2000EE085091EF086091F0087091F10889E366
:104D300095E00E94FD354091F2085091F308609192
:104D4000F4087091F50886E395E00E94FD354091E6
:104D5000F6085091F7086091F8087091F90883E31C
:104D600095E00E94FD3580E392E165E471E00E94E8
:104D7000881480E392E16AE00E941214F7016491C2
:104D800000EE12E008C080E392E10E9412140F5F6F
:104D90001F4FF80164916623B1F7E9E1F5E06491F2
:104DA0008F0108C080E392E10E9412140F5F1F4F31
:104DB000F80164916623B1F780E392E16AE00E9412
:104DC0001214F701649100EE12E008C080E392E152
:104DD0000E9412140F5F1F4FF80164916623B1F710
:104DE0004091DA085091DB086091DC087091DD0891
:104DF00080E195E00E94FD354091DE085091DF088A
:104E00006091E0087091E1088DE095E00E94FD3529
:104E10004091E2085091E3086091E4087091E50840
:104E20008AE095E00E94FD354091E6085091E70840
:104E30006091E8087091E90887E095E00E94FD35EF
:104E400080E392E165E471E00E94881480E392E1DE
:104E50006AE00E941214F701649100EE12E008C0AB
:104E600080E392E10E9412140F5F1F4FF8016491DA
:104E70006623B1F7E9EEF4E064918F0108C080E3A6
:104E800092E10E9412140F5F1F4FF8016491662394
:104E9000B1F780E392E16AE00E941214F701649195
:104EA00000EE12E008C080E392E10E9412140F5F4E
:104EB0001F4FF80164916623B1F74091FA085091B1
:104EC000FB086091FC087091FD0880EE94E00E9460
:104ED000F52D4091FE085091FF08609100097091F6
:104EE00001098DED94E00E94F52D40910209509149
:104EF000030960910409709105098AED94E00E940C
:104F0000F52D4091060950910709609108097091AB
:104F1000090987ED94E00E94F52D80E392E165E4B4
:104F200071E00E94881480E392E16AE00E9412140A
:104F3000F701649100EE12E008C080E392E10E9464
:104F400012140F5F1F4FF80164916623B1F7E2EA74
:104F5000F4E064918F0108C080E392E10E94121492
:104F60000F5F1F4FF80164916623B1F780E392E170
:104F70006AE00E941214F701649100EE12E008C08A
:104F800080E392E10E9412140F5F1F4FF8016491B9
:104F90006623B1F740910E0950910F0960911009F5
:104FA0007091110989E994E00E94FD354091120940
:104FB00050911309609114097091150986E994E0E4
:104FC0000E94FD3580E392E165E471E00E9488145F
:104FD00080E392E16AE00E941214F701649100EE0E
:104FE00012E008C080E392E10E9412140F5F1F4F8D
:104FF000F80164916623B1F7E3EEF3E064918F0169
:1050000008C080E392E10E9412140F5F1F4FF80165
:1050100064916623B1F780E392E16AE00E94121482
:10502000F701649100EE12E008C080E392E10E9473
:1050300012140F5F1F4FF80164916623B1F740917E
:105040000A0950910B0960910C0970910D098AEDC4
:1050500093E00E94FD35409122095091230960910F
:1050600024097091250987ED93E00E94FD35409158
:10507000D6085091D7086091D8087091D90884ED6E
:1050800093E00E94F52D4091160950911709609107
:1050900018097091190981ED93E00E94FD35409146
:1050A0001A0950911B0960911C0970911D098EEC21
:1050B00093E00E94FD3540911E0950911F096091B7
:1050C0002009709121098BEC93E00E94FD3580E36B
:1050D00092E165E471E00E94881480E392E16AE065
:1050E0000E941214F701649100EE12E008C080E300
:1050F00092E10E9412140F5F1F4FF8016491662322
:10510000B1F7E9EBF3E064918F0108C080E392E12D
:105110000E9412140F5F1F4FF80164916623B1F7CC
:1051200080E392E16AE00E941214F701649100EEBC
:1051300012E008C080E392E10E9412140F5F1F4F3B
:10514000F80164916623B1F74091CD065091CE06E7
:105150006091CF067091D00680EB93E00E94FD3500
:105160004091D1065091D2066091D3067091D40639
:105170008DEA93E00E94FD354091D5065091D60608
:105180006091D7067091D8068AEA93E00E94FD35B7
:1051900080E392E165E471E00E94881480E392E18B
:1051A0006AE00E941214F701649100EE12E008C058
:1051B00080E392E10E9412140F5F1F4FF801649187
:1051C0006623B1F7ECE9F3E064918F0108C080E356
:1051D00092E10E9412140F5F1F4FF8016491662341
:1051E000B1F780E392E16AE00E941214F701649142
:1051F00000EE12E008C080E392E10E9412140F5FFB
:105200001F4FF80164916623B1F74091110350914B
:105210001203609113037091140382E993E00E94DA
:10522000FD356091150370911603809117039091DD
:1052300018030E94BD96AB01BC018FE893E00E9469
:10524000FD356091190370911A0380911B039091B1
:105250001C030E94CB96AB01BC018CE893E00E943A
:10526000FD3580E392E165E471E00E94881480E3FB
:1052700092E16AE00E941214F701649100EE12E0DC
:1052800008C080E392E10E9412140F5F1F4FF801E3
:1052900064916623B1F7E9E7F3E064918F0108C0F8
:1052A00080E392E10E9412140F5F1F4FF801649196
:1052B0006623B1F780E392E16AE00E941214F701DD
:1052C000649100EE12E008C080E392E10E941214A3
:1052D0000F5F1F4FF80164916623B1F74091FF06FD
:1052E00050910007609101077091020780E793E0F9
:1052F0000E94FD3540910307509104076091050716
:10530000709106078DE693E00E94FD3540910707F6
:10531000509108076091090770910A078AE693E0A7
:105320000E94FD3580E392E165E471E00E948814FB
:1053300080E392E16AE00E941214F701649100EEAA
:1053400012E008C080E392E10E9412140F5F1F4F29
:10535000F80164916623B1F7E7E5F3E064918F010A
:1053600008C080E392E10E9412140F5F1F4FF80102
:1053700064916623B1F780E392E16AE00E9412141F
:10538000F701649100EE12E008C080E392E10E9410
:1053900012140F5F1F4FF80164916623B1F740911B
:1053A000B7025091B8026091B9027091BA028EE4CE
:1053B00093E00E94FD354091BB025091BC02609188
:1053C000BD027091BE028BE493E00E94FD354091D6
:1053D000BF025091C0026091C1027091C20288E484
:1053E00093E00E94FD3580E392E165E471E00E9464
:1053F000881480E392E16AE00E941214F70164913C
:1054000000EE12E008C080E392E10E9412140F5FE8
:105410001F4FF80164916623B1F7E1E3F3E0649173
:105420008F0108C080E392E10E9412140F5F1F4FAA
:10543000F80164916623B1F780E392E16AE00E948B
:105440001214F701649100EE12E008C080E392E1CB
:105450000E9412140F5F1F4FF80164916623B1F789
:105460004091C3025091C4026091C5027091C6027E
:1054700088E293E00E94FD354091C7025091C80236
:105480006091C9027091CA0285E293E00E94FD35E5
:105490004091CB025091CC026091CD027091CE022E
:1054A00082E293E00E94FD3580E392E165E471E0E1
:1054B0000E94881480E392E16AE00E9412140F9027
:1054C0000F900F900F90CF91DF911F910F91FF9050
:1054D000EF9008950F931F93DF93CF93CDB7DEB76F
:1054E0002A970FB6F894DEBF0FBECDBF80911A0188
:1054F00090911B01A0911C01B0911D018F83988791
:10550000A987BA87FE01339604E610E0F999FECF29
:1055100012BD01BDF89A80B580830F5F1F4F08361A
:10552000110511F03196F2CFCE010796BE016D5FE5
:105530007F4F43E050E00E945411009709F017C2DA
:10554000EAEEF8E0F999FECF12BD01BDF89A80B5F8
:1055500080830F5F1F4F0837110511F03196F2CF8E
:10556000EAEDF8E0F999FECF12BD01BDF89A80B5D9
:1055700080830F5F1F4F0838110511F03196F2CF6D
:10558000EAEFF8E0F999FECF12BD01BDF89A80B5B7
:1055900080830F5F1F4F0839110511F03196F2CF4C
:1055A0000E94EC67EEE0F9E0F999FECF12BD01BD73
:1055B000F89A80B580830F5F1F4F0C39110511F0E9
:1055C0003196F2CFE2E1F9E0F999FECF12BD01BDCB
:1055D000F89A80B580830F5F1F4F003A110511F0D4
:1055E0003196F2CFEAE0F9E0F999FECF12BD01BDA4
:1055F000F89A80B580830F5F1F4F043A110511F0B0
:105600003196F2CFE2E2F9E0F999FECF12BD01BD89
:10561000F89A80B580830F5F1F4F083A110511F08B
:105620003196F2CFE6EDF8E0F999FECF12BD01BD5B
:10563000F89A80B580830F5F1F4F0C3A110511F067
:105640003196F2CFE6E1F9E0F999FECF12BD01BD46
:10565000F89A80B580830F5F1F4F003B110511F052
:105660003196F2CFEAE1F9E0F999FECF12BD01BD22
:10567000F89A80B580830F5F1F4F043B110511F02E
:105680003196F2CFEEE1F9E0F999FECF12BD01BDFE
:10569000F89A80B580830F5F1F4F083B110511F00A
:1056A0003196F2CFEDECF6E0F999FECF12BD01BDD7
:1056B000F89A80B580830F5F1F4F043C110511F0ED
:1056C0003196F2CFEDE0F1E1F999FECF12BD01BDC7
:1056D000F89A80B580830F5F1F4F063C110511F0CB
:1056E0003196F2CFEFE0F1E1F999FECF12BD01BDA5
:1056F000F89A80B580830F5F1F4F083C110511F0A9
:105700003196F2CFE1E1F1E1F999FECF12BD01BD91
:10571000F89A80B580830F5F1F4F0A3C110511F086
:105720003196F2CFE3E1F1E1F999FECF12BD01BD6F
:10573000F89A80B580830F5F1F4F0C3C110511F064
:105740003196F2CFE5E1F1E1F999FECF12BD01BD4D
:10575000F89A80B580830F5F1F4F0E3C110511F042
:105760003196F2CFE7E1F1E1F999FECF12BD01BD2B
:10577000F89A80B580830F5F1F4F003D110511F02F
:105780003196F2CFE3ECF2E0F999FECF12BD01BD04
:10579000F89A80B580830F5F1F4F043D110511F00B
:1057A0003196F2CFE7ECF2E0F999FECF12BD01BDE0
:1057B000F89A80B580830F5F1F4F083D110511F0E7
:1057C0003196F2CFEBECF2E0F999FECF12BD01BDBC
:1057D000F89A80B580830F5F1F4F0C3D110511F0C3
:1057E0003196F2CFE1E1F3E0F999FECF12BD01BDB0
:1057F000F89A80B580830F5F1F4F003E110511F0AE
:105800003196F2CFE5E1F3E0F999FECF12BD01BD8B
:10581000F89A80B580830F5F1F4F043E110511F089
:105820003196F2CFE9E1F3E0F999FECF12BD01BD67
:10583000F89A80B580830F5F1F4F083E110511F065
:105840003196F2CFFE013196F999FECF12BD01BD1E
:10585000F89A80B580830F5F1F4F0A3E110599F7B4
:10586000EFEFF6E0F999FECF12BD01BDF89A80B5D1
:1058700080830F5F1F4F0E3E110511F03196F2CF5E
:10588000E7EBF2E0F999FECF12BD01BDF89A80B5C1
:1058900080830F5F1F4F023F110511F03196F2CF49
:1058A000E3E0F7E0F999FECF12BD01BDF89A80B5AB
:1058B00080830F5F1F4F063F110511F03196F2CF25
:1058C000EBEBF2E0F999FECF12BD01BDF89A80B57D
:1058D00080830F5F1F4F0A3F110511F03196F2CF01
:1058E000E7E0F7E0F999FECF12BD01BDF89A80B567
:1058F00080830F5F1F4F0E3F110511F03196F2CFDD
:10590000EFEBF2E0F999FECF12BD01BDF89A80B538
:10591000808381E00130180721F00F5F1F4F31961F
:10592000F1CF0E94C695E0EEF2E064918F0108C0CD
:1059300080E392E10E9412140F5F1F4FF8016491FF
:105940006623B1F7E8E0F3E064918F0108C080E3DB
:1059500092E10E9412140F5F1F4FF80164916623B9
:10596000B1F780E392E16AE00E94121404C00E9441
:105970000C240E94FF200E9411262A960FB6F8944C
:10598000DEBF0FBECDBFCF91DF911F910F91089564
:10599000CF93DF930FB6F89480912812909129123B
:1059A000A0912A12B0912B120FBE809314079093EE
:1059B0001507A0931607B0931707E0913D07F091E4
:1059C0003E07E15CF84F8081882399F4E9E1F6E035
:1059D0006491EF0107C080E392E10E9412142196C6
:1059E000FE0164916623B9F780E392E16AE00E94C8
:1059F0001214DF91CF910895EF92FF920F931F93AE
:105A0000CF93DF93EC01E090D906F090DA06009195
:105A1000DB061091DC06688179818A819B81A8016F
:105A200097010E945EE9882324F4E882F9820A83C0
:105A30001B83E090DD06F090DE060091DF061091FA
:105A4000E0066C817D818E819F81A80197010E9473
:105A50005EE9882324F4EC82FD820E831F83E090AC
:105A6000E106F090E2060091E3061091E4066885F5
:105A700079858A859B85A80197010E945EE9882324
:105A800024F4E886F9860A871B87E090A902F09043
:105A9000AA020091AB021091AC02688179818A81DF
:105AA0009B81A80197010E946CEB181624F4E882F0
:105AB000F9820A831B83E090AD02F090AE02009160
:105AC000AF021091B0026C817D818E819F81A8010F
:105AD00097010E946CEB181624F4EC82FD820E8371
