:100000000C943B0E0C946A0E0C946A0E0C946A0EBF
:100010000C946A0E0C946A0E0C946A0E0C946A0E80
:100020000C946A0E0C946A0E0C945BBB0C94D8BBB7
:100030000C946A0E0C946A0E0C946A0E0C946A0E60
:100040000C946A0E0C941A780C946A0E0C946A0E36
:100050000C946A0E0C946A0E0C94048B0C94BFBA28
:100060000C946A0E0C946A0E0C946A0E0C946A0E30
:100070000C946A0E0C946A0E0C946A0E0C946A0E20
:100080000C946A0E0C946A0E0C946A0E0C946A0E10
:100090000C94DFC40C946A0EB63FB93FBC3FCC3F12
:1000A000C03FC33FC73F4D8B5B8B778B858B9F8B4F
:1000B000AD8BC78BD58BF58B1CB947B969B969B9BD
:1000C00069B969B969B969B969B969B969B969B920
:1000D00069B969B95FB957B94FB969B969B969B946
:1000E00069B969B969B969B941B927B92FB939B9D4
:1000F000084AD73B3BCE016E84BCBFFDC12F3D6C8F
:1001000074319ABD56833DDA3D00C77F11BED9E4F4
:10011000BB4C3E916BAAAABE000000803F05A84CD4
:10012000CDB2D44EB93836A9020C50B991868808A0
:100130003CA6AAAA2ABE000000803F004861726463
:10014000636F6465642044656661756C74205365F3
:100150007474696E6773204C6F61646564005374D6
:100160006F7265642073657474696E67732072655D
:100170007472696576656400205A00205900202059
:100180004D3231322058004265642070726F6265D2
:10019000206F666673657420286D6D293A00205AB9
:1001A0000020590020204D3231312058004D617817
:1001B00020706F736974696F6E20286D6D293A0025
:1001C000205A0020590020204D3231302058004D57
:1001D000696E20706F736974696F6E20286D6D2968
:1001E0003A002044002049002020204D33303120A7
:1001F00050005049442073657474696E67733A0007
:10020000205A0020590020204D3230362058004816
:100210006F6D65206F666673657420286D6D293A71
:1002200000204500205A00205800204200205400A1
:1002300020204D323035205300416476616E636575
:1002400064207661726961626C65733A20533D4D3A
:10025000696E20666565647261746520286D6D2F16
:1002600073292C20543D4D696E2074726176656C43
:1002700020666565647261746520286D6D2F732931
:100280002C20423D6D696E696D756D207365676DDB
:10029000656E742074696D6520286D73292C205853
:1002A0003D6D6178696D756D205859206A65726B76
:1002B00020286D6D2F73292C20205A3D6D6178699F
:1002C0006D756D205A206A65726B20286D6D2F73D5
:1002D000292C2020453D6D6178696D756D20452084
:1002E0006A65726B20286D6D2F73290020540020E1
:1002F000204D323034205300416363656C65726178
:1003000074696F6E3A20533D616363656C65726119
:1003100074696F6E2C20543D726574726163742031
:10032000616363656C65726174696F6E002045007E
:10033000205A0020590020204D3230312058004DE5
:100340006178696D756D20416363656C6572617478
:10035000696F6E20286D6D2F7332293A0020450099
:10036000205A0020590020204D3230332058004DB3
:100370006178696D756D2066656564726174657319
:1003800020286D6D2F73293A00204500205A002047
:10039000590020204D393220580053746570732065
:1003A00070657220756E69743A0053657474696E75
:1003B00067732053746F726564006563686F3A00F9
:1003C00053544F505045442E20005072696E74654E
:1003D000722073746F707065642064756520746F2B
:1003E000206572726F72732E20466978207468657A
:1003F000206572726F7220616E6420757365204D86
:1004000039393920746F20726573746172742E20CB
:100410002854656D7065726174757265206973200A
:1004200072657365742E205365742069742061664B
:100430007465722072657374617274696E672900E5
:100440004B494C4C45442E20005072696E746572C5
:100450002068616C7465642E206B696C6C2829209F
:1004600063616C6C656421006F6B00526573656E2F
:10047000643A20002200556E6B6E6F776E20636FBA
:100480006D6D616E643A2022004368616E6765207D
:1004900066696C616D656E74007A5F6D696E3A2095
:1004A00000795F6D61783A2000785F6D696E3A205F
:1004B000005A3A00593A0020436F756E7420583A3A
:1004C0002000453A005A3A00593A00583A00205361
:1004D000455249414C5F4E554D4245523A2000200D
:1004E00045585452554445525F434F554E543A2057
:1004F00000204D414348494E455F545950453A20EC
:10050000002050524F544F434F4C5F564552534971
:100510004F4E3A2000204649524D574152455F55B3
:10052000524C3A20004649524D574152455F4E4188
:100530004D453A204D61726C696E20563100507203
:10054000696E7472626F742053696D706C65204FB0
:1005500066662E0042656420646F6E652E00204240
:100560003A0020453A00543A0042656420486561EB
:1005700074696E672E0048656174696E6720646FE8
:100580006E652E0020573A0020453A00543A004844
:10059000656174696E672E2E2E002042403A00205D
:1005A000403A00202F003A00205400202F00204223
:1005B0003A00202F006F6B20543A002569206D69A6
:1005C0006E2C2025692073656300456E6420666982
:1005D0006C65206C69737400426567696E2066699A
:1005E0006C65206C697374004E6F206D6F76652E9C
:1005F00000526573756D696E67207072696E740064
:100600005761697420666F7220757365722E2E2E85
:10061000000A00205A3A200020593A20004265641E
:1006200020506F736974696F6E20583A20000A0079
:10063000207A3A200020793A200042656420783AF6
:1006400020000A00207A3A200020793A20004265F2
:100650006420783A20000A00207A3A200020793A73
:10066000200042656420783A20005A50726F62651B
:10067000204F75747369646520426564005A507236
:100680006F6265204F75747369646520426564000C
:10069000486F6D6520582F59206265666F7265201E
:1006A0005A00486F6D6520582F59206265666F7239
:1006B00065205A00536C6565702E2E2E002569202A
:1006C000686F757273202569206D696E7574657326
:1006D00000446F6E65207072696E74696E67206683
:1006E000696C650053544F505045442E20005072A1
:1006F000696E7465722073746F70706564206475C0
:100700006520746F206572726F72732E204669784F
:1007100020746865206572726F7220616E64207546
:100720007365204D39393920746F20726573746197
:1007300072742E202854656D7065726174757265CF
:100740002069732072657365742E20536574206967
:100750007420616674657220726573746172746965
:100760006E6729006F6B004E6F204C696E65204EDE
:10077000756D626572207769746820636865636B64
:1007800073756D2C204C617374204C696E653A2032
:10079000004E6F20436865636B73756D20776974D5
:1007A00068206C696E65206E756D6265722C204CD8
:1007B000617374204C696E653A2000636865636BF1
:1007C00073756D206D69736D617463682C204C6165
:1007D0007374204C696E653A20004C696E65204E3A
:1007E000756D626572206973206E6F74204C617341
:1007F00074204C696E65204E756D6265722B312CCC
:10080000204C617374204C696E653A20004D313183
:100810003000446F6E6520736176696E672066698B
:100820006C652E006F6B004D3239002020506C61DA
:100830006E6E657242756666657242797465733A6A
:1008400020002046726565204D656D6F72793A20F3
:10085000004A616E203330203230313700436F6DF3
:1008600070696C65643A20005072696E7472626FD0
:100870007400207C20417574686F723A20004A61D0
:100880006E20333020323031372031333A34353A2C
:10089000333200204C617374205570646174656458
:1008A0003A2000312E302E30004D61726C696E207E
:1008B0000020536F667477617265205265736574AA
:1008C00000205761746368646F67205265736574B4
:1008D000002042726F776E206F75742052657365C9
:1008E00074002045787465726E616C205265736582
:1008F0007400506F77657255700073746172740084
:100900002200656E717565696E67202200220065A0
:100910006E717565696E67202200FF01FF0000A0FF
:10092000400000A040000020406563686F3A004529
:1009300072726F723A007C3C3E5E2B3D3F2F5B5DD6
:100940003B2C2A225C004D383420582059205A2054
:10095000450043616E6E6F7420656E74657220731E
:1009600075626469723A20004D3234004D32332092
:100970002573006175746F25692E67006572726F4B
:10098000722077726974696E6720746F2066696C73
:1009900065004E6F74205344207072696E74696EE6
:1009A00067002F005344207072696E74696E67206F
:1009B0006279746520002E0044656C6574696F6E01
:1009C000206661696C65642C2046696C653A20007C
:1009D00046696C652064656C657465643A002E0038
:1009E0006F70656E206661696C65642C2046696C69
:1009F000653A200057726974696E6720746F2066CB
:100A0000696C653A20002E006F70656E2066616922
:100A10006C65642C2046696C653A20002E006F706E
:100A2000656E206661696C65642C2046696C653A68
:100A3000200046696C652073656C656374656400AD
:100A40002053697A653A200046696C65206F7065AD
:100A50006E65643A20002E006F70656E20666169D5
:100A60006C65642C2046696C653A20004E6F7720D7
:100A700066726573682066696C653A20004E6F7710
:100A800020646F696E672066696C653A20002220D9
:100A9000706F73002220706172656E743A22005389
:100AA0005542524F5554494E452043414C4C2074B9
:100AB00061726765743A2200747279696E67207496
:100AC0006F2063616C6C207375622D67636F646562
:100AD0002066696C6573207769746820746F6F2075
:100AE0006D616E79206C6576656C732E204D415872
:100AF000206C6576656C2069733A0053442063610D
:100B00007264206F6B006F70656E526F6F74206639
:100B100061696C656400766F6C756D652E696E69D0
:100B200074206661696C656400534420696E697461
:100B3000206661696C006563686F3A004572726F88
:100B4000723A0020746F6F206C6F6E672065787446
:100B5000727573696F6E2070726576656E74656408
:100B60000020636F6C6420657874727573696F6EB2
:100B70002070726576656E746564006563686F3AAF
:100B80000028002920453A00280029205A3A002848
:100B9000002920593A00280020583A005374657003
:100BA0007065722063757272656E742076616C7503
:100BB0006573205B2528726177295D3A00656E6454
:100BC00073746F7073206869743A20452B00204558
:100BD0002B3A00656E6473746F7073206869743AA1
:100BE00020452D0020452D3A00656E6473746F70AA
:100BF00073206869743A205A00205A3A00656E647E
:100C000073746F7073206869743A20590020593AE0
:100C100000656E6473746F7073206869743A20584D
:100C20000020583A00656E6473746F7073206869B1
:100C3000743A200024F4D43050C38E20C2A240174E
:100C4000828B7011127A910D816CD90AA861E1082A
:100C5000C7586607615143061E4B5D05C145A70491
:100C60001A411104093D9803713931034036DB0202
:100C700065339102D4305402802E1D02632CEE01A4
:100C8000752AC501B028A001102781018F256401B4
:100C90002B244B01E0223401AC211F018D200D01DA
:100CA000801FFC00841EED00971DDF00B81CD200E1
:100CB000E61BC600201BBC00641AB200B219A800D3
:100CC0000A19A0006A189900D117910040178B00EB
:100CD000B516840031167E00B31579003A157300FD
:100CE000C7146F0058146A00EE136600881363007F
:100CF00025135E00C7125B006C12570015125400DA
:100D0000C111510070114F0021114B00D610490044
:100D10008D1047004610440002104200C00F4000F2
:100D2000800F3E00420F3C00060F3B00CB0E380008
:100D3000930E37005C0E3500270E3400F30D3200A1
:100D4000C10D3100900D3000600D2E00320D2D00D0
:100D5000050D2C00D90C2B00AE0C2900850C2900A8
:100D60005C0C2700350C27000E0C2600E80B240035
:100D7000C40B2400A00B23007D0B23005A0B210081
:100D8000390B2100180B2000F80A1F00D90A1E0099
:100D9000BB0A1E009D0A1D00800A1D00630A1C007C
:100DA000470A1B002C0A1B00110A1A00F7091A0037
:100DB000DD091900C4091900AB09190092091700CF
:100DC0007B091800630917004C0916003609160044
:100DD000200916000A091500F5081500E00814009E
:100DE000CC081400B8081400A408140090081300DC
:100DF0007D0812006B081300580812004608120004
:100E00003408110023081100120811000108110014
:100E1000F0071000E0071000D0071000C007100016
:100E2000B0070F00A107100091070E0083070F0005
:100E300074070F0065070E0057070E0049070E00E4
:100E40003B070D002E070E0020070D0013070D00B5
:100E500006070D00F9060C00ED060D00E0060C007B
:100E6000D4060C00C8060C00BC060C00B0060C0032
:100E7000A4060B0099060C008D060B0082060B00E1
:100E800077060B006C060B0061060A0057060B0084
:100E90004C060A0042060A0038060A002E060A001E
:100EA00024060A001A060A001006090007060A00AE
:100EB000FD050900F4050900EB050900E20509003C
:100EC000D9050900D0050900C7050900BE050900BC
:100ED000B5050800AD050800A50509009C0508003A
:100EE000940508008C050800840508007C050800AE
:100EF000740508006C050700650508005D0507001E
:100F0000560508004E050700470507004005080084
:100F100038050700310507002A05070023050700EB
:100F20001C050600160507000F050700080506004A
:100F300002050700FB040600F5040700EE040600A6
:100F4000E8040600E2040700DB040600D5040600FE
:100F5000CF040600C9040600C3040600BD04060051
:100F6000B7040600B1040500AC040600A6040600A0
:100F7000A00405009B0406009504050090040600EB
:100F80008A04050085040500800406007A04050033
:100F900075040500700405006B0405006604050077
:100FA000610405005C0405005704050052040500B7
:100FB0004D04050048040500430405003E040400F8
:100FC0003A04050035040500300404002C04050033
:100FD00027040400230405001E0404001A0404006E
:100FE00016040500110404000D04040009040500A2
:100FF0000404040000040400FC030400F8030400DB
:10100000F4030400F0030400EC030400E80304000C
:10101000E4030400E0030400DC030400D80304003C
:10102000D4030400D0030400CC030400C80303006D
:10103000C503030024F404D9201BC40C5C0E9804DF
:10104000C4095F0265077101F405F900FB04B300F0
:1010500048048700C1036900580355000303450095
:10106000BE023A008402310053022A002902250000
:1010700004022000E4011C00C8011900AF011700A0
:101080009801140084011300710110006101100027
:1010900051010E0043010D0036010B002B010B0026
:1010A00020010B00150109000C01090003010800D3
:1010B000FB000800F3000800EB000700E400060056
:1010C000DE000600D8000600D2000600CC000500B5
:1010D000C7000500C2000500BD000400B9000400FF
:1010E000B5000400B1000400AD000400A900040034
:1010F000A5000300A20003009F0004009B00030062
:101100009800030095000200930003009000030084
:101110008D0002008B0003008800020086000200A0
:1011200084000300810002007F0002007D000200B5
:101130007B000200790002007700010076000200C7
:101140007400020072000100710002006F000200D2
:101150006D0001006C0002006A00010069000200DD
:1011600067000100660001006500010064000200E4
:101170006200010061000100600001005F000200E8
:101180005D0001005C0001005B0001005A000100ED
:1011900059000100580001005700010056000100ED
:1011A00055000100540001005300000053000100ED
:1011B0005200010051000100500001004F000100E9
:1011C0004E0000004E0001004D0001004C000100E7
:1011D0004B0000004B0001004A00010049000100E3
:1011E00048000000480001004700010046000000E0
:1011F00046000100450000004500010044000100D8
:1012000043000000430001004200000042000100D2
:101210004100000041000100400001003F000000CB
:101220003F0001003E0000003E0001003D000000C4
:101230003D0001003C0000003C0000003C000100BB
:101240003B0000003B0001003A0000003A000100B2
:1012500039000000390001003800000038000000AB
:1012600038000100370000003700010036000000A0
:101270003600000036000100350000003500000097
:10128000350001003400000034000000340001008B
:101290003300000033000000330001003200000082
:1012A0003200000032000100310000003100000077
:1012B000310001003000000030000000300001006B
:1012C0002F0000002F0000002F0000002F00010061
:1012D0002E0000002E0000002E0001002D00000056
:1012E0002D0000002D0000002D0001002C0000004A
:1012F0002C0000002C0000002C0001002B0000003E
:101300002B0000002B0000002B0001002A00000031
:101310002A0000002A0000002A0001002900000025
:101320002900000029000000290000002900010018
:10133000280000002800000028000000280000000D
:1013400028000100270000002700000027000000FF
:1013500027000000270001002600000026000000F2
:1013600026000000260000002600010025000000E5
:1013700025000000250000002500000025000000D9
:1013800025000100240000002400000024000000CB
:1013900024000000240001002300000023000000BE
:1013A00023000000230000002300000023000000B1
:1013B00023000100220000002200000022000000A3
:1013C0002200000022000000220001002100000095
:1013D0002100000021000000210000002100000089
:1013E000210000002100010020000000200000007A
:1013F000200000002000000020000000200000006D
:1014000020000000200001001F0000001F0000005D
:101410001F0000001F0000001F0000001F00000050
:101420001F0001001E0000001E0000001E00000042
:101430001E0000006563686F3A004572723A204DE5
:10144000415854454D50204245440054656D7065E7
:101450007261747572652068656174656420626587
:1014600064207377697463686564206F66662E20F4
:101470004D415854454D50207472696767657265D7
:1014800064202121004572723A204D494E54454D49
:1014900050003A20457874727564657220737769DC
:1014A0007463686564206F66662E204D494E54450E
:1014B0004D5020747269676765726564202100452C
:1014C00072723A204D415854454D50003A204578AB
:1014D00074727564657220737769746368656420DB
:1014E0006F66662E204D415854454D5020747269E8
:1014F000676765726564202100202D20496E766142
:101500006C6964206578747275646572206E756D9F
:10151000626572202100504944204175746F7475D2
:101520006E652066696E6973686564212050757404
:1015300020746865204B702C204B6920616E6420FC
:101540004B6420636F6E7374616E747320696E7484
:101550006F20436F6E66696775726174696F6E2E76
:101560006800504944204175746F74756E6520663B
:1015700061696C6564212074696D656F7574002004
:10158000403A006F6B20543A006F6B20423A005093
:101590004944204175746F74756E65206661696C8D
:1015A0006564212054656D70657261747572652083
:1015B000746F6F206869676800204B643A200020D0
:1015C0004B693A2000204B703A200020436C617335
:1015D00069632050494420002054753A2000204B74
:1015E000753A2000206D61783A2000206D696E3ACE
:1015F000200020643A200020626961733A2000458F
:1016000072726F723A001000AD0330016A0150022D
:101610002B0170030A019004F500B005E500D00627
:10162000D800F007CE001009C500300ABE00500BEC
:10163000B700700CB100900DAB00B00EA600D00F3B
:10164000A200F0109D001012990030139500501464
:10165000920070158E0090168B00B0178700D0187E
:101660008400F0198100101B7E00301C7B00501D8F
:101670007900701E7600901F7300B0207000D0219A
:101680006E00F0226B0010246900302566005026A1
:1016900063007027610090285E00B0295C00D02AAA
:1016A0005900F02B5600102D5400302E5100502FB1
:1016B0004E0070304B0090314800B0324500D033BE
:1016C0004200F0343E0010363B00303737005038CF
:1016D000330070392E00903A2900B03B2300D03CF3
:1016E0001B00F03D1100103F0100F03F00007001B1
:1016F0002C0190012701B0012201C0011D01F00160
:1017000018011002130130020E016002090190025B
:101710000401C002FF000003FA004003F50080034B
:10172000F000D003EB002004E6007004E100E004C8
:10173000DC004005D700C005D2004006CD00D00631
:10174000C8008007C3003008BE00F008B900C00917
:10175000B400B00AAF00B00BAA00D00CA500000E78
:10176000A000500F9B00C010960050129100001472
:101770008C00C0158700B0178200B0197D00D01B07
:101780007800001E730040206E0090226900F02453
:10179000640040275F0090295A00E02B5500102E6E
:1017A000500020304B0010324600E03341009035AD
:1017B0003C001037370070383200A0392D00B03AA5
:1017C0002800A03B2300603C1E00103D1900903D06
:1017D0001400103E0F00703E0A00C03E0500003F9E
:1017E00000002D2D3A2D2D002D2D2D0053440020CD
:1017F00059000120000120004D363030004368615F
:101800006E67652066696C616D656E7400466C6F0D
:101810007700466C6F770046616E20737065656473
:101820000046616E20737065656400426564004225
:101830006564004E6F7A7A6C6533004E6F7A7A6C0D
:101840006533004E6F7A7A6C6532004E6F7A7A6C2F
:101850006532004E6F7A7A6C65004E6F7A7A6C65ED
:10186000005370656564005370656564004D61697F
:101870006E00580059005A0045787472756465729C
:10188000004578747275646572004D6F7665205AF4
:10189000004D6F76652059004D6F76652058004DDC
:1018A0006F76652041786973004D6F766520302E24
:1018B000316D6D004D6F766520316D6D004D6F7629
:1018C000652031306D6D0050726570617265004D3C
:1018D0006F76652041786973004D38300053776921
:1018E00074636820506F776572204F6E004D3831F9
:1018F0000053776974636820506F776572204F6674
:101900006600436F6F6C646F776E00507265686538
:1019100061742041425300507265686561742050C3
:101920004C4100473238004175746F20486F6D6537
:10193000004D38340044697361626C6520537465EE
:101940007070657273004D61696E005049442D439B
:10195000005049442D43005049442D44005049440F
:101960002D44005049442D49005049442D49005010
:1019700049442D50005049442D500020022046611A
:1019800063740020022046616374002002204D61D0
:1019900078002002204D6178002002204D696E0001
:1019A0002002204D696E004F6666004F6E20004F8A
:1019B0006666004F6E20004175746F74656D70002F
:1019C00046616E2073706565640046616E207370B9
:1019D0006565640042656400426564004E6F7A7A12
:1019E0006C6533004E6F7A7A6C6533004E6F7A7A8D
:1019F0006C6532004E6F7A7A6C6532004E6F7A7A7F
:101A00006C65004E6F7A7A6C6500436F6E74726F0E
:101A10006C00526573746F7265204661696C736106
:101A20006665004C6F6164206D656D6F727900535F
:101A3000746F7265206D656D6F72790054656D709D
:101A400065726174757265004D61696E004D383460
:101A500020582059205A2045004D3234004D323351
:101A600020257300052E2E0004526566726573688A
:101A7000004D61696E004D323100496E69742E204F
:101A800053442D43617264004E6F204361726400C1
:101A90004D3231004368616E67652053442D4361C8
:101AA0007264005072696E742066726F6D205344C8
:101AB0000053746F70205072696E740052657375B4
:101AC0006D65205072696E740050617573652050A9
:101AD00072696E7400436F6E74726F6C0050726541
:101AE000706172650054756E6500496E666F207393
:101AF000637265656E0001290229042908291029ED
:101B0000202940298029012C022C012602260426A6
:101B100008261026202640268026402C802C0123D3
:101B200002230423082310232023402380230120A1
:101B30000220042008201020202040208020102C8B
:101B4000202C012F022F042F082F102F202F402F81
:101B5000802F7EFE7EFD7EFB7EF77EEF7EDF7EBFEA
:101B60007E7F00010000131C1200020000D01B4306
:101B700000030000CC1B0401030904B21B1802037C
:101B800009049A1B16030309048C1B0C0C03310077
:101B900032003300340035000000160355005300B6
:101BA00042002000530065007200690061006C0073
:101BB000000018035400650065006E007300790092
:101BC0006400750069006E006F00000004030904E2
:101BD00009024300020100C03209040000010202B0
:101BE000010005240010010524010001042402065F
:101BF00005240600010705820308004009040100CE
:101C0000020A0000000705030240000007058402E5
:101C10004000001201000202000020C016830400F0
:101C200001010203010001C1020180360181364E2B
:101C3000414E494E495459494E46CDCCCC3D0AD728
:101C4000233C17B7D13877CC2B329595E6241FB1BA
:101C50004F0A000020410000C84200401C4620BC42
:101C6000BE4CCA1B0E5AAEC59D748B221981C0A2F0
:101C700024BFFCC3932211241FBECFEFD0E2DEBFEE
:101C8000CDBF13E0A0E0B1E0E8EBF2EA01E00BBF6A
:101C900002C007900D92AE3FB107D9F722E1AEEF37
:101CA000B3E001C01D92A632B207E1F71CE1C4E720
:101CB000DCE100E006C022970109FE010BBF0E9493
:101CC00096C6CA36D10780E00807A9F70E9486B7F2
:101CD0000C944AD10C940000DB010D900020E9F730
:101CE000AD0141505109461B570BDC01ED91FC91B0
:101CF0000280F381E02D0994CF93DF931F92CDB73B
:101D0000DEB76983DC01ED91FC910280F381E02D67
:101D100041E050E0BE016F5F7F4F09950F90DF916A
:101D2000CF910895EF92FF920F931F93CF93DF937C
:101D30001F92CDB7DEB78C017B01460FF701619191
:101D40007F01F8018081918149830E9493D0F8013D
:101D50008081918101969183808349814E11EECFDC
:101D60000F90DF91CF911F910F91FF90EF90089509
:101D7000EF92FF920F931F93CF93DF931F92CDB7F4
:101D8000DEB78C017B01460FF80180819181498388
:101D90000E948BD0F70181937F01F80180819181AE
:101DA00001969183808349814E11EECF0F90DF9190
:101DB000CF911F910F91FF90EF9008950F931F9374
:101DC000CF93DF93CDB7DEB72C970FB6F894DEBF75
:101DD0000FBECDBF80E390E3A0E3B0E08D839E8390
:101DE000AF83B88704E610E01C870B8744E0BE0190
:101DF0006B5F7F4FCE010B9695DF40E167EF7FE091
:101E0000CE010B968FDF40E167E070E1CE010B96CB
:101E100089DF40E167EE7FE0CE010B9683DF44E08F
:101E20006FED7FE0CE010B967DDF44E06BED7FE050
:101E3000CE010B9677DF44E063EE7FE0CE010B9698
:101E400071DF44E06BEC7FE0CE010B966BDF44E08A
:101E500067E170E1CE010B9665DF44E067ED7FE05E
:101E6000CE010B965FDF44E063ED7FE0CE010B9681
:101E700059DF44E06FEC7FE0CE010B9653DF4CE07E
:101E800060E176E0CE010B964DDF42E06BE471E15C
:101E9000CE010B9647DF42E069E471E1CE010B967B
:101EA00041DF42E067E471E1CE010B963BDF42E0A7
:101EB00065E471E1CE010B9635DF42E063E471E148
:101EC000CE010B962FDF42E061E471E1CE010B966B
:101ED00029DF44E064E071E0CE010B9623DF44E0AB
:101EE00068E071E0CE010B961DDF44E06CE071E02C
:101EF000CE010B9617DF44E062E971E0CE010B964C
:101F000011DF44E06EE871E0CE010B960BDF44E098
:101F10006AE871E0CE010B9605DF80E290E09A87D7
:101F2000898742E0BE01675F7F4FCE010B96FADEE4
:101F300044E06FEF73E0CE010B96F4DE44E060E125
:101F400071E0CE010B96EEDE44E063E074E0CE017A
:101F50000B96E8DE44E064E171E0CE010B96E2DE30
:101F600044E067E074E0CE010B96DCDE44E068E11B
:101F700071E0CE010B96D6DE86E591E3A2E3B0E0F8
:101F800089839A83AB83BC831C870B8744E0BE01A3
:101F90006F5F7F4FCE010B96C5DEEAEBF3E06491F5
:101FA0008F01662341F08CE591E1A6DE0F5F1F4FA4
:101FB000F8016491F6CFEAEAF3E064918F016623B9
:101FC00041F08CE591E198DE0F5F1F4FF8016491BD
:101FD000F6CF6AE08CE591E18FDE2C960FB6F8948F
:101FE000DEBF0FBECDBFDF91CF911F910F9108953E
:101FF0000F931F93CF93DF93CAEBD3E0FE0164915D
:102000008E01662341F08CE591E176DE0F5F1F4F74
:10201000F8016491F6CFEAE9F3E064918F01662359
:1020200041F08CE591E168DE0F5F1F4FF80164918C
:10203000F6CF6AE08CE591E15FDEFE0164910AEB88
:1020400013E0662341F08CE591E156DE0F5F1F4FF0
:10205000F8016491F6CF4091F70F5091F80F60911D
:10206000F90F7091FA0F82E993E00E94C41A40912F
:10207000FB0F5091FC0F6091FD0F7091FE0F8FE8E8
:1020800093E00E94C41A4091FF0F5091001060919C
:102090000110709102108CE893E00E94C41A4091E4
:1020A000031050910410609105107091061089E89A
:1020B00093E00E94C41A62E973E08CE591E10CDEC2
:1020C0006AE08CE591E118DEFE0164910AEB13E011
:1020D000662341F08CE591E10FDE0F5F1F4FF801A1
:1020E0006491F6CFEFE6F3E064918F01662341F04F
:1020F0008CE591E101DE0F5F1F4FF8016491F6CF8F
:102100006AE08CE591E1F8DDFE0164910AEB13E0F1
:10211000662341F08CE591E1EFDD0F5F1F4FF80181
:102120006491F6CF4091071050910810609109100A
:1021300070910A1086E693E00E94C41A40910B1039
:1021400050910C1060910D1070910E1083E693E089
:102150000E94C41A40910F105091101060911110FC
:102160007091121080E693E00E94C41A40911310FF
:102170005091141060911510709116108DE593E038
:102180000E94C41A62E973E08CE591E1A5DD6AE082
:102190008CE591E1B1DDFE0164910AEB13E0662369
:1021A00041F08CE591E1A8DD0F5F1F4FF8016491CC
:1021B000F6CFEFE3F3E064918F01662341F08CE505
:1021C00091E19ADD0F5F1F4FF8016491F6CF6AE04D
:1021D0008CE591E191DDFE0164910AEB13E0662349
:1021E00041F08CE591E188DD0F5F1F4FF8016491AC
:1021F000F6CF4091E70F5091E80F6091E90F709191
:10220000EA0F86E393E00E94041B4091EB0F50918C
:10221000EC0F6091ED0F7091EE0F83E393E00E945D
:10222000041B4091EF0F5091F00F6091F10F7091EE
:10223000F20F80E393E00E94041B4091F30F509152
:10224000F40F6091F50F7091F60F8DE293E00E940C
:10225000041B62E973E08CE591E13EDD6AE08CE508
:1022600091E14ADDFE0164910AEB13E0662341F03F
:102270008CE591E141DD0F5F1F4FF8016491F6CFCE
:10228000E8EFF2E064918F01662341F08CE591E183
:1022900033DD0F5F1F4FF8016491F6CF6AE08CE5E4
:1022A00091E12ADDFE0164910AEB13E0662341F01F
:1022B0008CE591E121DD0F5F1F4FF8016491F6CFAE
:1022C0004091DF0F5091E00F6091E10F7091E20FAC
:1022D0008FEE92E00E94C41A4091DB0F5091DC0F08
:1022E0006091DD0F7091DE0F8CEE92E00E94C41AB7
:1022F00062E973E08CE591E1EFDC6AE08CE591E165
:10230000FBDCFE0164910AEB13E0662341F08CE5EF
:1023100091E1F2DC0F5F1F4FF8016491F6CFE9E322
:10232000F2E064918F01662341F08CE591E1E4DCF9
:102330000F5F1F4FF8016491F6CF6AE08CE591E1E1
:10234000DBDCFE0164910AEB13E0662341F08CE5CF
:1023500091E1D2DC0F5F1F4FF8016491F6CF4091FD
:10236000E30F5091E40F6091E50F7091E60F80E369
:1023700092E00E94C41A4091CB0F5091CC0F609113
:10238000CD0F7091CE0F8DE292E00E94C41A409161
:102390001710509118106091191070911A108AE25C
:1023A00092E00E94041B4091D70F5091D80F60918A
:1023B000D90F7091DA0F87E292E00E94C41A40911F
:1023C000D30F5091D40F6091D50F7091D60F84E246
:1023D00092E00E94C41A4091CF0F5091D00F6091AB
:1023E000D10F7091D20F81E292E00E94C41A62E98B
:1023F00073E08CE591E170DC6AE08CE591E17CDCD6
:10240000FE0164910AEB13E0662341F08CE591E153
:1024100073DC0F5F1F4FF8016491F6CFEFE0F2E03D
:1024200064918F01662341F08CE591E165DC0F5FDB
:102430001F4FF8016491F6CF6AE08CE591E15CDC16
:10244000FE0164910AEB13E0662341F08CE591E113
:1024500053DC0F5F1F4FF8016491F6CF40911006D7
:1024600050911106609112067091130686E092E079
:102470000E94C41A409114065091150660911606E8
:102480007091170683E092E00E94C41A40911806EA
:102490005091190660911A0670911B0680E092E037
:1024A0000E94C41A62E973E08CE591E115DC6AE0F0
:1024B0008CE591E121DCFE0164910AEB13E06623D7
:1024C00041F08CE591E118DC0F5F1F4FF80164913A
:1024D000F6CFE2EFF1E064918F01662341F08CE5E5
:1024E00091E10ADC0F5F1F4FF8016491F6CF6AE0BB
:1024F0008CE591E101DCFE0164910AEB13E06623B7
:1025000041F08CE591E1F8DB0F5F1F4FF80164911A
:10251000F6CF409192015091930160919401709196
:10252000950188EE91E00E94C41A60918E0170912D
:102530008F0180919001909191010E94788CAB0164
:10254000BC0185EE91E00E94C41A60918A017091ED
:102550008B0180918C0190918D010E94848CAB0144
:10256000BC0182EE91E00E94C41A62E973E08CE53E
:1025700091E1B2DB6AE08CE591E1BEDBFE016491A2
:102580000AEB13E0662341F08CE591E1B5DB0F5FC8
:102590001F4FF8016491F6CFEFECF1E064918F01E9
:1025A000662341F08CE591E1A7DB0F5F1F4FF80137
:1025B0006491F6CF6AE08CE591E19EDBFE016491C7
:1025C0000AEB13E0662341F08CE591E195DB0F5FA8
:1025D0001F4FF8016491F6CF4091FF035091000422
:1025E000609101047091020486EC91E0CDD7409196
:1025F000030450910404609105047091060483EC77
:1026000091E0C2D7409107045091080460910904F9
:1026100070910A0480EC91E0B7D762E973E08CE531
:1026200091E15ADB6AE08CE591E166DBFE016491A1
:102630000AEB13E0662341F08CE591E15DDB0F5F6F
:102640001F4FF8016491F6CFEDEAF1E064918F013C
:10265000662341F08CE591E14FDB0F5F1F4FF801DE
:102660006491F6CF6AE08CE591E146DBFE0164916E
:102670000AEB13E0662341F08CE591E13DDB0F5F4F
:102680001F4FF8016491F6CF409110015091110154
:10269000609112017091130184EA91E075D7409125
:1026A000140150911501609116017091170181EA92
:1026B00091E06AD7409118015091190160911A0177
:1026C00070911B018EE991E05FD762E973E08CE5C0
:1026D00091E102DB6AE08CE591E10EDBFE016491A1
:1026E0000AEB13E0662341F08CE591E105DB0F5F17
:1026F0001F4FF8016491F6CFE7E8F1E064918F0194
:10270000662341F08CE591E1F7DA0F5F1F4FF80186
:102710006491F6CF6AE08CE591E1EEDAFE01649116
:102720000AEB13E0662341F08CE591E1E5DA0F5FF7
:102730001F4FF8016491F6CF4091040150910501BB
:1027400060910601709107018EE791E01DD74091DD
:1027500008015091090160910A0170910B018BE70A
:1027600091E012D740910C0150910D0160910E0142
:1027700070910F0188E791E007D762E973E08CE57B
:1027800091E1AADA6AE08CE591E1DF91CF911F91A6
:102790000F91B2CAAF92BF92CF92DF92EF92FF92A7
:1027A0000F931F93CF93DF93CDB7DEB7E0970FB6AC
:1027B000F894DEBF0FBECDBF80E1EBEBF1E0DE01B0
:1027C000919601900D928A95E1F780E1EBECF1E0B2
:1027D000DE01519601900D928A95E1F780E1EBEDD3
:1027E000F1E0DE01119601900D928A95E1F76E01FC
:1027F00081E2C80ED11C87EFE82E8FE0F82E8E0103
:102800000F5E1F4F67E070E1AE014F5F5F4F97EEC5
:10281000A92E9FE0B92E20E030E0F6018191919140
:10282000A191B1916F01F70181939193A193B1931C
:102830007F01F80181919191A191B1918F01FB01EB
:1028400081939193A193B193BF01FA0181919191E9
:10285000A191B191AF01F50181939193A193B193AE
:102860005F012F5F3F4F24303105B9F60E94B376E8
:1028700080E090E8ABE3B5E48093DF0F9093E00F46
:10288000A093E10FB093E20F8093DB0F9093DC0FE6
:10289000A093DD0FB093DE0F1092E30F1092E40FC0
:1028A0001092E50F1092E60F80E29EE4A0E0B0E007
:1028B0008093171090931810A0931910B0931A10CA
:1028C0001092CB0F1092CC0F1092CD0F1092CE0F12
:1028D00080E090E0A0EAB1E48093D70F9093D80F06
:1028E000A093D90FB093DA0F4DEC5CEC6CEC7EE367
:1028F0004093D30F5093D40F6093D50F7093D60F9E
:1029000040E050E060EA70E44093CF0F5093D00F66
:102910006093D10F7093D20F10921806109219067F
:1029200010921A0610921B061092140610921506A9
:1029300010921606109217061092100610921106A9
:10294000109212061092130624EB30E030934C11D3
:1029500020934B1126E430E030934A112093491123
:102960002FEF30E0309348112093471140EF50E0B3
:10297000509346114093451144E650E05093441162
:1029800040934311309342112093411180930401ED
:1029900090930501A0930601B093070110920801DE
:1029A0001092090110920A0110920B0110920C0171
:1029B00010920D0110920E0110920F018AE999E90F
:1029C000A1EBB1E48093920190939301A0939401C1
:1029D000B093950161E77DE38AE89FE30E94728CE2
:1029E00060938E0170938F01809390019093910179
:1029F00060E070E084EE92E40E947E8C60938A0135
:102A000070938B0180938C0190938D010E94B3820F
:102A100080E090E0A0E8BFE3809386019093870177
:102A2000A0938801B09389011092FF0310920004D3
:102A300010920104109202041092030410920404F4
:102A400010920504109206041092070410920804D4
:102A50001092090410920A0480E090E0A8E1B3E427
:102A60008093100190931101A0931201B093130170
:102A70008093140190931501A0931601B093170150
:102A80008093180190931901A0931A01B0931B0130
:102A9000EAEBF3E064918F01662341F08CE591E16C
:102AA0002BD90F5F1F4FF8016491F6CFECE3F1E0F3
:102AB00064918F01662341F08CE591E11DD90F5F90
:102AC0001F4FF8016491F6CF6AE08CE591E1E09642
:102AD0000FB6F894DEBF0FBECDBFDF91CF911F912F
:102AE0000F91FF90EF90DF90CF90BF90AF9004C90F
:102AF0000F931F93CF93DF93CDB7DEB72C970FB60D
:102B0000F894DEBF0FBECDBF84E690E09C878B8734
:102B100086E591E3A2E3B0E089839A83AB83BC832B
:102B200044E0BE016B5F7F4FCE010B9621D943E09D
:102B300050E0BE016B5F7F4FCE0101960E9452CEE6
:102B4000892B09F0E1C040E167EF7FE0CE010B96F1
:102B50000FD940E167E070E1CE010B9609D940E161
:102B600067EE7FE0CE010B9603D90E94B37644E076
:102B70006FED7FE0CE010B96FBD844E06BED7FE07C
:102B8000CE010B96F5D844E063EE7FE0CE010B96C4
:102B9000EFD844E06BEC7FE0CE010B96E9D844E03F
:102BA00067E170E1CE010B96E3D844E067ED7FE08A
:102BB000CE010B96DDD844E063ED7FE0CE010B96AD
:102BC000D7D844E06FEC7FE0CE010B96D1D84CE033
:102BD00060E176E0CE010B96CBD842E06BE471E188
:102BE000CE010B96C5D842E069E471E1CE010B96A7
:102BF000BFD842E067E471E1CE010B96B9D842E05C
:102C000065E471E1CE010B96B3D842E063E471E173
:102C1000CE010B96ADD842E061E471E1CE010B9696
:102C2000A7D844E064E071E0CE010B96A1D844E05F
:102C300068E071E0CE010B969BD844E06CE071E057
:102C4000CE010B9695D844E062E971E0CE010B9677
:102C50008FD844E06EE871E0CE010B9689D844E04D
:102C60006AE871E0CE010B9683D842E0BE01675F4F
:102C70007F4FCE010B967CD844E06FEF73E0CE011E
:102C80000B9676D844E060E171E0CE010B9670D8E7
:102C900044E063E074E0CE010B966AD844E064E15E
:102CA00071E0CE010B9664D844E067E074E0CE0199
:102CB0000B965ED844E068E171E0CE010B9658D8DF
:102CC0000E94B382EAEBF3E064918F01662341F046
:102CD0008CE591E111D80F5F1F4FF8016491F6CF99
:102CE000EEE5F1E064918F01662341F08CE591E11E
:102CF00003D80F5F1F4FF8016491F6CF6AE08CE5AF
:102D000091E10E947C0E02C045DD58D871D92C9605
:102D10000FB6F894DEBF0FBECDBFDF91CF911F91EC
:102D20000F9108958091210190912201A09123019A
:102D3000B09124018093D0059093D105A093D20542
:102D4000B093D305809135019091360190932D0673
:102D500080932C0684E690E09093360180933501B1
:102D60000FB6F8948091511190915211A091531186
:102D7000B09154110FBE80932F0490933004A09310
:102D80003104B093320481E00C94117880E00E9409
:102D900011788091D0059091D105A091D205B09184
:102DA000D3058093210190932201A0932301B09336
:102DB000240180912C0690912D06909336018093EA
:102DC00035010FB6F8948091511190915211A09154
:102DD0005311B09154110FBE80932F04909330047F
:102DE000A0933104B093320408954F925F926F9292
:102DF0007F928F929F92AF92BF92CF92DF92EF928B
:102E0000FF920F931F9340902101509022016090F8
:102E1000230170902401812CE0E49E2EECE9AE2E7B
:102E2000E5E4BE2E8092210190922201A09223011E
:102E3000B092240160931C0670931D0680931E06B9
:102E400090931F062093200630932106409322067C
:102E500050932306E0922406F0922506009326065E
:102E600010932706E0E0F6E0FF93EF93FBEA8F2E46
:102E7000FAEA9F2EF6EAAF2EF2E4BF2EA8E2CA2E9F
:102E8000A6E0DA2E0E943A6B0E94A87E40922101B1
:102E90005092220160922301709224010F900F90B2
:102EA0001F910F91FF90EF90DF90CF90BF90AF9068
:102EB0009F908F907F906F905F904F9008954F926A
:102EC0005F926F927F928F929F92AF92BF92CF92BA
:102ED000DF92EF92FF920F931F93CF93DF9387E5DB
:102EE00091E00E9467B460913F0170914001809130
:102EF00041019091420160932101709322018093DE
:102F000023019093240120E030E040E752E40E9446
:102F10008AC74B015C01B0E26B2EB6E07B2EF30159
:102F20002081318142815381CCE1D6E06881798171
:102F30008A819B81E0E0F6E0FF93EF9318E2C12ED7
:102F400016E0D12EE12CF12C00E211EC0E943A6B3C
:102F50000E94A87E82E00E94107F4B015C01F30179
:102F60002081318142815381688179818A819B816D
:102F7000850174010E94A575C5E2D9E0FE01259185
:102F8000359145915491C501B4010E94AAC62B0107
:102F90003C0120E030E040E752E460912101709173
:102FA000220180912301909124010E948AC74B0144
:102FB0005C0120912006309121064091220650911B
:102FC000230660911C0670911D0680911E0690914B
:102FD0001F06E0E0F6E0FF93EF93830172010E9489
:102FE0003A6B0E94A87E20E030E040E85EE360910A
:102FF0003F017091400180914101909142010E94F6
:1030000058CA609321017093220180932301909309
:103010002401FE01C590D590E590F49020E030E0C9
:1030200040E752E40E948AC74B015C01A701960168
:10303000C701B6010E94AAC69B01AC01C301B2013F
:103040000E94A9C67B018C01C0E2D6E028813981AB
:103050004A815B81FCE16F2EF6E07F2EF3016081F7
:10306000718182819381E0E0F6E0FF93EF93A8E223
:10307000CA2EA6E0DA2E0E943A6B0E94A87E82E059
:103080000E94107F7B018C016093240670932506BB
:103090008093260690932706288139814A815B8197
:1030A000F30160817181828193810E94A5750F90E7
:1030B0000F900F900F900F900F90DF91CF911F9175
:1030C0000F91FF90EF90DF90CF90BF90AF909F90C7
:1030D0008F907F906F905F904F9008952F923F92C6
:1030E0004F925F926F927F928F929F92AF92BF9218
:1030F000CF92DF92EF92FF920F931F93CF93DF93C4
:10310000CDB7DEB760970FB6F894DEBF0FBECDBF68
:103110009E878D87FC01E65EF64FB4903C01660CFD
:10312000771C660C771C9301245E394F388B2F87F0
:10313000F9011082118212821382E4E2F6E0E0804B
:10314000F18002811381E0E2F6E020813181428149
:103150005381ECE1F6E06081718182819381E8E244
:10316000CE2EE6E0DE2E0E94A5752091FF03309161
:10317000000440910104509102046091100170918B
:10318000110180911201909113010E94A9C66983D7
:103190007A838B839C8320910304309104044091B3
:1031A00005045091060460911401709115018091FD
:1031B0001601909117010E94A9C66D837E838F83AB
:1031C0009887209107043091080440910904509198
:1031D0000A04609118017091190180911A0190916F
:1031E0001B010E94A9C669877A878B879C87FE018D
:1031F000E60DF71DC180D280E380F4806B2D772728
:1032000067FD7095872F972F0E9425C81B012C0101
:1032100083010C511A4F20E030E040EC5FE3C7011E
:10322000B6010E9458CAA20191010E9458CAF80131
:103230006083718382839383F301E95CFE4F608135
:103240007181828193816093210170932201809327
:1032500023019093240120E030E040E752E40E94F3
:103260008AC74B015C01E090EC05F090ED05009100
:10327000EE051091EF052091E8053091E9054091A8
:10328000EA055091EB056091E4057091E5058091A8
:10329000E6059091E705E0E0F6E0FF93EF93F0EFAD
:1032A000CF2EF5E0DF2E0E943A6B0E94A87EEF85BC
:1032B000F8891082118212821382E4E2F6E0E08043
:1032C000F18002811381E0E2F6E0208131814281C8
:1032D0005381ECE1F6E06081718182819381A8E203
:1032E000CA2EA6E0DA2E0E94A5759301235E364F02
:1032F0003901F90185919591A591B4910D851E85AE
:10330000000F111F000F111F0C511A4FBC01CD01EE
:103310009058A20191010E9458CAF80160837183FC
:103320008283938320E030E040E752E46091210102
:103330007091220180912301909124010E948AC7FB
:103340004B015C01E090EC05F090ED050091EE057D
:103350001091EF052091E8053091E9054091EA05CB
:103360005091EB056091E4057091E5058091E605CB
:103370009091E705E0E0F6E0FF93EF93E0EFCE2ECB
:10338000E5E0DE2E0E943A6B0E94A87EF301659173
:103390007591859194916D847E84660C771C660C82
:1033A000771C93012C513A4F388B2F879B01AC012E
:1033B0000E94AAC6A20191010E9458CAEF85F8890D
:1033C0006083718382839383F301E95CFE4F20E085
:1033D00030E040E05FE360817181828193810E94EF
:1033E00058CA609321017093220180932301909326
:1033F000240120E030E040E752E40E948AC74B01FC
:103400005C01E090EC05F090ED050091EE05109167
:10341000EF052091E8053091E9054091EA055091CA
:10342000EB056091E4057091E5058091E6059091CA
:10343000E705E0E0F6E0FF93EF930E943A6B0E940D
:10344000A87E8091FF0390910004A0910104B091A7
:10345000020489839A83AB83BC8380911401909189
:103460001501A0911601B09117018D839E83AF8342
:10347000B8878091070490910804A0910904B09145
:103480000A0489879A87AB87BC87FE01E60DF71D82
:103490006181728183819481F301E05FF94FC08083
:1034A000D180E280F380A70196010E94AAC64B0159
:1034B0005C01F301E45EF94F60837183828393833F
:1034C00083010C5F194FF301E150FC4FA7019601F6
:1034D00060817181828193810E94AAC6F801608314
:1034E0007183828393838301095D1E4FF301E05F43
:1034F000FE4FA701960160817181828193810E94B4
:10350000AAC6F8016083718382839383EF85F8896B
:1035100080829182A282B3821092210110922201B4
:1035200010922301109224010E940678ED85FE85F9
:10353000EF5FF94F81E080830F900F900F900F9015
:103540000F900F9060960FB6F894DEBF0FBECDBF00
:10355000DF91CF911F910F91FF90EF90DF90CF906F
:10356000BF90AF909F908F907F906F905F904F90A3
:103570003F902F900895AB01662757FD6095762FF9
:103580000C948EB60C94D3B6CF92DF92EF92FF924A
:10359000CF93DF93EC016A017B01FE016491662306
:1035A00031F08CE591E10E947C0E2196F6CF22E06D
:1035B00030E0B701A6018CE591E1DF91CF91FF905A
:1035C000EF90DF90CF90DECFCF92DF92EF92FF921D
:1035D000CF93DF93EC016A017B01FE0164916623C6
:1035E00031F08CE591E10E947C0E2196F6CF22E02D
:1035F00030E0B701A6018CE591E1DF91CF91FF901A
:10360000EF90DF90CF90BECFCF92DF92EF92FF92FC
:10361000CF93DF93EC016A017B01FE016491662385
:1036200031F08CE591E10E947C0E2196F6CF20E0EE
:10363000B701A6018CE591E1DF91CF91FF90EF906A
:10364000DF90CF900C9432B6CF93DF9300D0CDB7FC
:10365000DEB780914E1190914F119E012F5F3F4F29
:10366000009719F42652324102C0281B390B3A83C5
:10367000298389819A810F900F90DF91CF910895CE
:10368000CF93DF932091390430913A0424303105EF
:103690000CF065C040913B0450913C0460E6649F8F
:1036A0009001659F300D1124BC01C9018D5B9B4FBA
:1036B0000E944BCEE9E2F9E06491EF01662341F00C
:1036C0008CE591E10E947C0E2196FE016491F6CF7B
:1036D000EFE0F9E06491EF01662341F08CE591E1C0
:1036E0000E947C0E2196FE016491F6CF80913B04EE
:1036F00090913C0420E6289FB001299F700D112471
:103700006D5B7B4F8CE591E10E946C0EEDE0F9E082
:103710006491EF01662341F08CE591E10E947C0EFB
:103720002196FE016491F6CF6AE08CE591E10E945A
:103730007C0E80913B0490913C04019664E070E023
:103740000E942FC690933C0480933B0480913904DF
:1037500090913A04019690933A0480933904DF9152
:10376000CF910895CF93DF932091390430913A049B
:10377000243031050CF065C040913B0450913C046D
:1037800060E6649F9001659F300D1124BC01C90162
:103790008D5B9B4F0E94C7CDE9E2F9E06491EF0198
:1037A000662341F08CE591E10E947C0E2196FE019A
:1037B0006491F6CFE2E0F9E06491EF01662341F015
:1037C0008CE591E10E947C0E2196FE016491F6CF7A
:1037D00080913B0490913C0420E6289FB001299FF2
:1037E000700D11246D5B7B4F8CE591E10E946C0E96
:1037F000E0E0F9E06491EF01662341F08CE591E1AE
:103800000E947C0E2196FE016491F6CF6AE08CE561
:1038100091E10E947C0E80913B0490913C040196C2
:1038200064E070E00E942FC690933C0480933B04B8
:103830008091390490913A04019690933A048093D0
:103840003904DF91CF910895FF920F931F93CF9387
:10385000DF9380E885BF85BF40E950ED63E070E00D
:103860008CE591E10E94BCBEEAEFF8E06491EF01C3
:10387000662341F08CE591E10E947C0E2196FE01C9
:103880006491F6CF6AE08CE591E10E947C0EC9E27A
:10389000D9E0FE0164918E01662349F08CE591E147
:1038A0000E947C0E0F5F1F4FF8016491F5CFF4B6B4
:1038B000F0FE14C0E2EFF8E064918F01662349F056
:1038C0008CE591E10E947C0E0F5F1F4FF80164911F
:1038D000F5CF6AE08CE591E10E947C0EF1FE14C008
:1038E000E2EEF8E064918F01662349F08CE591E106
:1038F0000E947C0E0F5F1F4FF8016491F5CF6AE0C4
:103900008CE591E10E947C0EF2FE14C0E1EDF8E03E
:1039100064918F01662349F08CE591E10E947C0E51
:103920000F5F1F4FF8016491F5CF6AE08CE591E1DC
:103930000E947C0EF3FE14C0E1ECF8E064918F016C
:10394000662349F08CE591E10E947C0E0F5F1F4FCA
:10395000F8016491F5CF6AE08CE591E10E947C0E5C
:10396000F5FE14C0E1EBF8E064918F01662349F0A5
:103970008CE591E10E947C0E0F5F1F4FF80164916E
:10398000F5CF6AE08CE591E10E947C0E14BEE9EA75
:10399000F8E064918F01662349F08CE591E10E9483
:1039A0007C0E0F5F1F4FF8016491F5CFE3EAF8E05A
:1039B00064918F01662349F08CE591E10E947C0EB1
:1039C0000F5F1F4FF8016491F5CF6AE08CE591E13C
:1039D0000E947C0EFE01649109E219E0662349F021
:1039E0008CE591E10E947C0E0F5F1F4FF8016491FE
:1039F000F5CFE3E9F8E064918F01662349F08CE5A7
:103A000091E10E947C0E0F5F1F4FF8016491F5CF8A
:103A1000EEE7F8E064918F01662349F08CE591E1CF
:103A20000E947C0E0F5F1F4FF8016491F5CFE2E713
:103A3000F8E064918F01662349F08CE591E10E94E2
:103A40007C0E0F5F1F4FF8016491F5CFE8E6F8E0B8
:103A500064918F01662349F08CE591E10E947C0E10
:103A60000F5F1F4FF8016491F5CF6AE08CE591E19B
:103A70000E947C0EEDE5F8E064918F01662349F029
:103A80008CE591E10E947C0E0F5F1F4FF80164915D
:103A9000F5CFE1E5F8E064918F01662349F08CE50C
:103AA00091E10E947C0E0F5F1F4FF8016491F5CFEA
:103AB0006AE08CE591E10E947C0EFE01649109E2CE
:103AC00019E0662349F08CE591E10E947C0E0F5FBE
:103AD0001F4FF8016491F5CFE2E4F8E06491EF0143
:103AE000662341F08CE591E10E947C0E2196FE0157
:103AF0006491F6CFA9DDBC018CE591E13CDDEBE200
:103B0000F8E06491EF01662341F08CE591E10E94B9
:103B10007C0E2196FE016491F6CF60ED74E08CE599
:103B200091E129DD6AE08CE591E10E947C0E109222
:103B30003F041092400410924104109242040E94EB
:103B400078150E9424850E94CD690E94A5800E945C
:103B50004C7E0E94819CFFEF23ED80E3F1502040DA
:103B60008040E1F700C00000DF91CF911F910F91DD
:103B7000FF900895809133049091340460E070E0E8
:103B800001960C941ECB80913304909134044AE04A
:103B900050E060E070E001960C9486CC682F7727A7
:103BA00067FD709520913D0430913E0440E6429FB0
:103BB000C001439F900D11248D5B9B4F0E9440CE0E
:103BC000909334048093330421E0892B09F420E09E
:103BD000822F0895CF93DF930FB6F89480915111FF
:103BE00090915211A0915311B09154110FBE809336
:103BF0002F0490933004A0933104B0933204E091E9
:103C00003D04F0913E04E15CFB4F8081811115C0C1
:103C1000E8E6F4E06491EF01662341F08CE591E180
:103C20000E947C0E2196FE016491F6CF6AE08CE53D
:103C300091E1DF91CF910C947C0EDF91CF910895AB
:103C40008F929F92AF92BF92CF92DF92EF92FF92AC
:103C50000F931F93CF93DF93A0E6EA2EA3E0FA2EF3
:103C60000CE116E0C4EED5E0BEE2CB2EB6E0DB2ED2
:103C7000F70181917F0192DF882311F17BDF4B01F6
:103C80005C01F6018081811103C06091C30501C010
:103C900061E070E080E090E00E9425C8F80120819A
:103CA0003181428153810E9458CA9B01AC01C501F8
:103CB000B4010E94AAC6688379838A839B8309C062
:103CC000F80180819181A281B38188839983AA833D
:103CD000BB830C5F1F4F2496FFEFCF1ADF0A84E6E9
:103CE000E81683E0F80621F686E458DF8823D1F051
:103CF00041DF6B017C016093D4057093D5058093FF
:103D0000D6059093D70520E030E0A9010E9486C92E
:103D1000181644F4C0922101D0922201E0922301AE
:103D2000F0922401DF91CF911F910F91FF90EF90BE
:103D3000DF90CF90BF90AF909F908F90089580DFDD
:103D400089E42CDF882351F015DF6093D805709348
:103D5000D9058093DA059093DB0508C01092D80549
:103D60001092D9051092DA051092DB058AE416DF6D
:103D7000882351F0FFDE6093DC057093DD058093AE
:103D8000DE059093DF0508951092DC051092DD05A5
:103D90001092DE051092DF050895CF92DF92EF9228
:103DA000FF92CF93DF93EC01C0900406D0900506FC
:103DB000E0900606F0900706A701960168817981D8
:103DC0008A819B810E9483C787FF04C0C882D982F1
:103DD000EA82FB82C0900806D0900906E0900A06AD
:103DE000F0900B06A70196016C817D818E819F81E9
:103DF0000E9483C787FF04C0CC82DD82EE82FF82EF
:103E0000C0900C06D0900D06E0900E06F0900F06C4
:103E1000A7019601688579858A859B850E9483C75D
:103E200087FF04C0C886D986EA86FB86C090270132
:103E3000D0902801E0902901F0902A01A701960175
:103E4000688179818A819B810E9486C9181624F431
:103E5000C882D982EA82FB82C0902B01D0902C01CB
:103E6000E0902D01F0902E01A70196016C817D81DB
:103E70008E819F810E9486C9181624F4CC82DD822F
:103E8000EE82FF82C0902F01D0903001E09031018E
:103E9000F0903201A7019601688579858A859B8516
:103EA0000E9486C9181624F4C886D986EA86FB863D
:103EB000DF91CF91FF90EF90DF90CF9008954F92D8
:103EC0005F926F927F928F929F92AF92BF92CF92AA
:103ED000DF92EF92FF920F931F93CF93DF93CDB7B3
:103EE000DEB728970FB6F894DEBF0FBECDBF84EEC5
:103EF00095E053DF0FB6F8948091511190915211D3
:103F0000A0915311B09154110FBE80932F04909340
:103F10003004A0933104B09332042091E405309131
:103F2000E5054091E6055091E70529833A834B83E7
:103F30005C8360911C0670911D0680911E06909115
:103F40001F060E9483C74090E8055090E9056090E5
:103F5000EA057090EB052091EC053091ED0540915C
:103F6000EE055091EF052D833E834F8358878111D5
:103F70008BC0A3019201609120067091210680916F
:103F80002206909123060E9483C781117DC020E004
:103F900030E040E752E4609121017091220180916C
:103FA0002301909124010E948AC74B015C0180E0AB
:103FB00096E09F938F9310EFC12E15E0D12EED80E8
:103FC000FE800F811885A301920169817A818B811E
:103FD0009C810E943A6B0F900F908091E405909124
:103FE000E505A091E605B091E70580931C06909346
:103FF0001D06A0931E06B0931F068091E8059091C0
:10400000E905A091EA05B091EB0580932006909315
:104010002106A0932206B09323068091EC0590918F
:10402000ED05A091EE05B091EF05809324069093E5
:104030002506A0932606B09327068091F00590915F
:10404000F105A091F205B091F305809328069093B5
:104050002906A0932A06B0932B0628960FB6F8944B
:10406000DEBF0FBECDBFDF91CF911F910F91FF90AB
:10407000EF90DF90CF90BF90AF909F908F907F9008
:104080006F905F904F900895609135017091360167
:10409000882777FD8095982F0E9425C820912101BF
:1040A0003091220140912301509124010E9458CA6D
:1040B00020E030E040E752E40E948AC720E030E090
:1040C00048EC52E470CFAF92BF92CF92DF92EF9262
:1040D000FF920F931F93CF93DF93D82F2091DC058E
:1040E0003091DD054091DE055091DF056091D805E6
:1040F0007091D9058091DA059091DB050E9493C9F2
:10410000C62F172F082FF92E6091350170913601B7
:10411000882777FD8095982F0E9425C8209121013E
:104120003091220140912301509124010E9458CAEC
:1041300020E030E040E752E40E948AC720E030E00F
:1041400048EC52E40E948AC7209100062F93DF9327
:10415000FF920F931F93CF935B016C0102E0E02E5F
:1041600001E020E048ED55E064EE75E08CE196E07A
:104170000E94EC628091E4059091E505A091E6052E
:10418000B091E70580931C0690931D06A0931E0630
:10419000B0931F068091E8059091E905A091EA058A
:1041A000B091EB058093200690932106A093220600
:1041B000B09323068091EC059091ED05A091EE055A
:1041C000B091EF058093240690932506A0932606D0
:1041D000B09327068091F0059091F105A091F2052A
:1041E000B091F3058093280690932906A0932A06A0
:1041F000B0932B060FB6F894809151119091521103
:10420000A0915311B09154110FBE80932F0490933D
:104210003004A0933104B09332040F900F900F90AC
:104220000F900F900F90DF91CF911F910F91FF9002
:10423000EF90DF90CF90BF90AF900895F8940E94D8
:10424000C285779A10920106769A10920206479AD2
:1042500010920306439AEFE2F9E06491EF016623BE
:1042600041F08CE591E10E947C0E2196FE01649163
:10427000F6CFE9E4F4E06491EF01662341F08CE5C8
:1042800091E10E947C0E2196FE016491F6CF6AE0D6
:104290008CE591E10E947C0E80E494E00E94239CD6
:1042A000FFCF0F931F930FB6F89480915111909107
:1042B0005211A0915311B09154110FBE00912F04CF
:1042C00010913004209131043091320440912B043C
:1042D00050912C0460912D0470912E04801B910B41
:1042E000A20BB30B481759076A077B0728F4452B25
:1042F000462B472B09F0A2DF40911D0150911E0172
:1043000060911F01709120014115510561057105F2
:10431000D1F00FB6F8948091511190915211A09163
:104320005311B09154110FBE801B910BA20BB30B14
:10433000481759076A077B0730F49091C50A8091A6
:10434000C40A981721F01F910F910C94166B779A5D
:1043500010920106769A10920206479A109203066E
:10436000439AF1CFCF93DF930E94C28580912104BD
:1043700081113AC081E0809321048091C805909119
:10438000C905A091CA05B091CB058093C40590934F
:10439000C505A093C605B093C705EFE2F9E06491A7
:1043A000EF01662341F08CE591E10E947C0E21969D
:1043B000FE016491F6CFEAECF3E06491EF0166232D
:1043C00041F08CE591E10E947C0E2196FE01649102
:1043D000F6CF6AE08CE591E10E947C0E80EC93E0E0
:1043E000DF91CF910C94149CDF91CF91089580912F
:1043F000210408950F931F93CF93DF93EC018091D5
:1044000000068093220484E5C9DB811102C080E0AC
:1044100042C0B0DB0E94F7C7609322046623B9F361
:10442000E9E2F9E064918F01662349F08CE591E1BE
:104430000E947C0E0F5F1F4FF8016491F5CFC936C3
:10444000D10581F034F4C836D105A9F460E372E0F7
:104450000EC0CD36D10549F0CA3DD10561F465E7FE
:1044600072E005C067E472E002C06EE572E08CE5C0
:1044700091E10E946C0E4091220450E060E070E0F7
:1044800020E08CE591E10E9432B66AE08CE591E192
:104490000E947C0E81E0DF91CF911F910F910895D2
:1044A00028E633E0FC01318320832681222319F0A2
:1044B00003960C945A4C08950F931F93CF93DF9358
:1044C0008BE094E00E9453BF80EF97E0E9DF8FE933
:1044D00096E0892BB1F0C3EBD7E008E613E0FE01CC
:1044E0003697118300838881811106C06E9786E01C
:1044F000C738D807A1F705C0CE0103970E945A4CD0
:10450000F5CF81E896E0CCDF81E696E0DF91CF91B0
:104510001F910F91C5CF82E396E00E94FE558BE07C
:1045200094E00C947E55C8CFCF93DF938CE591E156
:104530000E9423BFEBE6F4E06491EF01662341F0B3
:104540008CE591E10E947C0E2196FE016491F6CFEC
:104550004091C8055091C9056091CA057091CB057D
:104560004F5F5F4F6F4F7F4F8CE591E10E948EB69A
:104570006AE08CE591E10E947C0EDF91CF912ACB1D
:104580002F923F924F925F926F927F928F929F9263
:10459000AF92BF92CF92DF92EF92FF920F931F9351
:1045A000CF93DF93CDB7DEB76E970FB6F894DEBF2B
:1045B0000FBECDBF50E6952E04E010E06EEEE62E65
:1045C00066E0F62E74E6C72E77E0D72E8824839413
:1045D0008CE591E10E9450BD181619063CF48091BB
:1045E000390490913A0404970CF448C08091340641
:1045F000882309F472C38091360490913704892B83
:1046000009F06BC38091390490913A04892B11F41D
:104610001092FE039CE3C92ED12CE12CF12C20E159
:10462000422E2EE0522E612C712C8E010F5F1F4FF7
:1046300080E6282E332433944091A8085091A9088D
:104640006091AA087091AB088091A0089091A10890
:10465000A091A208B091A308481759076A077B07E1
:1046600008F03BC38091390490913A0404970CF010
:1046700034C38091FE03811130C308C28CE591E1FF
:104680000E9489BD8093380420913604309137040C
:104690008A3061F08D3051F08A3321F490913504E5
:1046A000992321F02F3531050CF45FC12115310517
:1046B00009F479C180913B0490913C04989E50018B
:1046C000999EB00C1124F501E20FF31FED5BFB4F37
:1046D000108220913504211143C110923504FC0150
:1046E000E15CFB4F1082C5018D5B9B4F3C016EE48A
:1046F00070E00E9440CE009709F46EC0909334049D
:1047000080933304861997098A0D9B1D4AE050E077
:1047100060E070E08C5B9B4F0E9486CC6093CC0580
:104720007093CD058093CE059093CF054090C8053A
:104730005090C9056090CA057090CB05AFEF4A1A3A
:104740005A0A6A0A7A0AA0903B04B0903C046415A5
:1047500075058605970509F429C19A9CC0019B9CA3
:10476000900D11246DE078E08D5B9B4F0E94FECD93
:10477000892B09F01BC1EFE2F9E064918F016623F8
:1047800049F08CE591E10E947C0E0F5F1F4FF8010C
:104790006491F5CFEAEDF7E064918F01662349F06B
:1047A0008CE591E10E947C0E0F5F1F4FF801649130
:1047B000F5CF4091C8055091C9056091CA05709127
:1047C000CB058CE591E10E948EB66AE08CE591E123
:1047D0000E947C0EA9DE37C06AE270E0C3010E942D
:1047E00040CE892B09F444C0EFE2F9E064918F01D7
:1047F000662349F08CE591E10E947C0E0F5F1F4F0C
:10480000F8016491F5CFE7E6F7E064918F01662344
:1048100049F08CE591E10E947C0E0F5F1F4FF8017B
:104820006491F5CF4091C8055091C9056091CA05C2
:104830007091CB058CE591E10E948EB66AE08CE523
:1048400091E10E947C0E109237041092360445C20A
:104850008091CC059091CD05A091CE05B091CF056A
:104860008093C8059093C905A093CA05B093CB0562
:1048700080913B0490913C04989E5001999EB00C0D
:104880001124C5018D5B9B4F3C0167E470E00E94E1
:1048900040CE009709F44FC09093340480933304C2
:1048A000861997098A0D9B1D60E070E08C5B9B4F19
:1048B0000E941ECB0E94F2C76430710508F03BC015
:1048C0008091210481111CC080913206811133C076
:1048D000F601649144E6A42E47E0B42E662351F01D
:1048E0008CE591E10E947C0EFFEFAF1ABF0AF50143
:1048F0006491F4CF6AE08CE591E10E947C0E1BC0CC
:10490000F70164913EEEA32E36E0B32E662351F0FC
:104910008CE591E10E947C0EFFEFAF1ABF0AF50112
:104920006491F4CF6AE08CE591E10E947C0E84EE04
:1049300096E00E94149C80913B0490913C04019667
:10494000B8010E942FC690933C0480933B04809151
:10495000390490913A04019690933A048093390473
:10496000109237041092360433CE8B3311F48092B8
:1049700035049091350491112BCE40913B04509118
:104980003C04B9016F5F7F4F709337046093360426
:10499000949EF001959EF00D1124E20FF31FED5B44
:1049A000FB4F808315CE1092350497C19A9C30013D
:1049B0009B9C700C1124C3018D5B9B4F2C016AE200
:1049C00070E00E9440CE0097F9F4EFE2F9E06491C4
:1049D0008F01662349F08CE591E10E947C0E0F5F08
:1049E0001F4FF8016491F5CFE1E9F7E064918F0181
:1049F000662309F4DECE8CE591E10E947C0E0F5F08
:104A00001F4FF8016491F4CF20E0B12CF301E20FC5
:104A1000F11DED5BFB4F30813A3219F02F5FB32669
:104A2000F5CF909334048093330484199509860D4F
:104A3000971D60E070E08C5B9B4F0E941ECB0E9434
:104A4000F2C72B2D30E02617370709F401CFEFE22C
:104A5000F9E064918F01662349F08CE591E10E94B1
:104A60007C0E0F5F1F4FF8016491F5CFEBEBF7E081
:104A700064918F01662309F49CCE8CE591E10E943C
:104A80007C0E0F5F1F4FF8016491F4CF8091FB07FC
:104A90009091FC07A091FD07B091FE078093A808B4
:104AA0009093A908A093AA08B093AB0883EF97E06E
:104AB0000E94AE4A482F809338048A30B9F04D30B6
:104AC000A9F0433229F420913504222379F002C061
:104AD0004A33C9F320913604309137042F3531051C
:104AE0002CF48F3FFFEF9F0709F0D9C04091A80831
:104AF0005091A9086091AA087091AB088091A00814
:104B00009091A108A091A208B091A3084817590755
:104B10006A077B0708F489C0E1EDF6E064915F0164
:104B2000662351F08CE591E10E947C0EFFEFAF1AF5
:104B3000BF0AF5016491F4CF6AE08CE591E10E942F
:104B40007C0E0FB6F8948091511190915211A09162
:104B50005311B09154110FBE8093230490932404F9
:104B6000A0932504B0932604409127045091280473
:104B70006091290470912A044C015D01841A950A00
:104B8000A60AB70AC501B40128EE33E040E050E0C0
:104B90000E9442C649015A01CA01B901A701960102
:104BA0000E9442C6CA01B901A70196010E9442C6ED
:104BB0007F936F93C501B401A30192010E9442C685
:104BC0003F932F93ADEBB6E0BF93AF931F930F933B
:104BD0000E946FCEE9E2F9E064910FB6F894DEBF6F
:104BE0000FBECDBF5F01662351F08CE591E10E94BD
:104BF0007C0E9FEFA91AB90AF5016491F4CFB801B0
:104C00008CE591E10E946C0E6AE08CE591E10E94D6
:104C10007C0EC8010E94059C82E396E00E94E6603B
:104C200061E082E396E00E94475E8091380483321F
:104C300011F43092FE03209136043091370421158F
:104C4000310509F4B0CE80913B0490913C04289E3C
:104C5000F001299EF00D1124E20FF31FED5BFB4FD5
:104C60001082FC01E15CFB4F3082209139043091CD
:104C70003A042F5F3F4F30933A0420933904019652
:104C800064E070E00E942FC690933C0480933B0444
:104C9000109235041092370410923604CDCC4B3369
:104CA00011F430923504409135044111C1CC40914A
:104CB0003B0450913C04B9016F5F7F4F7093370400
:104CC00060933604249EF001259EF00D1124E20F1E
:104CD000F31FED5BFB4F8083AFCC6E960FB6F8945D
:104CE000DEBF0FBECDBFDF91CF911F910F91FF901F
:104CF000EF90DF90CF90BF90AF909F908F907F907C
:104D00006F905F904F903F902F9008952F923F9219
:104D10004F925F926F927F928F929F92AF92BF92CB
:104D2000CF92DF92EF92FF920F931F93CF93DF9377
:104D3000CDB7DEB7C25AD1090FB6F894DEBF0FBEA9
:104D4000CDBF87E40E94CE1D882311F40C946B32F2
:104D50000E94BA1D0E94F2C76C31710509F4C6C0E9
:104D60009CF46230710509F44FC024F477FF43C00E
:104D70000C946E436330710509F44EC064307105C4
:104D800009F454C00C946E436A35710511F40C9407
:104D900000322CF56D31710509F443C46E31710593
:104DA00011F00C946E430E94A87E0E94921680918E
:104DB0003F0190914001A0914101B0914201809347
:104DC000210190932201A0932301B09324010E941A
:104DD0005F17EDE1F6E064918F010C949A316B3529
:104DE000710511F40C9404326C35710511F40C94B6
:104DF00009320C946E4380912104811105C00E94F8
:104E0000201E5DD80C94204580912104811104C09E
:104E10000E949F1E81E007C080912104811106C07D
:104E20000E949F1E80E04FD90C94204584EB96E0B1
:104E30000E94149C80E50E94CE1D882339F00E94B8
:104E4000BA1D0E94F7C76B017C0103C0C12CD12C95
:104E5000760183E50E94CE1D882361F00E94BA1D71
:104E600020E030E04AE754E40E9458CA0E94F7C7A5
:104E70006B017C010E94A87E0FB6F89480905111BE
:104E800090905211A0905311B09054110FBE8C0C01
:104E90009D1CAE1CBF1C0FB6F894809151119091CF
:104EA0005211A0915311B09154110FBE80932F0451
:104EB00090933004A0933104B09332040FB6F89469
:104EC0008091511190915211A0915311B0915411B0
:104ED0000FBE88159905AA05BB0510F00C946E430A
:104EE0000E940883DED90E94329DE8CF87E591E0D9
:104EF0000E9467B48091210190912201A091230129
:104F0000B09124018093D0059093D105A093D20550
:104F1000B093D305809135019091360190932D0681
:104F200080932C0684E690E09093360180933501BF
:104F30000FB6F8948091511190915211A091531194
:104F4000B09154110FBE80932F0490933004A0931E
:104F50003104B093320481E00E94117880911C06E4
:104F600090911D06A0911E06B0911F068093E40546
:104F70009093E505A093E605B093E70580912006A0
:104F800090912106A0912206B09123068093E80516
:104F90009093E905A093EA05B093EB058091240670
:104FA00090912506A0912606B09127068093EC05E6
:104FB0009093ED05A093EE05B093EF058091280640
:104FC00090912906A0912A06B0912B068093F005B6
:104FD0009093F105A093F205B093F305109221018F
:104FE00010922201109223011092240188E50E9460
:104FF000CE1D882311F090E00AC089E50E94CE1DE5
:105000008111F9CF8AE50E94CE1D91E098279093F7
:10501000250191110C94714388E50E94CE1D8111E8
:105020000C9471438091250181110C94774389E59B
:105030000E94CE1D81110C94774388E50E94CE1DFD
:105040008823D1F00E94C31D672B682B692BA1F028
:105050000E94BA1D2091100630911106409112064F
:10506000509113060E94AAC660931C0670931D06F9
:1050700080931E0690931F0689E50E94CE1D88230B
:10508000D1F00E94C31D672B682B692BA1F00E94F1
:10509000BA1D2091140630911506409116065091C4
:1050A00017060E94AAC6609320067093210680937B
:1050B00022069093230680912501882309F41CC1C0
:1050C0002091FF03309100044091010450910204AB
:1050D0006091100170911101809112019091130162
:1050E0000E94A9C620E030E040E05FE30E9458CA79
:1050F0002091040130910501409106015091070172
:105100000E94A9C66B017C0120E030E0A9010E9449
:1051100086C920E030E040E05FE387FD05C0C701BD
:10512000B6010E94AAC604C0C701B6010E94A9C662
:105130000E94F2C70E9425C86093E4057093E505BC
:105140008093E6059093E7052091030430910404D1
:10515000409105045091060460911401709115016D
:1051600080911601909117010E94A9C620E030E0BD
:1051700040E05FE30E9458CA209108013091090184
:1051800040910A0150910B010E94A9C66B017C015C
:1051900020E030E0A9010E9486C920E030E040E034
:1051A0005FE387FD05C0C701B6010E94AAC604C01F
:1051B000C701B6010E94A9C60E94F2C70E9425C875
:1051C0006093E8057093E9058093EA059093EB05F9
:1051D000ECE1F9E064910CEF6002B0011124882742
:1051E00077FD8095982F0E9425C86093EC057093F9
:1051F000ED058093EE059093EF0580E090E4ACE937
:10520000B5E48093210190932201A0932301B093F0
:105210002401109224061092250610922606109260
:1052200027062091200630912106409122065091B8
:10523000230660911C0670911D0680911E069091B8
:105240001F06F8E2CF2EF6E0DF2EE12CF12C8701CD
:105250000E94A5758090210190902201A0902301C9
:10526000B0902401E090EC05F090ED050091EE0582
:105270001091EF052091E8053091E9054091EA058C
:105280005091EB056091E4057091E5058091E6058C
:105290009091E705E0E0F6E0FF93EF93A0EFCA2ED0
:1052A000A5E0DA2E0E943A6B0E94A87E8091E40568
:1052B0009091E505A091E605B091E70580931C0665
:1052C00090931D06A0931E06B0931F068091E805DB
:1052D0009091E905A091EA05B091EB058093200635
:1052E00090932106A0932206B093230682E090E0DB
:1052F0000E946E180F900F908AE50E94CE1D8823A1
:1053000009F415C180910106882309F4C6C0809173
:105310000206882309F4C1C080901C0690901D06E7
:10532000A0901E06B0901F06209104013091050147
:105330004091060150910701C501B4010E94AAC61F
:105340006B017C0120910406309105064091060610
:10535000509107060E9486C987FDC7C0209127018A
:10536000309128014091290150912A01C701B601CD
:105370000E9483C718160CF4B8C0409020065090C5
:10538000210660902206709023062091080130913A
:10539000090140910A0150910B01C301B2010E9421
:1053A000AAC66B017C012091080630910906409144
:1053B0000A0650910B060E9486C987FD96C020916F
:1053C0002B0130912C0140912D0150912E01C701EC
:1053D000B6010E9483C718160CF487C010922406E9
:1053E000109225061092260610922706B8E2CB2EC0
:1053F000B6E0DB2EE12CF12C8701A3019201C5015F
:10540000B4010E94A575ECE1F9E064911CEF610222
:10541000B0011124882777FD8095982F0E9425C818
:105420007B018C016093EC057093ED058093EE0594
:105430009093EF0580900F1090901010A090111095
:10544000B09012108092210190922201A09223012B
:10545000B09224012091E8053091E9054091EA05D8
:105460005091EB056091E4057091E5058091E605AA
:105470009091E705E0E0F6E0FF93EF93E0EFCE2EAA
:10548000E5E0DE2E0E943A6B0E94A87E82E090E06A
:105490000E946E180F900F904AC082EA96E00E9418
:1054A000149CE9E2F9E064918F01662349F08CE5F0
:1054B00091E10E947C0E0F5F1F4FF8016491F5CFC0
:1054C000E0E9F6E064918F01662349F08CE591E113
:1054D0000E947C0E0F5F1F4FF8016491F5CF6AE0C8
:1054E0008CE591E10E947C0E22C08DE796E00E943F
:1054F000149CE9E2F9E064918F01662349F08CE5A0
:1055000091E10E947C0E0F5F1F4FF8016491F5CF6F
:10551000EAE6F6E064918F01662309F38CE591E1F8
:105520000E947C0E0F5F1F4FF8016491F5CF8AE552
:105530000E94CE1D8823D1F00E94C31D672B682BCB
:10554000692BA1F00E94BA1D20911806309119060E
:1055500040911A0650911B060E94AAC66093240629
:105560007093250680932606909327068091250147
:1055700081110C947D438AE50E94CE1D81110C940B
:105580007D43E0902406F0902506009126061091B8
:105590002706209120063091210640912206509145
:1055A000230660911C0670911D0680911E06909145
:1055B0001F06A8E2CA2EA6E0DA2E0E94A57580E09A
:1055C0000E9411788091D0059091D105A091D205CB
:1055D000B091D3058093210190932201A0932301E0
:1055E000B093240180912C0690912D069093360162
:1055F000809335010FB6F89480915111909152111A
:10560000A0915311B09154110FBE80932F04909329
:105610003004A0933104B09332040E9406780C94B5
:105620006E430E94A87E87E591E00E9467B4CE0198
:1056300085599F4F0E942E75AF966CAD7DAD8EAD96
:105640009FADAF9760931C0670931D0680931E0656
:1056500090931F06E3962CAD3DAD4EAD5FADE39745
:105660002093200630932106409322065093230670
:10567000E796ECACFDAC0EAD1FADE797E0922406CB
:10568000F09225060093260610932706E8E2CE2E18
:10569000E6E0DE2E0E94A5750E94921680913F01E1
:1056A00090914001A0914101B0914201809321016C
:1056B00090932201A0932301B0932401209120060E
:1056C00030912106409122065091230660911C06DC
:1056D00070911D0680911E0690911F06E12CF12C01
:1056E00000EA10E40E94F516C0902406D09025062A
:1056F000E0902606F090270680900801909009011E
:10570000A0900A01B0900B0120E030E040E251ECA3
:10571000C501B4010E9486C920910304309104049C
:10572000409105045091060487FD11C06091140159
:105730007091150180911601909117010E94A9C6E0
:1057400020E030E040E251E40E94A9C60EC0609122
:1057500014017091150180911601909117010E941A
:10576000A9C6A50194010E94AAC6A50194010E94A0
:10577000A9C64B015C016090040170900501009185
:1057800006011091070120E030E040E251E4B3014E
:10579000C8010E9483C718162CF0F0E0E0E0B0E2E8
:1057A000A1E404C0F62DE72DB02FA12F9301A8018D
:1057B0006F2F7E2F8B2F9A2F0E94A9C6870176010B
:1057C000A50194010E94F5160E945F1740902406DF
:1057D000509025066090260670902706E2E6F6E0D7
:1057E00064918F01662349F08CE591E10E947C0E63
:1057F0000F5F1F4FF8016491F5CFE0900401F09026
:105800000501009106011091070120E030E040E21F
:1058100051E4B701C8010E9483C7181624F0E12C97
:10582000F12C00E211E422E030E0A701B8018CE5A0
:1058300091E10E94C21AEDE5F6E064918F016623C2
:1058400049F08CE591E10E947C0E0F5F1F4FF8013B
:105850006491F5CFC0900801D0900901E0900A0151
:10586000F0900B0120E030E040E251ECC701B601BE
:105870000E9486C9209103043091040440910504DC
:105880005091060487FD11C06091140170911501BB
:1058900080911601909117010E94A9C620E030E086
:1058A00040E251E40E94A9C60EC0609114017091BB
:1058B000150180911601909117010E94A9C6A701B8
:1058C00096010E94AAC622E030E0AB01BC018CE543
:1058D00091E10E94C21AE8E5F6E064918F01662327
:1058E00049F08CE591E10E947C0E0F5F1F4FF8019B
:1058F0006491F5CF409124065091250660912606CB
:105900007091270622E030E08CE591E10E94C21AF6
:10591000E6E5F6E064918F01662349F08CE591E1BC
:105920000E947C0E0F5F1F4FF8016491F5CF20E0BD
:1059300030E040EA50E460912406709125068091A1
:105940002606909127060E94AAC67B018C01209111
:105950002006309121064091220650912306609145
:105960001C0670911D0680911E0690911F060E94D4
:10597000F516C0902406D0902506E0902606F090FB
:105980002706A0900801B090090100910A0110912A
:105990000B0120E030E040E251E4B501C8010E9473
:1059A00083C718162CF0B0E0A0E0F0E2E1E404C0F8
:1059B000BA2DAB2DF02FE12F9501A8016B2F7A2F77
:1059C0008F2F9E2F0E94A9C64B015C0120900401DD
:1059D00030900501009106011091070120E030E0B0
:1059E00040E251E4B101C8010E9483C718162CF0AF
:1059F000B0E0A0E0F0E2E1E404C0B22DA32DF02F6E
:105A0000E12F9101A8016B2F7A2F8F2F9E2F0E94DB
:105A1000A9C687017601A50194010E94F5160E948E
:105A20005F170091240610912506209126063091DB
:105A30002706C556DF4F088319832A833B83CB593A
:105A4000D040EEE4F6E064918F01662349F08CE5E6
:105A500091E10E947C0E0F5F1F4FF8016491F5CF1A
:105A6000E0900401F09005010091060110910701FA
:105A700020E030E040E251E4B701C8010E9483C752
:105A8000181624F0E12CF12C00E211E422E030E0C1
:105A9000A701B8018CE591E10E94C21AE9E4F6E0A1
:105AA00064918F01662349F08CE591E10E947C0EA0
:105AB0000F5F1F4FF8016491F5CFE0900801F0905F
:105AC000090100910A0110910B0120E030E040E251
:105AD00051E4B701C8010E9483C7181624F0E12CD5
